{
	"data": {
		"bytecode": {
			"linkReferences": {},
			"object": "6080604052600060045567033662be39409000600755620151806008553480156200002957600080fd5b506040516200192b3803806200192b8339810160408190526200004c91620000d4565b804210620000775760405162461bcd60e51b81526004016200006e906200010e565b60405180910390fd5b6001600160a01b03821615620000a357600180546001600160a01b0319166001600160a01b0384161790555b6005819055600854620000b790826200012c565b6006555050600080546001600160a01b0319163317905562000151565b60008060408385031215620000e7578182fd5b82516001600160a01b0381168114620000fe578283fd5b6020939093015192949293505050565b6020808252600490820152636c61746560e01b604082015260600190565b600082198211156200014c57634e487b7160e01b81526011600452602481fd5b500190565b6117ca80620001616000396000f3fe608060405234801561001057600080fd5b50600436106101375760003560e01c8063570ca735116100b8578063943f013d1161007c578063943f013d1461025b57806394dfcb3a1461026357806396805e541461026b578063b3ab15fb1461027e578063b3ff985a14610291578063e2bbb1581461029957610137565b8063570ca7351461020d5780635f96dc1114610222578063630b5ba11461022a5780636e271dd51461023257806393f1a40b1461023a57610137565b8063346d562b116100ff578063346d562b146101ae578063441a3e70146101c157806351eb05a6146101d45780635312ea8e146101e757806354575af4146101fa57610137565b806309cf60911461013c5780631526fe271461015a57806317caf6f11461017e5780631ab06ee514610186578063231f0c6a1461019b575b600080fd5b6101446102ac565b604051610151919061168f565b60405180910390f35b61016d610168366004611330565b6102ba565b604051610151959493929190611464565b610144610308565b6101996101943660046113d6565b61030e565b005b6101446101a93660046113d6565b6103ba565b6101446101bc366004611360565b61047f565b6101996101cf3660046113d6565b610608565b6101996101e2366004611330565b6107aa565b6101996101f5366004611330565b610926565b6101996102083660046112ef565b6109e1565b610215610aee565b6040516101519190611413565b610144610afd565b610199610b03565b610144610b2e565b61024d610248366004611360565b610b34565b604051610151929190611698565b610144610b58565b610215610b5e565b61019961027936600461138f565b610b6d565b61019961028c3660046112b7565b610d4b565b610144610d97565b6101996102a73660046113d6565b610d9d565b69043c33c193756480000081565b600281815481106102ca57600080fd5b6000918252602090912060059091020180546001820154600283015460038401546004909401546001600160a01b0390931694509092909160ff1685565b60045481565b6000546001600160a01b031633146103415760405162461bcd60e51b8152600401610338906114c7565b60405180910390fd5b610349610b03565b60006002838154811061036c57634e487b7160e01b600052603260045260246000fd5b60009182526020909120600590910201600481015490915060ff16156103b3576103af826103a98360010154600454610f2890919063ffffffff16565b90610f3b565b6004555b6001015550565b60008183106103cb57506000610479565b60065482106104335760065483106103e557506000610479565b60055483116104185761041160075461040b600554600654610f2890919063ffffffff16565b90610f47565b9050610479565b61041160075461040b85600654610f2890919063ffffffff16565b600554821161044457506000610479565b60055483116104685761041160075461040b60055485610f2890919063ffffffff16565b6007546104119061040b8486610f28565b92915050565b600080600284815481106104a357634e487b7160e01b600052603260045260246000fd5b60009182526020808320878452600380835260408086206001600160a01b03808b1688529452808620600590950290920190810154815492516370a0823160e01b815291965093949291909116906370a0823190610505903090600401611413565b60206040518083038186803b15801561051d57600080fd5b505afa158015610531573d6000803e3d6000fd5b505050506040513d601f19601f820116820180604052508101906105559190611348565b905083600201544211801561056957508015155b156105cc57600061057e8560020154426103ba565b905060006105a560045461059f886001015485610f4790919063ffffffff16565b90610f53565b90506105c76105c08461059f84670de0b6b3a7640000610f47565b8590610f3b565b935050505b6105fd83600101546105f7670de0b6b3a764000061059f868860000154610f4790919063ffffffff16565b90610f28565b979650505050505050565b600033905060006002848154811061063057634e487b7160e01b600052603260045260246000fd5b600091825260208083208784526003825260408085206001600160a01b038816865290925292208054600590920290920192508411156106825760405162461bcd60e51b8152600401610338906115b6565b61068b856107aa565b60006106bc82600101546105f7670de0b6b3a764000061059f87600301548760000154610f4790919063ffffffff16565b90508015610710576106ce8482610f5f565b836001600160a01b03167fe2403640ba68fed3a2f88b7557551d1993f84b99bb10ff833f0cf8db0c5e048682604051610707919061168f565b60405180910390a25b841561073a5781546107229086610f28565b8255825461073a906001600160a01b0316858761101f565b6003830154825461075891670de0b6b3a76400009161059f91610f47565b826001018190555085846001600160a01b03167ff279e6a1f5e320cca91135676d9cb6e44ca8a08c0b88342bcdb1144f6511b5688760405161079a919061168f565b60405180910390a3505050505050565b6000600282815481106107cd57634e487b7160e01b600052603260045260246000fd5b90600052602060002090600502019050806002015442116107ee5750610923565b80546040516370a0823160e01b81526000916001600160a01b0316906370a082319061081e903090600401611413565b60206040518083038186803b15801561083657600080fd5b505afa15801561084a573d6000803e3d6000fd5b505050506040513d601f19601f8201168201806040525081019061086e9190611348565b905080610882575042600290910155610923565b600482015460ff166108b3576004808301805460ff1916600190811790915583015490546108af91610f3b565b6004555b6004541561091a5760006108cb8360020154426103ba565b905060006108ec60045461059f866001015485610f4790919063ffffffff16565b90506109126109078461059f84670de0b6b3a7640000610f47565b600386015490610f3b565b600385015550505b50426002909101555b50565b60006002828154811061094957634e487b7160e01b600052603260045260246000fd5b600091825260208083208584526003825260408085203380875293528420805485825560018201959095556005909302018054909450919291610999916001600160a01b0391909116908361101f565b83336001600160a01b03167fbb757047c2b5f3974fe26b7c10f732e7bce710b0952a71082702781e62ae0595836040516109d3919061168f565b60405180910390a350505050565b6000546001600160a01b03163314610a0b5760405162461bcd60e51b8152600401610338906114c7565b600654610a1b906276a7006116a6565b421015610ad5576001546001600160a01b0384811691161415610a505760405162461bcd60e51b81526004016103389061162c565b60025460005b81811015610ad257600060028281548110610a8157634e487b7160e01b600052603260045260246000fd5b6000918252602090912060059091020180549091506001600160a01b0387811691161415610ac15760405162461bcd60e51b81526004016103389061155b565b50610acb81611740565b9050610a56565b50505b610ae96001600160a01b038416828461101f565b505050565b6000546001600160a01b031681565b60055481565b60025460005b81811015610b2a57610b1a816107aa565b610b2381611740565b9050610b09565b5050565b60065481565b60036020908152600092835260408084209091529082529020805460019091015482565b60085481565b6001546001600160a01b031681565b6000546001600160a01b03163314610b975760405162461bcd60e51b8152600401610338906114c7565b610ba083611075565b8115610bae57610bae610b03565b600554421015610bda5780610bc65750600554610bd5565b600554811015610bd557506005545b610bee565b801580610be657504281105b15610bee5750425b600060055482111580610c015750428211155b6040805160a0810182526001600160a01b03878116825260208201898152928201868152600060608401818152861580156080870190815260028054600181018255945295517f405787fa12a823e0f2b7631cc41b3ba8828b3321ca811111fa75cd3aa3bb5ace600590940293840180546001600160a01b031916919096161790945594517f405787fa12a823e0f2b7631cc41b3ba8828b3321ca811111fa75cd3aa3bb5acf82015590517f405787fa12a823e0f2b7631cc41b3ba8828b3321ca811111fa75cd3aa3bb5ad082015592517f405787fa12a823e0f2b7631cc41b3ba8828b3321ca811111fa75cd3aa3bb5ad184015590517f405787fa12a823e0f2b7631cc41b3ba8828b3321ca811111fa75cd3aa3bb5ad2909201805460ff191692151592909217909155909150610d4457600454610d409086610f3b565b6004555b5050505050565b6000546001600160a01b03163314610d755760405162461bcd60e51b8152600401610338906114c7565b600080546001600160a01b0319166001600160a01b0392909216919091179055565b60075481565b6000339050600060028481548110610dc557634e487b7160e01b600052603260045260246000fd5b600091825260208083208784526003825260408085206001600160a01b0388168652909252922060059091029091019150610dff856107aa565b805415610e8d576000610e3782600101546105f7670de0b6b3a764000061059f87600301548760000154610f4790919063ffffffff16565b90508015610e8b57610e498482610f5f565b836001600160a01b03167fe2403640ba68fed3a2f88b7557551d1993f84b99bb10ff833f0cf8db0c5e048682604051610e82919061168f565b60405180910390a25b505b8315610eb9578154610eaa906001600160a01b03168430876110f6565b8054610eb69085610f3b565b81555b60038201548154610ed791670de0b6b3a76400009161059f91610f47565b816001018190555084836001600160a01b03167f90890809c654f11d6e72a28fa60149770a0d11ec6c92319d6ceb2bb0a4ea1a1586604051610f19919061168f565b60405180910390a35050505050565b6000610f3482846116fd565b9392505050565b6000610f3482846116a6565b6000610f3482846116de565b6000610f3482846116be565b6001546040516370a0823160e01b81526000916001600160a01b0316906370a0823190610f90903090600401611413565b60206040518083038186803b158015610fa857600080fd5b505afa158015610fbc573d6000803e3d6000fd5b505050506040513d601f19601f82011682018060405250810190610fe09190611348565b90508015610ae9578082111561100c57600154611007906001600160a01b0316848361101f565b610ae9565b600154610ae9906001600160a01b031684845b610ae98363a9059cbb60e01b848460405160240161103e92919061144b565b60408051601f198184030181529190526020810180516001600160e01b03166001600160e01b03199093169290921790915261111d565b60025460005b81811015610ae957826001600160a01b0316600282815481106110ae57634e487b7160e01b600052603260045260246000fd5b60009182526020909120600590910201546001600160a01b031614156110e65760405162461bcd60e51b81526004016103389061164d565b6110ef81611740565b905061107b565b611117846323b872dd60e01b85858560405160240161103e93929190611427565b50505050565b6000611172826040518060400160405280602081526020017f5361666545524332303a206c6f772d6c6576656c2063616c6c206661696c6564815250856001600160a01b03166111ac9092919063ffffffff16565b805190915015610ae9578080602001905181019061119091906112d3565b610ae95760405162461bcd60e51b8152600401610338906115e2565b60606111bb84846000856111c3565b949350505050565b6060824710156111e55760405162461bcd60e51b815260040161033890611515565b6111ee85611278565b61120a5760405162461bcd60e51b81526004016103389061157f565b600080866001600160a01b0316858760405161122691906113f7565b60006040518083038185875af1925050503d8060008114611263576040519150601f19603f3d011682016040523d82523d6000602084013e611268565b606091505b50915091506105fd82828661127e565b3b151590565b6060831561128d575081610f34565b82511561129d5782518084602001fd5b8160405162461bcd60e51b81526004016103389190611494565b6000602082840312156112c8578081fd5b8135610f3481611771565b6000602082840312156112e4578081fd5b8151610f3481611786565b600080600060608486031215611303578182fd5b833561130e81611771565b925060208401359150604084013561132581611771565b809150509250925092565b600060208284031215611341578081fd5b5035919050565b600060208284031215611359578081fd5b5051919050565b60008060408385031215611372578182fd5b82359150602083013561138481611771565b809150509250929050565b600080600080608085870312156113a4578081fd5b8435935060208501356113b681611771565b925060408501356113c681611786565b9396929550929360600135925050565b600080604083850312156113e8578182fd5b50508035926020909101359150565b60008251611409818460208701611714565b9190910192915050565b6001600160a01b0391909116815260200190565b6001600160a01b039384168152919092166020820152604081019190915260600190565b6001600160a01b03929092168252602082015260400190565b6001600160a01b039590951685526020850193909352604084019190915260608301521515608082015260a00190565b60006020825282518060208401526114b3816040850160208701611714565b601f01601f19169190910160400192915050565b6020808252602e908201527f5370656374657247656e65736973506f6f6c3a2063616c6c6572206973206e6f60408201526d3a103a34329037b832b930ba37b960911b606082015260800190565b60208082526026908201527f416464726573733a20696e73756666696369656e742062616c616e636520666f6040820152651c8818d85b1b60d21b606082015260800190565b6020808252600a90820152693837b7b6173a37b5b2b760b11b604082015260600190565b6020808252601d908201527f416464726573733a2063616c6c20746f206e6f6e2d636f6e7472616374000000604082015260600190565b6020808252601290820152711dda5d1a191c985dce881b9bdd0819dbdbd960721b604082015260600190565b6020808252602a908201527f5361666545524332303a204552433230206f7065726174696f6e20646964206e6040820152691bdd081cdd58d8d9595960b21b606082015260800190565b60208082526007908201526639b832b1ba32b960c91b604082015260600190565b60208082526022908201527f5370656374657247656e65736973506f6f6c3a206578697374696e6720706f6f6040820152616c3f60f01b606082015260800190565b90815260200190565b918252602082015260400190565b600082198211156116b9576116b961175b565b500190565b6000826116d957634e487b7160e01b81526012600452602481fd5b500490565b60008160001904831182151516156116f8576116f861175b565b500290565b60008282101561170f5761170f61175b565b500390565b60005b8381101561172f578181015183820152602001611717565b838111156111175750506000910152565b60006000198214156117545761175461175b565b5060010190565b634e487b7160e01b600052601160045260246000fd5b6001600160a01b038116811461092357600080fd5b801515811461092357600080fdfea2646970667358221220dd33aa4d6e683651d0dcfeeab9ad70bd05ccd8e76d884dbf4be3fe3bc06b884164736f6c63430008000033",
			"opcodes": "PUSH1 0x80 PUSH1 0x40 MSTORE PUSH1 0x0 PUSH1 0x4 SSTORE PUSH8 0x33662BE39409000 PUSH1 0x7 SSTORE PUSH3 0x15180 PUSH1 0x8 SSTORE CALLVALUE DUP1 ISZERO PUSH3 0x29 JUMPI PUSH1 0x0 DUP1 REVERT JUMPDEST POP PUSH1 0x40 MLOAD PUSH3 0x192B CODESIZE SUB DUP1 PUSH3 0x192B DUP4 CODECOPY DUP2 ADD PUSH1 0x40 DUP2 SWAP1 MSTORE PUSH3 0x4C SWAP2 PUSH3 0xD4 JUMP JUMPDEST DUP1 TIMESTAMP LT PUSH3 0x77 JUMPI PUSH1 0x40 MLOAD PUSH3 0x461BCD PUSH1 0xE5 SHL DUP2 MSTORE PUSH1 0x4 ADD PUSH3 0x6E SWAP1 PUSH3 0x10E JUMP JUMPDEST PUSH1 0x40 MLOAD DUP1 SWAP2 SUB SWAP1 REVERT JUMPDEST PUSH1 0x1 PUSH1 0x1 PUSH1 0xA0 SHL SUB DUP3 AND ISZERO PUSH3 0xA3 JUMPI PUSH1 0x1 DUP1 SLOAD PUSH1 0x1 PUSH1 0x1 PUSH1 0xA0 SHL SUB NOT AND PUSH1 0x1 PUSH1 0x1 PUSH1 0xA0 SHL SUB DUP5 AND OR SWAP1 SSTORE JUMPDEST PUSH1 0x5 DUP2 SWAP1 SSTORE PUSH1 0x8 SLOAD PUSH3 0xB7 SWAP1 DUP3 PUSH3 0x12C JUMP JUMPDEST PUSH1 0x6 SSTORE POP POP PUSH1 0x0 DUP1 SLOAD PUSH1 0x1 PUSH1 0x1 PUSH1 0xA0 SHL SUB NOT AND CALLER OR SWAP1 SSTORE PUSH3 0x151 JUMP JUMPDEST PUSH1 0x0 DUP1 PUSH1 0x40 DUP4 DUP6 SUB SLT ISZERO PUSH3 0xE7 JUMPI DUP2 DUP3 REVERT JUMPDEST DUP3 MLOAD PUSH1 0x1 PUSH1 0x1 PUSH1 0xA0 SHL SUB DUP2 AND DUP2 EQ PUSH3 0xFE JUMPI DUP3 DUP4 REVERT JUMPDEST PUSH1 0x20 SWAP4 SWAP1 SWAP4 ADD MLOAD SWAP3 SWAP5 SWAP3 SWAP4 POP POP POP JUMP JUMPDEST PUSH1 0x20 DUP1 DUP3 MSTORE PUSH1 0x4 SWAP1 DUP3 ADD MSTORE PUSH4 0x6C617465 PUSH1 0xE0 SHL PUSH1 0x40 DUP3 ADD MSTORE PUSH1 0x60 ADD SWAP1 JUMP JUMPDEST PUSH1 0x0 DUP3 NOT DUP3 GT ISZERO PUSH3 0x14C JUMPI PUSH4 0x4E487B71 PUSH1 0xE0 SHL DUP2 MSTORE PUSH1 0x11 PUSH1 0x4 MSTORE PUSH1 0x24 DUP2 REVERT JUMPDEST POP ADD SWAP1 JUMP JUMPDEST PUSH2 0x17CA DUP1 PUSH3 0x161 PUSH1 0x0 CODECOPY PUSH1 0x0 RETURN INVALID PUSH1 0x80 PUSH1 0x40 MSTORE CALLVALUE DUP1 ISZERO PUSH2 0x10 JUMPI PUSH1 0x0 DUP1 REVERT JUMPDEST POP PUSH1 0x4 CALLDATASIZE LT PUSH2 0x137 JUMPI PUSH1 0x0 CALLDATALOAD PUSH1 0xE0 SHR DUP1 PUSH4 0x570CA735 GT PUSH2 0xB8 JUMPI DUP1 PUSH4 0x943F013D GT PUSH2 0x7C JUMPI DUP1 PUSH4 0x943F013D EQ PUSH2 0x25B JUMPI DUP1 PUSH4 0x94DFCB3A EQ PUSH2 0x263 JUMPI DUP1 PUSH4 0x96805E54 EQ PUSH2 0x26B JUMPI DUP1 PUSH4 0xB3AB15FB EQ PUSH2 0x27E JUMPI DUP1 PUSH4 0xB3FF985A EQ PUSH2 0x291 JUMPI DUP1 PUSH4 0xE2BBB158 EQ PUSH2 0x299 JUMPI PUSH2 0x137 JUMP JUMPDEST DUP1 PUSH4 0x570CA735 EQ PUSH2 0x20D JUMPI DUP1 PUSH4 0x5F96DC11 EQ PUSH2 0x222 JUMPI DUP1 PUSH4 0x630B5BA1 EQ PUSH2 0x22A JUMPI DUP1 PUSH4 0x6E271DD5 EQ PUSH2 0x232 JUMPI DUP1 PUSH4 0x93F1A40B EQ PUSH2 0x23A JUMPI PUSH2 0x137 JUMP JUMPDEST DUP1 PUSH4 0x346D562B GT PUSH2 0xFF JUMPI DUP1 PUSH4 0x346D562B EQ PUSH2 0x1AE JUMPI DUP1 PUSH4 0x441A3E70 EQ PUSH2 0x1C1 JUMPI DUP1 PUSH4 0x51EB05A6 EQ PUSH2 0x1D4 JUMPI DUP1 PUSH4 0x5312EA8E EQ PUSH2 0x1E7 JUMPI DUP1 PUSH4 0x54575AF4 EQ PUSH2 0x1FA JUMPI PUSH2 0x137 JUMP JUMPDEST DUP1 PUSH4 0x9CF6091 EQ PUSH2 0x13C JUMPI DUP1 PUSH4 0x1526FE27 EQ PUSH2 0x15A JUMPI DUP1 PUSH4 0x17CAF6F1 EQ PUSH2 0x17E JUMPI DUP1 PUSH4 0x1AB06EE5 EQ PUSH2 0x186 JUMPI DUP1 PUSH4 0x231F0C6A EQ PUSH2 0x19B JUMPI JUMPDEST PUSH1 0x0 DUP1 REVERT JUMPDEST PUSH2 0x144 PUSH2 0x2AC JUMP JUMPDEST PUSH1 0x40 MLOAD PUSH2 0x151 SWAP2 SWAP1 PUSH2 0x168F JUMP JUMPDEST PUSH1 0x40 MLOAD DUP1 SWAP2 SUB SWAP1 RETURN JUMPDEST PUSH2 0x16D PUSH2 0x168 CALLDATASIZE PUSH1 0x4 PUSH2 0x1330 JUMP JUMPDEST PUSH2 0x2BA JUMP JUMPDEST PUSH1 0x40 MLOAD PUSH2 0x151 SWAP6 SWAP5 SWAP4 SWAP3 SWAP2 SWAP1 PUSH2 0x1464 JUMP JUMPDEST PUSH2 0x144 PUSH2 0x308 JUMP JUMPDEST PUSH2 0x199 PUSH2 0x194 CALLDATASIZE PUSH1 0x4 PUSH2 0x13D6 JUMP JUMPDEST PUSH2 0x30E JUMP JUMPDEST STOP JUMPDEST PUSH2 0x144 PUSH2 0x1A9 CALLDATASIZE PUSH1 0x4 PUSH2 0x13D6 JUMP JUMPDEST PUSH2 0x3BA JUMP JUMPDEST PUSH2 0x144 PUSH2 0x1BC CALLDATASIZE PUSH1 0x4 PUSH2 0x1360 JUMP JUMPDEST PUSH2 0x47F JUMP JUMPDEST PUSH2 0x199 PUSH2 0x1CF CALLDATASIZE PUSH1 0x4 PUSH2 0x13D6 JUMP JUMPDEST PUSH2 0x608 JUMP JUMPDEST PUSH2 0x199 PUSH2 0x1E2 CALLDATASIZE PUSH1 0x4 PUSH2 0x1330 JUMP JUMPDEST PUSH2 0x7AA JUMP JUMPDEST PUSH2 0x199 PUSH2 0x1F5 CALLDATASIZE PUSH1 0x4 PUSH2 0x1330 JUMP JUMPDEST PUSH2 0x926 JUMP JUMPDEST PUSH2 0x199 PUSH2 0x208 CALLDATASIZE PUSH1 0x4 PUSH2 0x12EF JUMP JUMPDEST PUSH2 0x9E1 JUMP JUMPDEST PUSH2 0x215 PUSH2 0xAEE JUMP JUMPDEST PUSH1 0x40 MLOAD PUSH2 0x151 SWAP2 SWAP1 PUSH2 0x1413 JUMP JUMPDEST PUSH2 0x144 PUSH2 0xAFD JUMP JUMPDEST PUSH2 0x199 PUSH2 0xB03 JUMP JUMPDEST PUSH2 0x144 PUSH2 0xB2E JUMP JUMPDEST PUSH2 0x24D PUSH2 0x248 CALLDATASIZE PUSH1 0x4 PUSH2 0x1360 JUMP JUMPDEST PUSH2 0xB34 JUMP JUMPDEST PUSH1 0x40 MLOAD PUSH2 0x151 SWAP3 SWAP2 SWAP1 PUSH2 0x1698 JUMP JUMPDEST PUSH2 0x144 PUSH2 0xB58 JUMP JUMPDEST PUSH2 0x215 PUSH2 0xB5E JUMP JUMPDEST PUSH2 0x199 PUSH2 0x279 CALLDATASIZE PUSH1 0x4 PUSH2 0x138F JUMP JUMPDEST PUSH2 0xB6D JUMP JUMPDEST PUSH2 0x199 PUSH2 0x28C CALLDATASIZE PUSH1 0x4 PUSH2 0x12B7 JUMP JUMPDEST PUSH2 0xD4B JUMP JUMPDEST PUSH2 0x144 PUSH2 0xD97 JUMP JUMPDEST PUSH2 0x199 PUSH2 0x2A7 CALLDATASIZE PUSH1 0x4 PUSH2 0x13D6 JUMP JUMPDEST PUSH2 0xD9D JUMP JUMPDEST PUSH10 0x43C33C1937564800000 DUP2 JUMP JUMPDEST PUSH1 0x2 DUP2 DUP2 SLOAD DUP2 LT PUSH2 0x2CA JUMPI PUSH1 0x0 DUP1 REVERT JUMPDEST PUSH1 0x0 SWAP2 DUP3 MSTORE PUSH1 0x20 SWAP1 SWAP2 KECCAK256 PUSH1 0x5 SWAP1 SWAP2 MUL ADD DUP1 SLOAD PUSH1 0x1 DUP3 ADD SLOAD PUSH1 0x2 DUP4 ADD SLOAD PUSH1 0x3 DUP5 ADD SLOAD PUSH1 0x4 SWAP1 SWAP5 ADD SLOAD PUSH1 0x1 PUSH1 0x1 PUSH1 0xA0 SHL SUB SWAP1 SWAP4 AND SWAP5 POP SWAP1 SWAP3 SWAP1 SWAP2 PUSH1 0xFF AND DUP6 JUMP JUMPDEST PUSH1 0x4 SLOAD DUP2 JUMP JUMPDEST PUSH1 0x0 SLOAD PUSH1 0x1 PUSH1 0x1 PUSH1 0xA0 SHL SUB AND CALLER EQ PUSH2 0x341 JUMPI PUSH1 0x40 MLOAD PUSH3 0x461BCD PUSH1 0xE5 SHL DUP2 MSTORE PUSH1 0x4 ADD PUSH2 0x338 SWAP1 PUSH2 0x14C7 JUMP JUMPDEST PUSH1 0x40 MLOAD DUP1 SWAP2 SUB SWAP1 REVERT JUMPDEST PUSH2 0x349 PUSH2 0xB03 JUMP JUMPDEST PUSH1 0x0 PUSH1 0x2 DUP4 DUP2 SLOAD DUP2 LT PUSH2 0x36C JUMPI PUSH4 0x4E487B71 PUSH1 0xE0 SHL PUSH1 0x0 MSTORE PUSH1 0x32 PUSH1 0x4 MSTORE PUSH1 0x24 PUSH1 0x0 REVERT JUMPDEST PUSH1 0x0 SWAP2 DUP3 MSTORE PUSH1 0x20 SWAP1 SWAP2 KECCAK256 PUSH1 0x5 SWAP1 SWAP2 MUL ADD PUSH1 0x4 DUP2 ADD SLOAD SWAP1 SWAP2 POP PUSH1 0xFF AND ISZERO PUSH2 0x3B3 JUMPI PUSH2 0x3AF DUP3 PUSH2 0x3A9 DUP4 PUSH1 0x1 ADD SLOAD PUSH1 0x4 SLOAD PUSH2 0xF28 SWAP1 SWAP2 SWAP1 PUSH4 0xFFFFFFFF AND JUMP JUMPDEST SWAP1 PUSH2 0xF3B JUMP JUMPDEST PUSH1 0x4 SSTORE JUMPDEST PUSH1 0x1 ADD SSTORE POP JUMP JUMPDEST PUSH1 0x0 DUP2 DUP4 LT PUSH2 0x3CB JUMPI POP PUSH1 0x0 PUSH2 0x479 JUMP JUMPDEST PUSH1 0x6 SLOAD DUP3 LT PUSH2 0x433 JUMPI PUSH1 0x6 SLOAD DUP4 LT PUSH2 0x3E5 JUMPI POP PUSH1 0x0 PUSH2 0x479 JUMP JUMPDEST PUSH1 0x5 SLOAD DUP4 GT PUSH2 0x418 JUMPI PUSH2 0x411 PUSH1 0x7 SLOAD PUSH2 0x40B PUSH1 0x5 SLOAD PUSH1 0x6 SLOAD PUSH2 0xF28 SWAP1 SWAP2 SWAP1 PUSH4 0xFFFFFFFF AND JUMP JUMPDEST SWAP1 PUSH2 0xF47 JUMP JUMPDEST SWAP1 POP PUSH2 0x479 JUMP JUMPDEST PUSH2 0x411 PUSH1 0x7 SLOAD PUSH2 0x40B DUP6 PUSH1 0x6 SLOAD PUSH2 0xF28 SWAP1 SWAP2 SWAP1 PUSH4 0xFFFFFFFF AND JUMP JUMPDEST PUSH1 0x5 SLOAD DUP3 GT PUSH2 0x444 JUMPI POP PUSH1 0x0 PUSH2 0x479 JUMP JUMPDEST PUSH1 0x5 SLOAD DUP4 GT PUSH2 0x468 JUMPI PUSH2 0x411 PUSH1 0x7 SLOAD PUSH2 0x40B PUSH1 0x5 SLOAD DUP6 PUSH2 0xF28 SWAP1 SWAP2 SWAP1 PUSH4 0xFFFFFFFF AND JUMP JUMPDEST PUSH1 0x7 SLOAD PUSH2 0x411 SWAP1 PUSH2 0x40B DUP5 DUP7 PUSH2 0xF28 JUMP JUMPDEST SWAP3 SWAP2 POP POP JUMP JUMPDEST PUSH1 0x0 DUP1 PUSH1 0x2 DUP5 DUP2 SLOAD DUP2 LT PUSH2 0x4A3 JUMPI PUSH4 0x4E487B71 PUSH1 0xE0 SHL PUSH1 0x0 MSTORE PUSH1 0x32 PUSH1 0x4 MSTORE PUSH1 0x24 PUSH1 0x0 REVERT JUMPDEST PUSH1 0x0 SWAP2 DUP3 MSTORE PUSH1 0x20 DUP1 DUP4 KECCAK256 DUP8 DUP5 MSTORE PUSH1 0x3 DUP1 DUP4 MSTORE PUSH1 0x40 DUP1 DUP7 KECCAK256 PUSH1 0x1 PUSH1 0x1 PUSH1 0xA0 SHL SUB DUP1 DUP12 AND DUP9 MSTORE SWAP5 MSTORE DUP1 DUP7 KECCAK256 PUSH1 0x5 SWAP1 SWAP6 MUL SWAP1 SWAP3 ADD SWAP1 DUP2 ADD SLOAD DUP2 SLOAD SWAP3 MLOAD PUSH4 0x70A08231 PUSH1 0xE0 SHL DUP2 MSTORE SWAP2 SWAP7 POP SWAP4 SWAP5 SWAP3 SWAP2 SWAP1 SWAP2 AND SWAP1 PUSH4 0x70A08231 SWAP1 PUSH2 0x505 SWAP1 ADDRESS SWAP1 PUSH1 0x4 ADD PUSH2 0x1413 JUMP JUMPDEST PUSH1 0x20 PUSH1 0x40 MLOAD DUP1 DUP4 SUB DUP2 DUP7 DUP1 EXTCODESIZE ISZERO DUP1 ISZERO PUSH2 0x51D JUMPI PUSH1 0x0 DUP1 REVERT JUMPDEST POP GAS STATICCALL ISZERO DUP1 ISZERO PUSH2 0x531 JUMPI RETURNDATASIZE PUSH1 0x0 DUP1 RETURNDATACOPY RETURNDATASIZE PUSH1 0x0 REVERT JUMPDEST POP POP POP POP PUSH1 0x40 MLOAD RETURNDATASIZE PUSH1 0x1F NOT PUSH1 0x1F DUP3 ADD AND DUP3 ADD DUP1 PUSH1 0x40 MSTORE POP DUP2 ADD SWAP1 PUSH2 0x555 SWAP2 SWAP1 PUSH2 0x1348 JUMP JUMPDEST SWAP1 POP DUP4 PUSH1 0x2 ADD SLOAD TIMESTAMP GT DUP1 ISZERO PUSH2 0x569 JUMPI POP DUP1 ISZERO ISZERO JUMPDEST ISZERO PUSH2 0x5CC JUMPI PUSH1 0x0 PUSH2 0x57E DUP6 PUSH1 0x2 ADD SLOAD TIMESTAMP PUSH2 0x3BA JUMP JUMPDEST SWAP1 POP PUSH1 0x0 PUSH2 0x5A5 PUSH1 0x4 SLOAD PUSH2 0x59F DUP9 PUSH1 0x1 ADD SLOAD DUP6 PUSH2 0xF47 SWAP1 SWAP2 SWAP1 PUSH4 0xFFFFFFFF AND JUMP JUMPDEST SWAP1 PUSH2 0xF53 JUMP JUMPDEST SWAP1 POP PUSH2 0x5C7 PUSH2 0x5C0 DUP5 PUSH2 0x59F DUP5 PUSH8 0xDE0B6B3A7640000 PUSH2 0xF47 JUMP JUMPDEST DUP6 SWAP1 PUSH2 0xF3B JUMP JUMPDEST SWAP4 POP POP POP JUMPDEST PUSH2 0x5FD DUP4 PUSH1 0x1 ADD SLOAD PUSH2 0x5F7 PUSH8 0xDE0B6B3A7640000 PUSH2 0x59F DUP7 DUP9 PUSH1 0x0 ADD SLOAD PUSH2 0xF47 SWAP1 SWAP2 SWAP1 PUSH4 0xFFFFFFFF AND JUMP JUMPDEST SWAP1 PUSH2 0xF28 JUMP JUMPDEST SWAP8 SWAP7 POP POP POP POP POP POP POP JUMP JUMPDEST PUSH1 0x0 CALLER SWAP1 POP PUSH1 0x0 PUSH1 0x2 DUP5 DUP2 SLOAD DUP2 LT PUSH2 0x630 JUMPI PUSH4 0x4E487B71 PUSH1 0xE0 SHL PUSH1 0x0 MSTORE PUSH1 0x32 PUSH1 0x4 MSTORE PUSH1 0x24 PUSH1 0x0 REVERT JUMPDEST PUSH1 0x0 SWAP2 DUP3 MSTORE PUSH1 0x20 DUP1 DUP4 KECCAK256 DUP8 DUP5 MSTORE PUSH1 0x3 DUP3 MSTORE PUSH1 0x40 DUP1 DUP6 KECCAK256 PUSH1 0x1 PUSH1 0x1 PUSH1 0xA0 SHL SUB DUP9 AND DUP7 MSTORE SWAP1 SWAP3 MSTORE SWAP3 KECCAK256 DUP1 SLOAD PUSH1 0x5 SWAP1 SWAP3 MUL SWAP1 SWAP3 ADD SWAP3 POP DUP5 GT ISZERO PUSH2 0x682 JUMPI PUSH1 0x40 MLOAD PUSH3 0x461BCD PUSH1 0xE5 SHL DUP2 MSTORE PUSH1 0x4 ADD PUSH2 0x338 SWAP1 PUSH2 0x15B6 JUMP JUMPDEST PUSH2 0x68B DUP6 PUSH2 0x7AA JUMP JUMPDEST PUSH1 0x0 PUSH2 0x6BC DUP3 PUSH1 0x1 ADD SLOAD PUSH2 0x5F7 PUSH8 0xDE0B6B3A7640000 PUSH2 0x59F DUP8 PUSH1 0x3 ADD SLOAD DUP8 PUSH1 0x0 ADD SLOAD PUSH2 0xF47 SWAP1 SWAP2 SWAP1 PUSH4 0xFFFFFFFF AND JUMP JUMPDEST SWAP1 POP DUP1 ISZERO PUSH2 0x710 JUMPI PUSH2 0x6CE DUP5 DUP3 PUSH2 0xF5F JUMP JUMPDEST DUP4 PUSH1 0x1 PUSH1 0x1 PUSH1 0xA0 SHL SUB AND PUSH32 0xE2403640BA68FED3A2F88B7557551D1993F84B99BB10FF833F0CF8DB0C5E0486 DUP3 PUSH1 0x40 MLOAD PUSH2 0x707 SWAP2 SWAP1 PUSH2 0x168F JUMP JUMPDEST PUSH1 0x40 MLOAD DUP1 SWAP2 SUB SWAP1 LOG2 JUMPDEST DUP5 ISZERO PUSH2 0x73A JUMPI DUP2 SLOAD PUSH2 0x722 SWAP1 DUP7 PUSH2 0xF28 JUMP JUMPDEST DUP3 SSTORE DUP3 SLOAD PUSH2 0x73A SWAP1 PUSH1 0x1 PUSH1 0x1 PUSH1 0xA0 SHL SUB AND DUP6 DUP8 PUSH2 0x101F JUMP JUMPDEST PUSH1 0x3 DUP4 ADD SLOAD DUP3 SLOAD PUSH2 0x758 SWAP2 PUSH8 0xDE0B6B3A7640000 SWAP2 PUSH2 0x59F SWAP2 PUSH2 0xF47 JUMP JUMPDEST DUP3 PUSH1 0x1 ADD DUP2 SWAP1 SSTORE POP DUP6 DUP5 PUSH1 0x1 PUSH1 0x1 PUSH1 0xA0 SHL SUB AND PUSH32 0xF279E6A1F5E320CCA91135676D9CB6E44CA8A08C0B88342BCDB1144F6511B568 DUP8 PUSH1 0x40 MLOAD PUSH2 0x79A SWAP2 SWAP1 PUSH2 0x168F JUMP JUMPDEST PUSH1 0x40 MLOAD DUP1 SWAP2 SUB SWAP1 LOG3 POP POP POP POP POP POP JUMP JUMPDEST PUSH1 0x0 PUSH1 0x2 DUP3 DUP2 SLOAD DUP2 LT PUSH2 0x7CD JUMPI PUSH4 0x4E487B71 PUSH1 0xE0 SHL PUSH1 0x0 MSTORE PUSH1 0x32 PUSH1 0x4 MSTORE PUSH1 0x24 PUSH1 0x0 REVERT JUMPDEST SWAP1 PUSH1 0x0 MSTORE PUSH1 0x20 PUSH1 0x0 KECCAK256 SWAP1 PUSH1 0x5 MUL ADD SWAP1 POP DUP1 PUSH1 0x2 ADD SLOAD TIMESTAMP GT PUSH2 0x7EE JUMPI POP PUSH2 0x923 JUMP JUMPDEST DUP1 SLOAD PUSH1 0x40 MLOAD PUSH4 0x70A08231 PUSH1 0xE0 SHL DUP2 MSTORE PUSH1 0x0 SWAP2 PUSH1 0x1 PUSH1 0x1 PUSH1 0xA0 SHL SUB AND SWAP1 PUSH4 0x70A08231 SWAP1 PUSH2 0x81E SWAP1 ADDRESS SWAP1 PUSH1 0x4 ADD PUSH2 0x1413 JUMP JUMPDEST PUSH1 0x20 PUSH1 0x40 MLOAD DUP1 DUP4 SUB DUP2 DUP7 DUP1 EXTCODESIZE ISZERO DUP1 ISZERO PUSH2 0x836 JUMPI PUSH1 0x0 DUP1 REVERT JUMPDEST POP GAS STATICCALL ISZERO DUP1 ISZERO PUSH2 0x84A JUMPI RETURNDATASIZE PUSH1 0x0 DUP1 RETURNDATACOPY RETURNDATASIZE PUSH1 0x0 REVERT JUMPDEST POP POP POP POP PUSH1 0x40 MLOAD RETURNDATASIZE PUSH1 0x1F NOT PUSH1 0x1F DUP3 ADD AND DUP3 ADD DUP1 PUSH1 0x40 MSTORE POP DUP2 ADD SWAP1 PUSH2 0x86E SWAP2 SWAP1 PUSH2 0x1348 JUMP JUMPDEST SWAP1 POP DUP1 PUSH2 0x882 JUMPI POP TIMESTAMP PUSH1 0x2 SWAP1 SWAP2 ADD SSTORE PUSH2 0x923 JUMP JUMPDEST PUSH1 0x4 DUP3 ADD SLOAD PUSH1 0xFF AND PUSH2 0x8B3 JUMPI PUSH1 0x4 DUP1 DUP4 ADD DUP1 SLOAD PUSH1 0xFF NOT AND PUSH1 0x1 SWAP1 DUP2 OR SWAP1 SWAP2 SSTORE DUP4 ADD SLOAD SWAP1 SLOAD PUSH2 0x8AF SWAP2 PUSH2 0xF3B JUMP JUMPDEST PUSH1 0x4 SSTORE JUMPDEST PUSH1 0x4 SLOAD ISZERO PUSH2 0x91A JUMPI PUSH1 0x0 PUSH2 0x8CB DUP4 PUSH1 0x2 ADD SLOAD TIMESTAMP PUSH2 0x3BA JUMP JUMPDEST SWAP1 POP PUSH1 0x0 PUSH2 0x8EC PUSH1 0x4 SLOAD PUSH2 0x59F DUP7 PUSH1 0x1 ADD SLOAD DUP6 PUSH2 0xF47 SWAP1 SWAP2 SWAP1 PUSH4 0xFFFFFFFF AND JUMP JUMPDEST SWAP1 POP PUSH2 0x912 PUSH2 0x907 DUP5 PUSH2 0x59F DUP5 PUSH8 0xDE0B6B3A7640000 PUSH2 0xF47 JUMP JUMPDEST PUSH1 0x3 DUP7 ADD SLOAD SWAP1 PUSH2 0xF3B JUMP JUMPDEST PUSH1 0x3 DUP6 ADD SSTORE POP POP JUMPDEST POP TIMESTAMP PUSH1 0x2 SWAP1 SWAP2 ADD SSTORE JUMPDEST POP JUMP JUMPDEST PUSH1 0x0 PUSH1 0x2 DUP3 DUP2 SLOAD DUP2 LT PUSH2 0x949 JUMPI PUSH4 0x4E487B71 PUSH1 0xE0 SHL PUSH1 0x0 MSTORE PUSH1 0x32 PUSH1 0x4 MSTORE PUSH1 0x24 PUSH1 0x0 REVERT JUMPDEST PUSH1 0x0 SWAP2 DUP3 MSTORE PUSH1 0x20 DUP1 DUP4 KECCAK256 DUP6 DUP5 MSTORE PUSH1 0x3 DUP3 MSTORE PUSH1 0x40 DUP1 DUP6 KECCAK256 CALLER DUP1 DUP8 MSTORE SWAP4 MSTORE DUP5 KECCAK256 DUP1 SLOAD DUP6 DUP3 SSTORE PUSH1 0x1 DUP3 ADD SWAP6 SWAP1 SWAP6 SSTORE PUSH1 0x5 SWAP1 SWAP4 MUL ADD DUP1 SLOAD SWAP1 SWAP5 POP SWAP2 SWAP3 SWAP2 PUSH2 0x999 SWAP2 PUSH1 0x1 PUSH1 0x1 PUSH1 0xA0 SHL SUB SWAP2 SWAP1 SWAP2 AND SWAP1 DUP4 PUSH2 0x101F JUMP JUMPDEST DUP4 CALLER PUSH1 0x1 PUSH1 0x1 PUSH1 0xA0 SHL SUB AND PUSH32 0xBB757047C2B5F3974FE26B7C10F732E7BCE710B0952A71082702781E62AE0595 DUP4 PUSH1 0x40 MLOAD PUSH2 0x9D3 SWAP2 SWAP1 PUSH2 0x168F JUMP JUMPDEST PUSH1 0x40 MLOAD DUP1 SWAP2 SUB SWAP1 LOG3 POP POP POP POP JUMP JUMPDEST PUSH1 0x0 SLOAD PUSH1 0x1 PUSH1 0x1 PUSH1 0xA0 SHL SUB AND CALLER EQ PUSH2 0xA0B JUMPI PUSH1 0x40 MLOAD PUSH3 0x461BCD PUSH1 0xE5 SHL DUP2 MSTORE PUSH1 0x4 ADD PUSH2 0x338 SWAP1 PUSH2 0x14C7 JUMP JUMPDEST PUSH1 0x6 SLOAD PUSH2 0xA1B SWAP1 PUSH3 0x76A700 PUSH2 0x16A6 JUMP JUMPDEST TIMESTAMP LT ISZERO PUSH2 0xAD5 JUMPI PUSH1 0x1 SLOAD PUSH1 0x1 PUSH1 0x1 PUSH1 0xA0 SHL SUB DUP5 DUP2 AND SWAP2 AND EQ ISZERO PUSH2 0xA50 JUMPI PUSH1 0x40 MLOAD PUSH3 0x461BCD PUSH1 0xE5 SHL DUP2 MSTORE PUSH1 0x4 ADD PUSH2 0x338 SWAP1 PUSH2 0x162C JUMP JUMPDEST PUSH1 0x2 SLOAD PUSH1 0x0 JUMPDEST DUP2 DUP2 LT ISZERO PUSH2 0xAD2 JUMPI PUSH1 0x0 PUSH1 0x2 DUP3 DUP2 SLOAD DUP2 LT PUSH2 0xA81 JUMPI PUSH4 0x4E487B71 PUSH1 0xE0 SHL PUSH1 0x0 MSTORE PUSH1 0x32 PUSH1 0x4 MSTORE PUSH1 0x24 PUSH1 0x0 REVERT JUMPDEST PUSH1 0x0 SWAP2 DUP3 MSTORE PUSH1 0x20 SWAP1 SWAP2 KECCAK256 PUSH1 0x5 SWAP1 SWAP2 MUL ADD DUP1 SLOAD SWAP1 SWAP2 POP PUSH1 0x1 PUSH1 0x1 PUSH1 0xA0 SHL SUB DUP8 DUP2 AND SWAP2 AND EQ ISZERO PUSH2 0xAC1 JUMPI PUSH1 0x40 MLOAD PUSH3 0x461BCD PUSH1 0xE5 SHL DUP2 MSTORE PUSH1 0x4 ADD PUSH2 0x338 SWAP1 PUSH2 0x155B JUMP JUMPDEST POP PUSH2 0xACB DUP2 PUSH2 0x1740 JUMP JUMPDEST SWAP1 POP PUSH2 0xA56 JUMP JUMPDEST POP POP JUMPDEST PUSH2 0xAE9 PUSH1 0x1 PUSH1 0x1 PUSH1 0xA0 SHL SUB DUP5 AND DUP3 DUP5 PUSH2 0x101F JUMP JUMPDEST POP POP POP JUMP JUMPDEST PUSH1 0x0 SLOAD PUSH1 0x1 PUSH1 0x1 PUSH1 0xA0 SHL SUB AND DUP2 JUMP JUMPDEST PUSH1 0x5 SLOAD DUP2 JUMP JUMPDEST PUSH1 0x2 SLOAD PUSH1 0x0 JUMPDEST DUP2 DUP2 LT ISZERO PUSH2 0xB2A JUMPI PUSH2 0xB1A DUP2 PUSH2 0x7AA JUMP JUMPDEST PUSH2 0xB23 DUP2 PUSH2 0x1740 JUMP JUMPDEST SWAP1 POP PUSH2 0xB09 JUMP JUMPDEST POP POP JUMP JUMPDEST PUSH1 0x6 SLOAD DUP2 JUMP JUMPDEST PUSH1 0x3 PUSH1 0x20 SWAP1 DUP2 MSTORE PUSH1 0x0 SWAP3 DUP4 MSTORE PUSH1 0x40 DUP1 DUP5 KECCAK256 SWAP1 SWAP2 MSTORE SWAP1 DUP3 MSTORE SWAP1 KECCAK256 DUP1 SLOAD PUSH1 0x1 SWAP1 SWAP2 ADD SLOAD DUP3 JUMP JUMPDEST PUSH1 0x8 SLOAD DUP2 JUMP JUMPDEST PUSH1 0x1 SLOAD PUSH1 0x1 PUSH1 0x1 PUSH1 0xA0 SHL SUB AND DUP2 JUMP JUMPDEST PUSH1 0x0 SLOAD PUSH1 0x1 PUSH1 0x1 PUSH1 0xA0 SHL SUB AND CALLER EQ PUSH2 0xB97 JUMPI PUSH1 0x40 MLOAD PUSH3 0x461BCD PUSH1 0xE5 SHL DUP2 MSTORE PUSH1 0x4 ADD PUSH2 0x338 SWAP1 PUSH2 0x14C7 JUMP JUMPDEST PUSH2 0xBA0 DUP4 PUSH2 0x1075 JUMP JUMPDEST DUP2 ISZERO PUSH2 0xBAE JUMPI PUSH2 0xBAE PUSH2 0xB03 JUMP JUMPDEST PUSH1 0x5 SLOAD TIMESTAMP LT ISZERO PUSH2 0xBDA JUMPI DUP1 PUSH2 0xBC6 JUMPI POP PUSH1 0x5 SLOAD PUSH2 0xBD5 JUMP JUMPDEST PUSH1 0x5 SLOAD DUP2 LT ISZERO PUSH2 0xBD5 JUMPI POP PUSH1 0x5 SLOAD JUMPDEST PUSH2 0xBEE JUMP JUMPDEST DUP1 ISZERO DUP1 PUSH2 0xBE6 JUMPI POP TIMESTAMP DUP2 LT JUMPDEST ISZERO PUSH2 0xBEE JUMPI POP TIMESTAMP JUMPDEST PUSH1 0x0 PUSH1 0x5 SLOAD DUP3 GT ISZERO DUP1 PUSH2 0xC01 JUMPI POP TIMESTAMP DUP3 GT ISZERO JUMPDEST PUSH1 0x40 DUP1 MLOAD PUSH1 0xA0 DUP2 ADD DUP3 MSTORE PUSH1 0x1 PUSH1 0x1 PUSH1 0xA0 SHL SUB DUP8 DUP2 AND DUP3 MSTORE PUSH1 0x20 DUP3 ADD DUP10 DUP2 MSTORE SWAP3 DUP3 ADD DUP7 DUP2 MSTORE PUSH1 0x0 PUSH1 0x60 DUP5 ADD DUP2 DUP2 MSTORE DUP7 ISZERO DUP1 ISZERO PUSH1 0x80 DUP8 ADD SWAP1 DUP2 MSTORE PUSH1 0x2 DUP1 SLOAD PUSH1 0x1 DUP2 ADD DUP3 SSTORE SWAP5 MSTORE SWAP6 MLOAD PUSH32 0x405787FA12A823E0F2B7631CC41B3BA8828B3321CA811111FA75CD3AA3BB5ACE PUSH1 0x5 SWAP1 SWAP5 MUL SWAP4 DUP5 ADD DUP1 SLOAD PUSH1 0x1 PUSH1 0x1 PUSH1 0xA0 SHL SUB NOT AND SWAP2 SWAP1 SWAP7 AND OR SWAP1 SWAP5 SSTORE SWAP5 MLOAD PUSH32 0x405787FA12A823E0F2B7631CC41B3BA8828B3321CA811111FA75CD3AA3BB5ACF DUP3 ADD SSTORE SWAP1 MLOAD PUSH32 0x405787FA12A823E0F2B7631CC41B3BA8828B3321CA811111FA75CD3AA3BB5AD0 DUP3 ADD SSTORE SWAP3 MLOAD PUSH32 0x405787FA12A823E0F2B7631CC41B3BA8828B3321CA811111FA75CD3AA3BB5AD1 DUP5 ADD SSTORE SWAP1 MLOAD PUSH32 0x405787FA12A823E0F2B7631CC41B3BA8828B3321CA811111FA75CD3AA3BB5AD2 SWAP1 SWAP3 ADD DUP1 SLOAD PUSH1 0xFF NOT AND SWAP3 ISZERO ISZERO SWAP3 SWAP1 SWAP3 OR SWAP1 SWAP2 SSTORE SWAP1 SWAP2 POP PUSH2 0xD44 JUMPI PUSH1 0x4 SLOAD PUSH2 0xD40 SWAP1 DUP7 PUSH2 0xF3B JUMP JUMPDEST PUSH1 0x4 SSTORE JUMPDEST POP POP POP POP POP JUMP JUMPDEST PUSH1 0x0 SLOAD PUSH1 0x1 PUSH1 0x1 PUSH1 0xA0 SHL SUB AND CALLER EQ PUSH2 0xD75 JUMPI PUSH1 0x40 MLOAD PUSH3 0x461BCD PUSH1 0xE5 SHL DUP2 MSTORE PUSH1 0x4 ADD PUSH2 0x338 SWAP1 PUSH2 0x14C7 JUMP JUMPDEST PUSH1 0x0 DUP1 SLOAD PUSH1 0x1 PUSH1 0x1 PUSH1 0xA0 SHL SUB NOT AND PUSH1 0x1 PUSH1 0x1 PUSH1 0xA0 SHL SUB SWAP3 SWAP1 SWAP3 AND SWAP2 SWAP1 SWAP2 OR SWAP1 SSTORE JUMP JUMPDEST PUSH1 0x7 SLOAD DUP2 JUMP JUMPDEST PUSH1 0x0 CALLER SWAP1 POP PUSH1 0x0 PUSH1 0x2 DUP5 DUP2 SLOAD DUP2 LT PUSH2 0xDC5 JUMPI PUSH4 0x4E487B71 PUSH1 0xE0 SHL PUSH1 0x0 MSTORE PUSH1 0x32 PUSH1 0x4 MSTORE PUSH1 0x24 PUSH1 0x0 REVERT JUMPDEST PUSH1 0x0 SWAP2 DUP3 MSTORE PUSH1 0x20 DUP1 DUP4 KECCAK256 DUP8 DUP5 MSTORE PUSH1 0x3 DUP3 MSTORE PUSH1 0x40 DUP1 DUP6 KECCAK256 PUSH1 0x1 PUSH1 0x1 PUSH1 0xA0 SHL SUB DUP9 AND DUP7 MSTORE SWAP1 SWAP3 MSTORE SWAP3 KECCAK256 PUSH1 0x5 SWAP1 SWAP2 MUL SWAP1 SWAP2 ADD SWAP2 POP PUSH2 0xDFF DUP6 PUSH2 0x7AA JUMP JUMPDEST DUP1 SLOAD ISZERO PUSH2 0xE8D JUMPI PUSH1 0x0 PUSH2 0xE37 DUP3 PUSH1 0x1 ADD SLOAD PUSH2 0x5F7 PUSH8 0xDE0B6B3A7640000 PUSH2 0x59F DUP8 PUSH1 0x3 ADD SLOAD DUP8 PUSH1 0x0 ADD SLOAD PUSH2 0xF47 SWAP1 SWAP2 SWAP1 PUSH4 0xFFFFFFFF AND JUMP JUMPDEST SWAP1 POP DUP1 ISZERO PUSH2 0xE8B JUMPI PUSH2 0xE49 DUP5 DUP3 PUSH2 0xF5F JUMP JUMPDEST DUP4 PUSH1 0x1 PUSH1 0x1 PUSH1 0xA0 SHL SUB AND PUSH32 0xE2403640BA68FED3A2F88B7557551D1993F84B99BB10FF833F0CF8DB0C5E0486 DUP3 PUSH1 0x40 MLOAD PUSH2 0xE82 SWAP2 SWAP1 PUSH2 0x168F JUMP JUMPDEST PUSH1 0x40 MLOAD DUP1 SWAP2 SUB SWAP1 LOG2 JUMPDEST POP JUMPDEST DUP4 ISZERO PUSH2 0xEB9 JUMPI DUP2 SLOAD PUSH2 0xEAA SWAP1 PUSH1 0x1 PUSH1 0x1 PUSH1 0xA0 SHL SUB AND DUP5 ADDRESS DUP8 PUSH2 0x10F6 JUMP JUMPDEST DUP1 SLOAD PUSH2 0xEB6 SWAP1 DUP6 PUSH2 0xF3B JUMP JUMPDEST DUP2 SSTORE JUMPDEST PUSH1 0x3 DUP3 ADD SLOAD DUP2 SLOAD PUSH2 0xED7 SWAP2 PUSH8 0xDE0B6B3A7640000 SWAP2 PUSH2 0x59F SWAP2 PUSH2 0xF47 JUMP JUMPDEST DUP2 PUSH1 0x1 ADD DUP2 SWAP1 SSTORE POP DUP5 DUP4 PUSH1 0x1 PUSH1 0x1 PUSH1 0xA0 SHL SUB AND PUSH32 0x90890809C654F11D6E72A28FA60149770A0D11EC6C92319D6CEB2BB0A4EA1A15 DUP7 PUSH1 0x40 MLOAD PUSH2 0xF19 SWAP2 SWAP1 PUSH2 0x168F JUMP JUMPDEST PUSH1 0x40 MLOAD DUP1 SWAP2 SUB SWAP1 LOG3 POP POP POP POP POP JUMP JUMPDEST PUSH1 0x0 PUSH2 0xF34 DUP3 DUP5 PUSH2 0x16FD JUMP JUMPDEST SWAP4 SWAP3 POP POP POP JUMP JUMPDEST PUSH1 0x0 PUSH2 0xF34 DUP3 DUP5 PUSH2 0x16A6 JUMP JUMPDEST PUSH1 0x0 PUSH2 0xF34 DUP3 DUP5 PUSH2 0x16DE JUMP JUMPDEST PUSH1 0x0 PUSH2 0xF34 DUP3 DUP5 PUSH2 0x16BE JUMP JUMPDEST PUSH1 0x1 SLOAD PUSH1 0x40 MLOAD PUSH4 0x70A08231 PUSH1 0xE0 SHL DUP2 MSTORE PUSH1 0x0 SWAP2 PUSH1 0x1 PUSH1 0x1 PUSH1 0xA0 SHL SUB AND SWAP1 PUSH4 0x70A08231 SWAP1 PUSH2 0xF90 SWAP1 ADDRESS SWAP1 PUSH1 0x4 ADD PUSH2 0x1413 JUMP JUMPDEST PUSH1 0x20 PUSH1 0x40 MLOAD DUP1 DUP4 SUB DUP2 DUP7 DUP1 EXTCODESIZE ISZERO DUP1 ISZERO PUSH2 0xFA8 JUMPI PUSH1 0x0 DUP1 REVERT JUMPDEST POP GAS STATICCALL ISZERO DUP1 ISZERO PUSH2 0xFBC JUMPI RETURNDATASIZE PUSH1 0x0 DUP1 RETURNDATACOPY RETURNDATASIZE PUSH1 0x0 REVERT JUMPDEST POP POP POP POP PUSH1 0x40 MLOAD RETURNDATASIZE PUSH1 0x1F NOT PUSH1 0x1F DUP3 ADD AND DUP3 ADD DUP1 PUSH1 0x40 MSTORE POP DUP2 ADD SWAP1 PUSH2 0xFE0 SWAP2 SWAP1 PUSH2 0x1348 JUMP JUMPDEST SWAP1 POP DUP1 ISZERO PUSH2 0xAE9 JUMPI DUP1 DUP3 GT ISZERO PUSH2 0x100C JUMPI PUSH1 0x1 SLOAD PUSH2 0x1007 SWAP1 PUSH1 0x1 PUSH1 0x1 PUSH1 0xA0 SHL SUB AND DUP5 DUP4 PUSH2 0x101F JUMP JUMPDEST PUSH2 0xAE9 JUMP JUMPDEST PUSH1 0x1 SLOAD PUSH2 0xAE9 SWAP1 PUSH1 0x1 PUSH1 0x1 PUSH1 0xA0 SHL SUB AND DUP5 DUP5 JUMPDEST PUSH2 0xAE9 DUP4 PUSH4 0xA9059CBB PUSH1 0xE0 SHL DUP5 DUP5 PUSH1 0x40 MLOAD PUSH1 0x24 ADD PUSH2 0x103E SWAP3 SWAP2 SWAP1 PUSH2 0x144B JUMP JUMPDEST PUSH1 0x40 DUP1 MLOAD PUSH1 0x1F NOT DUP2 DUP5 SUB ADD DUP2 MSTORE SWAP2 SWAP1 MSTORE PUSH1 0x20 DUP2 ADD DUP1 MLOAD PUSH1 0x1 PUSH1 0x1 PUSH1 0xE0 SHL SUB AND PUSH1 0x1 PUSH1 0x1 PUSH1 0xE0 SHL SUB NOT SWAP1 SWAP4 AND SWAP3 SWAP1 SWAP3 OR SWAP1 SWAP2 MSTORE PUSH2 0x111D JUMP JUMPDEST PUSH1 0x2 SLOAD PUSH1 0x0 JUMPDEST DUP2 DUP2 LT ISZERO PUSH2 0xAE9 JUMPI DUP3 PUSH1 0x1 PUSH1 0x1 PUSH1 0xA0 SHL SUB AND PUSH1 0x2 DUP3 DUP2 SLOAD DUP2 LT PUSH2 0x10AE JUMPI PUSH4 0x4E487B71 PUSH1 0xE0 SHL PUSH1 0x0 MSTORE PUSH1 0x32 PUSH1 0x4 MSTORE PUSH1 0x24 PUSH1 0x0 REVERT JUMPDEST PUSH1 0x0 SWAP2 DUP3 MSTORE PUSH1 0x20 SWAP1 SWAP2 KECCAK256 PUSH1 0x5 SWAP1 SWAP2 MUL ADD SLOAD PUSH1 0x1 PUSH1 0x1 PUSH1 0xA0 SHL SUB AND EQ ISZERO PUSH2 0x10E6 JUMPI PUSH1 0x40 MLOAD PUSH3 0x461BCD PUSH1 0xE5 SHL DUP2 MSTORE PUSH1 0x4 ADD PUSH2 0x338 SWAP1 PUSH2 0x164D JUMP JUMPDEST PUSH2 0x10EF DUP2 PUSH2 0x1740 JUMP JUMPDEST SWAP1 POP PUSH2 0x107B JUMP JUMPDEST PUSH2 0x1117 DUP5 PUSH4 0x23B872DD PUSH1 0xE0 SHL DUP6 DUP6 DUP6 PUSH1 0x40 MLOAD PUSH1 0x24 ADD PUSH2 0x103E SWAP4 SWAP3 SWAP2 SWAP1 PUSH2 0x1427 JUMP JUMPDEST POP POP POP POP JUMP JUMPDEST PUSH1 0x0 PUSH2 0x1172 DUP3 PUSH1 0x40 MLOAD DUP1 PUSH1 0x40 ADD PUSH1 0x40 MSTORE DUP1 PUSH1 0x20 DUP2 MSTORE PUSH1 0x20 ADD PUSH32 0x5361666545524332303A206C6F772D6C6576656C2063616C6C206661696C6564 DUP2 MSTORE POP DUP6 PUSH1 0x1 PUSH1 0x1 PUSH1 0xA0 SHL SUB AND PUSH2 0x11AC SWAP1 SWAP3 SWAP2 SWAP1 PUSH4 0xFFFFFFFF AND JUMP JUMPDEST DUP1 MLOAD SWAP1 SWAP2 POP ISZERO PUSH2 0xAE9 JUMPI DUP1 DUP1 PUSH1 0x20 ADD SWAP1 MLOAD DUP2 ADD SWAP1 PUSH2 0x1190 SWAP2 SWAP1 PUSH2 0x12D3 JUMP JUMPDEST PUSH2 0xAE9 JUMPI PUSH1 0x40 MLOAD PUSH3 0x461BCD PUSH1 0xE5 SHL DUP2 MSTORE PUSH1 0x4 ADD PUSH2 0x338 SWAP1 PUSH2 0x15E2 JUMP JUMPDEST PUSH1 0x60 PUSH2 0x11BB DUP5 DUP5 PUSH1 0x0 DUP6 PUSH2 0x11C3 JUMP JUMPDEST SWAP5 SWAP4 POP POP POP POP JUMP JUMPDEST PUSH1 0x60 DUP3 SELFBALANCE LT ISZERO PUSH2 0x11E5 JUMPI PUSH1 0x40 MLOAD PUSH3 0x461BCD PUSH1 0xE5 SHL DUP2 MSTORE PUSH1 0x4 ADD PUSH2 0x338 SWAP1 PUSH2 0x1515 JUMP JUMPDEST PUSH2 0x11EE DUP6 PUSH2 0x1278 JUMP JUMPDEST PUSH2 0x120A JUMPI PUSH1 0x40 MLOAD PUSH3 0x461BCD PUSH1 0xE5 SHL DUP2 MSTORE PUSH1 0x4 ADD PUSH2 0x338 SWAP1 PUSH2 0x157F JUMP JUMPDEST PUSH1 0x0 DUP1 DUP7 PUSH1 0x1 PUSH1 0x1 PUSH1 0xA0 SHL SUB AND DUP6 DUP8 PUSH1 0x40 MLOAD PUSH2 0x1226 SWAP2 SWAP1 PUSH2 0x13F7 JUMP JUMPDEST PUSH1 0x0 PUSH1 0x40 MLOAD DUP1 DUP4 SUB DUP2 DUP6 DUP8 GAS CALL SWAP3 POP POP POP RETURNDATASIZE DUP1 PUSH1 0x0 DUP2 EQ PUSH2 0x1263 JUMPI PUSH1 0x40 MLOAD SWAP2 POP PUSH1 0x1F NOT PUSH1 0x3F RETURNDATASIZE ADD AND DUP3 ADD PUSH1 0x40 MSTORE RETURNDATASIZE DUP3 MSTORE RETURNDATASIZE PUSH1 0x0 PUSH1 0x20 DUP5 ADD RETURNDATACOPY PUSH2 0x1268 JUMP JUMPDEST PUSH1 0x60 SWAP2 POP JUMPDEST POP SWAP2 POP SWAP2 POP PUSH2 0x5FD DUP3 DUP3 DUP7 PUSH2 0x127E JUMP JUMPDEST EXTCODESIZE ISZERO ISZERO SWAP1 JUMP JUMPDEST PUSH1 0x60 DUP4 ISZERO PUSH2 0x128D JUMPI POP DUP2 PUSH2 0xF34 JUMP JUMPDEST DUP3 MLOAD ISZERO PUSH2 0x129D JUMPI DUP3 MLOAD DUP1 DUP5 PUSH1 0x20 ADD REVERT JUMPDEST DUP2 PUSH1 0x40 MLOAD PUSH3 0x461BCD PUSH1 0xE5 SHL DUP2 MSTORE PUSH1 0x4 ADD PUSH2 0x338 SWAP2 SWAP1 PUSH2 0x1494 JUMP JUMPDEST PUSH1 0x0 PUSH1 0x20 DUP3 DUP5 SUB SLT ISZERO PUSH2 0x12C8 JUMPI DUP1 DUP2 REVERT JUMPDEST DUP2 CALLDATALOAD PUSH2 0xF34 DUP2 PUSH2 0x1771 JUMP JUMPDEST PUSH1 0x0 PUSH1 0x20 DUP3 DUP5 SUB SLT ISZERO PUSH2 0x12E4 JUMPI DUP1 DUP2 REVERT JUMPDEST DUP2 MLOAD PUSH2 0xF34 DUP2 PUSH2 0x1786 JUMP JUMPDEST PUSH1 0x0 DUP1 PUSH1 0x0 PUSH1 0x60 DUP5 DUP7 SUB SLT ISZERO PUSH2 0x1303 JUMPI DUP2 DUP3 REVERT JUMPDEST DUP4 CALLDATALOAD PUSH2 0x130E DUP2 PUSH2 0x1771 JUMP JUMPDEST SWAP3 POP PUSH1 0x20 DUP5 ADD CALLDATALOAD SWAP2 POP PUSH1 0x40 DUP5 ADD CALLDATALOAD PUSH2 0x1325 DUP2 PUSH2 0x1771 JUMP JUMPDEST DUP1 SWAP2 POP POP SWAP3 POP SWAP3 POP SWAP3 JUMP JUMPDEST PUSH1 0x0 PUSH1 0x20 DUP3 DUP5 SUB SLT ISZERO PUSH2 0x1341 JUMPI DUP1 DUP2 REVERT JUMPDEST POP CALLDATALOAD SWAP2 SWAP1 POP JUMP JUMPDEST PUSH1 0x0 PUSH1 0x20 DUP3 DUP5 SUB SLT ISZERO PUSH2 0x1359 JUMPI DUP1 DUP2 REVERT JUMPDEST POP MLOAD SWAP2 SWAP1 POP JUMP JUMPDEST PUSH1 0x0 DUP1 PUSH1 0x40 DUP4 DUP6 SUB SLT ISZERO PUSH2 0x1372 JUMPI DUP2 DUP3 REVERT JUMPDEST DUP3 CALLDATALOAD SWAP2 POP PUSH1 0x20 DUP4 ADD CALLDATALOAD PUSH2 0x1384 DUP2 PUSH2 0x1771 JUMP JUMPDEST DUP1 SWAP2 POP POP SWAP3 POP SWAP3 SWAP1 POP JUMP JUMPDEST PUSH1 0x0 DUP1 PUSH1 0x0 DUP1 PUSH1 0x80 DUP6 DUP8 SUB SLT ISZERO PUSH2 0x13A4 JUMPI DUP1 DUP2 REVERT JUMPDEST DUP5 CALLDATALOAD SWAP4 POP PUSH1 0x20 DUP6 ADD CALLDATALOAD PUSH2 0x13B6 DUP2 PUSH2 0x1771 JUMP JUMPDEST SWAP3 POP PUSH1 0x40 DUP6 ADD CALLDATALOAD PUSH2 0x13C6 DUP2 PUSH2 0x1786 JUMP JUMPDEST SWAP4 SWAP7 SWAP3 SWAP6 POP SWAP3 SWAP4 PUSH1 0x60 ADD CALLDATALOAD SWAP3 POP POP JUMP JUMPDEST PUSH1 0x0 DUP1 PUSH1 0x40 DUP4 DUP6 SUB SLT ISZERO PUSH2 0x13E8 JUMPI DUP2 DUP3 REVERT JUMPDEST POP POP DUP1 CALLDATALOAD SWAP3 PUSH1 0x20 SWAP1 SWAP2 ADD CALLDATALOAD SWAP2 POP JUMP JUMPDEST PUSH1 0x0 DUP3 MLOAD PUSH2 0x1409 DUP2 DUP5 PUSH1 0x20 DUP8 ADD PUSH2 0x1714 JUMP JUMPDEST SWAP2 SWAP1 SWAP2 ADD SWAP3 SWAP2 POP POP JUMP JUMPDEST PUSH1 0x1 PUSH1 0x1 PUSH1 0xA0 SHL SUB SWAP2 SWAP1 SWAP2 AND DUP2 MSTORE PUSH1 0x20 ADD SWAP1 JUMP JUMPDEST PUSH1 0x1 PUSH1 0x1 PUSH1 0xA0 SHL SUB SWAP4 DUP5 AND DUP2 MSTORE SWAP2 SWAP1 SWAP3 AND PUSH1 0x20 DUP3 ADD MSTORE PUSH1 0x40 DUP2 ADD SWAP2 SWAP1 SWAP2 MSTORE PUSH1 0x60 ADD SWAP1 JUMP JUMPDEST PUSH1 0x1 PUSH1 0x1 PUSH1 0xA0 SHL SUB SWAP3 SWAP1 SWAP3 AND DUP3 MSTORE PUSH1 0x20 DUP3 ADD MSTORE PUSH1 0x40 ADD SWAP1 JUMP JUMPDEST PUSH1 0x1 PUSH1 0x1 PUSH1 0xA0 SHL SUB SWAP6 SWAP1 SWAP6 AND DUP6 MSTORE PUSH1 0x20 DUP6 ADD SWAP4 SWAP1 SWAP4 MSTORE PUSH1 0x40 DUP5 ADD SWAP2 SWAP1 SWAP2 MSTORE PUSH1 0x60 DUP4 ADD MSTORE ISZERO ISZERO PUSH1 0x80 DUP3 ADD MSTORE PUSH1 0xA0 ADD SWAP1 JUMP JUMPDEST PUSH1 0x0 PUSH1 0x20 DUP3 MSTORE DUP3 MLOAD DUP1 PUSH1 0x20 DUP5 ADD MSTORE PUSH2 0x14B3 DUP2 PUSH1 0x40 DUP6 ADD PUSH1 0x20 DUP8 ADD PUSH2 0x1714 JUMP JUMPDEST PUSH1 0x1F ADD PUSH1 0x1F NOT AND SWAP2 SWAP1 SWAP2 ADD PUSH1 0x40 ADD SWAP3 SWAP2 POP POP JUMP JUMPDEST PUSH1 0x20 DUP1 DUP3 MSTORE PUSH1 0x2E SWAP1 DUP3 ADD MSTORE PUSH32 0x5370656374657247656E65736973506F6F6C3A2063616C6C6572206973206E6F PUSH1 0x40 DUP3 ADD MSTORE PUSH14 0x3A103A34329037B832B930BA37B9 PUSH1 0x91 SHL PUSH1 0x60 DUP3 ADD MSTORE PUSH1 0x80 ADD SWAP1 JUMP JUMPDEST PUSH1 0x20 DUP1 DUP3 MSTORE PUSH1 0x26 SWAP1 DUP3 ADD MSTORE PUSH32 0x416464726573733A20696E73756666696369656E742062616C616E636520666F PUSH1 0x40 DUP3 ADD MSTORE PUSH6 0x1C8818D85B1B PUSH1 0xD2 SHL PUSH1 0x60 DUP3 ADD MSTORE PUSH1 0x80 ADD SWAP1 JUMP JUMPDEST PUSH1 0x20 DUP1 DUP3 MSTORE PUSH1 0xA SWAP1 DUP3 ADD MSTORE PUSH10 0x3837B7B6173A37B5B2B7 PUSH1 0xB1 SHL PUSH1 0x40 DUP3 ADD MSTORE PUSH1 0x60 ADD SWAP1 JUMP JUMPDEST PUSH1 0x20 DUP1 DUP3 MSTORE PUSH1 0x1D SWAP1 DUP3 ADD MSTORE PUSH32 0x416464726573733A2063616C6C20746F206E6F6E2D636F6E7472616374000000 PUSH1 0x40 DUP3 ADD MSTORE PUSH1 0x60 ADD SWAP1 JUMP JUMPDEST PUSH1 0x20 DUP1 DUP3 MSTORE PUSH1 0x12 SWAP1 DUP3 ADD MSTORE PUSH18 0x1DDA5D1A191C985DCE881B9BDD0819DBDBD9 PUSH1 0x72 SHL PUSH1 0x40 DUP3 ADD MSTORE PUSH1 0x60 ADD SWAP1 JUMP JUMPDEST PUSH1 0x20 DUP1 DUP3 MSTORE PUSH1 0x2A SWAP1 DUP3 ADD MSTORE PUSH32 0x5361666545524332303A204552433230206F7065726174696F6E20646964206E PUSH1 0x40 DUP3 ADD MSTORE PUSH10 0x1BDD081CDD58D8D95959 PUSH1 0xB2 SHL PUSH1 0x60 DUP3 ADD MSTORE PUSH1 0x80 ADD SWAP1 JUMP JUMPDEST PUSH1 0x20 DUP1 DUP3 MSTORE PUSH1 0x7 SWAP1 DUP3 ADD MSTORE PUSH7 0x39B832B1BA32B9 PUSH1 0xC9 SHL PUSH1 0x40 DUP3 ADD MSTORE PUSH1 0x60 ADD SWAP1 JUMP JUMPDEST PUSH1 0x20 DUP1 DUP3 MSTORE PUSH1 0x22 SWAP1 DUP3 ADD MSTORE PUSH32 0x5370656374657247656E65736973506F6F6C3A206578697374696E6720706F6F PUSH1 0x40 DUP3 ADD MSTORE PUSH2 0x6C3F PUSH1 0xF0 SHL PUSH1 0x60 DUP3 ADD MSTORE PUSH1 0x80 ADD SWAP1 JUMP JUMPDEST SWAP1 DUP2 MSTORE PUSH1 0x20 ADD SWAP1 JUMP JUMPDEST SWAP2 DUP3 MSTORE PUSH1 0x20 DUP3 ADD MSTORE PUSH1 0x40 ADD SWAP1 JUMP JUMPDEST PUSH1 0x0 DUP3 NOT DUP3 GT ISZERO PUSH2 0x16B9 JUMPI PUSH2 0x16B9 PUSH2 0x175B JUMP JUMPDEST POP ADD SWAP1 JUMP JUMPDEST PUSH1 0x0 DUP3 PUSH2 0x16D9 JUMPI PUSH4 0x4E487B71 PUSH1 0xE0 SHL DUP2 MSTORE PUSH1 0x12 PUSH1 0x4 MSTORE PUSH1 0x24 DUP2 REVERT JUMPDEST POP DIV SWAP1 JUMP JUMPDEST PUSH1 0x0 DUP2 PUSH1 0x0 NOT DIV DUP4 GT DUP3 ISZERO ISZERO AND ISZERO PUSH2 0x16F8 JUMPI PUSH2 0x16F8 PUSH2 0x175B JUMP JUMPDEST POP MUL SWAP1 JUMP JUMPDEST PUSH1 0x0 DUP3 DUP3 LT ISZERO PUSH2 0x170F JUMPI PUSH2 0x170F PUSH2 0x175B JUMP JUMPDEST POP SUB SWAP1 JUMP JUMPDEST PUSH1 0x0 JUMPDEST DUP4 DUP2 LT ISZERO PUSH2 0x172F JUMPI DUP2 DUP2 ADD MLOAD DUP4 DUP3 ADD MSTORE PUSH1 0x20 ADD PUSH2 0x1717 JUMP JUMPDEST DUP4 DUP2 GT ISZERO PUSH2 0x1117 JUMPI POP POP PUSH1 0x0 SWAP2 ADD MSTORE JUMP JUMPDEST PUSH1 0x0 PUSH1 0x0 NOT DUP3 EQ ISZERO PUSH2 0x1754 JUMPI PUSH2 0x1754 PUSH2 0x175B JUMP JUMPDEST POP PUSH1 0x1 ADD SWAP1 JUMP JUMPDEST PUSH4 0x4E487B71 PUSH1 0xE0 SHL PUSH1 0x0 MSTORE PUSH1 0x11 PUSH1 0x4 MSTORE PUSH1 0x24 PUSH1 0x0 REVERT JUMPDEST PUSH1 0x1 PUSH1 0x1 PUSH1 0xA0 SHL SUB DUP2 AND DUP2 EQ PUSH2 0x923 JUMPI PUSH1 0x0 DUP1 REVERT JUMPDEST DUP1 ISZERO ISZERO DUP2 EQ PUSH2 0x923 JUMPI PUSH1 0x0 DUP1 REVERT INVALID LOG2 PUSH5 0x6970667358 0x22 SLT KECCAK256 0xDD CALLER 0xAA 0x4D PUSH15 0x683651D0DCFEEAB9AD70BD05CCD8E7 PUSH14 0x884DBF4BE3FE3BC06B884164736F PUSH13 0x63430008000033000000000000 "
		},
		"gasEstimates": {
			"creation": {
				"codeDepositCost": "1218000",
				"executionCost": "infinite",
				"totalCost": "infinite"
			},
			"external": {
				"TOTAL_REWARDS()": "252",
				"add(uint256,address,bool,uint256)": "infinite",
				"deposit(uint256,uint256)": "infinite",
				"emergencyWithdraw(uint256)": "infinite",
				"getGeneratedReward(uint256,uint256)": "infinite",
				"governanceRecoverUnsupported(address,uint256,address)": "infinite",
				"massUpdatePools()": "infinite",
				"operator()": "1093",
				"pendingSPECTER(uint256,address)": "infinite",
				"poolEndTime()": "1117",
				"poolInfo(uint256)": "5460",
				"poolStartTime()": "1073",
				"runningTime()": "1050",
				"set(uint256,uint256)": "infinite",
				"setOperator(address)": "22093",
				"specter()": "1114",
				"specterPerSecond()": "1138",
				"totalAllocPoint()": "1096",
				"updatePool(uint256)": "infinite",
				"userInfo(uint256,address)": "2293",
				"withdraw(uint256,uint256)": "infinite"
			},
			"internal": {
				"checkPoolDuplicate(contract IERC20)": "infinite",
				"safeSpecterTransfer(address,uint256)": "infinite"
			}
		},
		"methodIdentifiers": {
			"TOTAL_REWARDS()": "09cf6091",
			"add(uint256,address,bool,uint256)": "96805e54",
			"deposit(uint256,uint256)": "e2bbb158",
			"emergencyWithdraw(uint256)": "5312ea8e",
			"getGeneratedReward(uint256,uint256)": "231f0c6a",
			"governanceRecoverUnsupported(address,uint256,address)": "54575af4",
			"massUpdatePools()": "630b5ba1",
			"operator()": "570ca735",
			"pendingSPECTER(uint256,address)": "346d562b",
			"poolEndTime()": "6e271dd5",
			"poolInfo(uint256)": "1526fe27",
			"poolStartTime()": "5f96dc11",
			"runningTime()": "943f013d",
			"set(uint256,uint256)": "1ab06ee5",
			"setOperator(address)": "b3ab15fb",
			"specter()": "94dfcb3a",
			"specterPerSecond()": "b3ff985a",
			"totalAllocPoint()": "17caf6f1",
			"updatePool(uint256)": "51eb05a6",
			"userInfo(uint256,address)": "93f1a40b",
			"withdraw(uint256,uint256)": "441a3e70"
		}
	},
	"abi": [
		{
			"inputs": [
				{
					"internalType": "address",
					"name": "_specter",
					"type": "address"
				},
				{
					"internalType": "uint256",
					"name": "_poolStartTime",
					"type": "uint256"
				}
			],
			"stateMutability": "nonpayable",
			"type": "constructor"
		},
		{
			"anonymous": false,
			"inputs": [
				{
					"indexed": true,
					"internalType": "address",
					"name": "user",
					"type": "address"
				},
				{
					"indexed": true,
					"internalType": "uint256",
					"name": "pid",
					"type": "uint256"
				},
				{
					"indexed": false,
					"internalType": "uint256",
					"name": "amount",
					"type": "uint256"
				}
			],
			"name": "Deposit",
			"type": "event"
		},
		{
			"anonymous": false,
			"inputs": [
				{
					"indexed": true,
					"internalType": "address",
					"name": "user",
					"type": "address"
				},
				{
					"indexed": true,
					"internalType": "uint256",
					"name": "pid",
					"type": "uint256"
				},
				{
					"indexed": false,
					"internalType": "uint256",
					"name": "amount",
					"type": "uint256"
				}
			],
			"name": "EmergencyWithdraw",
			"type": "event"
		},
		{
			"anonymous": false,
			"inputs": [
				{
					"indexed": true,
					"internalType": "address",
					"name": "user",
					"type": "address"
				},
				{
					"indexed": false,
					"internalType": "uint256",
					"name": "amount",
					"type": "uint256"
				}
			],
			"name": "RewardPaid",
			"type": "event"
		},
		{
			"anonymous": false,
			"inputs": [
				{
					"indexed": true,
					"internalType": "address",
					"name": "user",
					"type": "address"
				},
				{
					"indexed": true,
					"internalType": "uint256",
					"name": "pid",
					"type": "uint256"
				},
				{
					"indexed": false,
					"internalType": "uint256",
					"name": "amount",
					"type": "uint256"
				}
			],
			"name": "Withdraw",
			"type": "event"
		},
		{
			"inputs": [],
			"name": "TOTAL_REWARDS",
			"outputs": [
				{
					"internalType": "uint256",
					"name": "",
					"type": "uint256"
				}
			],
			"stateMutability": "view",
			"type": "function"
		},
		{
			"inputs": [
				{
					"internalType": "uint256",
					"name": "_allocPoint",
					"type": "uint256"
				},
				{
					"internalType": "contract IERC20",
					"name": "_token",
					"type": "address"
				},
				{
					"internalType": "bool",
					"name": "_withUpdate",
					"type": "bool"
				},
				{
					"internalType": "uint256",
					"name": "_lastRewardTime",
					"type": "uint256"
				}
			],
			"name": "add",
			"outputs": [],
			"stateMutability": "nonpayable",
			"type": "function"
		},
		{
			"inputs": [
				{
					"internalType": "uint256",
					"name": "_pid",
					"type": "uint256"
				},
				{
					"internalType": "uint256",
					"name": "_amount",
					"type": "uint256"
				}
			],
			"name": "deposit",
			"outputs": [],
			"stateMutability": "nonpayable",
			"type": "function"
		},
		{
			"inputs": [
				{
					"internalType": "uint256",
					"name": "_pid",
					"type": "uint256"
				}
			],
			"name": "emergencyWithdraw",
			"outputs": [],
			"stateMutability": "nonpayable",
			"type": "function"
		},
		{
			"inputs": [
				{
					"internalType": "uint256",
					"name": "_fromTime",
					"type": "uint256"
				},
				{
					"internalType": "uint256",
					"name": "_toTime",
					"type": "uint256"
				}
			],
			"name": "getGeneratedReward",
			"outputs": [
				{
					"internalType": "uint256",
					"name": "",
					"type": "uint256"
				}
			],
			"stateMutability": "view",
			"type": "function"
		},
		{
			"inputs": [
				{
					"internalType": "contract IERC20",
					"name": "_token",
					"type": "address"
				},
				{
					"internalType": "uint256",
					"name": "amount",
					"type": "uint256"
				},
				{
					"internalType": "address",
					"name": "to",
					"type": "address"
				}
			],
			"name": "governanceRecoverUnsupported",
			"outputs": [],
			"stateMutability": "nonpayable",
			"type": "function"
		},
		{
			"inputs": [],
			"name": "massUpdatePools",
			"outputs": [],
			"stateMutability": "nonpayable",
			"type": "function"
		},
		{
			"inputs": [],
			"name": "operator",
			"outputs": [
				{
					"internalType": "address",
					"name": "",
					"type": "address"
				}
			],
			"stateMutability": "view",
			"type": "function"
		},
		{
			"inputs": [
				{
					"internalType": "uint256",
					"name": "_pid",
					"type": "uint256"
				},
				{
					"internalType": "address",
					"name": "_user",
					"type": "address"
				}
			],
			"name": "pendingSPECTER",
			"outputs": [
				{
					"internalType": "uint256",
					"name": "",
					"type": "uint256"
				}
			],
			"stateMutability": "view",
			"type": "function"
		},
		{
			"inputs": [],
			"name": "poolEndTime",
			"outputs": [
				{
					"internalType": "uint256",
					"name": "",
					"type": "uint256"
				}
			],
			"stateMutability": "view",
			"type": "function"
		},
		{
			"inputs": [
				{
					"internalType": "uint256",
					"name": "",
					"type": "uint256"
				}
			],
			"name": "poolInfo",
			"outputs": [
				{
					"internalType": "contract IERC20",
					"name": "token",
					"type": "address"
				},
				{
					"internalType": "uint256",
					"name": "allocPoint",
					"type": "uint256"
				},
				{
					"internalType": "uint256",
					"name": "lastRewardTime",
					"type": "uint256"
				},
				{
					"internalType": "uint256",
					"name": "accSpecterPerShare",
					"type": "uint256"
				},
				{
					"internalType": "bool",
					"name": "isStarted",
					"type": "bool"
				}
			],
			"stateMutability": "view",
			"type": "function"
		},
		{
			"inputs": [],
			"name": "poolStartTime",
			"outputs": [
				{
					"internalType": "uint256",
					"name": "",
					"type": "uint256"
				}
			],
			"stateMutability": "view",
			"type": "function"
		},
		{
			"inputs": [],
			"name": "runningTime",
			"outputs": [
				{
					"internalType": "uint256",
					"name": "",
					"type": "uint256"
				}
			],
			"stateMutability": "view",
			"type": "function"
		},
		{
			"inputs": [
				{
					"internalType": "uint256",
					"name": "_pid",
					"type": "uint256"
				},
				{
					"internalType": "uint256",
					"name": "_allocPoint",
					"type": "uint256"
				}
			],
			"name": "set",
			"outputs": [],
			"stateMutability": "nonpayable",
			"type": "function"
		},
		{
			"inputs": [
				{
					"internalType": "address",
					"name": "_operator",
					"type": "address"
				}
			],
			"name": "setOperator",
			"outputs": [],
			"stateMutability": "nonpayable",
			"type": "function"
		},
		{
			"inputs": [],
			"name": "specter",
			"outputs": [
				{
					"internalType": "contract IERC20",
					"name": "",
					"type": "address"
				}
			],
			"stateMutability": "view",
			"type": "function"
		},
		{
			"inputs": [],
			"name": "specterPerSecond",
			"outputs": [
				{
					"internalType": "uint256",
					"name": "",
					"type": "uint256"
				}
			],
			"stateMutability": "view",
			"type": "function"
		},
		{
			"inputs": [],
			"name": "totalAllocPoint",
			"outputs": [
				{
					"internalType": "uint256",
					"name": "",
					"type": "uint256"
				}
			],
			"stateMutability": "view",
			"type": "function"
		},
		{
			"inputs": [
				{
					"internalType": "uint256",
					"name": "_pid",
					"type": "uint256"
				}
			],
			"name": "updatePool",
			"outputs": [],
			"stateMutability": "nonpayable",
			"type": "function"
		},
		{
			"inputs": [
				{
					"internalType": "uint256",
					"name": "",
					"type": "uint256"
				},
				{
					"internalType": "address",
					"name": "",
					"type": "address"
				}
			],
			"name": "userInfo",
			"outputs": [
				{
					"internalType": "uint256",
					"name": "amount",
					"type": "uint256"
				},
				{
					"internalType": "uint256",
					"name": "rewardDebt",
					"type": "uint256"
				}
			],
			"stateMutability": "view",
			"type": "function"
		},
		{
			"inputs": [
				{
					"internalType": "uint256",
					"name": "_pid",
					"type": "uint256"
				},
				{
					"internalType": "uint256",
					"name": "_amount",
					"type": "uint256"
				}
			],
			"name": "withdraw",
			"outputs": [],
			"stateMutability": "nonpayable",
			"type": "function"
		}
	]
}