{
	"data": {
		"bytecode": {
			"linkReferences": {},
			"object": "6006805460ff60a01b19169055670f43fc2c04ee0000600a819055610240604052600060809081526706f05b59d3b2000060a052670853a0d2313c000060c0526709b6e64a8ec6000060e052670b1a2bc2ec50000061010052670c7d713b49da000061012052670d2f13f7789f000061014052670de0b6b3a764000061016052670e92596fd6290000610180526101a0919091526710a741a4627800006101c05267120a871cc00200006101e05267136dcc951d8c0000610200526714d1120d7b16000061022052620000d790600c90600e62000514565b50604080516101c0810182526107d0815261076c6020820152610708918101919091526106a4606082015261064060808201526105dc60a0820181905260c0820181905260e0820181905261010082015261057861012082015261038461014082015261019061016082015260c861018082015260646101a08201526200016390600d90600e6200056f565b503480156200017157600080fd5b5060405162002e7438038062002e74833981016040819052620001949162000647565b604080518082018252600c81526b2a32b9ba1029b832b1ba32b960a11b6020808301918252835180850190945260088452673a29b832b1ba32b960c11b908401528151919291620001e891600391620005b3565b508051620001fe906004906020840190620005b3565b5050506200021b620002156200031260201b60201c565b62000316565b6200022562000312565b600680546001600160a01b0319166001600160a01b0392831617908190556040519116906000907f74da04524d50c64947f5dd5381ef1a4dca5cba8ed1d816243f9e48aa0b5617ed908290a361271082106200029e5760405162461bcd60e51b8152600401620002959062000684565b60405180910390fd5b6001600160a01b038116620002c75760405162461bcd60e51b81526004016200029590620006bb565b620002d23062000368565b50620002e733670de0b6b3a76400006200040e565b600991909155600b80546001600160a01b0319166001600160a01b039092169190911790556200082e565b3390565b600580546001600160a01b038381166001600160a01b0319831681179093556040519116919082907f8be0079c531659141344cd1fd0a4f28419497f9722a3daafe3b4186f6b6457e090600090a35050565b600062000374620004e7565b806200038a57506008546001600160a01b031633145b620003a95760405162461bcd60e51b8152600401620002959062000740565b6001600160a01b0382166000908152600e602052604090205460ff1615620003e55760405162461bcd60e51b8152600401620002959062000709565b506001600160a01b03166000908152600e60205260409020805460ff1916600190811790915590565b6001600160a01b038216620004375760405162461bcd60e51b815260040162000295906200078c565b62000445600083836200050f565b8060026000828254620004599190620007cc565b90915550506001600160a01b0382166000908152602081905260408120805483929062000488908490620007cc565b90915550506040516001600160a01b038316906000907fddf252ad1be2c89b69c2b068fc378daa952ba7f163c4a11628f55a4df523b3ef90620004cd908590620007c3565b60405180910390a3620004e3600083836200050f565b5050565b6006546000906001600160a01b03166200050062000312565b6001600160a01b031614905090565b505050565b8280548282559060005260206000209081019282156200055d579160200282015b828111156200055d57825182906001600160401b031690559160200191906001019062000535565b506200056b92915062000630565b5090565b8280548282559060005260206000209081019282156200055d579160200282015b828111156200055d578251829061ffff1690559160200191906001019062000590565b828054620005c190620007f1565b90600052602060002090601f016020900481019282620005e557600085556200055d565b82601f106200060057805160ff19168380011785556200055d565b828001600101855582156200055d579182015b828111156200055d57825182559160200191906001019062000613565b5b808211156200056b576000815560010162000631565b600080604083850312156200065a578182fd5b825160208401519092506001600160a01b038116811462000679578182fd5b809150509250929050565b6020808252601b908201527f74617820657175616c206f722062696767657220746f20313030250000000000604082015260600190565b6020808252602e908201527f74617820636f6c6c6563746f722061646472657373206d757374206265206e6f60408201526d6e2d7a65726f206164647265737360901b606082015260800190565b60208082526019908201527f616464726573732063616e2774206265206578636c7564656400000000000000604082015260600190565b6020808252602c908201527f43616c6c6572206973206e6f7420746865206f70657261746f72206f7220746860408201526b6520746178206f666669636560a01b606082015260800190565b6020808252601f908201527f45524332303a206d696e7420746f20746865207a65726f206164647265737300604082015260600190565b90815260200190565b60008219821115620007ec57634e487b7160e01b81526011600452602481fd5b500190565b6002810460018216806200080657607f821691505b602082108114156200082857634e487b7160e01b600052602260045260246000fd5b50919050565b612636806200083e6000396000f3fe608060405234801561001057600080fd5b50600436106102bb5760003560e01c8063715018a611610182578063b60863d9116100e9578063dd62ed3e116100a2578063ee2a95351161007c578063ee2a953514610592578063f2fde38b1461059a578063ff87fc7c146105ad578063ffa8226e146105b5576102bb565b8063dd62ed3e14610559578063e178c8481461056c578063ebca1bd91461057f576102bb565b8063b60863d914610508578063b87c5a4a14610510578063c31a93b814610523578063c3bdf6131461052b578063c6d69a3014610533578063cf011b2614610546576102bb565b806395d89b411161013b57806395d89b41146104b75780639662676c146104bf5780639d6b5f21146104c7578063a457c2d7146104da578063a6431bba146104ed578063a9059cbb146104f5576102bb565b8063715018a614610471578063771a3a1d1461047957806379cc6790146104815780638d3cc818146104945780638da5cb5b1461049c57806393995d4b146104a4576102bb565b806342c6b4f111610226578063570ca735116101df578063570ca735146104155780635c29908d1461041d57806365bbacd91461043057806366206ce91461043857806369356d471461044b57806370a082311461045e576102bb565b806342c6b4f1146103c45780634456eda2146103d75780634e20a02c146103df5780634f6d38d0146103e7578063521181d5146103ef57806354575af414610402576102bb565b80633758e6ce116102785780633758e6ce1461035057806339509351146103635780633e5f13d4146103765780633f07d76a1461038b57806340c10f191461039e57806342966c68146103b1576102bb565b806306fdde03146102c0578063095ea7b3146102de57806318160ddd146102fe57806323b872dd1461031357806329605e7714610326578063313ce5671461033b575b600080fd5b6102c86105bd565b6040516102d59190611d0c565b60405180910390f35b6102f16102ec366004611bd8565b610650565b6040516102d59190611d01565b61030661066d565b6040516102d5919061248e565b6102f1610321366004611b98565b610673565b610339610334366004611afa565b610749565b005b61034361079d565b6040516102d59190612497565b6102f161035e366004611afa565b6107a2565b6102f1610371366004611bd8565b610843565b61037e610892565b6040516102d59190611cba565b610339610399366004611afa565b6108a1565b6102f16103ac366004611bd8565b610969565b6103396103bf366004611c80565b6109c4565b6103066103d2366004611c80565b6109cd565b6102f16109ee565b610306610a14565b610306610a22565b6103396103fd366004611b4e565b610a28565b610339610410366004611c23565b610b42565b61037e610bf2565b61030661042b366004611c80565b610c01565b610339610c11565b6102f1610446366004611c98565b610c4a565b610339610459366004611afa565b610d88565b61030661046c366004611afa565b610dfa565b610339610e15565b610306610e60565b61033961048f366004611bd8565b610e66565b6102f1610e9e565b61037e610eae565b6102f16104b2366004611afa565b610ebd565b6102c8610f55565b6102f1610f64565b6102f16104d5366004611c80565b610f74565b6102f16104e8366004611bd8565b610faa565b610306611023565b6102f1610503366004611bd8565b611029565b61037e61103d565b6102f161051e366004611c98565b61104c565b6103066110c7565b61037e6110d5565b610339610541366004611c80565b6110e4565b6102f1610554366004611afa565b61115e565b610306610567366004611b16565b611173565b61033961057a366004611afa565b61119e565b6102f161058d366004611afa565b61121f565b61030661123d565b6103396105a8366004611afa565b611243565b6103396112b1565b6103066112f0565b6060600380546105cc90612578565b80601f01602080910402602001604051908101604052809291908181526020018280546105f890612578565b80156106455780601f1061061a57610100808354040283529160200191610645565b820191906000526020600020905b81548152906001019060200180831161062857829003601f168201915b505050505090505b90565b600061066461065d6112fe565b8484611302565b50600192915050565b60025490565b600b5460009081908190600160a01b900460ff16156106b45760006106966113b6565b90506106a181611465565b9250600a548110156106b257600191505b505b8115806106d957506001600160a01b0386166000908152600e602052604090205460ff165b156106ee576106e986868661159b565b6106fc565b6106fa868686846116bf565b505b61073d866107086112fe565b610738876040518060600160405280602881526020016125d9602891396107318c6105676112fe565b9190611738565b611302565b50600195945050505050565b6107516112fe565b6001600160a01b0316610762610eae565b6001600160a01b0316146107915760405162461bcd60e51b81526004016107889061209a565b60405180910390fd5b61079a81611764565b50565b601290565b60006107ac6109ee565b806107c157506008546001600160a01b031633145b6107dd5760405162461bcd60e51b81526004016107889061235b565b6001600160a01b0382166000908152600e602052604090205460ff16156108165760405162461bcd60e51b815260040161078890612259565b506001600160a01b0381166000908152600e60205260409020805460ff191660019081179091555b919050565b60006106646108506112fe565b84846001600061085e6112fe565b6001600160a01b03908116825260208083019390935260409182016000908120918b168152925290205461073891906124a5565b6008546001600160a01b031681565b6108a96109ee565b806108be57506008546001600160a01b031633145b6108da5760405162461bcd60e51b81526004016107889061235b565b6001600160a01b0381166109005760405162461bcd60e51b815260040161078890611f7e565b6008546040517f75237613d1cfb394eb7979839ecbeacaca4592ef0cf96791979625803948a6019161093f916001600160a01b03909116908490611cce565b60405180910390a1600880546001600160a01b0319166001600160a01b0392909216919091179055565b6006546000906001600160a01b031633146109965760405162461bcd60e51b815260040161078890612161565b60006109a184610dfa565b90506109ad84846117e2565b60006109b885610dfa565b91909111949350505050565b61079a816118aa565b600c81815481106109dd57600080fd5b600091825260209091200154905081565b6006546000906001600160a01b0316610a056112fe565b6001600160a01b031614905090565b69043c33c193756480000081565b600a5481565b6006546001600160a01b03163314610a525760405162461bcd60e51b815260040161078890612161565b600654600160a01b900460ff1615610a7c5760405162461bcd60e51b815260040161078890611da2565b6001600160a01b038316610aa25760405162461bcd60e51b8152600401610788906123eb565b6001600160a01b038216610ac85760405162461bcd60e51b815260040161078890611f20565b6001600160a01b038116610aee5760405162461bcd60e51b8152600401610788906121a5565b6006805460ff60a01b1916600160a01b179055610b158369043c33c19375648000006117e2565b610b2982691da56a4b0835bf8000006117e2565b610b3d8169010f0cf064dd592000006117e2565b505050565b6006546001600160a01b03163314610b6c5760405162461bcd60e51b815260040161078890612161565b60405163a9059cbb60e01b81526001600160a01b0384169063a9059cbb90610b9a9084908690600401611ce8565b602060405180830381600087803b158015610bb457600080fd5b505af1158015610bc8573d6000803e3d6000fd5b505050506040513d601f19601f82011682018060405250810190610bec9190611c03565b50505050565b6006546001600160a01b031690565b600d81815481106109dd57600080fd5b6008546001600160a01b03163314610c3b5760405162461bcd60e51b815260040161078890612063565b600b805460ff60a01b19169055565b6008546000906001600160a01b03163314610c775760405162461bcd60e51b815260040161078890612063565b610c7f611023565b8360ff1610610ca05760405162461bcd60e51b8152600401610788906121ce565b60ff831615610ced57600c610cb6600185612538565b60ff1681548110610cd757634e487b7160e01b600052603260045260246000fd5b90600052602060002001548211610ced57600080fd5b610d006001610cfa611023565b906118bb565b8360ff161015610d4e57600c610d178460016124bd565b60ff1681548110610d3857634e487b7160e01b600052603260045260246000fd5b90600052602060002001548210610d4e57600080fd5b81600c8460ff1681548110610d7357634e487b7160e01b600052603260045260246000fd5b60009182526020909120015550600192915050565b6008546001600160a01b03163314610db25760405162461bcd60e51b815260040161078890612063565b6001600160a01b038116610dd85760405162461bcd60e51b8152600401610788906120cf565b600b80546001600160a01b0319166001600160a01b0392909216919091179055565b6001600160a01b031660009081526020819052604090205490565b610e1d6112fe565b6001600160a01b0316610e2e610eae565b6001600160a01b031614610e545760405162461bcd60e51b81526004016107889061209a565b610e5e60006118ce565b565b60095481565b6006546001600160a01b03163314610e905760405162461bcd60e51b815260040161078890612161565b610e9a8282611920565b5050565b600b54600160a01b900460ff1681565b6005546001600160a01b031690565b6000610ec76109ee565b80610edc57506008546001600160a01b031633145b610ef85760405162461bcd60e51b81526004016107889061235b565b6001600160a01b0382166000908152600e602052604090205460ff16610f305760405162461bcd60e51b815260040161078890611f47565b506001600160a01b03166000908152600e60205260409020805460ff19169055600190565b6060600480546105cc90612578565b600654600160a01b900460ff1681565b6008546000906001600160a01b03163314610fa15760405162461bcd60e51b815260040161078890612063565b600a9190915590565b60008060016000610fb96112fe565b6001600160a01b03908116825260208083019390935260409182016000908120918816815292529020549050828110156110055760405162461bcd60e51b815260040161078890612412565b6110196110106112fe565b85858403611302565b5060019392505050565b600c5490565b60006106646110366112fe565b848461159b565b6007546001600160a01b031681565b6008546000906001600160a01b031633146110795760405162461bcd60e51b815260040161078890612063565b61108161123d565b8360ff16106110a25760405162461bcd60e51b8152600401610788906121ce565b81600d8460ff1681548110610d7357634e487b7160e01b600052603260045260246000fd5b691da56a4b0835bf80000081565b600b546001600160a01b031681565b6008546001600160a01b0316331461110e5760405162461bcd60e51b815260040161078890612063565b600b54600160a01b900460ff16156111385760405162461bcd60e51b8152600401610788906122d2565b61271081106111595760405162461bcd60e51b815260040161078890611dd9565b600955565b600e6020526000908152604090205460ff1681565b6001600160a01b03918216600090815260016020908152604080832093909416825291909152205490565b6111a66109ee565b806111bb57506008546001600160a01b031633145b6111d75760405162461bcd60e51b81526004016107889061235b565b6001600160a01b0381166111fd5760405162461bcd60e51b815260040161078890612290565b600780546001600160a01b0319166001600160a01b0392909216919091179055565b6001600160a01b03166000908152600e602052604090205460ff1690565b600d5490565b61124b6112fe565b6001600160a01b031661125c610eae565b6001600160a01b0316146112825760405162461bcd60e51b81526004016107889061209a565b6001600160a01b0381166112a85760405162461bcd60e51b815260040161078890611e52565b61079a816118ce565b6008546001600160a01b031633146112db5760405162461bcd60e51b815260040161078890612063565b600b805460ff60a01b1916600160a01b179055565b69010f0cf064dd5920000081565b3390565b6001600160a01b0383166113285760405162461bcd60e51b8152600401610788906123a7565b6001600160a01b03821661134e5760405162461bcd60e51b815260040161078890611e98565b6001600160a01b0380841660008181526001602090815260408083209487168084529490915290819020849055517f8c5be1e5ebec7d5bd14f71427d1e84f3dd0314c0f7b2291e5b200ac8c7c3b925906113a990859061248e565b60405180910390a3505050565b600754604051633ddac95360e01b81526000916001600160a01b031690633ddac953906113f1903090670de0b6b3a764000090600401611ce8565b60206040518083038186803b15801561140957600080fd5b505afa925050508015611439575060408051601f3d908101601f1916820190925261143691810190611c59565b60015b6114555760405162461bcd60e51b815260040161078890611fc4565b6001600160901b0316905061064d565b600b54600090600160a01b900460ff161561083e5760006114926001611489611023565b60ff169061196e565b90505b600c8160ff16815481106114b957634e487b7160e01b600052603260045260246000fd5b9060005260206000200154831061158557612710600d8260ff16815481106114f157634e487b7160e01b600052603260045260246000fd5b9060005260206000200154106115195760405162461bcd60e51b815260040161078890611dd9565b600d8160ff168154811061153d57634e487b7160e01b600052603260045260246000fd5b9060005260206000200154600981905550600d8160ff168154811061157257634e487b7160e01b600052603260045260246000fd5b906000526020600020015491505061083e565b61158e8161255b565b9050611495565b50919050565b6001600160a01b0383166115c15760405162461bcd60e51b815260040161078890612316565b6001600160a01b0382166115e75760405162461bcd60e51b815260040161078890611d5f565b6115f2838383610b3d565b6001600160a01b0383166000908152602081905260409020548181101561162b5760405162461bcd60e51b815260040161078890611eda565b6001600160a01b038085166000908152602081905260408082208585039055918516815290812080548492906116629084906124a5565b92505081905550826001600160a01b0316846001600160a01b03167fddf252ad1be2c89b69c2b068fc378daa952ba7f163c4a11628f55a4df523b3ef846040516116ac919061248e565b60405180910390a3610bec848484610b3d565b6000806116e36127106116dd600954876119b090919063ffffffff16565b906119bc565b905060006116f185836118bb565b90508315611708576117038783611920565b611720565b600b546117209088906001600160a01b03168461159b565b61172b87878361159b565b5060019695505050505050565b6000818484111561175c5760405162461bcd60e51b81526004016107889190611d0c565b505050900390565b6001600160a01b03811661178a5760405162461bcd60e51b815260040161078890612016565b6040516001600160a01b038216906000907f74da04524d50c64947f5dd5381ef1a4dca5cba8ed1d816243f9e48aa0b5617ed908290a3600680546001600160a01b0319166001600160a01b0392909216919091179055565b6001600160a01b0382166118085760405162461bcd60e51b815260040161078890612457565b61181460008383610b3d565b806002600082825461182691906124a5565b90915550506001600160a01b038216600090815260208190526040812080548392906118539084906124a5565b90915550506040516001600160a01b038316906000907fddf252ad1be2c89b69c2b068fc378daa952ba7f163c4a11628f55a4df523b3ef9061189690859061248e565b60405180910390a3610e9a60008383610b3d565b61079a6118b56112fe565b826119c8565b60006118c78284612521565b9392505050565b600580546001600160a01b038381166001600160a01b0319831681179093556040519116919082907f8be0079c531659141344cd1fd0a4f28419497f9722a3daafe3b4186f6b6457e090600090a35050565b600061192e836105676112fe565b9050818110156119505760405162461bcd60e51b81526004016107889061211d565b6119648361195c6112fe565b848403611302565b610b3d83836119c8565b60006118c783836040518060400160405280601e81526020017f536166654d6174683a207375627472616374696f6e206f766572666c6f770000815250611ab9565b60006118c78284612502565b60006118c782846124e2565b6001600160a01b0382166119ee5760405162461bcd60e51b815260040161078890612218565b6119fa82600083610b3d565b6001600160a01b03821660009081526020819052604090205481811015611a335760405162461bcd60e51b815260040161078890611e10565b6001600160a01b0383166000908152602081905260408120838303905560028054849290611a62908490612521565b90915550506040516000906001600160a01b038516907fddf252ad1be2c89b69c2b068fc378daa952ba7f163c4a11628f55a4df523b3ef90611aa590869061248e565b60405180910390a3610b3d83600084610b3d565b60008360ff168360ff1611158290611ae45760405162461bcd60e51b81526004016107889190611d0c565b506000611af18486612538565b95945050505050565b600060208284031215611b0b578081fd5b81356118c7816125c3565b60008060408385031215611b28578081fd5b8235611b33816125c3565b91506020830135611b43816125c3565b809150509250929050565b600080600060608486031215611b62578081fd5b8335611b6d816125c3565b92506020840135611b7d816125c3565b91506040840135611b8d816125c3565b809150509250925092565b600080600060608486031215611bac578283fd5b8335611bb7816125c3565b92506020840135611bc7816125c3565b929592945050506040919091013590565b60008060408385031215611bea578182fd5b8235611bf5816125c3565b946020939093013593505050565b600060208284031215611c14578081fd5b815180151581146118c7578182fd5b600080600060608486031215611c37578283fd5b8335611c42816125c3565b9250602084013591506040840135611b8d816125c3565b600060208284031215611c6a578081fd5b81516001600160901b03811681146118c7578182fd5b600060208284031215611c91578081fd5b5035919050565b60008060408385031215611caa578182fd5b823560ff81168114611bf5578283fd5b6001600160a01b0391909116815260200190565b6001600160a01b0392831681529116602082015260400190565b6001600160a01b03929092168252602082015260400190565b901515815260200190565b6000602080835283518082850152825b81811015611d3857858101830151858201604001528201611d1c565b81811115611d495783604083870101525b50601f01601f1916929092016040019392505050565b60208082526023908201527f45524332303a207472616e7366657220746f20746865207a65726f206164647260408201526265737360e81b606082015260800190565b60208082526018908201527f6f6e6c792063616e2064697374726962757465206f6e63650000000000000000604082015260600190565b6020808252601b908201527f74617820657175616c206f722062696767657220746f20313030250000000000604082015260600190565b60208082526022908201527f45524332303a206275726e20616d6f756e7420657863656564732062616c616e604082015261636560f01b606082015260800190565b60208082526026908201527f4f776e61626c653a206e6577206f776e657220697320746865207a65726f206160408201526564647265737360d01b606082015260800190565b60208082526022908201527f45524332303a20617070726f766520746f20746865207a65726f206164647265604082015261737360f01b606082015260800190565b60208082526026908201527f45524332303a207472616e7366657220616d6f756e7420657863656564732062604082015265616c616e636560d01b606082015260800190565b6020808252600d908201526c0857dcdc1958dd195c941bdbdb609a1b604082015260600190565b60208082526019908201527f616464726573732063616e277420626520696e636c7564656400000000000000604082015260600190565b60208082526026908201527f746178206f666669636520616464726573732063616e6e6f742062652030206160408201526564647265737360d01b606082015260800190565b60208082526032908201527f537065637465723a206661696c656420746f20666574636820535045435445526040820152712070726963652066726f6d204f7261636c6560701b606082015260800190565b6020808252602d908201527f6f70657261746f723a207a65726f206164647265737320676976656e20666f7260408201526c103732bb9037b832b930ba37b960991b606082015260800190565b6020808252601c908201527f43616c6c6572206973206e6f742074686520746178206f666669636500000000604082015260600190565b6020808252818101527f4f776e61626c653a2063616c6c6572206973206e6f7420746865206f776e6572604082015260600190565b6020808252602e908201527f74617820636f6c6c6563746f722061646472657373206d757374206265206e6f60408201526d6e2d7a65726f206164647265737360901b606082015260800190565b60208082526024908201527f45524332303a206275726e20616d6f756e74206578636565647320616c6c6f77604082015263616e636560e01b606082015260800190565b60208082526024908201527f6f70657261746f723a2063616c6c6572206973206e6f7420746865206f70657260408201526330ba37b960e11b606082015260800190565b6020808252600f908201526e0857d85a5c991c9bdc15d85b1b195d608a1b604082015260600190565b6020808252602a908201527f496e6465782068617320746f206c6f776572207468616e20636f756e74206f666040820152692074617820746965727360b01b606082015260800190565b60208082526021908201527f45524332303a206275726e2066726f6d20746865207a65726f206164647265736040820152607360f81b606082015260800190565b60208082526019908201527f616464726573732063616e2774206265206578636c7564656400000000000000604082015260600190565b60208082526022908201527f6f7261636c6520616464726573732063616e6e6f742062652030206164647265604082015261737360f01b606082015260800190565b60208082526024908201527f6175746f2063616c63756c617465207461782063616e6e6f7420626520656e61604082015263189b195960e21b606082015260800190565b60208082526025908201527f45524332303a207472616e736665722066726f6d20746865207a65726f206164604082015264647265737360d81b606082015260800190565b6020808252602c908201527f43616c6c6572206973206e6f7420746865206f70657261746f72206f7220746860408201526b6520746178206f666669636560a01b606082015260800190565b60208082526024908201527f45524332303a20617070726f76652066726f6d20746865207a65726f206164646040820152637265737360e01b606082015260800190565b6020808252600d908201526c0857d9d95b995cda5cd41bdbdb609a1b604082015260600190565b60208082526025908201527f45524332303a2064656372656173656420616c6c6f77616e63652062656c6f77604082015264207a65726f60d81b606082015260800190565b6020808252601f908201527f45524332303a206d696e7420746f20746865207a65726f206164647265737300604082015260600190565b90815260200190565b60ff91909116815260200190565b600082198211156124b8576124b86125ad565b500190565b600060ff821660ff84168060ff038211156124da576124da6125ad565b019392505050565b6000826124fd57634e487b7160e01b81526012600452602481fd5b500490565b600081600019048311821515161561251c5761251c6125ad565b500290565b600082821015612533576125336125ad565b500390565b600060ff821660ff841680821015612552576125526125ad565b90039392505050565b600060ff82168061256e5761256e6125ad565b6000190192915050565b60028104600182168061258c57607f821691505b6020821081141561159557634e487b7160e01b600052602260045260246000fd5b634e487b7160e01b600052601160045260246000fd5b6001600160a01b038116811461079a57600080fdfe45524332303a207472616e7366657220616d6f756e74206578636565647320616c6c6f77616e6365a264697066735822122005cee705c8fb7876c64dc4387361bd7e5af0cff5fddb20590a3a44505ffb531464736f6c63430008000033",
			"opcodes": "PUSH1 0x6 DUP1 SLOAD PUSH1 0xFF PUSH1 0xA0 SHL NOT AND SWAP1 SSTORE PUSH8 0xF43FC2C04EE0000 PUSH1 0xA DUP2 SWAP1 SSTORE PUSH2 0x240 PUSH1 0x40 MSTORE PUSH1 0x0 PUSH1 0x80 SWAP1 DUP2 MSTORE PUSH8 0x6F05B59D3B20000 PUSH1 0xA0 MSTORE PUSH8 0x853A0D2313C0000 PUSH1 0xC0 MSTORE PUSH8 0x9B6E64A8EC60000 PUSH1 0xE0 MSTORE PUSH8 0xB1A2BC2EC500000 PUSH2 0x100 MSTORE PUSH8 0xC7D713B49DA0000 PUSH2 0x120 MSTORE PUSH8 0xD2F13F7789F0000 PUSH2 0x140 MSTORE PUSH8 0xDE0B6B3A7640000 PUSH2 0x160 MSTORE PUSH8 0xE92596FD6290000 PUSH2 0x180 MSTORE PUSH2 0x1A0 SWAP2 SWAP1 SWAP2 MSTORE PUSH8 0x10A741A462780000 PUSH2 0x1C0 MSTORE PUSH8 0x120A871CC0020000 PUSH2 0x1E0 MSTORE PUSH8 0x136DCC951D8C0000 PUSH2 0x200 MSTORE PUSH8 0x14D1120D7B160000 PUSH2 0x220 MSTORE PUSH3 0xD7 SWAP1 PUSH1 0xC SWAP1 PUSH1 0xE PUSH3 0x514 JUMP JUMPDEST POP PUSH1 0x40 DUP1 MLOAD PUSH2 0x1C0 DUP2 ADD DUP3 MSTORE PUSH2 0x7D0 DUP2 MSTORE PUSH2 0x76C PUSH1 0x20 DUP3 ADD MSTORE PUSH2 0x708 SWAP2 DUP2 ADD SWAP2 SWAP1 SWAP2 MSTORE PUSH2 0x6A4 PUSH1 0x60 DUP3 ADD MSTORE PUSH2 0x640 PUSH1 0x80 DUP3 ADD MSTORE PUSH2 0x5DC PUSH1 0xA0 DUP3 ADD DUP2 SWAP1 MSTORE PUSH1 0xC0 DUP3 ADD DUP2 SWAP1 MSTORE PUSH1 0xE0 DUP3 ADD DUP2 SWAP1 MSTORE PUSH2 0x100 DUP3 ADD MSTORE PUSH2 0x578 PUSH2 0x120 DUP3 ADD MSTORE PUSH2 0x384 PUSH2 0x140 DUP3 ADD MSTORE PUSH2 0x190 PUSH2 0x160 DUP3 ADD MSTORE PUSH1 0xC8 PUSH2 0x180 DUP3 ADD MSTORE PUSH1 0x64 PUSH2 0x1A0 DUP3 ADD MSTORE PUSH3 0x163 SWAP1 PUSH1 0xD SWAP1 PUSH1 0xE PUSH3 0x56F JUMP JUMPDEST POP CALLVALUE DUP1 ISZERO PUSH3 0x171 JUMPI PUSH1 0x0 DUP1 REVERT JUMPDEST POP PUSH1 0x40 MLOAD PUSH3 0x2E74 CODESIZE SUB DUP1 PUSH3 0x2E74 DUP4 CODECOPY DUP2 ADD PUSH1 0x40 DUP2 SWAP1 MSTORE PUSH3 0x194 SWAP2 PUSH3 0x647 JUMP JUMPDEST PUSH1 0x40 DUP1 MLOAD DUP1 DUP3 ADD DUP3 MSTORE PUSH1 0xC DUP2 MSTORE PUSH12 0x2A32B9BA1029B832B1BA32B9 PUSH1 0xA1 SHL PUSH1 0x20 DUP1 DUP4 ADD SWAP2 DUP3 MSTORE DUP4 MLOAD DUP1 DUP6 ADD SWAP1 SWAP5 MSTORE PUSH1 0x8 DUP5 MSTORE PUSH8 0x3A29B832B1BA32B9 PUSH1 0xC1 SHL SWAP1 DUP5 ADD MSTORE DUP2 MLOAD SWAP2 SWAP3 SWAP2 PUSH3 0x1E8 SWAP2 PUSH1 0x3 SWAP2 PUSH3 0x5B3 JUMP JUMPDEST POP DUP1 MLOAD PUSH3 0x1FE SWAP1 PUSH1 0x4 SWAP1 PUSH1 0x20 DUP5 ADD SWAP1 PUSH3 0x5B3 JUMP JUMPDEST POP POP POP PUSH3 0x21B PUSH3 0x215 PUSH3 0x312 PUSH1 0x20 SHL PUSH1 0x20 SHR JUMP JUMPDEST PUSH3 0x316 JUMP JUMPDEST PUSH3 0x225 PUSH3 0x312 JUMP JUMPDEST PUSH1 0x6 DUP1 SLOAD PUSH1 0x1 PUSH1 0x1 PUSH1 0xA0 SHL SUB NOT AND PUSH1 0x1 PUSH1 0x1 PUSH1 0xA0 SHL SUB SWAP3 DUP4 AND OR SWAP1 DUP2 SWAP1 SSTORE PUSH1 0x40 MLOAD SWAP2 AND SWAP1 PUSH1 0x0 SWAP1 PUSH32 0x74DA04524D50C64947F5DD5381EF1A4DCA5CBA8ED1D816243F9E48AA0B5617ED SWAP1 DUP3 SWAP1 LOG3 PUSH2 0x2710 DUP3 LT PUSH3 0x29E JUMPI PUSH1 0x40 MLOAD PUSH3 0x461BCD PUSH1 0xE5 SHL DUP2 MSTORE PUSH1 0x4 ADD PUSH3 0x295 SWAP1 PUSH3 0x684 JUMP JUMPDEST PUSH1 0x40 MLOAD DUP1 SWAP2 SUB SWAP1 REVERT JUMPDEST PUSH1 0x1 PUSH1 0x1 PUSH1 0xA0 SHL SUB DUP2 AND PUSH3 0x2C7 JUMPI PUSH1 0x40 MLOAD PUSH3 0x461BCD PUSH1 0xE5 SHL DUP2 MSTORE PUSH1 0x4 ADD PUSH3 0x295 SWAP1 PUSH3 0x6BB JUMP JUMPDEST PUSH3 0x2D2 ADDRESS PUSH3 0x368 JUMP JUMPDEST POP PUSH3 0x2E7 CALLER PUSH8 0xDE0B6B3A7640000 PUSH3 0x40E JUMP JUMPDEST PUSH1 0x9 SWAP2 SWAP1 SWAP2 SSTORE PUSH1 0xB DUP1 SLOAD PUSH1 0x1 PUSH1 0x1 PUSH1 0xA0 SHL SUB NOT AND PUSH1 0x1 PUSH1 0x1 PUSH1 0xA0 SHL SUB SWAP1 SWAP3 AND SWAP2 SWAP1 SWAP2 OR SWAP1 SSTORE PUSH3 0x82E JUMP JUMPDEST CALLER SWAP1 JUMP JUMPDEST PUSH1 0x5 DUP1 SLOAD PUSH1 0x1 PUSH1 0x1 PUSH1 0xA0 SHL SUB DUP4 DUP2 AND PUSH1 0x1 PUSH1 0x1 PUSH1 0xA0 SHL SUB NOT DUP4 AND DUP2 OR SWAP1 SWAP4 SSTORE PUSH1 0x40 MLOAD SWAP2 AND SWAP2 SWAP1 DUP3 SWAP1 PUSH32 0x8BE0079C531659141344CD1FD0A4F28419497F9722A3DAAFE3B4186F6B6457E0 SWAP1 PUSH1 0x0 SWAP1 LOG3 POP POP JUMP JUMPDEST PUSH1 0x0 PUSH3 0x374 PUSH3 0x4E7 JUMP JUMPDEST DUP1 PUSH3 0x38A JUMPI POP PUSH1 0x8 SLOAD PUSH1 0x1 PUSH1 0x1 PUSH1 0xA0 SHL SUB AND CALLER EQ JUMPDEST PUSH3 0x3A9 JUMPI PUSH1 0x40 MLOAD PUSH3 0x461BCD PUSH1 0xE5 SHL DUP2 MSTORE PUSH1 0x4 ADD PUSH3 0x295 SWAP1 PUSH3 0x740 JUMP JUMPDEST PUSH1 0x1 PUSH1 0x1 PUSH1 0xA0 SHL SUB DUP3 AND PUSH1 0x0 SWAP1 DUP2 MSTORE PUSH1 0xE PUSH1 0x20 MSTORE PUSH1 0x40 SWAP1 KECCAK256 SLOAD PUSH1 0xFF AND ISZERO PUSH3 0x3E5 JUMPI PUSH1 0x40 MLOAD PUSH3 0x461BCD PUSH1 0xE5 SHL DUP2 MSTORE PUSH1 0x4 ADD PUSH3 0x295 SWAP1 PUSH3 0x709 JUMP JUMPDEST POP PUSH1 0x1 PUSH1 0x1 PUSH1 0xA0 SHL SUB AND PUSH1 0x0 SWAP1 DUP2 MSTORE PUSH1 0xE PUSH1 0x20 MSTORE PUSH1 0x40 SWAP1 KECCAK256 DUP1 SLOAD PUSH1 0xFF NOT AND PUSH1 0x1 SWAP1 DUP2 OR SWAP1 SWAP2 SSTORE SWAP1 JUMP JUMPDEST PUSH1 0x1 PUSH1 0x1 PUSH1 0xA0 SHL SUB DUP3 AND PUSH3 0x437 JUMPI PUSH1 0x40 MLOAD PUSH3 0x461BCD PUSH1 0xE5 SHL DUP2 MSTORE PUSH1 0x4 ADD PUSH3 0x295 SWAP1 PUSH3 0x78C JUMP JUMPDEST PUSH3 0x445 PUSH1 0x0 DUP4 DUP4 PUSH3 0x50F JUMP JUMPDEST DUP1 PUSH1 0x2 PUSH1 0x0 DUP3 DUP3 SLOAD PUSH3 0x459 SWAP2 SWAP1 PUSH3 0x7CC JUMP JUMPDEST SWAP1 SWAP2 SSTORE POP POP PUSH1 0x1 PUSH1 0x1 PUSH1 0xA0 SHL SUB DUP3 AND PUSH1 0x0 SWAP1 DUP2 MSTORE PUSH1 0x20 DUP2 SWAP1 MSTORE PUSH1 0x40 DUP2 KECCAK256 DUP1 SLOAD DUP4 SWAP3 SWAP1 PUSH3 0x488 SWAP1 DUP5 SWAP1 PUSH3 0x7CC JUMP JUMPDEST SWAP1 SWAP2 SSTORE POP POP PUSH1 0x40 MLOAD PUSH1 0x1 PUSH1 0x1 PUSH1 0xA0 SHL SUB DUP4 AND SWAP1 PUSH1 0x0 SWAP1 PUSH32 0xDDF252AD1BE2C89B69C2B068FC378DAA952BA7F163C4A11628F55A4DF523B3EF SWAP1 PUSH3 0x4CD SWAP1 DUP6 SWAP1 PUSH3 0x7C3 JUMP JUMPDEST PUSH1 0x40 MLOAD DUP1 SWAP2 SUB SWAP1 LOG3 PUSH3 0x4E3 PUSH1 0x0 DUP4 DUP4 PUSH3 0x50F JUMP JUMPDEST POP POP JUMP JUMPDEST PUSH1 0x6 SLOAD PUSH1 0x0 SWAP1 PUSH1 0x1 PUSH1 0x1 PUSH1 0xA0 SHL SUB AND PUSH3 0x500 PUSH3 0x312 JUMP JUMPDEST PUSH1 0x1 PUSH1 0x1 PUSH1 0xA0 SHL SUB AND EQ SWAP1 POP SWAP1 JUMP JUMPDEST POP POP POP JUMP JUMPDEST DUP3 DUP1 SLOAD DUP3 DUP3 SSTORE SWAP1 PUSH1 0x0 MSTORE PUSH1 0x20 PUSH1 0x0 KECCAK256 SWAP1 DUP2 ADD SWAP3 DUP3 ISZERO PUSH3 0x55D JUMPI SWAP2 PUSH1 0x20 MUL DUP3 ADD JUMPDEST DUP3 DUP2 GT ISZERO PUSH3 0x55D JUMPI DUP3 MLOAD DUP3 SWAP1 PUSH1 0x1 PUSH1 0x1 PUSH1 0x40 SHL SUB AND SWAP1 SSTORE SWAP2 PUSH1 0x20 ADD SWAP2 SWAP1 PUSH1 0x1 ADD SWAP1 PUSH3 0x535 JUMP JUMPDEST POP PUSH3 0x56B SWAP3 SWAP2 POP PUSH3 0x630 JUMP JUMPDEST POP SWAP1 JUMP JUMPDEST DUP3 DUP1 SLOAD DUP3 DUP3 SSTORE SWAP1 PUSH1 0x0 MSTORE PUSH1 0x20 PUSH1 0x0 KECCAK256 SWAP1 DUP2 ADD SWAP3 DUP3 ISZERO PUSH3 0x55D JUMPI SWAP2 PUSH1 0x20 MUL DUP3 ADD JUMPDEST DUP3 DUP2 GT ISZERO PUSH3 0x55D JUMPI DUP3 MLOAD DUP3 SWAP1 PUSH2 0xFFFF AND SWAP1 SSTORE SWAP2 PUSH1 0x20 ADD SWAP2 SWAP1 PUSH1 0x1 ADD SWAP1 PUSH3 0x590 JUMP JUMPDEST DUP3 DUP1 SLOAD PUSH3 0x5C1 SWAP1 PUSH3 0x7F1 JUMP JUMPDEST SWAP1 PUSH1 0x0 MSTORE PUSH1 0x20 PUSH1 0x0 KECCAK256 SWAP1 PUSH1 0x1F ADD PUSH1 0x20 SWAP1 DIV DUP2 ADD SWAP3 DUP3 PUSH3 0x5E5 JUMPI PUSH1 0x0 DUP6 SSTORE PUSH3 0x55D JUMP JUMPDEST DUP3 PUSH1 0x1F LT PUSH3 0x600 JUMPI DUP1 MLOAD PUSH1 0xFF NOT AND DUP4 DUP1 ADD OR DUP6 SSTORE PUSH3 0x55D JUMP JUMPDEST DUP3 DUP1 ADD PUSH1 0x1 ADD DUP6 SSTORE DUP3 ISZERO PUSH3 0x55D JUMPI SWAP2 DUP3 ADD JUMPDEST DUP3 DUP2 GT ISZERO PUSH3 0x55D JUMPI DUP3 MLOAD DUP3 SSTORE SWAP2 PUSH1 0x20 ADD SWAP2 SWAP1 PUSH1 0x1 ADD SWAP1 PUSH3 0x613 JUMP JUMPDEST JUMPDEST DUP1 DUP3 GT ISZERO PUSH3 0x56B JUMPI PUSH1 0x0 DUP2 SSTORE PUSH1 0x1 ADD PUSH3 0x631 JUMP JUMPDEST PUSH1 0x0 DUP1 PUSH1 0x40 DUP4 DUP6 SUB SLT ISZERO PUSH3 0x65A JUMPI DUP2 DUP3 REVERT JUMPDEST DUP3 MLOAD PUSH1 0x20 DUP5 ADD MLOAD SWAP1 SWAP3 POP PUSH1 0x1 PUSH1 0x1 PUSH1 0xA0 SHL SUB DUP2 AND DUP2 EQ PUSH3 0x679 JUMPI DUP2 DUP3 REVERT JUMPDEST DUP1 SWAP2 POP POP SWAP3 POP SWAP3 SWAP1 POP JUMP JUMPDEST PUSH1 0x20 DUP1 DUP3 MSTORE PUSH1 0x1B SWAP1 DUP3 ADD MSTORE PUSH32 0x74617820657175616C206F722062696767657220746F20313030250000000000 PUSH1 0x40 DUP3 ADD MSTORE PUSH1 0x60 ADD SWAP1 JUMP JUMPDEST PUSH1 0x20 DUP1 DUP3 MSTORE PUSH1 0x2E SWAP1 DUP3 ADD MSTORE PUSH32 0x74617820636F6C6C6563746F722061646472657373206D757374206265206E6F PUSH1 0x40 DUP3 ADD MSTORE PUSH14 0x6E2D7A65726F2061646472657373 PUSH1 0x90 SHL PUSH1 0x60 DUP3 ADD MSTORE PUSH1 0x80 ADD SWAP1 JUMP JUMPDEST PUSH1 0x20 DUP1 DUP3 MSTORE PUSH1 0x19 SWAP1 DUP3 ADD MSTORE PUSH32 0x616464726573732063616E2774206265206578636C7564656400000000000000 PUSH1 0x40 DUP3 ADD MSTORE PUSH1 0x60 ADD SWAP1 JUMP JUMPDEST PUSH1 0x20 DUP1 DUP3 MSTORE PUSH1 0x2C SWAP1 DUP3 ADD MSTORE PUSH32 0x43616C6C6572206973206E6F7420746865206F70657261746F72206F72207468 PUSH1 0x40 DUP3 ADD MSTORE PUSH12 0x6520746178206F6666696365 PUSH1 0xA0 SHL PUSH1 0x60 DUP3 ADD MSTORE PUSH1 0x80 ADD SWAP1 JUMP JUMPDEST PUSH1 0x20 DUP1 DUP3 MSTORE PUSH1 0x1F SWAP1 DUP3 ADD MSTORE PUSH32 0x45524332303A206D696E7420746F20746865207A65726F206164647265737300 PUSH1 0x40 DUP3 ADD MSTORE PUSH1 0x60 ADD SWAP1 JUMP JUMPDEST SWAP1 DUP2 MSTORE PUSH1 0x20 ADD SWAP1 JUMP JUMPDEST PUSH1 0x0 DUP3 NOT DUP3 GT ISZERO PUSH3 0x7EC JUMPI PUSH4 0x4E487B71 PUSH1 0xE0 SHL DUP2 MSTORE PUSH1 0x11 PUSH1 0x4 MSTORE PUSH1 0x24 DUP2 REVERT JUMPDEST POP ADD SWAP1 JUMP JUMPDEST PUSH1 0x2 DUP2 DIV PUSH1 0x1 DUP3 AND DUP1 PUSH3 0x806 JUMPI PUSH1 0x7F DUP3 AND SWAP2 POP JUMPDEST PUSH1 0x20 DUP3 LT DUP2 EQ ISZERO PUSH3 0x828 JUMPI PUSH4 0x4E487B71 PUSH1 0xE0 SHL PUSH1 0x0 MSTORE PUSH1 0x22 PUSH1 0x4 MSTORE PUSH1 0x24 PUSH1 0x0 REVERT JUMPDEST POP SWAP2 SWAP1 POP JUMP JUMPDEST PUSH2 0x2636 DUP1 PUSH3 0x83E PUSH1 0x0 CODECOPY PUSH1 0x0 RETURN INVALID PUSH1 0x80 PUSH1 0x40 MSTORE CALLVALUE DUP1 ISZERO PUSH2 0x10 JUMPI PUSH1 0x0 DUP1 REVERT JUMPDEST POP PUSH1 0x4 CALLDATASIZE LT PUSH2 0x2BB JUMPI PUSH1 0x0 CALLDATALOAD PUSH1 0xE0 SHR DUP1 PUSH4 0x715018A6 GT PUSH2 0x182 JUMPI DUP1 PUSH4 0xB60863D9 GT PUSH2 0xE9 JUMPI DUP1 PUSH4 0xDD62ED3E GT PUSH2 0xA2 JUMPI DUP1 PUSH4 0xEE2A9535 GT PUSH2 0x7C JUMPI DUP1 PUSH4 0xEE2A9535 EQ PUSH2 0x592 JUMPI DUP1 PUSH4 0xF2FDE38B EQ PUSH2 0x59A JUMPI DUP1 PUSH4 0xFF87FC7C EQ PUSH2 0x5AD JUMPI DUP1 PUSH4 0xFFA8226E EQ PUSH2 0x5B5 JUMPI PUSH2 0x2BB JUMP JUMPDEST DUP1 PUSH4 0xDD62ED3E EQ PUSH2 0x559 JUMPI DUP1 PUSH4 0xE178C848 EQ PUSH2 0x56C JUMPI DUP1 PUSH4 0xEBCA1BD9 EQ PUSH2 0x57F JUMPI PUSH2 0x2BB JUMP JUMPDEST DUP1 PUSH4 0xB60863D9 EQ PUSH2 0x508 JUMPI DUP1 PUSH4 0xB87C5A4A EQ PUSH2 0x510 JUMPI DUP1 PUSH4 0xC31A93B8 EQ PUSH2 0x523 JUMPI DUP1 PUSH4 0xC3BDF613 EQ PUSH2 0x52B JUMPI DUP1 PUSH4 0xC6D69A30 EQ PUSH2 0x533 JUMPI DUP1 PUSH4 0xCF011B26 EQ PUSH2 0x546 JUMPI PUSH2 0x2BB JUMP JUMPDEST DUP1 PUSH4 0x95D89B41 GT PUSH2 0x13B JUMPI DUP1 PUSH4 0x95D89B41 EQ PUSH2 0x4B7 JUMPI DUP1 PUSH4 0x9662676C EQ PUSH2 0x4BF JUMPI DUP1 PUSH4 0x9D6B5F21 EQ PUSH2 0x4C7 JUMPI DUP1 PUSH4 0xA457C2D7 EQ PUSH2 0x4DA JUMPI DUP1 PUSH4 0xA6431BBA EQ PUSH2 0x4ED JUMPI DUP1 PUSH4 0xA9059CBB EQ PUSH2 0x4F5 JUMPI PUSH2 0x2BB JUMP JUMPDEST DUP1 PUSH4 0x715018A6 EQ PUSH2 0x471 JUMPI DUP1 PUSH4 0x771A3A1D EQ PUSH2 0x479 JUMPI DUP1 PUSH4 0x79CC6790 EQ PUSH2 0x481 JUMPI DUP1 PUSH4 0x8D3CC818 EQ PUSH2 0x494 JUMPI DUP1 PUSH4 0x8DA5CB5B EQ PUSH2 0x49C JUMPI DUP1 PUSH4 0x93995D4B EQ PUSH2 0x4A4 JUMPI PUSH2 0x2BB JUMP JUMPDEST DUP1 PUSH4 0x42C6B4F1 GT PUSH2 0x226 JUMPI DUP1 PUSH4 0x570CA735 GT PUSH2 0x1DF JUMPI DUP1 PUSH4 0x570CA735 EQ PUSH2 0x415 JUMPI DUP1 PUSH4 0x5C29908D EQ PUSH2 0x41D JUMPI DUP1 PUSH4 0x65BBACD9 EQ PUSH2 0x430 JUMPI DUP1 PUSH4 0x66206CE9 EQ PUSH2 0x438 JUMPI DUP1 PUSH4 0x69356D47 EQ PUSH2 0x44B JUMPI DUP1 PUSH4 0x70A08231 EQ PUSH2 0x45E JUMPI PUSH2 0x2BB JUMP JUMPDEST DUP1 PUSH4 0x42C6B4F1 EQ PUSH2 0x3C4 JUMPI DUP1 PUSH4 0x4456EDA2 EQ PUSH2 0x3D7 JUMPI DUP1 PUSH4 0x4E20A02C EQ PUSH2 0x3DF JUMPI DUP1 PUSH4 0x4F6D38D0 EQ PUSH2 0x3E7 JUMPI DUP1 PUSH4 0x521181D5 EQ PUSH2 0x3EF JUMPI DUP1 PUSH4 0x54575AF4 EQ PUSH2 0x402 JUMPI PUSH2 0x2BB JUMP JUMPDEST DUP1 PUSH4 0x3758E6CE GT PUSH2 0x278 JUMPI DUP1 PUSH4 0x3758E6CE EQ PUSH2 0x350 JUMPI DUP1 PUSH4 0x39509351 EQ PUSH2 0x363 JUMPI DUP1 PUSH4 0x3E5F13D4 EQ PUSH2 0x376 JUMPI DUP1 PUSH4 0x3F07D76A EQ PUSH2 0x38B JUMPI DUP1 PUSH4 0x40C10F19 EQ PUSH2 0x39E JUMPI DUP1 PUSH4 0x42966C68 EQ PUSH2 0x3B1 JUMPI PUSH2 0x2BB JUMP JUMPDEST DUP1 PUSH4 0x6FDDE03 EQ PUSH2 0x2C0 JUMPI DUP1 PUSH4 0x95EA7B3 EQ PUSH2 0x2DE JUMPI DUP1 PUSH4 0x18160DDD EQ PUSH2 0x2FE JUMPI DUP1 PUSH4 0x23B872DD EQ PUSH2 0x313 JUMPI DUP1 PUSH4 0x29605E77 EQ PUSH2 0x326 JUMPI DUP1 PUSH4 0x313CE567 EQ PUSH2 0x33B JUMPI JUMPDEST PUSH1 0x0 DUP1 REVERT JUMPDEST PUSH2 0x2C8 PUSH2 0x5BD JUMP JUMPDEST PUSH1 0x40 MLOAD PUSH2 0x2D5 SWAP2 SWAP1 PUSH2 0x1D0C JUMP JUMPDEST PUSH1 0x40 MLOAD DUP1 SWAP2 SUB SWAP1 RETURN JUMPDEST PUSH2 0x2F1 PUSH2 0x2EC CALLDATASIZE PUSH1 0x4 PUSH2 0x1BD8 JUMP JUMPDEST PUSH2 0x650 JUMP JUMPDEST PUSH1 0x40 MLOAD PUSH2 0x2D5 SWAP2 SWAP1 PUSH2 0x1D01 JUMP JUMPDEST PUSH2 0x306 PUSH2 0x66D JUMP JUMPDEST PUSH1 0x40 MLOAD PUSH2 0x2D5 SWAP2 SWAP1 PUSH2 0x248E JUMP JUMPDEST PUSH2 0x2F1 PUSH2 0x321 CALLDATASIZE PUSH1 0x4 PUSH2 0x1B98 JUMP JUMPDEST PUSH2 0x673 JUMP JUMPDEST PUSH2 0x339 PUSH2 0x334 CALLDATASIZE PUSH1 0x4 PUSH2 0x1AFA JUMP JUMPDEST PUSH2 0x749 JUMP JUMPDEST STOP JUMPDEST PUSH2 0x343 PUSH2 0x79D JUMP JUMPDEST PUSH1 0x40 MLOAD PUSH2 0x2D5 SWAP2 SWAP1 PUSH2 0x2497 JUMP JUMPDEST PUSH2 0x2F1 PUSH2 0x35E CALLDATASIZE PUSH1 0x4 PUSH2 0x1AFA JUMP JUMPDEST PUSH2 0x7A2 JUMP JUMPDEST PUSH2 0x2F1 PUSH2 0x371 CALLDATASIZE PUSH1 0x4 PUSH2 0x1BD8 JUMP JUMPDEST PUSH2 0x843 JUMP JUMPDEST PUSH2 0x37E PUSH2 0x892 JUMP JUMPDEST PUSH1 0x40 MLOAD PUSH2 0x2D5 SWAP2 SWAP1 PUSH2 0x1CBA JUMP JUMPDEST PUSH2 0x339 PUSH2 0x399 CALLDATASIZE PUSH1 0x4 PUSH2 0x1AFA JUMP JUMPDEST PUSH2 0x8A1 JUMP JUMPDEST PUSH2 0x2F1 PUSH2 0x3AC CALLDATASIZE PUSH1 0x4 PUSH2 0x1BD8 JUMP JUMPDEST PUSH2 0x969 JUMP JUMPDEST PUSH2 0x339 PUSH2 0x3BF CALLDATASIZE PUSH1 0x4 PUSH2 0x1C80 JUMP JUMPDEST PUSH2 0x9C4 JUMP JUMPDEST PUSH2 0x306 PUSH2 0x3D2 CALLDATASIZE PUSH1 0x4 PUSH2 0x1C80 JUMP JUMPDEST PUSH2 0x9CD JUMP JUMPDEST PUSH2 0x2F1 PUSH2 0x9EE JUMP JUMPDEST PUSH2 0x306 PUSH2 0xA14 JUMP JUMPDEST PUSH2 0x306 PUSH2 0xA22 JUMP JUMPDEST PUSH2 0x339 PUSH2 0x3FD CALLDATASIZE PUSH1 0x4 PUSH2 0x1B4E JUMP JUMPDEST PUSH2 0xA28 JUMP JUMPDEST PUSH2 0x339 PUSH2 0x410 CALLDATASIZE PUSH1 0x4 PUSH2 0x1C23 JUMP JUMPDEST PUSH2 0xB42 JUMP JUMPDEST PUSH2 0x37E PUSH2 0xBF2 JUMP JUMPDEST PUSH2 0x306 PUSH2 0x42B CALLDATASIZE PUSH1 0x4 PUSH2 0x1C80 JUMP JUMPDEST PUSH2 0xC01 JUMP JUMPDEST PUSH2 0x339 PUSH2 0xC11 JUMP JUMPDEST PUSH2 0x2F1 PUSH2 0x446 CALLDATASIZE PUSH1 0x4 PUSH2 0x1C98 JUMP JUMPDEST PUSH2 0xC4A JUMP JUMPDEST PUSH2 0x339 PUSH2 0x459 CALLDATASIZE PUSH1 0x4 PUSH2 0x1AFA JUMP JUMPDEST PUSH2 0xD88 JUMP JUMPDEST PUSH2 0x306 PUSH2 0x46C CALLDATASIZE PUSH1 0x4 PUSH2 0x1AFA JUMP JUMPDEST PUSH2 0xDFA JUMP JUMPDEST PUSH2 0x339 PUSH2 0xE15 JUMP JUMPDEST PUSH2 0x306 PUSH2 0xE60 JUMP JUMPDEST PUSH2 0x339 PUSH2 0x48F CALLDATASIZE PUSH1 0x4 PUSH2 0x1BD8 JUMP JUMPDEST PUSH2 0xE66 JUMP JUMPDEST PUSH2 0x2F1 PUSH2 0xE9E JUMP JUMPDEST PUSH2 0x37E PUSH2 0xEAE JUMP JUMPDEST PUSH2 0x2F1 PUSH2 0x4B2 CALLDATASIZE PUSH1 0x4 PUSH2 0x1AFA JUMP JUMPDEST PUSH2 0xEBD JUMP JUMPDEST PUSH2 0x2C8 PUSH2 0xF55 JUMP JUMPDEST PUSH2 0x2F1 PUSH2 0xF64 JUMP JUMPDEST PUSH2 0x2F1 PUSH2 0x4D5 CALLDATASIZE PUSH1 0x4 PUSH2 0x1C80 JUMP JUMPDEST PUSH2 0xF74 JUMP JUMPDEST PUSH2 0x2F1 PUSH2 0x4E8 CALLDATASIZE PUSH1 0x4 PUSH2 0x1BD8 JUMP JUMPDEST PUSH2 0xFAA JUMP JUMPDEST PUSH2 0x306 PUSH2 0x1023 JUMP JUMPDEST PUSH2 0x2F1 PUSH2 0x503 CALLDATASIZE PUSH1 0x4 PUSH2 0x1BD8 JUMP JUMPDEST PUSH2 0x1029 JUMP JUMPDEST PUSH2 0x37E PUSH2 0x103D JUMP JUMPDEST PUSH2 0x2F1 PUSH2 0x51E CALLDATASIZE PUSH1 0x4 PUSH2 0x1C98 JUMP JUMPDEST PUSH2 0x104C JUMP JUMPDEST PUSH2 0x306 PUSH2 0x10C7 JUMP JUMPDEST PUSH2 0x37E PUSH2 0x10D5 JUMP JUMPDEST PUSH2 0x339 PUSH2 0x541 CALLDATASIZE PUSH1 0x4 PUSH2 0x1C80 JUMP JUMPDEST PUSH2 0x10E4 JUMP JUMPDEST PUSH2 0x2F1 PUSH2 0x554 CALLDATASIZE PUSH1 0x4 PUSH2 0x1AFA JUMP JUMPDEST PUSH2 0x115E JUMP JUMPDEST PUSH2 0x306 PUSH2 0x567 CALLDATASIZE PUSH1 0x4 PUSH2 0x1B16 JUMP JUMPDEST PUSH2 0x1173 JUMP JUMPDEST PUSH2 0x339 PUSH2 0x57A CALLDATASIZE PUSH1 0x4 PUSH2 0x1AFA JUMP JUMPDEST PUSH2 0x119E JUMP JUMPDEST PUSH2 0x2F1 PUSH2 0x58D CALLDATASIZE PUSH1 0x4 PUSH2 0x1AFA JUMP JUMPDEST PUSH2 0x121F JUMP JUMPDEST PUSH2 0x306 PUSH2 0x123D JUMP JUMPDEST PUSH2 0x339 PUSH2 0x5A8 CALLDATASIZE PUSH1 0x4 PUSH2 0x1AFA JUMP JUMPDEST PUSH2 0x1243 JUMP JUMPDEST PUSH2 0x339 PUSH2 0x12B1 JUMP JUMPDEST PUSH2 0x306 PUSH2 0x12F0 JUMP JUMPDEST PUSH1 0x60 PUSH1 0x3 DUP1 SLOAD PUSH2 0x5CC SWAP1 PUSH2 0x2578 JUMP JUMPDEST DUP1 PUSH1 0x1F ADD PUSH1 0x20 DUP1 SWAP2 DIV MUL PUSH1 0x20 ADD PUSH1 0x40 MLOAD SWAP1 DUP2 ADD PUSH1 0x40 MSTORE DUP1 SWAP3 SWAP2 SWAP1 DUP2 DUP2 MSTORE PUSH1 0x20 ADD DUP3 DUP1 SLOAD PUSH2 0x5F8 SWAP1 PUSH2 0x2578 JUMP JUMPDEST DUP1 ISZERO PUSH2 0x645 JUMPI DUP1 PUSH1 0x1F LT PUSH2 0x61A JUMPI PUSH2 0x100 DUP1 DUP4 SLOAD DIV MUL DUP4 MSTORE SWAP2 PUSH1 0x20 ADD SWAP2 PUSH2 0x645 JUMP JUMPDEST DUP3 ADD SWAP2 SWAP1 PUSH1 0x0 MSTORE PUSH1 0x20 PUSH1 0x0 KECCAK256 SWAP1 JUMPDEST DUP2 SLOAD DUP2 MSTORE SWAP1 PUSH1 0x1 ADD SWAP1 PUSH1 0x20 ADD DUP1 DUP4 GT PUSH2 0x628 JUMPI DUP3 SWAP1 SUB PUSH1 0x1F AND DUP3 ADD SWAP2 JUMPDEST POP POP POP POP POP SWAP1 POP JUMPDEST SWAP1 JUMP JUMPDEST PUSH1 0x0 PUSH2 0x664 PUSH2 0x65D PUSH2 0x12FE JUMP JUMPDEST DUP5 DUP5 PUSH2 0x1302 JUMP JUMPDEST POP PUSH1 0x1 SWAP3 SWAP2 POP POP JUMP JUMPDEST PUSH1 0x2 SLOAD SWAP1 JUMP JUMPDEST PUSH1 0xB SLOAD PUSH1 0x0 SWAP1 DUP2 SWAP1 DUP2 SWAP1 PUSH1 0x1 PUSH1 0xA0 SHL SWAP1 DIV PUSH1 0xFF AND ISZERO PUSH2 0x6B4 JUMPI PUSH1 0x0 PUSH2 0x696 PUSH2 0x13B6 JUMP JUMPDEST SWAP1 POP PUSH2 0x6A1 DUP2 PUSH2 0x1465 JUMP JUMPDEST SWAP3 POP PUSH1 0xA SLOAD DUP2 LT ISZERO PUSH2 0x6B2 JUMPI PUSH1 0x1 SWAP2 POP JUMPDEST POP JUMPDEST DUP2 ISZERO DUP1 PUSH2 0x6D9 JUMPI POP PUSH1 0x1 PUSH1 0x1 PUSH1 0xA0 SHL SUB DUP7 AND PUSH1 0x0 SWAP1 DUP2 MSTORE PUSH1 0xE PUSH1 0x20 MSTORE PUSH1 0x40 SWAP1 KECCAK256 SLOAD PUSH1 0xFF AND JUMPDEST ISZERO PUSH2 0x6EE JUMPI PUSH2 0x6E9 DUP7 DUP7 DUP7 PUSH2 0x159B JUMP JUMPDEST PUSH2 0x6FC JUMP JUMPDEST PUSH2 0x6FA DUP7 DUP7 DUP7 DUP5 PUSH2 0x16BF JUMP JUMPDEST POP JUMPDEST PUSH2 0x73D DUP7 PUSH2 0x708 PUSH2 0x12FE JUMP JUMPDEST PUSH2 0x738 DUP8 PUSH1 0x40 MLOAD DUP1 PUSH1 0x60 ADD PUSH1 0x40 MSTORE DUP1 PUSH1 0x28 DUP2 MSTORE PUSH1 0x20 ADD PUSH2 0x25D9 PUSH1 0x28 SWAP2 CODECOPY PUSH2 0x731 DUP13 PUSH2 0x567 PUSH2 0x12FE JUMP JUMPDEST SWAP2 SWAP1 PUSH2 0x1738 JUMP JUMPDEST PUSH2 0x1302 JUMP JUMPDEST POP PUSH1 0x1 SWAP6 SWAP5 POP POP POP POP POP JUMP JUMPDEST PUSH2 0x751 PUSH2 0x12FE JUMP JUMPDEST PUSH1 0x1 PUSH1 0x1 PUSH1 0xA0 SHL SUB AND PUSH2 0x762 PUSH2 0xEAE JUMP JUMPDEST PUSH1 0x1 PUSH1 0x1 PUSH1 0xA0 SHL SUB AND EQ PUSH2 0x791 JUMPI PUSH1 0x40 MLOAD PUSH3 0x461BCD PUSH1 0xE5 SHL DUP2 MSTORE PUSH1 0x4 ADD PUSH2 0x788 SWAP1 PUSH2 0x209A JUMP JUMPDEST PUSH1 0x40 MLOAD DUP1 SWAP2 SUB SWAP1 REVERT JUMPDEST PUSH2 0x79A DUP2 PUSH2 0x1764 JUMP JUMPDEST POP JUMP JUMPDEST PUSH1 0x12 SWAP1 JUMP JUMPDEST PUSH1 0x0 PUSH2 0x7AC PUSH2 0x9EE JUMP JUMPDEST DUP1 PUSH2 0x7C1 JUMPI POP PUSH1 0x8 SLOAD PUSH1 0x1 PUSH1 0x1 PUSH1 0xA0 SHL SUB AND CALLER EQ JUMPDEST PUSH2 0x7DD JUMPI PUSH1 0x40 MLOAD PUSH3 0x461BCD PUSH1 0xE5 SHL DUP2 MSTORE PUSH1 0x4 ADD PUSH2 0x788 SWAP1 PUSH2 0x235B JUMP JUMPDEST PUSH1 0x1 PUSH1 0x1 PUSH1 0xA0 SHL SUB DUP3 AND PUSH1 0x0 SWAP1 DUP2 MSTORE PUSH1 0xE PUSH1 0x20 MSTORE PUSH1 0x40 SWAP1 KECCAK256 SLOAD PUSH1 0xFF AND ISZERO PUSH2 0x816 JUMPI PUSH1 0x40 MLOAD PUSH3 0x461BCD PUSH1 0xE5 SHL DUP2 MSTORE PUSH1 0x4 ADD PUSH2 0x788 SWAP1 PUSH2 0x2259 JUMP JUMPDEST POP PUSH1 0x1 PUSH1 0x1 PUSH1 0xA0 SHL SUB DUP2 AND PUSH1 0x0 SWAP1 DUP2 MSTORE PUSH1 0xE PUSH1 0x20 MSTORE PUSH1 0x40 SWAP1 KECCAK256 DUP1 SLOAD PUSH1 0xFF NOT AND PUSH1 0x1 SWAP1 DUP2 OR SWAP1 SWAP2 SSTORE JUMPDEST SWAP2 SWAP1 POP JUMP JUMPDEST PUSH1 0x0 PUSH2 0x664 PUSH2 0x850 PUSH2 0x12FE JUMP JUMPDEST DUP5 DUP5 PUSH1 0x1 PUSH1 0x0 PUSH2 0x85E PUSH2 0x12FE JUMP JUMPDEST PUSH1 0x1 PUSH1 0x1 PUSH1 0xA0 SHL SUB SWAP1 DUP2 AND DUP3 MSTORE PUSH1 0x20 DUP1 DUP4 ADD SWAP4 SWAP1 SWAP4 MSTORE PUSH1 0x40 SWAP2 DUP3 ADD PUSH1 0x0 SWAP1 DUP2 KECCAK256 SWAP2 DUP12 AND DUP2 MSTORE SWAP3 MSTORE SWAP1 KECCAK256 SLOAD PUSH2 0x738 SWAP2 SWAP1 PUSH2 0x24A5 JUMP JUMPDEST PUSH1 0x8 SLOAD PUSH1 0x1 PUSH1 0x1 PUSH1 0xA0 SHL SUB AND DUP2 JUMP JUMPDEST PUSH2 0x8A9 PUSH2 0x9EE JUMP JUMPDEST DUP1 PUSH2 0x8BE JUMPI POP PUSH1 0x8 SLOAD PUSH1 0x1 PUSH1 0x1 PUSH1 0xA0 SHL SUB AND CALLER EQ JUMPDEST PUSH2 0x8DA JUMPI PUSH1 0x40 MLOAD PUSH3 0x461BCD PUSH1 0xE5 SHL DUP2 MSTORE PUSH1 0x4 ADD PUSH2 0x788 SWAP1 PUSH2 0x235B JUMP JUMPDEST PUSH1 0x1 PUSH1 0x1 PUSH1 0xA0 SHL SUB DUP2 AND PUSH2 0x900 JUMPI PUSH1 0x40 MLOAD PUSH3 0x461BCD PUSH1 0xE5 SHL DUP2 MSTORE PUSH1 0x4 ADD PUSH2 0x788 SWAP1 PUSH2 0x1F7E JUMP JUMPDEST PUSH1 0x8 SLOAD PUSH1 0x40 MLOAD PUSH32 0x75237613D1CFB394EB7979839ECBEACACA4592EF0CF96791979625803948A601 SWAP2 PUSH2 0x93F SWAP2 PUSH1 0x1 PUSH1 0x1 PUSH1 0xA0 SHL SUB SWAP1 SWAP2 AND SWAP1 DUP5 SWAP1 PUSH2 0x1CCE JUMP JUMPDEST PUSH1 0x40 MLOAD DUP1 SWAP2 SUB SWAP1 LOG1 PUSH1 0x8 DUP1 SLOAD PUSH1 0x1 PUSH1 0x1 PUSH1 0xA0 SHL SUB NOT AND PUSH1 0x1 PUSH1 0x1 PUSH1 0xA0 SHL SUB SWAP3 SWAP1 SWAP3 AND SWAP2 SWAP1 SWAP2 OR SWAP1 SSTORE JUMP JUMPDEST PUSH1 0x6 SLOAD PUSH1 0x0 SWAP1 PUSH1 0x1 PUSH1 0x1 PUSH1 0xA0 SHL SUB AND CALLER EQ PUSH2 0x996 JUMPI PUSH1 0x40 MLOAD PUSH3 0x461BCD PUSH1 0xE5 SHL DUP2 MSTORE PUSH1 0x4 ADD PUSH2 0x788 SWAP1 PUSH2 0x2161 JUMP JUMPDEST PUSH1 0x0 PUSH2 0x9A1 DUP5 PUSH2 0xDFA JUMP JUMPDEST SWAP1 POP PUSH2 0x9AD DUP5 DUP5 PUSH2 0x17E2 JUMP JUMPDEST PUSH1 0x0 PUSH2 0x9B8 DUP6 PUSH2 0xDFA JUMP JUMPDEST SWAP2 SWAP1 SWAP2 GT SWAP5 SWAP4 POP POP POP POP JUMP JUMPDEST PUSH2 0x79A DUP2 PUSH2 0x18AA JUMP JUMPDEST PUSH1 0xC DUP2 DUP2 SLOAD DUP2 LT PUSH2 0x9DD JUMPI PUSH1 0x0 DUP1 REVERT JUMPDEST PUSH1 0x0 SWAP2 DUP3 MSTORE PUSH1 0x20 SWAP1 SWAP2 KECCAK256 ADD SLOAD SWAP1 POP DUP2 JUMP JUMPDEST PUSH1 0x6 SLOAD PUSH1 0x0 SWAP1 PUSH1 0x1 PUSH1 0x1 PUSH1 0xA0 SHL SUB AND PUSH2 0xA05 PUSH2 0x12FE JUMP JUMPDEST PUSH1 0x1 PUSH1 0x1 PUSH1 0xA0 SHL SUB AND EQ SWAP1 POP SWAP1 JUMP JUMPDEST PUSH10 0x43C33C1937564800000 DUP2 JUMP JUMPDEST PUSH1 0xA SLOAD DUP2 JUMP JUMPDEST PUSH1 0x6 SLOAD PUSH1 0x1 PUSH1 0x1 PUSH1 0xA0 SHL SUB AND CALLER EQ PUSH2 0xA52 JUMPI PUSH1 0x40 MLOAD PUSH3 0x461BCD PUSH1 0xE5 SHL DUP2 MSTORE PUSH1 0x4 ADD PUSH2 0x788 SWAP1 PUSH2 0x2161 JUMP JUMPDEST PUSH1 0x6 SLOAD PUSH1 0x1 PUSH1 0xA0 SHL SWAP1 DIV PUSH1 0xFF AND ISZERO PUSH2 0xA7C JUMPI PUSH1 0x40 MLOAD PUSH3 0x461BCD PUSH1 0xE5 SHL DUP2 MSTORE PUSH1 0x4 ADD PUSH2 0x788 SWAP1 PUSH2 0x1DA2 JUMP JUMPDEST PUSH1 0x1 PUSH1 0x1 PUSH1 0xA0 SHL SUB DUP4 AND PUSH2 0xAA2 JUMPI PUSH1 0x40 MLOAD PUSH3 0x461BCD PUSH1 0xE5 SHL DUP2 MSTORE PUSH1 0x4 ADD PUSH2 0x788 SWAP1 PUSH2 0x23EB JUMP JUMPDEST PUSH1 0x1 PUSH1 0x1 PUSH1 0xA0 SHL SUB DUP3 AND PUSH2 0xAC8 JUMPI PUSH1 0x40 MLOAD PUSH3 0x461BCD PUSH1 0xE5 SHL DUP2 MSTORE PUSH1 0x4 ADD PUSH2 0x788 SWAP1 PUSH2 0x1F20 JUMP JUMPDEST PUSH1 0x1 PUSH1 0x1 PUSH1 0xA0 SHL SUB DUP2 AND PUSH2 0xAEE JUMPI PUSH1 0x40 MLOAD PUSH3 0x461BCD PUSH1 0xE5 SHL DUP2 MSTORE PUSH1 0x4 ADD PUSH2 0x788 SWAP1 PUSH2 0x21A5 JUMP JUMPDEST PUSH1 0x6 DUP1 SLOAD PUSH1 0xFF PUSH1 0xA0 SHL NOT AND PUSH1 0x1 PUSH1 0xA0 SHL OR SWAP1 SSTORE PUSH2 0xB15 DUP4 PUSH10 0x43C33C1937564800000 PUSH2 0x17E2 JUMP JUMPDEST PUSH2 0xB29 DUP3 PUSH10 0x1DA56A4B0835BF800000 PUSH2 0x17E2 JUMP JUMPDEST PUSH2 0xB3D DUP2 PUSH10 0x10F0CF064DD59200000 PUSH2 0x17E2 JUMP JUMPDEST POP POP POP JUMP JUMPDEST PUSH1 0x6 SLOAD PUSH1 0x1 PUSH1 0x1 PUSH1 0xA0 SHL SUB AND CALLER EQ PUSH2 0xB6C JUMPI PUSH1 0x40 MLOAD PUSH3 0x461BCD PUSH1 0xE5 SHL DUP2 MSTORE PUSH1 0x4 ADD PUSH2 0x788 SWAP1 PUSH2 0x2161 JUMP JUMPDEST PUSH1 0x40 MLOAD PUSH4 0xA9059CBB PUSH1 0xE0 SHL DUP2 MSTORE PUSH1 0x1 PUSH1 0x1 PUSH1 0xA0 SHL SUB DUP5 AND SWAP1 PUSH4 0xA9059CBB SWAP1 PUSH2 0xB9A SWAP1 DUP5 SWAP1 DUP7 SWAP1 PUSH1 0x4 ADD PUSH2 0x1CE8 JUMP JUMPDEST PUSH1 0x20 PUSH1 0x40 MLOAD DUP1 DUP4 SUB DUP2 PUSH1 0x0 DUP8 DUP1 EXTCODESIZE ISZERO DUP1 ISZERO PUSH2 0xBB4 JUMPI PUSH1 0x0 DUP1 REVERT JUMPDEST POP GAS CALL ISZERO DUP1 ISZERO PUSH2 0xBC8 JUMPI RETURNDATASIZE PUSH1 0x0 DUP1 RETURNDATACOPY RETURNDATASIZE PUSH1 0x0 REVERT JUMPDEST POP POP POP POP PUSH1 0x40 MLOAD RETURNDATASIZE PUSH1 0x1F NOT PUSH1 0x1F DUP3 ADD AND DUP3 ADD DUP1 PUSH1 0x40 MSTORE POP DUP2 ADD SWAP1 PUSH2 0xBEC SWAP2 SWAP1 PUSH2 0x1C03 JUMP JUMPDEST POP POP POP POP JUMP JUMPDEST PUSH1 0x6 SLOAD PUSH1 0x1 PUSH1 0x1 PUSH1 0xA0 SHL SUB AND SWAP1 JUMP JUMPDEST PUSH1 0xD DUP2 DUP2 SLOAD DUP2 LT PUSH2 0x9DD JUMPI PUSH1 0x0 DUP1 REVERT JUMPDEST PUSH1 0x8 SLOAD PUSH1 0x1 PUSH1 0x1 PUSH1 0xA0 SHL SUB AND CALLER EQ PUSH2 0xC3B JUMPI PUSH1 0x40 MLOAD PUSH3 0x461BCD PUSH1 0xE5 SHL DUP2 MSTORE PUSH1 0x4 ADD PUSH2 0x788 SWAP1 PUSH2 0x2063 JUMP JUMPDEST PUSH1 0xB DUP1 SLOAD PUSH1 0xFF PUSH1 0xA0 SHL NOT AND SWAP1 SSTORE JUMP JUMPDEST PUSH1 0x8 SLOAD PUSH1 0x0 SWAP1 PUSH1 0x1 PUSH1 0x1 PUSH1 0xA0 SHL SUB AND CALLER EQ PUSH2 0xC77 JUMPI PUSH1 0x40 MLOAD PUSH3 0x461BCD PUSH1 0xE5 SHL DUP2 MSTORE PUSH1 0x4 ADD PUSH2 0x788 SWAP1 PUSH2 0x2063 JUMP JUMPDEST PUSH2 0xC7F PUSH2 0x1023 JUMP JUMPDEST DUP4 PUSH1 0xFF AND LT PUSH2 0xCA0 JUMPI PUSH1 0x40 MLOAD PUSH3 0x461BCD PUSH1 0xE5 SHL DUP2 MSTORE PUSH1 0x4 ADD PUSH2 0x788 SWAP1 PUSH2 0x21CE JUMP JUMPDEST PUSH1 0xFF DUP4 AND ISZERO PUSH2 0xCED JUMPI PUSH1 0xC PUSH2 0xCB6 PUSH1 0x1 DUP6 PUSH2 0x2538 JUMP JUMPDEST PUSH1 0xFF AND DUP2 SLOAD DUP2 LT PUSH2 0xCD7 JUMPI PUSH4 0x4E487B71 PUSH1 0xE0 SHL PUSH1 0x0 MSTORE PUSH1 0x32 PUSH1 0x4 MSTORE PUSH1 0x24 PUSH1 0x0 REVERT JUMPDEST SWAP1 PUSH1 0x0 MSTORE PUSH1 0x20 PUSH1 0x0 KECCAK256 ADD SLOAD DUP3 GT PUSH2 0xCED JUMPI PUSH1 0x0 DUP1 REVERT JUMPDEST PUSH2 0xD00 PUSH1 0x1 PUSH2 0xCFA PUSH2 0x1023 JUMP JUMPDEST SWAP1 PUSH2 0x18BB JUMP JUMPDEST DUP4 PUSH1 0xFF AND LT ISZERO PUSH2 0xD4E JUMPI PUSH1 0xC PUSH2 0xD17 DUP5 PUSH1 0x1 PUSH2 0x24BD JUMP JUMPDEST PUSH1 0xFF AND DUP2 SLOAD DUP2 LT PUSH2 0xD38 JUMPI PUSH4 0x4E487B71 PUSH1 0xE0 SHL PUSH1 0x0 MSTORE PUSH1 0x32 PUSH1 0x4 MSTORE PUSH1 0x24 PUSH1 0x0 REVERT JUMPDEST SWAP1 PUSH1 0x0 MSTORE PUSH1 0x20 PUSH1 0x0 KECCAK256 ADD SLOAD DUP3 LT PUSH2 0xD4E JUMPI PUSH1 0x0 DUP1 REVERT JUMPDEST DUP2 PUSH1 0xC DUP5 PUSH1 0xFF AND DUP2 SLOAD DUP2 LT PUSH2 0xD73 JUMPI PUSH4 0x4E487B71 PUSH1 0xE0 SHL PUSH1 0x0 MSTORE PUSH1 0x32 PUSH1 0x4 MSTORE PUSH1 0x24 PUSH1 0x0 REVERT JUMPDEST PUSH1 0x0 SWAP2 DUP3 MSTORE PUSH1 0x20 SWAP1 SWAP2 KECCAK256 ADD SSTORE POP PUSH1 0x1 SWAP3 SWAP2 POP POP JUMP JUMPDEST PUSH1 0x8 SLOAD PUSH1 0x1 PUSH1 0x1 PUSH1 0xA0 SHL SUB AND CALLER EQ PUSH2 0xDB2 JUMPI PUSH1 0x40 MLOAD PUSH3 0x461BCD PUSH1 0xE5 SHL DUP2 MSTORE PUSH1 0x4 ADD PUSH2 0x788 SWAP1 PUSH2 0x2063 JUMP JUMPDEST PUSH1 0x1 PUSH1 0x1 PUSH1 0xA0 SHL SUB DUP2 AND PUSH2 0xDD8 JUMPI PUSH1 0x40 MLOAD PUSH3 0x461BCD PUSH1 0xE5 SHL DUP2 MSTORE PUSH1 0x4 ADD PUSH2 0x788 SWAP1 PUSH2 0x20CF JUMP JUMPDEST PUSH1 0xB DUP1 SLOAD PUSH1 0x1 PUSH1 0x1 PUSH1 0xA0 SHL SUB NOT AND PUSH1 0x1 PUSH1 0x1 PUSH1 0xA0 SHL SUB SWAP3 SWAP1 SWAP3 AND SWAP2 SWAP1 SWAP2 OR SWAP1 SSTORE JUMP JUMPDEST PUSH1 0x1 PUSH1 0x1 PUSH1 0xA0 SHL SUB AND PUSH1 0x0 SWAP1 DUP2 MSTORE PUSH1 0x20 DUP2 SWAP1 MSTORE PUSH1 0x40 SWAP1 KECCAK256 SLOAD SWAP1 JUMP JUMPDEST PUSH2 0xE1D PUSH2 0x12FE JUMP JUMPDEST PUSH1 0x1 PUSH1 0x1 PUSH1 0xA0 SHL SUB AND PUSH2 0xE2E PUSH2 0xEAE JUMP JUMPDEST PUSH1 0x1 PUSH1 0x1 PUSH1 0xA0 SHL SUB AND EQ PUSH2 0xE54 JUMPI PUSH1 0x40 MLOAD PUSH3 0x461BCD PUSH1 0xE5 SHL DUP2 MSTORE PUSH1 0x4 ADD PUSH2 0x788 SWAP1 PUSH2 0x209A JUMP JUMPDEST PUSH2 0xE5E PUSH1 0x0 PUSH2 0x18CE JUMP JUMPDEST JUMP JUMPDEST PUSH1 0x9 SLOAD DUP2 JUMP JUMPDEST PUSH1 0x6 SLOAD PUSH1 0x1 PUSH1 0x1 PUSH1 0xA0 SHL SUB AND CALLER EQ PUSH2 0xE90 JUMPI PUSH1 0x40 MLOAD PUSH3 0x461BCD PUSH1 0xE5 SHL DUP2 MSTORE PUSH1 0x4 ADD PUSH2 0x788 SWAP1 PUSH2 0x2161 JUMP JUMPDEST PUSH2 0xE9A DUP3 DUP3 PUSH2 0x1920 JUMP JUMPDEST POP POP JUMP JUMPDEST PUSH1 0xB SLOAD PUSH1 0x1 PUSH1 0xA0 SHL SWAP1 DIV PUSH1 0xFF AND DUP2 JUMP JUMPDEST PUSH1 0x5 SLOAD PUSH1 0x1 PUSH1 0x1 PUSH1 0xA0 SHL SUB AND SWAP1 JUMP JUMPDEST PUSH1 0x0 PUSH2 0xEC7 PUSH2 0x9EE JUMP JUMPDEST DUP1 PUSH2 0xEDC JUMPI POP PUSH1 0x8 SLOAD PUSH1 0x1 PUSH1 0x1 PUSH1 0xA0 SHL SUB AND CALLER EQ JUMPDEST PUSH2 0xEF8 JUMPI PUSH1 0x40 MLOAD PUSH3 0x461BCD PUSH1 0xE5 SHL DUP2 MSTORE PUSH1 0x4 ADD PUSH2 0x788 SWAP1 PUSH2 0x235B JUMP JUMPDEST PUSH1 0x1 PUSH1 0x1 PUSH1 0xA0 SHL SUB DUP3 AND PUSH1 0x0 SWAP1 DUP2 MSTORE PUSH1 0xE PUSH1 0x20 MSTORE PUSH1 0x40 SWAP1 KECCAK256 SLOAD PUSH1 0xFF AND PUSH2 0xF30 JUMPI PUSH1 0x40 MLOAD PUSH3 0x461BCD PUSH1 0xE5 SHL DUP2 MSTORE PUSH1 0x4 ADD PUSH2 0x788 SWAP1 PUSH2 0x1F47 JUMP JUMPDEST POP PUSH1 0x1 PUSH1 0x1 PUSH1 0xA0 SHL SUB AND PUSH1 0x0 SWAP1 DUP2 MSTORE PUSH1 0xE PUSH1 0x20 MSTORE PUSH1 0x40 SWAP1 KECCAK256 DUP1 SLOAD PUSH1 0xFF NOT AND SWAP1 SSTORE PUSH1 0x1 SWAP1 JUMP JUMPDEST PUSH1 0x60 PUSH1 0x4 DUP1 SLOAD PUSH2 0x5CC SWAP1 PUSH2 0x2578 JUMP JUMPDEST PUSH1 0x6 SLOAD PUSH1 0x1 PUSH1 0xA0 SHL SWAP1 DIV PUSH1 0xFF AND DUP2 JUMP JUMPDEST PUSH1 0x8 SLOAD PUSH1 0x0 SWAP1 PUSH1 0x1 PUSH1 0x1 PUSH1 0xA0 SHL SUB AND CALLER EQ PUSH2 0xFA1 JUMPI PUSH1 0x40 MLOAD PUSH3 0x461BCD PUSH1 0xE5 SHL DUP2 MSTORE PUSH1 0x4 ADD PUSH2 0x788 SWAP1 PUSH2 0x2063 JUMP JUMPDEST PUSH1 0xA SWAP2 SWAP1 SWAP2 SSTORE SWAP1 JUMP JUMPDEST PUSH1 0x0 DUP1 PUSH1 0x1 PUSH1 0x0 PUSH2 0xFB9 PUSH2 0x12FE JUMP JUMPDEST PUSH1 0x1 PUSH1 0x1 PUSH1 0xA0 SHL SUB SWAP1 DUP2 AND DUP3 MSTORE PUSH1 0x20 DUP1 DUP4 ADD SWAP4 SWAP1 SWAP4 MSTORE PUSH1 0x40 SWAP2 DUP3 ADD PUSH1 0x0 SWAP1 DUP2 KECCAK256 SWAP2 DUP9 AND DUP2 MSTORE SWAP3 MSTORE SWAP1 KECCAK256 SLOAD SWAP1 POP DUP3 DUP2 LT ISZERO PUSH2 0x1005 JUMPI PUSH1 0x40 MLOAD PUSH3 0x461BCD PUSH1 0xE5 SHL DUP2 MSTORE PUSH1 0x4 ADD PUSH2 0x788 SWAP1 PUSH2 0x2412 JUMP JUMPDEST PUSH2 0x1019 PUSH2 0x1010 PUSH2 0x12FE JUMP JUMPDEST DUP6 DUP6 DUP5 SUB PUSH2 0x1302 JUMP JUMPDEST POP PUSH1 0x1 SWAP4 SWAP3 POP POP POP JUMP JUMPDEST PUSH1 0xC SLOAD SWAP1 JUMP JUMPDEST PUSH1 0x0 PUSH2 0x664 PUSH2 0x1036 PUSH2 0x12FE JUMP JUMPDEST DUP5 DUP5 PUSH2 0x159B JUMP JUMPDEST PUSH1 0x7 SLOAD PUSH1 0x1 PUSH1 0x1 PUSH1 0xA0 SHL SUB AND DUP2 JUMP JUMPDEST PUSH1 0x8 SLOAD PUSH1 0x0 SWAP1 PUSH1 0x1 PUSH1 0x1 PUSH1 0xA0 SHL SUB AND CALLER EQ PUSH2 0x1079 JUMPI PUSH1 0x40 MLOAD PUSH3 0x461BCD PUSH1 0xE5 SHL DUP2 MSTORE PUSH1 0x4 ADD PUSH2 0x788 SWAP1 PUSH2 0x2063 JUMP JUMPDEST PUSH2 0x1081 PUSH2 0x123D JUMP JUMPDEST DUP4 PUSH1 0xFF AND LT PUSH2 0x10A2 JUMPI PUSH1 0x40 MLOAD PUSH3 0x461BCD PUSH1 0xE5 SHL DUP2 MSTORE PUSH1 0x4 ADD PUSH2 0x788 SWAP1 PUSH2 0x21CE JUMP JUMPDEST DUP2 PUSH1 0xD DUP5 PUSH1 0xFF AND DUP2 SLOAD DUP2 LT PUSH2 0xD73 JUMPI PUSH4 0x4E487B71 PUSH1 0xE0 SHL PUSH1 0x0 MSTORE PUSH1 0x32 PUSH1 0x4 MSTORE PUSH1 0x24 PUSH1 0x0 REVERT JUMPDEST PUSH10 0x1DA56A4B0835BF800000 DUP2 JUMP JUMPDEST PUSH1 0xB SLOAD PUSH1 0x1 PUSH1 0x1 PUSH1 0xA0 SHL SUB AND DUP2 JUMP JUMPDEST PUSH1 0x8 SLOAD PUSH1 0x1 PUSH1 0x1 PUSH1 0xA0 SHL SUB AND CALLER EQ PUSH2 0x110E JUMPI PUSH1 0x40 MLOAD PUSH3 0x461BCD PUSH1 0xE5 SHL DUP2 MSTORE PUSH1 0x4 ADD PUSH2 0x788 SWAP1 PUSH2 0x2063 JUMP JUMPDEST PUSH1 0xB SLOAD PUSH1 0x1 PUSH1 0xA0 SHL SWAP1 DIV PUSH1 0xFF AND ISZERO PUSH2 0x1138 JUMPI PUSH1 0x40 MLOAD PUSH3 0x461BCD PUSH1 0xE5 SHL DUP2 MSTORE PUSH1 0x4 ADD PUSH2 0x788 SWAP1 PUSH2 0x22D2 JUMP JUMPDEST PUSH2 0x2710 DUP2 LT PUSH2 0x1159 JUMPI PUSH1 0x40 MLOAD PUSH3 0x461BCD PUSH1 0xE5 SHL DUP2 MSTORE PUSH1 0x4 ADD PUSH2 0x788 SWAP1 PUSH2 0x1DD9 JUMP JUMPDEST PUSH1 0x9 SSTORE JUMP JUMPDEST PUSH1 0xE PUSH1 0x20 MSTORE PUSH1 0x0 SWAP1 DUP2 MSTORE PUSH1 0x40 SWAP1 KECCAK256 SLOAD PUSH1 0xFF AND DUP2 JUMP JUMPDEST PUSH1 0x1 PUSH1 0x1 PUSH1 0xA0 SHL SUB SWAP2 DUP3 AND PUSH1 0x0 SWAP1 DUP2 MSTORE PUSH1 0x1 PUSH1 0x20 SWAP1 DUP2 MSTORE PUSH1 0x40 DUP1 DUP4 KECCAK256 SWAP4 SWAP1 SWAP5 AND DUP3 MSTORE SWAP2 SWAP1 SWAP2 MSTORE KECCAK256 SLOAD SWAP1 JUMP JUMPDEST PUSH2 0x11A6 PUSH2 0x9EE JUMP JUMPDEST DUP1 PUSH2 0x11BB JUMPI POP PUSH1 0x8 SLOAD PUSH1 0x1 PUSH1 0x1 PUSH1 0xA0 SHL SUB AND CALLER EQ JUMPDEST PUSH2 0x11D7 JUMPI PUSH1 0x40 MLOAD PUSH3 0x461BCD PUSH1 0xE5 SHL DUP2 MSTORE PUSH1 0x4 ADD PUSH2 0x788 SWAP1 PUSH2 0x235B JUMP JUMPDEST PUSH1 0x1 PUSH1 0x1 PUSH1 0xA0 SHL SUB DUP2 AND PUSH2 0x11FD JUMPI PUSH1 0x40 MLOAD PUSH3 0x461BCD PUSH1 0xE5 SHL DUP2 MSTORE PUSH1 0x4 ADD PUSH2 0x788 SWAP1 PUSH2 0x2290 JUMP JUMPDEST PUSH1 0x7 DUP1 SLOAD PUSH1 0x1 PUSH1 0x1 PUSH1 0xA0 SHL SUB NOT AND PUSH1 0x1 PUSH1 0x1 PUSH1 0xA0 SHL SUB SWAP3 SWAP1 SWAP3 AND SWAP2 SWAP1 SWAP2 OR SWAP1 SSTORE JUMP JUMPDEST PUSH1 0x1 PUSH1 0x1 PUSH1 0xA0 SHL SUB AND PUSH1 0x0 SWAP1 DUP2 MSTORE PUSH1 0xE PUSH1 0x20 MSTORE PUSH1 0x40 SWAP1 KECCAK256 SLOAD PUSH1 0xFF AND SWAP1 JUMP JUMPDEST PUSH1 0xD SLOAD SWAP1 JUMP JUMPDEST PUSH2 0x124B PUSH2 0x12FE JUMP JUMPDEST PUSH1 0x1 PUSH1 0x1 PUSH1 0xA0 SHL SUB AND PUSH2 0x125C PUSH2 0xEAE JUMP JUMPDEST PUSH1 0x1 PUSH1 0x1 PUSH1 0xA0 SHL SUB AND EQ PUSH2 0x1282 JUMPI PUSH1 0x40 MLOAD PUSH3 0x461BCD PUSH1 0xE5 SHL DUP2 MSTORE PUSH1 0x4 ADD PUSH2 0x788 SWAP1 PUSH2 0x209A JUMP JUMPDEST PUSH1 0x1 PUSH1 0x1 PUSH1 0xA0 SHL SUB DUP2 AND PUSH2 0x12A8 JUMPI PUSH1 0x40 MLOAD PUSH3 0x461BCD PUSH1 0xE5 SHL DUP2 MSTORE PUSH1 0x4 ADD PUSH2 0x788 SWAP1 PUSH2 0x1E52 JUMP JUMPDEST PUSH2 0x79A DUP2 PUSH2 0x18CE JUMP JUMPDEST PUSH1 0x8 SLOAD PUSH1 0x1 PUSH1 0x1 PUSH1 0xA0 SHL SUB AND CALLER EQ PUSH2 0x12DB JUMPI PUSH1 0x40 MLOAD PUSH3 0x461BCD PUSH1 0xE5 SHL DUP2 MSTORE PUSH1 0x4 ADD PUSH2 0x788 SWAP1 PUSH2 0x2063 JUMP JUMPDEST PUSH1 0xB DUP1 SLOAD PUSH1 0xFF PUSH1 0xA0 SHL NOT AND PUSH1 0x1 PUSH1 0xA0 SHL OR SWAP1 SSTORE JUMP JUMPDEST PUSH10 0x10F0CF064DD59200000 DUP2 JUMP JUMPDEST CALLER SWAP1 JUMP JUMPDEST PUSH1 0x1 PUSH1 0x1 PUSH1 0xA0 SHL SUB DUP4 AND PUSH2 0x1328 JUMPI PUSH1 0x40 MLOAD PUSH3 0x461BCD PUSH1 0xE5 SHL DUP2 MSTORE PUSH1 0x4 ADD PUSH2 0x788 SWAP1 PUSH2 0x23A7 JUMP JUMPDEST PUSH1 0x1 PUSH1 0x1 PUSH1 0xA0 SHL SUB DUP3 AND PUSH2 0x134E JUMPI PUSH1 0x40 MLOAD PUSH3 0x461BCD PUSH1 0xE5 SHL DUP2 MSTORE PUSH1 0x4 ADD PUSH2 0x788 SWAP1 PUSH2 0x1E98 JUMP JUMPDEST PUSH1 0x1 PUSH1 0x1 PUSH1 0xA0 SHL SUB DUP1 DUP5 AND PUSH1 0x0 DUP2 DUP2 MSTORE PUSH1 0x1 PUSH1 0x20 SWAP1 DUP2 MSTORE PUSH1 0x40 DUP1 DUP4 KECCAK256 SWAP5 DUP8 AND DUP1 DUP5 MSTORE SWAP5 SWAP1 SWAP2 MSTORE SWAP1 DUP2 SWAP1 KECCAK256 DUP5 SWAP1 SSTORE MLOAD PUSH32 0x8C5BE1E5EBEC7D5BD14F71427D1E84F3DD0314C0F7B2291E5B200AC8C7C3B925 SWAP1 PUSH2 0x13A9 SWAP1 DUP6 SWAP1 PUSH2 0x248E JUMP JUMPDEST PUSH1 0x40 MLOAD DUP1 SWAP2 SUB SWAP1 LOG3 POP POP POP JUMP JUMPDEST PUSH1 0x7 SLOAD PUSH1 0x40 MLOAD PUSH4 0x3DDAC953 PUSH1 0xE0 SHL DUP2 MSTORE PUSH1 0x0 SWAP2 PUSH1 0x1 PUSH1 0x1 PUSH1 0xA0 SHL SUB AND SWAP1 PUSH4 0x3DDAC953 SWAP1 PUSH2 0x13F1 SWAP1 ADDRESS SWAP1 PUSH8 0xDE0B6B3A7640000 SWAP1 PUSH1 0x4 ADD PUSH2 0x1CE8 JUMP JUMPDEST PUSH1 0x20 PUSH1 0x40 MLOAD DUP1 DUP4 SUB DUP2 DUP7 DUP1 EXTCODESIZE ISZERO DUP1 ISZERO PUSH2 0x1409 JUMPI PUSH1 0x0 DUP1 REVERT JUMPDEST POP GAS STATICCALL SWAP3 POP POP POP DUP1 ISZERO PUSH2 0x1439 JUMPI POP PUSH1 0x40 DUP1 MLOAD PUSH1 0x1F RETURNDATASIZE SWAP1 DUP2 ADD PUSH1 0x1F NOT AND DUP3 ADD SWAP1 SWAP3 MSTORE PUSH2 0x1436 SWAP2 DUP2 ADD SWAP1 PUSH2 0x1C59 JUMP JUMPDEST PUSH1 0x1 JUMPDEST PUSH2 0x1455 JUMPI PUSH1 0x40 MLOAD PUSH3 0x461BCD PUSH1 0xE5 SHL DUP2 MSTORE PUSH1 0x4 ADD PUSH2 0x788 SWAP1 PUSH2 0x1FC4 JUMP JUMPDEST PUSH1 0x1 PUSH1 0x1 PUSH1 0x90 SHL SUB AND SWAP1 POP PUSH2 0x64D JUMP JUMPDEST PUSH1 0xB SLOAD PUSH1 0x0 SWAP1 PUSH1 0x1 PUSH1 0xA0 SHL SWAP1 DIV PUSH1 0xFF AND ISZERO PUSH2 0x83E JUMPI PUSH1 0x0 PUSH2 0x1492 PUSH1 0x1 PUSH2 0x1489 PUSH2 0x1023 JUMP JUMPDEST PUSH1 0xFF AND SWAP1 PUSH2 0x196E JUMP JUMPDEST SWAP1 POP JUMPDEST PUSH1 0xC DUP2 PUSH1 0xFF AND DUP2 SLOAD DUP2 LT PUSH2 0x14B9 JUMPI PUSH4 0x4E487B71 PUSH1 0xE0 SHL PUSH1 0x0 MSTORE PUSH1 0x32 PUSH1 0x4 MSTORE PUSH1 0x24 PUSH1 0x0 REVERT JUMPDEST SWAP1 PUSH1 0x0 MSTORE PUSH1 0x20 PUSH1 0x0 KECCAK256 ADD SLOAD DUP4 LT PUSH2 0x1585 JUMPI PUSH2 0x2710 PUSH1 0xD DUP3 PUSH1 0xFF AND DUP2 SLOAD DUP2 LT PUSH2 0x14F1 JUMPI PUSH4 0x4E487B71 PUSH1 0xE0 SHL PUSH1 0x0 MSTORE PUSH1 0x32 PUSH1 0x4 MSTORE PUSH1 0x24 PUSH1 0x0 REVERT JUMPDEST SWAP1 PUSH1 0x0 MSTORE PUSH1 0x20 PUSH1 0x0 KECCAK256 ADD SLOAD LT PUSH2 0x1519 JUMPI PUSH1 0x40 MLOAD PUSH3 0x461BCD PUSH1 0xE5 SHL DUP2 MSTORE PUSH1 0x4 ADD PUSH2 0x788 SWAP1 PUSH2 0x1DD9 JUMP JUMPDEST PUSH1 0xD DUP2 PUSH1 0xFF AND DUP2 SLOAD DUP2 LT PUSH2 0x153D JUMPI PUSH4 0x4E487B71 PUSH1 0xE0 SHL PUSH1 0x0 MSTORE PUSH1 0x32 PUSH1 0x4 MSTORE PUSH1 0x24 PUSH1 0x0 REVERT JUMPDEST SWAP1 PUSH1 0x0 MSTORE PUSH1 0x20 PUSH1 0x0 KECCAK256 ADD SLOAD PUSH1 0x9 DUP2 SWAP1 SSTORE POP PUSH1 0xD DUP2 PUSH1 0xFF AND DUP2 SLOAD DUP2 LT PUSH2 0x1572 JUMPI PUSH4 0x4E487B71 PUSH1 0xE0 SHL PUSH1 0x0 MSTORE PUSH1 0x32 PUSH1 0x4 MSTORE PUSH1 0x24 PUSH1 0x0 REVERT JUMPDEST SWAP1 PUSH1 0x0 MSTORE PUSH1 0x20 PUSH1 0x0 KECCAK256 ADD SLOAD SWAP2 POP POP PUSH2 0x83E JUMP JUMPDEST PUSH2 0x158E DUP2 PUSH2 0x255B JUMP JUMPDEST SWAP1 POP PUSH2 0x1495 JUMP JUMPDEST POP SWAP2 SWAP1 POP JUMP JUMPDEST PUSH1 0x1 PUSH1 0x1 PUSH1 0xA0 SHL SUB DUP4 AND PUSH2 0x15C1 JUMPI PUSH1 0x40 MLOAD PUSH3 0x461BCD PUSH1 0xE5 SHL DUP2 MSTORE PUSH1 0x4 ADD PUSH2 0x788 SWAP1 PUSH2 0x2316 JUMP JUMPDEST PUSH1 0x1 PUSH1 0x1 PUSH1 0xA0 SHL SUB DUP3 AND PUSH2 0x15E7 JUMPI PUSH1 0x40 MLOAD PUSH3 0x461BCD PUSH1 0xE5 SHL DUP2 MSTORE PUSH1 0x4 ADD PUSH2 0x788 SWAP1 PUSH2 0x1D5F JUMP JUMPDEST PUSH2 0x15F2 DUP4 DUP4 DUP4 PUSH2 0xB3D JUMP JUMPDEST PUSH1 0x1 PUSH1 0x1 PUSH1 0xA0 SHL SUB DUP4 AND PUSH1 0x0 SWAP1 DUP2 MSTORE PUSH1 0x20 DUP2 SWAP1 MSTORE PUSH1 0x40 SWAP1 KECCAK256 SLOAD DUP2 DUP2 LT ISZERO PUSH2 0x162B JUMPI PUSH1 0x40 MLOAD PUSH3 0x461BCD PUSH1 0xE5 SHL DUP2 MSTORE PUSH1 0x4 ADD PUSH2 0x788 SWAP1 PUSH2 0x1EDA JUMP JUMPDEST PUSH1 0x1 PUSH1 0x1 PUSH1 0xA0 SHL SUB DUP1 DUP6 AND PUSH1 0x0 SWAP1 DUP2 MSTORE PUSH1 0x20 DUP2 SWAP1 MSTORE PUSH1 0x40 DUP1 DUP3 KECCAK256 DUP6 DUP6 SUB SWAP1 SSTORE SWAP2 DUP6 AND DUP2 MSTORE SWAP1 DUP2 KECCAK256 DUP1 SLOAD DUP5 SWAP3 SWAP1 PUSH2 0x1662 SWAP1 DUP5 SWAP1 PUSH2 0x24A5 JUMP JUMPDEST SWAP3 POP POP DUP2 SWAP1 SSTORE POP DUP3 PUSH1 0x1 PUSH1 0x1 PUSH1 0xA0 SHL SUB AND DUP5 PUSH1 0x1 PUSH1 0x1 PUSH1 0xA0 SHL SUB AND PUSH32 0xDDF252AD1BE2C89B69C2B068FC378DAA952BA7F163C4A11628F55A4DF523B3EF DUP5 PUSH1 0x40 MLOAD PUSH2 0x16AC SWAP2 SWAP1 PUSH2 0x248E JUMP JUMPDEST PUSH1 0x40 MLOAD DUP1 SWAP2 SUB SWAP1 LOG3 PUSH2 0xBEC DUP5 DUP5 DUP5 PUSH2 0xB3D JUMP JUMPDEST PUSH1 0x0 DUP1 PUSH2 0x16E3 PUSH2 0x2710 PUSH2 0x16DD PUSH1 0x9 SLOAD DUP8 PUSH2 0x19B0 SWAP1 SWAP2 SWAP1 PUSH4 0xFFFFFFFF AND JUMP JUMPDEST SWAP1 PUSH2 0x19BC JUMP JUMPDEST SWAP1 POP PUSH1 0x0 PUSH2 0x16F1 DUP6 DUP4 PUSH2 0x18BB JUMP JUMPDEST SWAP1 POP DUP4 ISZERO PUSH2 0x1708 JUMPI PUSH2 0x1703 DUP8 DUP4 PUSH2 0x1920 JUMP JUMPDEST PUSH2 0x1720 JUMP JUMPDEST PUSH1 0xB SLOAD PUSH2 0x1720 SWAP1 DUP9 SWAP1 PUSH1 0x1 PUSH1 0x1 PUSH1 0xA0 SHL SUB AND DUP5 PUSH2 0x159B JUMP JUMPDEST PUSH2 0x172B DUP8 DUP8 DUP4 PUSH2 0x159B JUMP JUMPDEST POP PUSH1 0x1 SWAP7 SWAP6 POP POP POP POP POP POP JUMP JUMPDEST PUSH1 0x0 DUP2 DUP5 DUP5 GT ISZERO PUSH2 0x175C JUMPI PUSH1 0x40 MLOAD PUSH3 0x461BCD PUSH1 0xE5 SHL DUP2 MSTORE PUSH1 0x4 ADD PUSH2 0x788 SWAP2 SWAP1 PUSH2 0x1D0C JUMP JUMPDEST POP POP POP SWAP1 SUB SWAP1 JUMP JUMPDEST PUSH1 0x1 PUSH1 0x1 PUSH1 0xA0 SHL SUB DUP2 AND PUSH2 0x178A JUMPI PUSH1 0x40 MLOAD PUSH3 0x461BCD PUSH1 0xE5 SHL DUP2 MSTORE PUSH1 0x4 ADD PUSH2 0x788 SWAP1 PUSH2 0x2016 JUMP JUMPDEST PUSH1 0x40 MLOAD PUSH1 0x1 PUSH1 0x1 PUSH1 0xA0 SHL SUB DUP3 AND SWAP1 PUSH1 0x0 SWAP1 PUSH32 0x74DA04524D50C64947F5DD5381EF1A4DCA5CBA8ED1D816243F9E48AA0B5617ED SWAP1 DUP3 SWAP1 LOG3 PUSH1 0x6 DUP1 SLOAD PUSH1 0x1 PUSH1 0x1 PUSH1 0xA0 SHL SUB NOT AND PUSH1 0x1 PUSH1 0x1 PUSH1 0xA0 SHL SUB SWAP3 SWAP1 SWAP3 AND SWAP2 SWAP1 SWAP2 OR SWAP1 SSTORE JUMP JUMPDEST PUSH1 0x1 PUSH1 0x1 PUSH1 0xA0 SHL SUB DUP3 AND PUSH2 0x1808 JUMPI PUSH1 0x40 MLOAD PUSH3 0x461BCD PUSH1 0xE5 SHL DUP2 MSTORE PUSH1 0x4 ADD PUSH2 0x788 SWAP1 PUSH2 0x2457 JUMP JUMPDEST PUSH2 0x1814 PUSH1 0x0 DUP4 DUP4 PUSH2 0xB3D JUMP JUMPDEST DUP1 PUSH1 0x2 PUSH1 0x0 DUP3 DUP3 SLOAD PUSH2 0x1826 SWAP2 SWAP1 PUSH2 0x24A5 JUMP JUMPDEST SWAP1 SWAP2 SSTORE POP POP PUSH1 0x1 PUSH1 0x1 PUSH1 0xA0 SHL SUB DUP3 AND PUSH1 0x0 SWAP1 DUP2 MSTORE PUSH1 0x20 DUP2 SWAP1 MSTORE PUSH1 0x40 DUP2 KECCAK256 DUP1 SLOAD DUP4 SWAP3 SWAP1 PUSH2 0x1853 SWAP1 DUP5 SWAP1 PUSH2 0x24A5 JUMP JUMPDEST SWAP1 SWAP2 SSTORE POP POP PUSH1 0x40 MLOAD PUSH1 0x1 PUSH1 0x1 PUSH1 0xA0 SHL SUB DUP4 AND SWAP1 PUSH1 0x0 SWAP1 PUSH32 0xDDF252AD1BE2C89B69C2B068FC378DAA952BA7F163C4A11628F55A4DF523B3EF SWAP1 PUSH2 0x1896 SWAP1 DUP6 SWAP1 PUSH2 0x248E JUMP JUMPDEST PUSH1 0x40 MLOAD DUP1 SWAP2 SUB SWAP1 LOG3 PUSH2 0xE9A PUSH1 0x0 DUP4 DUP4 PUSH2 0xB3D JUMP JUMPDEST PUSH2 0x79A PUSH2 0x18B5 PUSH2 0x12FE JUMP JUMPDEST DUP3 PUSH2 0x19C8 JUMP JUMPDEST PUSH1 0x0 PUSH2 0x18C7 DUP3 DUP5 PUSH2 0x2521 JUMP JUMPDEST SWAP4 SWAP3 POP POP POP JUMP JUMPDEST PUSH1 0x5 DUP1 SLOAD PUSH1 0x1 PUSH1 0x1 PUSH1 0xA0 SHL SUB DUP4 DUP2 AND PUSH1 0x1 PUSH1 0x1 PUSH1 0xA0 SHL SUB NOT DUP4 AND DUP2 OR SWAP1 SWAP4 SSTORE PUSH1 0x40 MLOAD SWAP2 AND SWAP2 SWAP1 DUP3 SWAP1 PUSH32 0x8BE0079C531659141344CD1FD0A4F28419497F9722A3DAAFE3B4186F6B6457E0 SWAP1 PUSH1 0x0 SWAP1 LOG3 POP POP JUMP JUMPDEST PUSH1 0x0 PUSH2 0x192E DUP4 PUSH2 0x567 PUSH2 0x12FE JUMP JUMPDEST SWAP1 POP DUP2 DUP2 LT ISZERO PUSH2 0x1950 JUMPI PUSH1 0x40 MLOAD PUSH3 0x461BCD PUSH1 0xE5 SHL DUP2 MSTORE PUSH1 0x4 ADD PUSH2 0x788 SWAP1 PUSH2 0x211D JUMP JUMPDEST PUSH2 0x1964 DUP4 PUSH2 0x195C PUSH2 0x12FE JUMP JUMPDEST DUP5 DUP5 SUB PUSH2 0x1302 JUMP JUMPDEST PUSH2 0xB3D DUP4 DUP4 PUSH2 0x19C8 JUMP JUMPDEST PUSH1 0x0 PUSH2 0x18C7 DUP4 DUP4 PUSH1 0x40 MLOAD DUP1 PUSH1 0x40 ADD PUSH1 0x40 MSTORE DUP1 PUSH1 0x1E DUP2 MSTORE PUSH1 0x20 ADD PUSH32 0x536166654D6174683A207375627472616374696F6E206F766572666C6F770000 DUP2 MSTORE POP PUSH2 0x1AB9 JUMP JUMPDEST PUSH1 0x0 PUSH2 0x18C7 DUP3 DUP5 PUSH2 0x2502 JUMP JUMPDEST PUSH1 0x0 PUSH2 0x18C7 DUP3 DUP5 PUSH2 0x24E2 JUMP JUMPDEST PUSH1 0x1 PUSH1 0x1 PUSH1 0xA0 SHL SUB DUP3 AND PUSH2 0x19EE JUMPI PUSH1 0x40 MLOAD PUSH3 0x461BCD PUSH1 0xE5 SHL DUP2 MSTORE PUSH1 0x4 ADD PUSH2 0x788 SWAP1 PUSH2 0x2218 JUMP JUMPDEST PUSH2 0x19FA DUP3 PUSH1 0x0 DUP4 PUSH2 0xB3D JUMP JUMPDEST PUSH1 0x1 PUSH1 0x1 PUSH1 0xA0 SHL SUB DUP3 AND PUSH1 0x0 SWAP1 DUP2 MSTORE PUSH1 0x20 DUP2 SWAP1 MSTORE PUSH1 0x40 SWAP1 KECCAK256 SLOAD DUP2 DUP2 LT ISZERO PUSH2 0x1A33 JUMPI PUSH1 0x40 MLOAD PUSH3 0x461BCD PUSH1 0xE5 SHL DUP2 MSTORE PUSH1 0x4 ADD PUSH2 0x788 SWAP1 PUSH2 0x1E10 JUMP JUMPDEST PUSH1 0x1 PUSH1 0x1 PUSH1 0xA0 SHL SUB DUP4 AND PUSH1 0x0 SWAP1 DUP2 MSTORE PUSH1 0x20 DUP2 SWAP1 MSTORE PUSH1 0x40 DUP2 KECCAK256 DUP4 DUP4 SUB SWAP1 SSTORE PUSH1 0x2 DUP1 SLOAD DUP5 SWAP3 SWAP1 PUSH2 0x1A62 SWAP1 DUP5 SWAP1 PUSH2 0x2521 JUMP JUMPDEST SWAP1 SWAP2 SSTORE POP POP PUSH1 0x40 MLOAD PUSH1 0x0 SWAP1 PUSH1 0x1 PUSH1 0x1 PUSH1 0xA0 SHL SUB DUP6 AND SWAP1 PUSH32 0xDDF252AD1BE2C89B69C2B068FC378DAA952BA7F163C4A11628F55A4DF523B3EF SWAP1 PUSH2 0x1AA5 SWAP1 DUP7 SWAP1 PUSH2 0x248E JUMP JUMPDEST PUSH1 0x40 MLOAD DUP1 SWAP2 SUB SWAP1 LOG3 PUSH2 0xB3D DUP4 PUSH1 0x0 DUP5 PUSH2 0xB3D JUMP JUMPDEST PUSH1 0x0 DUP4 PUSH1 0xFF AND DUP4 PUSH1 0xFF AND GT ISZERO DUP3 SWAP1 PUSH2 0x1AE4 JUMPI PUSH1 0x40 MLOAD PUSH3 0x461BCD PUSH1 0xE5 SHL DUP2 MSTORE PUSH1 0x4 ADD PUSH2 0x788 SWAP2 SWAP1 PUSH2 0x1D0C JUMP JUMPDEST POP PUSH1 0x0 PUSH2 0x1AF1 DUP5 DUP7 PUSH2 0x2538 JUMP JUMPDEST SWAP6 SWAP5 POP POP POP POP POP JUMP JUMPDEST PUSH1 0x0 PUSH1 0x20 DUP3 DUP5 SUB SLT ISZERO PUSH2 0x1B0B JUMPI DUP1 DUP2 REVERT JUMPDEST DUP2 CALLDATALOAD PUSH2 0x18C7 DUP2 PUSH2 0x25C3 JUMP JUMPDEST PUSH1 0x0 DUP1 PUSH1 0x40 DUP4 DUP6 SUB SLT ISZERO PUSH2 0x1B28 JUMPI DUP1 DUP2 REVERT JUMPDEST DUP3 CALLDATALOAD PUSH2 0x1B33 DUP2 PUSH2 0x25C3 JUMP JUMPDEST SWAP2 POP PUSH1 0x20 DUP4 ADD CALLDATALOAD PUSH2 0x1B43 DUP2 PUSH2 0x25C3 JUMP JUMPDEST DUP1 SWAP2 POP POP SWAP3 POP SWAP3 SWAP1 POP JUMP JUMPDEST PUSH1 0x0 DUP1 PUSH1 0x0 PUSH1 0x60 DUP5 DUP7 SUB SLT ISZERO PUSH2 0x1B62 JUMPI DUP1 DUP2 REVERT JUMPDEST DUP4 CALLDATALOAD PUSH2 0x1B6D DUP2 PUSH2 0x25C3 JUMP JUMPDEST SWAP3 POP PUSH1 0x20 DUP5 ADD CALLDATALOAD PUSH2 0x1B7D DUP2 PUSH2 0x25C3 JUMP JUMPDEST SWAP2 POP PUSH1 0x40 DUP5 ADD CALLDATALOAD PUSH2 0x1B8D DUP2 PUSH2 0x25C3 JUMP JUMPDEST DUP1 SWAP2 POP POP SWAP3 POP SWAP3 POP SWAP3 JUMP JUMPDEST PUSH1 0x0 DUP1 PUSH1 0x0 PUSH1 0x60 DUP5 DUP7 SUB SLT ISZERO PUSH2 0x1BAC JUMPI DUP3 DUP4 REVERT JUMPDEST DUP4 CALLDATALOAD PUSH2 0x1BB7 DUP2 PUSH2 0x25C3 JUMP JUMPDEST SWAP3 POP PUSH1 0x20 DUP5 ADD CALLDATALOAD PUSH2 0x1BC7 DUP2 PUSH2 0x25C3 JUMP JUMPDEST SWAP3 SWAP6 SWAP3 SWAP5 POP POP POP PUSH1 0x40 SWAP2 SWAP1 SWAP2 ADD CALLDATALOAD SWAP1 JUMP JUMPDEST PUSH1 0x0 DUP1 PUSH1 0x40 DUP4 DUP6 SUB SLT ISZERO PUSH2 0x1BEA JUMPI DUP2 DUP3 REVERT JUMPDEST DUP3 CALLDATALOAD PUSH2 0x1BF5 DUP2 PUSH2 0x25C3 JUMP JUMPDEST SWAP5 PUSH1 0x20 SWAP4 SWAP1 SWAP4 ADD CALLDATALOAD SWAP4 POP POP POP JUMP JUMPDEST PUSH1 0x0 PUSH1 0x20 DUP3 DUP5 SUB SLT ISZERO PUSH2 0x1C14 JUMPI DUP1 DUP2 REVERT JUMPDEST DUP2 MLOAD DUP1 ISZERO ISZERO DUP2 EQ PUSH2 0x18C7 JUMPI DUP2 DUP3 REVERT JUMPDEST PUSH1 0x0 DUP1 PUSH1 0x0 PUSH1 0x60 DUP5 DUP7 SUB SLT ISZERO PUSH2 0x1C37 JUMPI DUP3 DUP4 REVERT JUMPDEST DUP4 CALLDATALOAD PUSH2 0x1C42 DUP2 PUSH2 0x25C3 JUMP JUMPDEST SWAP3 POP PUSH1 0x20 DUP5 ADD CALLDATALOAD SWAP2 POP PUSH1 0x40 DUP5 ADD CALLDATALOAD PUSH2 0x1B8D DUP2 PUSH2 0x25C3 JUMP JUMPDEST PUSH1 0x0 PUSH1 0x20 DUP3 DUP5 SUB SLT ISZERO PUSH2 0x1C6A JUMPI DUP1 DUP2 REVERT JUMPDEST DUP2 MLOAD PUSH1 0x1 PUSH1 0x1 PUSH1 0x90 SHL SUB DUP2 AND DUP2 EQ PUSH2 0x18C7 JUMPI DUP2 DUP3 REVERT JUMPDEST PUSH1 0x0 PUSH1 0x20 DUP3 DUP5 SUB SLT ISZERO PUSH2 0x1C91 JUMPI DUP1 DUP2 REVERT JUMPDEST POP CALLDATALOAD SWAP2 SWAP1 POP JUMP JUMPDEST PUSH1 0x0 DUP1 PUSH1 0x40 DUP4 DUP6 SUB SLT ISZERO PUSH2 0x1CAA JUMPI DUP2 DUP3 REVERT JUMPDEST DUP3 CALLDATALOAD PUSH1 0xFF DUP2 AND DUP2 EQ PUSH2 0x1BF5 JUMPI DUP3 DUP4 REVERT JUMPDEST PUSH1 0x1 PUSH1 0x1 PUSH1 0xA0 SHL SUB SWAP2 SWAP1 SWAP2 AND DUP2 MSTORE PUSH1 0x20 ADD SWAP1 JUMP JUMPDEST PUSH1 0x1 PUSH1 0x1 PUSH1 0xA0 SHL SUB SWAP3 DUP4 AND DUP2 MSTORE SWAP2 AND PUSH1 0x20 DUP3 ADD MSTORE PUSH1 0x40 ADD SWAP1 JUMP JUMPDEST PUSH1 0x1 PUSH1 0x1 PUSH1 0xA0 SHL SUB SWAP3 SWAP1 SWAP3 AND DUP3 MSTORE PUSH1 0x20 DUP3 ADD MSTORE PUSH1 0x40 ADD SWAP1 JUMP JUMPDEST SWAP1 ISZERO ISZERO DUP2 MSTORE PUSH1 0x20 ADD SWAP1 JUMP JUMPDEST PUSH1 0x0 PUSH1 0x20 DUP1 DUP4 MSTORE DUP4 MLOAD DUP1 DUP3 DUP6 ADD MSTORE DUP3 JUMPDEST DUP2 DUP2 LT ISZERO PUSH2 0x1D38 JUMPI DUP6 DUP2 ADD DUP4 ADD MLOAD DUP6 DUP3 ADD PUSH1 0x40 ADD MSTORE DUP3 ADD PUSH2 0x1D1C JUMP JUMPDEST DUP2 DUP2 GT ISZERO PUSH2 0x1D49 JUMPI DUP4 PUSH1 0x40 DUP4 DUP8 ADD ADD MSTORE JUMPDEST POP PUSH1 0x1F ADD PUSH1 0x1F NOT AND SWAP3 SWAP1 SWAP3 ADD PUSH1 0x40 ADD SWAP4 SWAP3 POP POP POP JUMP JUMPDEST PUSH1 0x20 DUP1 DUP3 MSTORE PUSH1 0x23 SWAP1 DUP3 ADD MSTORE PUSH32 0x45524332303A207472616E7366657220746F20746865207A65726F2061646472 PUSH1 0x40 DUP3 ADD MSTORE PUSH3 0x657373 PUSH1 0xE8 SHL PUSH1 0x60 DUP3 ADD MSTORE PUSH1 0x80 ADD SWAP1 JUMP JUMPDEST PUSH1 0x20 DUP1 DUP3 MSTORE PUSH1 0x18 SWAP1 DUP3 ADD MSTORE PUSH32 0x6F6E6C792063616E2064697374726962757465206F6E63650000000000000000 PUSH1 0x40 DUP3 ADD MSTORE PUSH1 0x60 ADD SWAP1 JUMP JUMPDEST PUSH1 0x20 DUP1 DUP3 MSTORE PUSH1 0x1B SWAP1 DUP3 ADD MSTORE PUSH32 0x74617820657175616C206F722062696767657220746F20313030250000000000 PUSH1 0x40 DUP3 ADD MSTORE PUSH1 0x60 ADD SWAP1 JUMP JUMPDEST PUSH1 0x20 DUP1 DUP3 MSTORE PUSH1 0x22 SWAP1 DUP3 ADD MSTORE PUSH32 0x45524332303A206275726E20616D6F756E7420657863656564732062616C616E PUSH1 0x40 DUP3 ADD MSTORE PUSH2 0x6365 PUSH1 0xF0 SHL PUSH1 0x60 DUP3 ADD MSTORE PUSH1 0x80 ADD SWAP1 JUMP JUMPDEST PUSH1 0x20 DUP1 DUP3 MSTORE PUSH1 0x26 SWAP1 DUP3 ADD MSTORE PUSH32 0x4F776E61626C653A206E6577206F776E657220697320746865207A65726F2061 PUSH1 0x40 DUP3 ADD MSTORE PUSH6 0x646472657373 PUSH1 0xD0 SHL PUSH1 0x60 DUP3 ADD MSTORE PUSH1 0x80 ADD SWAP1 JUMP JUMPDEST PUSH1 0x20 DUP1 DUP3 MSTORE PUSH1 0x22 SWAP1 DUP3 ADD MSTORE PUSH32 0x45524332303A20617070726F766520746F20746865207A65726F206164647265 PUSH1 0x40 DUP3 ADD MSTORE PUSH2 0x7373 PUSH1 0xF0 SHL PUSH1 0x60 DUP3 ADD MSTORE PUSH1 0x80 ADD SWAP1 JUMP JUMPDEST PUSH1 0x20 DUP1 DUP3 MSTORE PUSH1 0x26 SWAP1 DUP3 ADD MSTORE PUSH32 0x45524332303A207472616E7366657220616D6F756E7420657863656564732062 PUSH1 0x40 DUP3 ADD MSTORE PUSH6 0x616C616E6365 PUSH1 0xD0 SHL PUSH1 0x60 DUP3 ADD MSTORE PUSH1 0x80 ADD SWAP1 JUMP JUMPDEST PUSH1 0x20 DUP1 DUP3 MSTORE PUSH1 0xD SWAP1 DUP3 ADD MSTORE PUSH13 0x857DCDC1958DD195C941BDBDB PUSH1 0x9A SHL PUSH1 0x40 DUP3 ADD MSTORE PUSH1 0x60 ADD SWAP1 JUMP JUMPDEST PUSH1 0x20 DUP1 DUP3 MSTORE PUSH1 0x19 SWAP1 DUP3 ADD MSTORE PUSH32 0x616464726573732063616E277420626520696E636C7564656400000000000000 PUSH1 0x40 DUP3 ADD MSTORE PUSH1 0x60 ADD SWAP1 JUMP JUMPDEST PUSH1 0x20 DUP1 DUP3 MSTORE PUSH1 0x26 SWAP1 DUP3 ADD MSTORE PUSH32 0x746178206F666669636520616464726573732063616E6E6F7420626520302061 PUSH1 0x40 DUP3 ADD MSTORE PUSH6 0x646472657373 PUSH1 0xD0 SHL PUSH1 0x60 DUP3 ADD MSTORE PUSH1 0x80 ADD SWAP1 JUMP JUMPDEST PUSH1 0x20 DUP1 DUP3 MSTORE PUSH1 0x32 SWAP1 DUP3 ADD MSTORE PUSH32 0x537065637465723A206661696C656420746F2066657463682053504543544552 PUSH1 0x40 DUP3 ADD MSTORE PUSH18 0x2070726963652066726F6D204F7261636C65 PUSH1 0x70 SHL PUSH1 0x60 DUP3 ADD MSTORE PUSH1 0x80 ADD SWAP1 JUMP JUMPDEST PUSH1 0x20 DUP1 DUP3 MSTORE PUSH1 0x2D SWAP1 DUP3 ADD MSTORE PUSH32 0x6F70657261746F723A207A65726F206164647265737320676976656E20666F72 PUSH1 0x40 DUP3 ADD MSTORE PUSH13 0x103732BB9037B832B930BA37B9 PUSH1 0x99 SHL PUSH1 0x60 DUP3 ADD MSTORE PUSH1 0x80 ADD SWAP1 JUMP JUMPDEST PUSH1 0x20 DUP1 DUP3 MSTORE PUSH1 0x1C SWAP1 DUP3 ADD MSTORE PUSH32 0x43616C6C6572206973206E6F742074686520746178206F666669636500000000 PUSH1 0x40 DUP3 ADD MSTORE PUSH1 0x60 ADD SWAP1 JUMP JUMPDEST PUSH1 0x20 DUP1 DUP3 MSTORE DUP2 DUP2 ADD MSTORE PUSH32 0x4F776E61626C653A2063616C6C6572206973206E6F7420746865206F776E6572 PUSH1 0x40 DUP3 ADD MSTORE PUSH1 0x60 ADD SWAP1 JUMP JUMPDEST PUSH1 0x20 DUP1 DUP3 MSTORE PUSH1 0x2E SWAP1 DUP3 ADD MSTORE PUSH32 0x74617820636F6C6C6563746F722061646472657373206D757374206265206E6F PUSH1 0x40 DUP3 ADD MSTORE PUSH14 0x6E2D7A65726F2061646472657373 PUSH1 0x90 SHL PUSH1 0x60 DUP3 ADD MSTORE PUSH1 0x80 ADD SWAP1 JUMP JUMPDEST PUSH1 0x20 DUP1 DUP3 MSTORE PUSH1 0x24 SWAP1 DUP3 ADD MSTORE PUSH32 0x45524332303A206275726E20616D6F756E74206578636565647320616C6C6F77 PUSH1 0x40 DUP3 ADD MSTORE PUSH4 0x616E6365 PUSH1 0xE0 SHL PUSH1 0x60 DUP3 ADD MSTORE PUSH1 0x80 ADD SWAP1 JUMP JUMPDEST PUSH1 0x20 DUP1 DUP3 MSTORE PUSH1 0x24 SWAP1 DUP3 ADD MSTORE PUSH32 0x6F70657261746F723A2063616C6C6572206973206E6F7420746865206F706572 PUSH1 0x40 DUP3 ADD MSTORE PUSH4 0x30BA37B9 PUSH1 0xE1 SHL PUSH1 0x60 DUP3 ADD MSTORE PUSH1 0x80 ADD SWAP1 JUMP JUMPDEST PUSH1 0x20 DUP1 DUP3 MSTORE PUSH1 0xF SWAP1 DUP3 ADD MSTORE PUSH15 0x857D85A5C991C9BDC15D85B1B195D PUSH1 0x8A SHL PUSH1 0x40 DUP3 ADD MSTORE PUSH1 0x60 ADD SWAP1 JUMP JUMPDEST PUSH1 0x20 DUP1 DUP3 MSTORE PUSH1 0x2A SWAP1 DUP3 ADD MSTORE PUSH32 0x496E6465782068617320746F206C6F776572207468616E20636F756E74206F66 PUSH1 0x40 DUP3 ADD MSTORE PUSH10 0x20746178207469657273 PUSH1 0xB0 SHL PUSH1 0x60 DUP3 ADD MSTORE PUSH1 0x80 ADD SWAP1 JUMP JUMPDEST PUSH1 0x20 DUP1 DUP3 MSTORE PUSH1 0x21 SWAP1 DUP3 ADD MSTORE PUSH32 0x45524332303A206275726E2066726F6D20746865207A65726F20616464726573 PUSH1 0x40 DUP3 ADD MSTORE PUSH1 0x73 PUSH1 0xF8 SHL PUSH1 0x60 DUP3 ADD MSTORE PUSH1 0x80 ADD SWAP1 JUMP JUMPDEST PUSH1 0x20 DUP1 DUP3 MSTORE PUSH1 0x19 SWAP1 DUP3 ADD MSTORE PUSH32 0x616464726573732063616E2774206265206578636C7564656400000000000000 PUSH1 0x40 DUP3 ADD MSTORE PUSH1 0x60 ADD SWAP1 JUMP JUMPDEST PUSH1 0x20 DUP1 DUP3 MSTORE PUSH1 0x22 SWAP1 DUP3 ADD MSTORE PUSH32 0x6F7261636C6520616464726573732063616E6E6F742062652030206164647265 PUSH1 0x40 DUP3 ADD MSTORE PUSH2 0x7373 PUSH1 0xF0 SHL PUSH1 0x60 DUP3 ADD MSTORE PUSH1 0x80 ADD SWAP1 JUMP JUMPDEST PUSH1 0x20 DUP1 DUP3 MSTORE PUSH1 0x24 SWAP1 DUP3 ADD MSTORE PUSH32 0x6175746F2063616C63756C617465207461782063616E6E6F7420626520656E61 PUSH1 0x40 DUP3 ADD MSTORE PUSH4 0x189B1959 PUSH1 0xE2 SHL PUSH1 0x60 DUP3 ADD MSTORE PUSH1 0x80 ADD SWAP1 JUMP JUMPDEST PUSH1 0x20 DUP1 DUP3 MSTORE PUSH1 0x25 SWAP1 DUP3 ADD MSTORE PUSH32 0x45524332303A207472616E736665722066726F6D20746865207A65726F206164 PUSH1 0x40 DUP3 ADD MSTORE PUSH5 0x6472657373 PUSH1 0xD8 SHL PUSH1 0x60 DUP3 ADD MSTORE PUSH1 0x80 ADD SWAP1 JUMP JUMPDEST PUSH1 0x20 DUP1 DUP3 MSTORE PUSH1 0x2C SWAP1 DUP3 ADD MSTORE PUSH32 0x43616C6C6572206973206E6F7420746865206F70657261746F72206F72207468 PUSH1 0x40 DUP3 ADD MSTORE PUSH12 0x6520746178206F6666696365 PUSH1 0xA0 SHL PUSH1 0x60 DUP3 ADD MSTORE PUSH1 0x80 ADD SWAP1 JUMP JUMPDEST PUSH1 0x20 DUP1 DUP3 MSTORE PUSH1 0x24 SWAP1 DUP3 ADD MSTORE PUSH32 0x45524332303A20617070726F76652066726F6D20746865207A65726F20616464 PUSH1 0x40 DUP3 ADD MSTORE PUSH4 0x72657373 PUSH1 0xE0 SHL PUSH1 0x60 DUP3 ADD MSTORE PUSH1 0x80 ADD SWAP1 JUMP JUMPDEST PUSH1 0x20 DUP1 DUP3 MSTORE PUSH1 0xD SWAP1 DUP3 ADD MSTORE PUSH13 0x857D9D95B995CDA5CD41BDBDB PUSH1 0x9A SHL PUSH1 0x40 DUP3 ADD MSTORE PUSH1 0x60 ADD SWAP1 JUMP JUMPDEST PUSH1 0x20 DUP1 DUP3 MSTORE PUSH1 0x25 SWAP1 DUP3 ADD MSTORE PUSH32 0x45524332303A2064656372656173656420616C6C6F77616E63652062656C6F77 PUSH1 0x40 DUP3 ADD MSTORE PUSH5 0x207A65726F PUSH1 0xD8 SHL PUSH1 0x60 DUP3 ADD MSTORE PUSH1 0x80 ADD SWAP1 JUMP JUMPDEST PUSH1 0x20 DUP1 DUP3 MSTORE PUSH1 0x1F SWAP1 DUP3 ADD MSTORE PUSH32 0x45524332303A206D696E7420746F20746865207A65726F206164647265737300 PUSH1 0x40 DUP3 ADD MSTORE PUSH1 0x60 ADD SWAP1 JUMP JUMPDEST SWAP1 DUP2 MSTORE PUSH1 0x20 ADD SWAP1 JUMP JUMPDEST PUSH1 0xFF SWAP2 SWAP1 SWAP2 AND DUP2 MSTORE PUSH1 0x20 ADD SWAP1 JUMP JUMPDEST PUSH1 0x0 DUP3 NOT DUP3 GT ISZERO PUSH2 0x24B8 JUMPI PUSH2 0x24B8 PUSH2 0x25AD JUMP JUMPDEST POP ADD SWAP1 JUMP JUMPDEST PUSH1 0x0 PUSH1 0xFF DUP3 AND PUSH1 0xFF DUP5 AND DUP1 PUSH1 0xFF SUB DUP3 GT ISZERO PUSH2 0x24DA JUMPI PUSH2 0x24DA PUSH2 0x25AD JUMP JUMPDEST ADD SWAP4 SWAP3 POP POP POP JUMP JUMPDEST PUSH1 0x0 DUP3 PUSH2 0x24FD JUMPI PUSH4 0x4E487B71 PUSH1 0xE0 SHL DUP2 MSTORE PUSH1 0x12 PUSH1 0x4 MSTORE PUSH1 0x24 DUP2 REVERT JUMPDEST POP DIV SWAP1 JUMP JUMPDEST PUSH1 0x0 DUP2 PUSH1 0x0 NOT DIV DUP4 GT DUP3 ISZERO ISZERO AND ISZERO PUSH2 0x251C JUMPI PUSH2 0x251C PUSH2 0x25AD JUMP JUMPDEST POP MUL SWAP1 JUMP JUMPDEST PUSH1 0x0 DUP3 DUP3 LT ISZERO PUSH2 0x2533 JUMPI PUSH2 0x2533 PUSH2 0x25AD JUMP JUMPDEST POP SUB SWAP1 JUMP JUMPDEST PUSH1 0x0 PUSH1 0xFF DUP3 AND PUSH1 0xFF DUP5 AND DUP1 DUP3 LT ISZERO PUSH2 0x2552 JUMPI PUSH2 0x2552 PUSH2 0x25AD JUMP JUMPDEST SWAP1 SUB SWAP4 SWAP3 POP POP POP JUMP JUMPDEST PUSH1 0x0 PUSH1 0xFF DUP3 AND DUP1 PUSH2 0x256E JUMPI PUSH2 0x256E PUSH2 0x25AD JUMP JUMPDEST PUSH1 0x0 NOT ADD SWAP3 SWAP2 POP POP JUMP JUMPDEST PUSH1 0x2 DUP2 DIV PUSH1 0x1 DUP3 AND DUP1 PUSH2 0x258C JUMPI PUSH1 0x7F DUP3 AND SWAP2 POP JUMPDEST PUSH1 0x20 DUP3 LT DUP2 EQ ISZERO PUSH2 0x1595 JUMPI PUSH4 0x4E487B71 PUSH1 0xE0 SHL PUSH1 0x0 MSTORE PUSH1 0x22 PUSH1 0x4 MSTORE PUSH1 0x24 PUSH1 0x0 REVERT JUMPDEST PUSH4 0x4E487B71 PUSH1 0xE0 SHL PUSH1 0x0 MSTORE PUSH1 0x11 PUSH1 0x4 MSTORE PUSH1 0x24 PUSH1 0x0 REVERT JUMPDEST PUSH1 0x1 PUSH1 0x1 PUSH1 0xA0 SHL SUB DUP2 AND DUP2 EQ PUSH2 0x79A JUMPI PUSH1 0x0 DUP1 REVERT INVALID GASLIMIT MSTORE NUMBER ORIGIN ADDRESS GASPRICE KECCAK256 PUSH21 0x72616E7366657220616D6F756E7420657863656564 PUSH20 0x20616C6C6F77616E6365A2646970667358221220 SDIV 0xCE 0xE7 SDIV 0xC8 0xFB PUSH25 0x76C64DC4387361BD7E5AF0CFF5FDDB20590A3A44505FFB5314 PUSH5 0x736F6C6343 STOP ADDMOD STOP STOP CALLER "
		},
		"gasEstimates": {
			"creation": {
				"codeDepositCost": "1956400",
				"executionCost": "infinite",
				"totalCost": "infinite"
			},
			"external": {
				"INITIAL_AIRDROP_WALLET_DISTRIBUTION()": "360",
				"INITIAL_GENESIS_POOL_DISTRIBUTION()": "318",
				"INITIAL_SPECTER_POOL_DISTRIBUTION()": "317",
				"allowance(address,address)": "infinite",
				"approve(address,uint256)": "22646",
				"autoCalculateTax()": "1169",
				"balanceOf(address)": "1422",
				"burn(uint256)": "infinite",
				"burnFrom(address,uint256)": "infinite",
				"burnThreshold()": "1140",
				"decimals()": "397",
				"decreaseAllowance(address,uint256)": "infinite",
				"disableAutoCalculateTax()": "21897",
				"distributeReward(address,address,address)": "infinite",
				"enableAutoCalculateTax()": "21930",
				"excludeAddress(address)": "24041",
				"excludedAddresses(address)": "1413",
				"getTaxTiersRatesCount()": "1094",
				"getTaxTiersTwapsCount()": "1161",
				"governanceRecoverUnsupported(address,uint256,address)": "infinite",
				"includeAddress(address)": "24127",
				"increaseAllowance(address,uint256)": "infinite",
				"isAddressExcluded(address)": "1387",
				"isOperator()": "1181",
				"mint(address,uint256)": "infinite",
				"name()": "infinite",
				"operator()": "1115",
				"owner()": "1204",
				"renounceOwnership()": "23553",
				"rewardPoolDistributed()": "1124",
				"setBurnThreshold(uint256)": "21255",
				"setSpecterOracle(address)": "23057",
				"setTaxCollectorAddress(address)": "22173",
				"setTaxOffice(address)": "25301",
				"setTaxRate(uint256)": "22063",
				"setTaxTiersRate(uint8,uint256)": "23042",
				"setTaxTiersTwap(uint8,uint256)": "infinite",
				"specterOracle()": "1115",
				"symbol()": "infinite",
				"taxCollectorAddress()": "1181",
				"taxOffice()": "1160",
				"taxRate()": "1096",
				"taxTiersRates(uint256)": "2063",
				"taxTiersTwaps(uint256)": "2042",
				"totalSupply()": "1119",
				"transfer(address,uint256)": "infinite",
				"transferFrom(address,address,uint256)": "infinite",
				"transferOperator(address)": "infinite",
				"transferOwnership(address)": "infinite"
			},
			"internal": {
				"_getSpecterPrice()": "infinite",
				"_transferWithTax(address,address,uint256,bool)": "infinite",
				"_updateTaxRate(uint256)": "infinite"
			}
		},
		"methodIdentifiers": {
			"INITIAL_AIRDROP_WALLET_DISTRIBUTION()": "ffa8226e",
			"INITIAL_GENESIS_POOL_DISTRIBUTION()": "4e20a02c",
			"INITIAL_SPECTER_POOL_DISTRIBUTION()": "c31a93b8",
			"allowance(address,address)": "dd62ed3e",
			"approve(address,uint256)": "095ea7b3",
			"autoCalculateTax()": "8d3cc818",
			"balanceOf(address)": "70a08231",
			"burn(uint256)": "42966c68",
			"burnFrom(address,uint256)": "79cc6790",
			"burnThreshold()": "4f6d38d0",
			"decimals()": "313ce567",
			"decreaseAllowance(address,uint256)": "a457c2d7",
			"disableAutoCalculateTax()": "65bbacd9",
			"distributeReward(address,address,address)": "521181d5",
			"enableAutoCalculateTax()": "ff87fc7c",
			"excludeAddress(address)": "3758e6ce",
			"excludedAddresses(address)": "cf011b26",
			"getTaxTiersRatesCount()": "ee2a9535",
			"getTaxTiersTwapsCount()": "a6431bba",
			"governanceRecoverUnsupported(address,uint256,address)": "54575af4",
			"includeAddress(address)": "93995d4b",
			"increaseAllowance(address,uint256)": "39509351",
			"isAddressExcluded(address)": "ebca1bd9",
			"isOperator()": "4456eda2",
			"mint(address,uint256)": "40c10f19",
			"name()": "06fdde03",
			"operator()": "570ca735",
			"owner()": "8da5cb5b",
			"renounceOwnership()": "715018a6",
			"rewardPoolDistributed()": "9662676c",
			"setBurnThreshold(uint256)": "9d6b5f21",
			"setSpecterOracle(address)": "e178c848",
			"setTaxCollectorAddress(address)": "69356d47",
			"setTaxOffice(address)": "3f07d76a",
			"setTaxRate(uint256)": "c6d69a30",
			"setTaxTiersRate(uint8,uint256)": "b87c5a4a",
			"setTaxTiersTwap(uint8,uint256)": "66206ce9",
			"specterOracle()": "b60863d9",
			"symbol()": "95d89b41",
			"taxCollectorAddress()": "c3bdf613",
			"taxOffice()": "3e5f13d4",
			"taxRate()": "771a3a1d",
			"taxTiersRates(uint256)": "5c29908d",
			"taxTiersTwaps(uint256)": "42c6b4f1",
			"totalSupply()": "18160ddd",
			"transfer(address,uint256)": "a9059cbb",
			"transferFrom(address,address,uint256)": "23b872dd",
			"transferOperator(address)": "29605e77",
			"transferOwnership(address)": "f2fde38b"
		}
	},
	"abi": [
		{
			"inputs": [
				{
					"internalType": "uint256",
					"name": "_taxRate",
					"type": "uint256"
				},
				{
					"internalType": "address",
					"name": "_taxCollectorAddress",
					"type": "address"
				}
			],
			"stateMutability": "nonpayable",
			"type": "constructor"
		},
		{
			"anonymous": false,
			"inputs": [
				{
					"indexed": true,
					"internalType": "address",
					"name": "owner",
					"type": "address"
				},
				{
					"indexed": true,
					"internalType": "address",
					"name": "spender",
					"type": "address"
				},
				{
					"indexed": false,
					"internalType": "uint256",
					"name": "value",
					"type": "uint256"
				}
			],
			"name": "Approval",
			"type": "event"
		},
		{
			"anonymous": false,
			"inputs": [
				{
					"indexed": true,
					"internalType": "address",
					"name": "previousOperator",
					"type": "address"
				},
				{
					"indexed": true,
					"internalType": "address",
					"name": "newOperator",
					"type": "address"
				}
			],
			"name": "OperatorTransferred",
			"type": "event"
		},
		{
			"anonymous": false,
			"inputs": [
				{
					"indexed": true,
					"internalType": "address",
					"name": "previousOwner",
					"type": "address"
				},
				{
					"indexed": true,
					"internalType": "address",
					"name": "newOwner",
					"type": "address"
				}
			],
			"name": "OwnershipTransferred",
			"type": "event"
		},
		{
			"anonymous": false,
			"inputs": [
				{
					"indexed": false,
					"internalType": "address",
					"name": "oldAddress",
					"type": "address"
				},
				{
					"indexed": false,
					"internalType": "address",
					"name": "newAddress",
					"type": "address"
				}
			],
			"name": "TaxOfficeTransferred",
			"type": "event"
		},
		{
			"anonymous": false,
			"inputs": [
				{
					"indexed": true,
					"internalType": "address",
					"name": "from",
					"type": "address"
				},
				{
					"indexed": true,
					"internalType": "address",
					"name": "to",
					"type": "address"
				},
				{
					"indexed": false,
					"internalType": "uint256",
					"name": "value",
					"type": "uint256"
				}
			],
			"name": "Transfer",
			"type": "event"
		},
		{
			"inputs": [],
			"name": "INITIAL_AIRDROP_WALLET_DISTRIBUTION",
			"outputs": [
				{
					"internalType": "uint256",
					"name": "",
					"type": "uint256"
				}
			],
			"stateMutability": "view",
			"type": "function"
		},
		{
			"inputs": [],
			"name": "INITIAL_GENESIS_POOL_DISTRIBUTION",
			"outputs": [
				{
					"internalType": "uint256",
					"name": "",
					"type": "uint256"
				}
			],
			"stateMutability": "view",
			"type": "function"
		},
		{
			"inputs": [],
			"name": "INITIAL_SPECTER_POOL_DISTRIBUTION",
			"outputs": [
				{
					"internalType": "uint256",
					"name": "",
					"type": "uint256"
				}
			],
			"stateMutability": "view",
			"type": "function"
		},
		{
			"inputs": [
				{
					"internalType": "address",
					"name": "owner",
					"type": "address"
				},
				{
					"internalType": "address",
					"name": "spender",
					"type": "address"
				}
			],
			"name": "allowance",
			"outputs": [
				{
					"internalType": "uint256",
					"name": "",
					"type": "uint256"
				}
			],
			"stateMutability": "view",
			"type": "function"
		},
		{
			"inputs": [
				{
					"internalType": "address",
					"name": "spender",
					"type": "address"
				},
				{
					"internalType": "uint256",
					"name": "amount",
					"type": "uint256"
				}
			],
			"name": "approve",
			"outputs": [
				{
					"internalType": "bool",
					"name": "",
					"type": "bool"
				}
			],
			"stateMutability": "nonpayable",
			"type": "function"
		},
		{
			"inputs": [],
			"name": "autoCalculateTax",
			"outputs": [
				{
					"internalType": "bool",
					"name": "",
					"type": "bool"
				}
			],
			"stateMutability": "view",
			"type": "function"
		},
		{
			"inputs": [
				{
					"internalType": "address",
					"name": "account",
					"type": "address"
				}
			],
			"name": "balanceOf",
			"outputs": [
				{
					"internalType": "uint256",
					"name": "",
					"type": "uint256"
				}
			],
			"stateMutability": "view",
			"type": "function"
		},
		{
			"inputs": [
				{
					"internalType": "uint256",
					"name": "amount",
					"type": "uint256"
				}
			],
			"name": "burn",
			"outputs": [],
			"stateMutability": "nonpayable",
			"type": "function"
		},
		{
			"inputs": [
				{
					"internalType": "address",
					"name": "account",
					"type": "address"
				},
				{
					"internalType": "uint256",
					"name": "amount",
					"type": "uint256"
				}
			],
			"name": "burnFrom",
			"outputs": [],
			"stateMutability": "nonpayable",
			"type": "function"
		},
		{
			"inputs": [],
			"name": "burnThreshold",
			"outputs": [
				{
					"internalType": "uint256",
					"name": "",
					"type": "uint256"
				}
			],
			"stateMutability": "view",
			"type": "function"
		},
		{
			"inputs": [],
			"name": "decimals",
			"outputs": [
				{
					"internalType": "uint8",
					"name": "",
					"type": "uint8"
				}
			],
			"stateMutability": "view",
			"type": "function"
		},
		{
			"inputs": [
				{
					"internalType": "address",
					"name": "spender",
					"type": "address"
				},
				{
					"internalType": "uint256",
					"name": "subtractedValue",
					"type": "uint256"
				}
			],
			"name": "decreaseAllowance",
			"outputs": [
				{
					"internalType": "bool",
					"name": "",
					"type": "bool"
				}
			],
			"stateMutability": "nonpayable",
			"type": "function"
		},
		{
			"inputs": [],
			"name": "disableAutoCalculateTax",
			"outputs": [],
			"stateMutability": "nonpayable",
			"type": "function"
		},
		{
			"inputs": [
				{
					"internalType": "address",
					"name": "_genesisPool",
					"type": "address"
				},
				{
					"internalType": "address",
					"name": "_specterPool",
					"type": "address"
				},
				{
					"internalType": "address",
					"name": "_airdropWallet",
					"type": "address"
				}
			],
			"name": "distributeReward",
			"outputs": [],
			"stateMutability": "nonpayable",
			"type": "function"
		},
		{
			"inputs": [],
			"name": "enableAutoCalculateTax",
			"outputs": [],
			"stateMutability": "nonpayable",
			"type": "function"
		},
		{
			"inputs": [
				{
					"internalType": "address",
					"name": "_address",
					"type": "address"
				}
			],
			"name": "excludeAddress",
			"outputs": [
				{
					"internalType": "bool",
					"name": "",
					"type": "bool"
				}
			],
			"stateMutability": "nonpayable",
			"type": "function"
		},
		{
			"inputs": [
				{
					"internalType": "address",
					"name": "",
					"type": "address"
				}
			],
			"name": "excludedAddresses",
			"outputs": [
				{
					"internalType": "bool",
					"name": "",
					"type": "bool"
				}
			],
			"stateMutability": "view",
			"type": "function"
		},
		{
			"inputs": [],
			"name": "getTaxTiersRatesCount",
			"outputs": [
				{
					"internalType": "uint256",
					"name": "count",
					"type": "uint256"
				}
			],
			"stateMutability": "view",
			"type": "function"
		},
		{
			"inputs": [],
			"name": "getTaxTiersTwapsCount",
			"outputs": [
				{
					"internalType": "uint256",
					"name": "count",
					"type": "uint256"
				}
			],
			"stateMutability": "view",
			"type": "function"
		},
		{
			"inputs": [
				{
					"internalType": "contract IERC20",
					"name": "_token",
					"type": "address"
				},
				{
					"internalType": "uint256",
					"name": "_amount",
					"type": "uint256"
				},
				{
					"internalType": "address",
					"name": "_to",
					"type": "address"
				}
			],
			"name": "governanceRecoverUnsupported",
			"outputs": [],
			"stateMutability": "nonpayable",
			"type": "function"
		},
		{
			"inputs": [
				{
					"internalType": "address",
					"name": "_address",
					"type": "address"
				}
			],
			"name": "includeAddress",
			"outputs": [
				{
					"internalType": "bool",
					"name": "",
					"type": "bool"
				}
			],
			"stateMutability": "nonpayable",
			"type": "function"
		},
		{
			"inputs": [
				{
					"internalType": "address",
					"name": "spender",
					"type": "address"
				},
				{
					"internalType": "uint256",
					"name": "addedValue",
					"type": "uint256"
				}
			],
			"name": "increaseAllowance",
			"outputs": [
				{
					"internalType": "bool",
					"name": "",
					"type": "bool"
				}
			],
			"stateMutability": "nonpayable",
			"type": "function"
		},
		{
			"inputs": [
				{
					"internalType": "address",
					"name": "_address",
					"type": "address"
				}
			],
			"name": "isAddressExcluded",
			"outputs": [
				{
					"internalType": "bool",
					"name": "",
					"type": "bool"
				}
			],
			"stateMutability": "view",
			"type": "function"
		},
		{
			"inputs": [],
			"name": "isOperator",
			"outputs": [
				{
					"internalType": "bool",
					"name": "",
					"type": "bool"
				}
			],
			"stateMutability": "view",
			"type": "function"
		},
		{
			"inputs": [
				{
					"internalType": "address",
					"name": "recipient_",
					"type": "address"
				},
				{
					"internalType": "uint256",
					"name": "amount_",
					"type": "uint256"
				}
			],
			"name": "mint",
			"outputs": [
				{
					"internalType": "bool",
					"name": "",
					"type": "bool"
				}
			],
			"stateMutability": "nonpayable",
			"type": "function"
		},
		{
			"inputs": [],
			"name": "name",
			"outputs": [
				{
					"internalType": "string",
					"name": "",
					"type": "string"
				}
			],
			"stateMutability": "view",
			"type": "function"
		},
		{
			"inputs": [],
			"name": "operator",
			"outputs": [
				{
					"internalType": "address",
					"name": "",
					"type": "address"
				}
			],
			"stateMutability": "view",
			"type": "function"
		},
		{
			"inputs": [],
			"name": "owner",
			"outputs": [
				{
					"internalType": "address",
					"name": "",
					"type": "address"
				}
			],
			"stateMutability": "view",
			"type": "function"
		},
		{
			"inputs": [],
			"name": "renounceOwnership",
			"outputs": [],
			"stateMutability": "nonpayable",
			"type": "function"
		},
		{
			"inputs": [],
			"name": "rewardPoolDistributed",
			"outputs": [
				{
					"internalType": "bool",
					"name": "",
					"type": "bool"
				}
			],
			"stateMutability": "view",
			"type": "function"
		},
		{
			"inputs": [
				{
					"internalType": "uint256",
					"name": "_burnThreshold",
					"type": "uint256"
				}
			],
			"name": "setBurnThreshold",
			"outputs": [
				{
					"internalType": "bool",
					"name": "",
					"type": "bool"
				}
			],
			"stateMutability": "nonpayable",
			"type": "function"
		},
		{
			"inputs": [
				{
					"internalType": "address",
					"name": "_specterOracle",
					"type": "address"
				}
			],
			"name": "setSpecterOracle",
			"outputs": [],
			"stateMutability": "nonpayable",
			"type": "function"
		},
		{
			"inputs": [
				{
					"internalType": "address",
					"name": "_taxCollectorAddress",
					"type": "address"
				}
			],
			"name": "setTaxCollectorAddress",
			"outputs": [],
			"stateMutability": "nonpayable",
			"type": "function"
		},
		{
			"inputs": [
				{
					"internalType": "address",
					"name": "_taxOffice",
					"type": "address"
				}
			],
			"name": "setTaxOffice",
			"outputs": [],
			"stateMutability": "nonpayable",
			"type": "function"
		},
		{
			"inputs": [
				{
					"internalType": "uint256",
					"name": "_taxRate",
					"type": "uint256"
				}
			],
			"name": "setTaxRate",
			"outputs": [],
			"stateMutability": "nonpayable",
			"type": "function"
		},
		{
			"inputs": [
				{
					"internalType": "uint8",
					"name": "_index",
					"type": "uint8"
				},
				{
					"internalType": "uint256",
					"name": "_value",
					"type": "uint256"
				}
			],
			"name": "setTaxTiersRate",
			"outputs": [
				{
					"internalType": "bool",
					"name": "",
					"type": "bool"
				}
			],
			"stateMutability": "nonpayable",
			"type": "function"
		},
		{
			"inputs": [
				{
					"internalType": "uint8",
					"name": "_index",
					"type": "uint8"
				},
				{
					"internalType": "uint256",
					"name": "_value",
					"type": "uint256"
				}
			],
			"name": "setTaxTiersTwap",
			"outputs": [
				{
					"internalType": "bool",
					"name": "",
					"type": "bool"
				}
			],
			"stateMutability": "nonpayable",
			"type": "function"
		},
		{
			"inputs": [],
			"name": "specterOracle",
			"outputs": [
				{
					"internalType": "address",
					"name": "",
					"type": "address"
				}
			],
			"stateMutability": "view",
			"type": "function"
		},
		{
			"inputs": [],
			"name": "symbol",
			"outputs": [
				{
					"internalType": "string",
					"name": "",
					"type": "string"
				}
			],
			"stateMutability": "view",
			"type": "function"
		},
		{
			"inputs": [],
			"name": "taxCollectorAddress",
			"outputs": [
				{
					"internalType": "address",
					"name": "",
					"type": "address"
				}
			],
			"stateMutability": "view",
			"type": "function"
		},
		{
			"inputs": [],
			"name": "taxOffice",
			"outputs": [
				{
					"internalType": "address",
					"name": "",
					"type": "address"
				}
			],
			"stateMutability": "view",
			"type": "function"
		},
		{
			"inputs": [],
			"name": "taxRate",
			"outputs": [
				{
					"internalType": "uint256",
					"name": "",
					"type": "uint256"
				}
			],
			"stateMutability": "view",
			"type": "function"
		},
		{
			"inputs": [
				{
					"internalType": "uint256",
					"name": "",
					"type": "uint256"
				}
			],
			"name": "taxTiersRates",
			"outputs": [
				{
					"internalType": "uint256",
					"name": "",
					"type": "uint256"
				}
			],
			"stateMutability": "view",
			"type": "function"
		},
		{
			"inputs": [
				{
					"internalType": "uint256",
					"name": "",
					"type": "uint256"
				}
			],
			"name": "taxTiersTwaps",
			"outputs": [
				{
					"internalType": "uint256",
					"name": "",
					"type": "uint256"
				}
			],
			"stateMutability": "view",
			"type": "function"
		},
		{
			"inputs": [],
			"name": "totalSupply",
			"outputs": [
				{
					"internalType": "uint256",
					"name": "",
					"type": "uint256"
				}
			],
			"stateMutability": "view",
			"type": "function"
		},
		{
			"inputs": [
				{
					"internalType": "address",
					"name": "recipient",
					"type": "address"
				},
				{
					"internalType": "uint256",
					"name": "amount",
					"type": "uint256"
				}
			],
			"name": "transfer",
			"outputs": [
				{
					"internalType": "bool",
					"name": "",
					"type": "bool"
				}
			],
			"stateMutability": "nonpayable",
			"type": "function"
		},
		{
			"inputs": [
				{
					"internalType": "address",
					"name": "sender",
					"type": "address"
				},
				{
					"internalType": "address",
					"name": "recipient",
					"type": "address"
				},
				{
					"internalType": "uint256",
					"name": "amount",
					"type": "uint256"
				}
			],
			"name": "transferFrom",
			"outputs": [
				{
					"internalType": "bool",
					"name": "",
					"type": "bool"
				}
			],
			"stateMutability": "nonpayable",
			"type": "function"
		},
		{
			"inputs": [
				{
					"internalType": "address",
					"name": "newOperator_",
					"type": "address"
				}
			],
			"name": "transferOperator",
			"outputs": [],
			"stateMutability": "nonpayable",
			"type": "function"
		},
		{
			"inputs": [
				{
					"internalType": "address",
					"name": "newOwner",
					"type": "address"
				}
			],
			"name": "transferOwnership",
			"outputs": [],
			"stateMutability": "nonpayable",
			"type": "function"
		}
	]
}