{
	"data": {
		"bytecode": {
			"linkReferences": {},
			"object": "6080604052600f805460ff191690553480156200001b57600080fd5b5060405162001dda38038062001dda8339810160408190526200003e9162000447565b604080518082018252600d81526c5370656374657220536861726560981b60208083019182528351808501909452600684526553534841524560d01b908401528151919291620000919160039162000384565b508051620000a790600490602084019062000384565b505050620000c4620000be6200023b60201b60201c565b6200023f565b620000ce6200023b565b600680546001600160a01b0319166001600160a01b0392831617908190556040519116906000907f74da04524d50c64947f5dd5381ef1a4dca5cba8ed1d816243f9e48aa0b5617ed908290a36200012e33670de0b6b3a764000062000291565b6007839055620001426283d60084620004fe565b600855600754600d819055600e556200017569012a27d53bc0487000006283d6006200036a602090811b62000c3217901c565b6009556200019d69010f0cf064dd592000006283d6006200036a602090811b62000c3217901c565b600a556001600160a01b038116620001d25760405162461bcd60e51b8152600401620001c99062000487565b60405180910390fd5b600c80546001600160a01b0319166001600160a01b03838116919091179091558216620002135760405162461bcd60e51b8152600401620001c99062000487565b50600b80546001600160a01b0319166001600160a01b03929092169190911790555062000581565b3390565b600580546001600160a01b038381166001600160a01b0319831681179093556040519116919082907f8be0079c531659141344cd1fd0a4f28419497f9722a3daafe3b4186f6b6457e090600090a35050565b6001600160a01b038216620002ba5760405162461bcd60e51b8152600401620001c990620004be565b620002c8600083836200037f565b8060026000828254620002dc9190620004fe565b90915550506001600160a01b038216600090815260208190526040812080548392906200030b908490620004fe565b90915550506040516001600160a01b038316906000907fddf252ad1be2c89b69c2b068fc378daa952ba7f163c4a11628f55a4df523b3ef9062000350908590620004f5565b60405180910390a362000366600083836200037f565b5050565b600062000378828462000523565b9392505050565b505050565b828054620003929062000544565b90600052602060002090601f016020900481019282620003b6576000855562000401565b82601f10620003d157805160ff191683800117855562000401565b8280016001018555821562000401579182015b8281111562000401578251825591602001919060010190620003e4565b506200040f92915062000413565b5090565b5b808211156200040f576000815560010162000414565b80516001600160a01b03811681146200044257600080fd5b919050565b6000806000606084860312156200045c578283fd5b835192506200046e602085016200042a565b91506200047e604085016200042a565b90509250925092565b60208082526013908201527f416464726573732063616e6e6f74206265203000000000000000000000000000604082015260600190565b6020808252601f908201527f45524332303a206d696e7420746f20746865207a65726f206164647265737300604082015260600190565b90815260200190565b600082198211156200051e57634e487b7160e01b81526011600452602481fd5b500190565b6000826200053f57634e487b7160e01b81526012600452602481fd5b500490565b6002810460018216806200055957607f821691505b602082108114156200057b57634e487b7160e01b600052602260045260246000fd5b50919050565b61184980620005916000396000f3fe608060405234801561001057600080fd5b506004361061023c5760003560e01c806344cdc4541161013b57806395d89b41116100b8578063abb4b1be1161007c578063abb4b1be14610416578063ae4db9191461041e578063dd62ed3e14610431578063f2fde38b14610444578063f746b718146104575761023c565b806395d89b41146103d85780639662676c146103e0578063a06160fd146103e8578063a457c2d7146103f0578063a9059cbb146104035761023c565b806370a08231116100ff57806370a082311461039a578063715018a6146103ad57806378e97925146103b557806379cc6790146103bd5780638da5cb5b146103d05761023c565b806344cdc454146103675780634cfc4d301461036f5780634f337dd51461037757806354575af41461037f578063570ca735146103925761023c565b80632c07a624116101c9578063395093511161018d57806339509351146103295780633bba8eed1461033c57806342966c68146103445780634390d2a8146103575780634456eda21461035f5761023c565b80632c07a624146102f45780632e3367ce146102fc578063313ce567146103045780633197cbb614610319578063372500ab146103215761023c565b8063095ea7b311610210578063095ea7b31461029e57806317764782146102be57806318160ddd146102c657806323b872dd146102ce57806329605e77146102e15761023c565b8062f380f414610241578063040173151461025f57806306fdde0314610274578063092193ab14610289575b600080fd5b61024961046a565b604051610256919061120f565b60405180910390f35b610267610479565b6040516102569190611728565b61027c61047f565b6040516102569190611247565b61029c6102973660046110d7565b610512565b005b6102b16102ac36600461116b565b6105b2565b604051610256919061123c565b6102676105cf565b61026761061d565b6102b16102dc36600461112b565b610623565b61029c6102ef3660046110d7565b6106b3565b6102676106fb565b61026761073d565b61030c610743565b6040516102569190611731565b610267610748565b61029c61074e565b6102b161033736600461116b565b6107da565b61026761082e565b61029c6103523660046111f7565b61083c565b610249610845565b6102b1610854565b61026761087a565b610267610880565b610267610887565b61029c61038d3660046111b6565b610895565b610249610945565b6102676103a83660046110d7565b610954565b61029c61096f565b6102676109ba565b61029c6103cb36600461116b565b6109c0565b610249610a13565b61027c610a22565b6102b1610a31565b610267610a3a565b6102b16103fe36600461116b565b610a48565b6102b161041136600461116b565b610ac1565b610267610ad5565b61029c61042c3660046110d7565b610adb565b61026761043f3660046110f3565b610b4d565b61029c6104523660046110d7565b610b78565b61029c6104653660046110d7565b610be6565b600b546001600160a01b031681565b600e5481565b60606003805461048e906117ad565b80601f01602080910402602001604051908101604052809291908181526020018280546104ba906117ad565b80156105075780601f106104dc57610100808354040283529160200191610507565b820191906000526020600020905b8154815290600101906020018083116104ea57829003601f168201915b505050505090505b90565b6006546001600160a01b031633146105455760405162461bcd60e51b815260040161053c9061159e565b60405180910390fd5b600f5460ff16156105685760405162461bcd60e51b815260040161053c906112dd565b6001600160a01b03811661058e5760405162461bcd60e51b815260040161053c906114f5565b600f805460ff191660011790556105af81690ed2b525841adfc00000610c45565b50565b60006105c66105bf610d11565b8484610d15565b50600192915050565b60085460009042908111156105e357506008545b80600d54106105f657600091505061050f565b610617600954610611600d5484610dc990919063ffffffff16565b90610dd5565b91505090565b60025490565b6000610630848484610de1565b6001600160a01b038416600090815260016020526040812081610651610d11565b6001600160a01b03166001600160a01b03168152602001908152602001600020549050828110156106945760405162461bcd60e51b815260040161053c906114ad565b6106a8856106a0610d11565b858403610d15565b506001949350505050565b6106bb610d11565b6001600160a01b03166106cc610a13565b6001600160a01b0316146106f25760405162461bcd60e51b815260040161053c90611525565b6105af81610f05565b600854600090429081111561070f57506008545b80600e541061072257600091505061050f565b610617600a54610611600e5484610dc990919063ffffffff16565b600a5481565b601290565b60085481565b60006107586105cf565b90506000811180156107745750600b546001600160a01b031615155b1561079457600b5461078f906001600160a01b031682610c45565b42600d555b61079c6106fb565b90506000811180156107b85750600c546001600160a01b031615155b156105af57600c546107d3906001600160a01b031682610c45565b42600e5550565b60006105c66107e7610d11565b8484600160006107f5610d11565b6001600160a01b03908116825260208083019390935260409182016000908120918b1681529252902054610829919061173f565b610d15565b69012a27d53bc04870000081565b6105af81610f83565b600c546001600160a01b031681565b6006546000906001600160a01b031661086b610d11565b6001600160a01b031614905090565b60095481565b6283d60081565b69010f0cf064dd5920000081565b6006546001600160a01b031633146108bf5760405162461bcd60e51b815260040161053c9061159e565b60405163a9059cbb60e01b81526001600160a01b0384169063a9059cbb906108ed9084908690600401611223565b602060405180830381600087803b15801561090757600080fd5b505af115801561091b573d6000803e3d6000fd5b505050506040513d601f19601f8201168201806040525081019061093f9190611196565b50505050565b6006546001600160a01b031690565b6001600160a01b031660009081526020819052604090205490565b610977610d11565b6001600160a01b0316610988610a13565b6001600160a01b0316146109ae5760405162461bcd60e51b815260040161053c90611525565b6109b86000610f94565b565b60075481565b60006109ce8361043f610d11565b9050818110156109f05760405162461bcd60e51b815260040161053c9061155a565b610a04836109fc610d11565b848403610d15565b610a0e8383610fe6565b505050565b6005546001600160a01b031690565b60606004805461048e906117ad565b600f5460ff1681565b690ed2b525841adfc0000081565b60008060016000610a57610d11565b6001600160a01b0390811682526020808301939093526040918201600090812091881681529252902054905082811015610aa35760405162461bcd60e51b815260040161053c906116ac565b610ab7610aae610d11565b85858403610d15565b5060019392505050565b60006105c6610ace610d11565b8484610de1565b600d5481565b600c546001600160a01b03163314610b055760405162461bcd60e51b815260040161053c90611442565b6001600160a01b038116610b2b5760405162461bcd60e51b815260040161053c906113de565b600c80546001600160a01b0319166001600160a01b0392909216919091179055565b6001600160a01b03918216600090815260016020908152604080832093909416825291909152205490565b610b80610d11565b6001600160a01b0316610b91610a13565b6001600160a01b031614610bb75760405162461bcd60e51b815260040161053c90611525565b6001600160a01b038116610bdd5760405162461bcd60e51b815260040161053c90611356565b6105af81610f94565b600c546001600160a01b03163314610c105760405162461bcd60e51b815260040161053c90611442565b600b80546001600160a01b0319166001600160a01b0392909216919091179055565b6000610c3e8284611757565b9392505050565b6001600160a01b038216610c6b5760405162461bcd60e51b815260040161053c906116f1565b610c7760008383610a0e565b8060026000828254610c89919061173f565b90915550506001600160a01b03821660009081526020819052604081208054839290610cb690849061173f565b90915550506040516001600160a01b038316906000907fddf252ad1be2c89b69c2b068fc378daa952ba7f163c4a11628f55a4df523b3ef90610cf9908590611728565b60405180910390a3610d0d60008383610a0e565b5050565b3390565b6001600160a01b038316610d3b5760405162461bcd60e51b815260040161053c90611668565b6001600160a01b038216610d615760405162461bcd60e51b815260040161053c9061139c565b6001600160a01b0380841660008181526001602090815260408083209487168084529490915290819020849055517f8c5be1e5ebec7d5bd14f71427d1e84f3dd0314c0f7b2291e5b200ac8c7c3b92590610dbc908590611728565b60405180910390a3505050565b6000610c3e8284611796565b6000610c3e8284611777565b6001600160a01b038316610e075760405162461bcd60e51b815260040161053c90611623565b6001600160a01b038216610e2d5760405162461bcd60e51b815260040161053c9061129a565b610e38838383610a0e565b6001600160a01b03831660009081526020819052604090205481811015610e715760405162461bcd60e51b815260040161053c906113fc565b6001600160a01b03808516600090815260208190526040808220858503905591851681529081208054849290610ea890849061173f565b92505081905550826001600160a01b0316846001600160a01b03167fddf252ad1be2c89b69c2b068fc378daa952ba7f163c4a11628f55a4df523b3ef84604051610ef29190611728565b60405180910390a361093f848484610a0e565b6001600160a01b038116610f2b5760405162461bcd60e51b815260040161053c90611460565b6040516001600160a01b038216906000907f74da04524d50c64947f5dd5381ef1a4dca5cba8ed1d816243f9e48aa0b5617ed908290a3600680546001600160a01b0319166001600160a01b0392909216919091179055565b6105af610f8e610d11565b82610fe6565b600580546001600160a01b038381166001600160a01b0319831681179093556040519116919082907f8be0079c531659141344cd1fd0a4f28419497f9722a3daafe3b4186f6b6457e090600090a35050565b6001600160a01b03821661100c5760405162461bcd60e51b815260040161053c906115e2565b61101882600083610a0e565b6001600160a01b038216600090815260208190526040902054818110156110515760405162461bcd60e51b815260040161053c90611314565b6001600160a01b0383166000908152602081905260408120838303905560028054849290611080908490611796565b90915550506040516000906001600160a01b038516907fddf252ad1be2c89b69c2b068fc378daa952ba7f163c4a11628f55a4df523b3ef906110c3908690611728565b60405180910390a3610a0e83600084610a0e565b6000602082840312156110e8578081fd5b8135610c3e816117fe565b60008060408385031215611105578081fd5b8235611110816117fe565b91506020830135611120816117fe565b809150509250929050565b60008060006060848603121561113f578081fd5b833561114a816117fe565b9250602084013561115a816117fe565b929592945050506040919091013590565b6000806040838503121561117d578182fd5b8235611188816117fe565b946020939093013593505050565b6000602082840312156111a7578081fd5b81518015158114610c3e578182fd5b6000806000606084860312156111ca578283fd5b83356111d5816117fe565b92506020840135915060408401356111ec816117fe565b809150509250925092565b600060208284031215611208578081fd5b5035919050565b6001600160a01b0391909116815260200190565b6001600160a01b03929092168252602082015260400190565b901515815260200190565b6000602080835283518082850152825b8181101561127357858101830151858201604001528201611257565b818111156112845783604083870101525b50601f01601f1916929092016040019392505050565b60208082526023908201527f45524332303a207472616e7366657220746f20746865207a65726f206164647260408201526265737360e81b606082015260800190565b60208082526018908201527f6f6e6c792063616e2064697374726962757465206f6e63650000000000000000604082015260600190565b60208082526022908201527f45524332303a206275726e20616d6f756e7420657863656564732062616c616e604082015261636560f01b606082015260800190565b60208082526026908201527f4f776e61626c653a206e6577206f776e657220697320746865207a65726f206160408201526564647265737360d01b606082015260800190565b60208082526022908201527f45524332303a20617070726f766520746f20746865207a65726f206164647265604082015261737360f01b606082015260800190565b6020808252600490820152637a65726f60e01b604082015260600190565b60208082526026908201527f45524332303a207472616e7366657220616d6f756e7420657863656564732062604082015265616c616e636560d01b606082015260800190565b60208082526004908201526310b232bb60e11b604082015260600190565b6020808252602d908201527f6f70657261746f723a207a65726f206164647265737320676976656e20666f7260408201526c103732bb9037b832b930ba37b960991b606082015260800190565b60208082526028908201527f45524332303a207472616e7366657220616d6f756e74206578636565647320616040820152676c6c6f77616e636560c01b606082015260800190565b6020808252601690820152750857d9985c9b5a5b99d25b98d95b9d1a5d99519d5b9960521b604082015260600190565b6020808252818101527f4f776e61626c653a2063616c6c6572206973206e6f7420746865206f776e6572604082015260600190565b60208082526024908201527f45524332303a206275726e20616d6f756e74206578636565647320616c6c6f77604082015263616e636560e01b606082015260800190565b60208082526024908201527f6f70657261746f723a2063616c6c6572206973206e6f7420746865206f70657260408201526330ba37b960e11b606082015260800190565b60208082526021908201527f45524332303a206275726e2066726f6d20746865207a65726f206164647265736040820152607360f81b606082015260800190565b60208082526025908201527f45524332303a207472616e736665722066726f6d20746865207a65726f206164604082015264647265737360d81b606082015260800190565b60208082526024908201527f45524332303a20617070726f76652066726f6d20746865207a65726f206164646040820152637265737360e01b606082015260800190565b60208082526025908201527f45524332303a2064656372656173656420616c6c6f77616e63652062656c6f77604082015264207a65726f60d81b606082015260800190565b6020808252601f908201527f45524332303a206d696e7420746f20746865207a65726f206164647265737300604082015260600190565b90815260200190565b60ff91909116815260200190565b60008219821115611752576117526117e8565b500190565b60008261177257634e487b7160e01b81526012600452602481fd5b500490565b6000816000190483118215151615611791576117916117e8565b500290565b6000828210156117a8576117a86117e8565b500390565b6002810460018216806117c157607f821691505b602082108114156117e257634e487b7160e01b600052602260045260246000fd5b50919050565b634e487b7160e01b600052601160045260246000fd5b6001600160a01b03811681146105af57600080fdfea264697066735822122070cc8ecd5f807b32092f55a6fa43c164bfe194ec1dde86add1455ec0409179e064736f6c63430008000033",
			"opcodes": "PUSH1 0x80 PUSH1 0x40 MSTORE PUSH1 0xF DUP1 SLOAD PUSH1 0xFF NOT AND SWAP1 SSTORE CALLVALUE DUP1 ISZERO PUSH3 0x1B JUMPI PUSH1 0x0 DUP1 REVERT JUMPDEST POP PUSH1 0x40 MLOAD PUSH3 0x1DDA CODESIZE SUB DUP1 PUSH3 0x1DDA DUP4 CODECOPY DUP2 ADD PUSH1 0x40 DUP2 SWAP1 MSTORE PUSH3 0x3E SWAP2 PUSH3 0x447 JUMP JUMPDEST PUSH1 0x40 DUP1 MLOAD DUP1 DUP3 ADD DUP3 MSTORE PUSH1 0xD DUP2 MSTORE PUSH13 0x53706563746572205368617265 PUSH1 0x98 SHL PUSH1 0x20 DUP1 DUP4 ADD SWAP2 DUP3 MSTORE DUP4 MLOAD DUP1 DUP6 ADD SWAP1 SWAP5 MSTORE PUSH1 0x6 DUP5 MSTORE PUSH6 0x535348415245 PUSH1 0xD0 SHL SWAP1 DUP5 ADD MSTORE DUP2 MLOAD SWAP2 SWAP3 SWAP2 PUSH3 0x91 SWAP2 PUSH1 0x3 SWAP2 PUSH3 0x384 JUMP JUMPDEST POP DUP1 MLOAD PUSH3 0xA7 SWAP1 PUSH1 0x4 SWAP1 PUSH1 0x20 DUP5 ADD SWAP1 PUSH3 0x384 JUMP JUMPDEST POP POP POP PUSH3 0xC4 PUSH3 0xBE PUSH3 0x23B PUSH1 0x20 SHL PUSH1 0x20 SHR JUMP JUMPDEST PUSH3 0x23F JUMP JUMPDEST PUSH3 0xCE PUSH3 0x23B JUMP JUMPDEST PUSH1 0x6 DUP1 SLOAD PUSH1 0x1 PUSH1 0x1 PUSH1 0xA0 SHL SUB NOT AND PUSH1 0x1 PUSH1 0x1 PUSH1 0xA0 SHL SUB SWAP3 DUP4 AND OR SWAP1 DUP2 SWAP1 SSTORE PUSH1 0x40 MLOAD SWAP2 AND SWAP1 PUSH1 0x0 SWAP1 PUSH32 0x74DA04524D50C64947F5DD5381EF1A4DCA5CBA8ED1D816243F9E48AA0B5617ED SWAP1 DUP3 SWAP1 LOG3 PUSH3 0x12E CALLER PUSH8 0xDE0B6B3A7640000 PUSH3 0x291 JUMP JUMPDEST PUSH1 0x7 DUP4 SWAP1 SSTORE PUSH3 0x142 PUSH3 0x83D600 DUP5 PUSH3 0x4FE JUMP JUMPDEST PUSH1 0x8 SSTORE PUSH1 0x7 SLOAD PUSH1 0xD DUP2 SWAP1 SSTORE PUSH1 0xE SSTORE PUSH3 0x175 PUSH10 0x12A27D53BC048700000 PUSH3 0x83D600 PUSH3 0x36A PUSH1 0x20 SWAP1 DUP2 SHL PUSH3 0xC32 OR SWAP1 SHR JUMP JUMPDEST PUSH1 0x9 SSTORE PUSH3 0x19D PUSH10 0x10F0CF064DD59200000 PUSH3 0x83D600 PUSH3 0x36A PUSH1 0x20 SWAP1 DUP2 SHL PUSH3 0xC32 OR SWAP1 SHR JUMP JUMPDEST PUSH1 0xA SSTORE PUSH1 0x1 PUSH1 0x1 PUSH1 0xA0 SHL SUB DUP2 AND PUSH3 0x1D2 JUMPI PUSH1 0x40 MLOAD PUSH3 0x461BCD PUSH1 0xE5 SHL DUP2 MSTORE PUSH1 0x4 ADD PUSH3 0x1C9 SWAP1 PUSH3 0x487 JUMP JUMPDEST PUSH1 0x40 MLOAD DUP1 SWAP2 SUB SWAP1 REVERT JUMPDEST PUSH1 0xC DUP1 SLOAD PUSH1 0x1 PUSH1 0x1 PUSH1 0xA0 SHL SUB NOT AND PUSH1 0x1 PUSH1 0x1 PUSH1 0xA0 SHL SUB DUP4 DUP2 AND SWAP2 SWAP1 SWAP2 OR SWAP1 SWAP2 SSTORE DUP3 AND PUSH3 0x213 JUMPI PUSH1 0x40 MLOAD PUSH3 0x461BCD PUSH1 0xE5 SHL DUP2 MSTORE PUSH1 0x4 ADD PUSH3 0x1C9 SWAP1 PUSH3 0x487 JUMP JUMPDEST POP PUSH1 0xB DUP1 SLOAD PUSH1 0x1 PUSH1 0x1 PUSH1 0xA0 SHL SUB NOT AND PUSH1 0x1 PUSH1 0x1 PUSH1 0xA0 SHL SUB SWAP3 SWAP1 SWAP3 AND SWAP2 SWAP1 SWAP2 OR SWAP1 SSTORE POP PUSH3 0x581 JUMP JUMPDEST CALLER SWAP1 JUMP JUMPDEST PUSH1 0x5 DUP1 SLOAD PUSH1 0x1 PUSH1 0x1 PUSH1 0xA0 SHL SUB DUP4 DUP2 AND PUSH1 0x1 PUSH1 0x1 PUSH1 0xA0 SHL SUB NOT DUP4 AND DUP2 OR SWAP1 SWAP4 SSTORE PUSH1 0x40 MLOAD SWAP2 AND SWAP2 SWAP1 DUP3 SWAP1 PUSH32 0x8BE0079C531659141344CD1FD0A4F28419497F9722A3DAAFE3B4186F6B6457E0 SWAP1 PUSH1 0x0 SWAP1 LOG3 POP POP JUMP JUMPDEST PUSH1 0x1 PUSH1 0x1 PUSH1 0xA0 SHL SUB DUP3 AND PUSH3 0x2BA JUMPI PUSH1 0x40 MLOAD PUSH3 0x461BCD PUSH1 0xE5 SHL DUP2 MSTORE PUSH1 0x4 ADD PUSH3 0x1C9 SWAP1 PUSH3 0x4BE JUMP JUMPDEST PUSH3 0x2C8 PUSH1 0x0 DUP4 DUP4 PUSH3 0x37F JUMP JUMPDEST DUP1 PUSH1 0x2 PUSH1 0x0 DUP3 DUP3 SLOAD PUSH3 0x2DC SWAP2 SWAP1 PUSH3 0x4FE JUMP JUMPDEST SWAP1 SWAP2 SSTORE POP POP PUSH1 0x1 PUSH1 0x1 PUSH1 0xA0 SHL SUB DUP3 AND PUSH1 0x0 SWAP1 DUP2 MSTORE PUSH1 0x20 DUP2 SWAP1 MSTORE PUSH1 0x40 DUP2 KECCAK256 DUP1 SLOAD DUP4 SWAP3 SWAP1 PUSH3 0x30B SWAP1 DUP5 SWAP1 PUSH3 0x4FE JUMP JUMPDEST SWAP1 SWAP2 SSTORE POP POP PUSH1 0x40 MLOAD PUSH1 0x1 PUSH1 0x1 PUSH1 0xA0 SHL SUB DUP4 AND SWAP1 PUSH1 0x0 SWAP1 PUSH32 0xDDF252AD1BE2C89B69C2B068FC378DAA952BA7F163C4A11628F55A4DF523B3EF SWAP1 PUSH3 0x350 SWAP1 DUP6 SWAP1 PUSH3 0x4F5 JUMP JUMPDEST PUSH1 0x40 MLOAD DUP1 SWAP2 SUB SWAP1 LOG3 PUSH3 0x366 PUSH1 0x0 DUP4 DUP4 PUSH3 0x37F JUMP JUMPDEST POP POP JUMP JUMPDEST PUSH1 0x0 PUSH3 0x378 DUP3 DUP5 PUSH3 0x523 JUMP JUMPDEST SWAP4 SWAP3 POP POP POP JUMP JUMPDEST POP POP POP JUMP JUMPDEST DUP3 DUP1 SLOAD PUSH3 0x392 SWAP1 PUSH3 0x544 JUMP JUMPDEST SWAP1 PUSH1 0x0 MSTORE PUSH1 0x20 PUSH1 0x0 KECCAK256 SWAP1 PUSH1 0x1F ADD PUSH1 0x20 SWAP1 DIV DUP2 ADD SWAP3 DUP3 PUSH3 0x3B6 JUMPI PUSH1 0x0 DUP6 SSTORE PUSH3 0x401 JUMP JUMPDEST DUP3 PUSH1 0x1F LT PUSH3 0x3D1 JUMPI DUP1 MLOAD PUSH1 0xFF NOT AND DUP4 DUP1 ADD OR DUP6 SSTORE PUSH3 0x401 JUMP JUMPDEST DUP3 DUP1 ADD PUSH1 0x1 ADD DUP6 SSTORE DUP3 ISZERO PUSH3 0x401 JUMPI SWAP2 DUP3 ADD JUMPDEST DUP3 DUP2 GT ISZERO PUSH3 0x401 JUMPI DUP3 MLOAD DUP3 SSTORE SWAP2 PUSH1 0x20 ADD SWAP2 SWAP1 PUSH1 0x1 ADD SWAP1 PUSH3 0x3E4 JUMP JUMPDEST POP PUSH3 0x40F SWAP3 SWAP2 POP PUSH3 0x413 JUMP JUMPDEST POP SWAP1 JUMP JUMPDEST JUMPDEST DUP1 DUP3 GT ISZERO PUSH3 0x40F JUMPI PUSH1 0x0 DUP2 SSTORE PUSH1 0x1 ADD PUSH3 0x414 JUMP JUMPDEST DUP1 MLOAD PUSH1 0x1 PUSH1 0x1 PUSH1 0xA0 SHL SUB DUP2 AND DUP2 EQ PUSH3 0x442 JUMPI PUSH1 0x0 DUP1 REVERT JUMPDEST SWAP2 SWAP1 POP JUMP JUMPDEST PUSH1 0x0 DUP1 PUSH1 0x0 PUSH1 0x60 DUP5 DUP7 SUB SLT ISZERO PUSH3 0x45C JUMPI DUP3 DUP4 REVERT JUMPDEST DUP4 MLOAD SWAP3 POP PUSH3 0x46E PUSH1 0x20 DUP6 ADD PUSH3 0x42A JUMP JUMPDEST SWAP2 POP PUSH3 0x47E PUSH1 0x40 DUP6 ADD PUSH3 0x42A JUMP JUMPDEST SWAP1 POP SWAP3 POP SWAP3 POP SWAP3 JUMP JUMPDEST PUSH1 0x20 DUP1 DUP3 MSTORE PUSH1 0x13 SWAP1 DUP3 ADD MSTORE PUSH32 0x416464726573732063616E6E6F74206265203000000000000000000000000000 PUSH1 0x40 DUP3 ADD MSTORE PUSH1 0x60 ADD SWAP1 JUMP JUMPDEST PUSH1 0x20 DUP1 DUP3 MSTORE PUSH1 0x1F SWAP1 DUP3 ADD MSTORE PUSH32 0x45524332303A206D696E7420746F20746865207A65726F206164647265737300 PUSH1 0x40 DUP3 ADD MSTORE PUSH1 0x60 ADD SWAP1 JUMP JUMPDEST SWAP1 DUP2 MSTORE PUSH1 0x20 ADD SWAP1 JUMP JUMPDEST PUSH1 0x0 DUP3 NOT DUP3 GT ISZERO PUSH3 0x51E JUMPI PUSH4 0x4E487B71 PUSH1 0xE0 SHL DUP2 MSTORE PUSH1 0x11 PUSH1 0x4 MSTORE PUSH1 0x24 DUP2 REVERT JUMPDEST POP ADD SWAP1 JUMP JUMPDEST PUSH1 0x0 DUP3 PUSH3 0x53F JUMPI PUSH4 0x4E487B71 PUSH1 0xE0 SHL DUP2 MSTORE PUSH1 0x12 PUSH1 0x4 MSTORE PUSH1 0x24 DUP2 REVERT JUMPDEST POP DIV SWAP1 JUMP JUMPDEST PUSH1 0x2 DUP2 DIV PUSH1 0x1 DUP3 AND DUP1 PUSH3 0x559 JUMPI PUSH1 0x7F DUP3 AND SWAP2 POP JUMPDEST PUSH1 0x20 DUP3 LT DUP2 EQ ISZERO PUSH3 0x57B JUMPI PUSH4 0x4E487B71 PUSH1 0xE0 SHL PUSH1 0x0 MSTORE PUSH1 0x22 PUSH1 0x4 MSTORE PUSH1 0x24 PUSH1 0x0 REVERT JUMPDEST POP SWAP2 SWAP1 POP JUMP JUMPDEST PUSH2 0x1849 DUP1 PUSH3 0x591 PUSH1 0x0 CODECOPY PUSH1 0x0 RETURN INVALID PUSH1 0x80 PUSH1 0x40 MSTORE CALLVALUE DUP1 ISZERO PUSH2 0x10 JUMPI PUSH1 0x0 DUP1 REVERT JUMPDEST POP PUSH1 0x4 CALLDATASIZE LT PUSH2 0x23C JUMPI PUSH1 0x0 CALLDATALOAD PUSH1 0xE0 SHR DUP1 PUSH4 0x44CDC454 GT PUSH2 0x13B JUMPI DUP1 PUSH4 0x95D89B41 GT PUSH2 0xB8 JUMPI DUP1 PUSH4 0xABB4B1BE GT PUSH2 0x7C JUMPI DUP1 PUSH4 0xABB4B1BE EQ PUSH2 0x416 JUMPI DUP1 PUSH4 0xAE4DB919 EQ PUSH2 0x41E JUMPI DUP1 PUSH4 0xDD62ED3E EQ PUSH2 0x431 JUMPI DUP1 PUSH4 0xF2FDE38B EQ PUSH2 0x444 JUMPI DUP1 PUSH4 0xF746B718 EQ PUSH2 0x457 JUMPI PUSH2 0x23C JUMP JUMPDEST DUP1 PUSH4 0x95D89B41 EQ PUSH2 0x3D8 JUMPI DUP1 PUSH4 0x9662676C EQ PUSH2 0x3E0 JUMPI DUP1 PUSH4 0xA06160FD EQ PUSH2 0x3E8 JUMPI DUP1 PUSH4 0xA457C2D7 EQ PUSH2 0x3F0 JUMPI DUP1 PUSH4 0xA9059CBB EQ PUSH2 0x403 JUMPI PUSH2 0x23C JUMP JUMPDEST DUP1 PUSH4 0x70A08231 GT PUSH2 0xFF JUMPI DUP1 PUSH4 0x70A08231 EQ PUSH2 0x39A JUMPI DUP1 PUSH4 0x715018A6 EQ PUSH2 0x3AD JUMPI DUP1 PUSH4 0x78E97925 EQ PUSH2 0x3B5 JUMPI DUP1 PUSH4 0x79CC6790 EQ PUSH2 0x3BD JUMPI DUP1 PUSH4 0x8DA5CB5B EQ PUSH2 0x3D0 JUMPI PUSH2 0x23C JUMP JUMPDEST DUP1 PUSH4 0x44CDC454 EQ PUSH2 0x367 JUMPI DUP1 PUSH4 0x4CFC4D30 EQ PUSH2 0x36F JUMPI DUP1 PUSH4 0x4F337DD5 EQ PUSH2 0x377 JUMPI DUP1 PUSH4 0x54575AF4 EQ PUSH2 0x37F JUMPI DUP1 PUSH4 0x570CA735 EQ PUSH2 0x392 JUMPI PUSH2 0x23C JUMP JUMPDEST DUP1 PUSH4 0x2C07A624 GT PUSH2 0x1C9 JUMPI DUP1 PUSH4 0x39509351 GT PUSH2 0x18D JUMPI DUP1 PUSH4 0x39509351 EQ PUSH2 0x329 JUMPI DUP1 PUSH4 0x3BBA8EED EQ PUSH2 0x33C JUMPI DUP1 PUSH4 0x42966C68 EQ PUSH2 0x344 JUMPI DUP1 PUSH4 0x4390D2A8 EQ PUSH2 0x357 JUMPI DUP1 PUSH4 0x4456EDA2 EQ PUSH2 0x35F JUMPI PUSH2 0x23C JUMP JUMPDEST DUP1 PUSH4 0x2C07A624 EQ PUSH2 0x2F4 JUMPI DUP1 PUSH4 0x2E3367CE EQ PUSH2 0x2FC JUMPI DUP1 PUSH4 0x313CE567 EQ PUSH2 0x304 JUMPI DUP1 PUSH4 0x3197CBB6 EQ PUSH2 0x319 JUMPI DUP1 PUSH4 0x372500AB EQ PUSH2 0x321 JUMPI PUSH2 0x23C JUMP JUMPDEST DUP1 PUSH4 0x95EA7B3 GT PUSH2 0x210 JUMPI DUP1 PUSH4 0x95EA7B3 EQ PUSH2 0x29E JUMPI DUP1 PUSH4 0x17764782 EQ PUSH2 0x2BE JUMPI DUP1 PUSH4 0x18160DDD EQ PUSH2 0x2C6 JUMPI DUP1 PUSH4 0x23B872DD EQ PUSH2 0x2CE JUMPI DUP1 PUSH4 0x29605E77 EQ PUSH2 0x2E1 JUMPI PUSH2 0x23C JUMP JUMPDEST DUP1 PUSH3 0xF380F4 EQ PUSH2 0x241 JUMPI DUP1 PUSH4 0x4017315 EQ PUSH2 0x25F JUMPI DUP1 PUSH4 0x6FDDE03 EQ PUSH2 0x274 JUMPI DUP1 PUSH4 0x92193AB EQ PUSH2 0x289 JUMPI JUMPDEST PUSH1 0x0 DUP1 REVERT JUMPDEST PUSH2 0x249 PUSH2 0x46A JUMP JUMPDEST PUSH1 0x40 MLOAD PUSH2 0x256 SWAP2 SWAP1 PUSH2 0x120F JUMP JUMPDEST PUSH1 0x40 MLOAD DUP1 SWAP2 SUB SWAP1 RETURN JUMPDEST PUSH2 0x267 PUSH2 0x479 JUMP JUMPDEST PUSH1 0x40 MLOAD PUSH2 0x256 SWAP2 SWAP1 PUSH2 0x1728 JUMP JUMPDEST PUSH2 0x27C PUSH2 0x47F JUMP JUMPDEST PUSH1 0x40 MLOAD PUSH2 0x256 SWAP2 SWAP1 PUSH2 0x1247 JUMP JUMPDEST PUSH2 0x29C PUSH2 0x297 CALLDATASIZE PUSH1 0x4 PUSH2 0x10D7 JUMP JUMPDEST PUSH2 0x512 JUMP JUMPDEST STOP JUMPDEST PUSH2 0x2B1 PUSH2 0x2AC CALLDATASIZE PUSH1 0x4 PUSH2 0x116B JUMP JUMPDEST PUSH2 0x5B2 JUMP JUMPDEST PUSH1 0x40 MLOAD PUSH2 0x256 SWAP2 SWAP1 PUSH2 0x123C JUMP JUMPDEST PUSH2 0x267 PUSH2 0x5CF JUMP JUMPDEST PUSH2 0x267 PUSH2 0x61D JUMP JUMPDEST PUSH2 0x2B1 PUSH2 0x2DC CALLDATASIZE PUSH1 0x4 PUSH2 0x112B JUMP JUMPDEST PUSH2 0x623 JUMP JUMPDEST PUSH2 0x29C PUSH2 0x2EF CALLDATASIZE PUSH1 0x4 PUSH2 0x10D7 JUMP JUMPDEST PUSH2 0x6B3 JUMP JUMPDEST PUSH2 0x267 PUSH2 0x6FB JUMP JUMPDEST PUSH2 0x267 PUSH2 0x73D JUMP JUMPDEST PUSH2 0x30C PUSH2 0x743 JUMP JUMPDEST PUSH1 0x40 MLOAD PUSH2 0x256 SWAP2 SWAP1 PUSH2 0x1731 JUMP JUMPDEST PUSH2 0x267 PUSH2 0x748 JUMP JUMPDEST PUSH2 0x29C PUSH2 0x74E JUMP JUMPDEST PUSH2 0x2B1 PUSH2 0x337 CALLDATASIZE PUSH1 0x4 PUSH2 0x116B JUMP JUMPDEST PUSH2 0x7DA JUMP JUMPDEST PUSH2 0x267 PUSH2 0x82E JUMP JUMPDEST PUSH2 0x29C PUSH2 0x352 CALLDATASIZE PUSH1 0x4 PUSH2 0x11F7 JUMP JUMPDEST PUSH2 0x83C JUMP JUMPDEST PUSH2 0x249 PUSH2 0x845 JUMP JUMPDEST PUSH2 0x2B1 PUSH2 0x854 JUMP JUMPDEST PUSH2 0x267 PUSH2 0x87A JUMP JUMPDEST PUSH2 0x267 PUSH2 0x880 JUMP JUMPDEST PUSH2 0x267 PUSH2 0x887 JUMP JUMPDEST PUSH2 0x29C PUSH2 0x38D CALLDATASIZE PUSH1 0x4 PUSH2 0x11B6 JUMP JUMPDEST PUSH2 0x895 JUMP JUMPDEST PUSH2 0x249 PUSH2 0x945 JUMP JUMPDEST PUSH2 0x267 PUSH2 0x3A8 CALLDATASIZE PUSH1 0x4 PUSH2 0x10D7 JUMP JUMPDEST PUSH2 0x954 JUMP JUMPDEST PUSH2 0x29C PUSH2 0x96F JUMP JUMPDEST PUSH2 0x267 PUSH2 0x9BA JUMP JUMPDEST PUSH2 0x29C PUSH2 0x3CB CALLDATASIZE PUSH1 0x4 PUSH2 0x116B JUMP JUMPDEST PUSH2 0x9C0 JUMP JUMPDEST PUSH2 0x249 PUSH2 0xA13 JUMP JUMPDEST PUSH2 0x27C PUSH2 0xA22 JUMP JUMPDEST PUSH2 0x2B1 PUSH2 0xA31 JUMP JUMPDEST PUSH2 0x267 PUSH2 0xA3A JUMP JUMPDEST PUSH2 0x2B1 PUSH2 0x3FE CALLDATASIZE PUSH1 0x4 PUSH2 0x116B JUMP JUMPDEST PUSH2 0xA48 JUMP JUMPDEST PUSH2 0x2B1 PUSH2 0x411 CALLDATASIZE PUSH1 0x4 PUSH2 0x116B JUMP JUMPDEST PUSH2 0xAC1 JUMP JUMPDEST PUSH2 0x267 PUSH2 0xAD5 JUMP JUMPDEST PUSH2 0x29C PUSH2 0x42C CALLDATASIZE PUSH1 0x4 PUSH2 0x10D7 JUMP JUMPDEST PUSH2 0xADB JUMP JUMPDEST PUSH2 0x267 PUSH2 0x43F CALLDATASIZE PUSH1 0x4 PUSH2 0x10F3 JUMP JUMPDEST PUSH2 0xB4D JUMP JUMPDEST PUSH2 0x29C PUSH2 0x452 CALLDATASIZE PUSH1 0x4 PUSH2 0x10D7 JUMP JUMPDEST PUSH2 0xB78 JUMP JUMPDEST PUSH2 0x29C PUSH2 0x465 CALLDATASIZE PUSH1 0x4 PUSH2 0x10D7 JUMP JUMPDEST PUSH2 0xBE6 JUMP JUMPDEST PUSH1 0xB SLOAD PUSH1 0x1 PUSH1 0x1 PUSH1 0xA0 SHL SUB AND DUP2 JUMP JUMPDEST PUSH1 0xE SLOAD DUP2 JUMP JUMPDEST PUSH1 0x60 PUSH1 0x3 DUP1 SLOAD PUSH2 0x48E SWAP1 PUSH2 0x17AD JUMP JUMPDEST DUP1 PUSH1 0x1F ADD PUSH1 0x20 DUP1 SWAP2 DIV MUL PUSH1 0x20 ADD PUSH1 0x40 MLOAD SWAP1 DUP2 ADD PUSH1 0x40 MSTORE DUP1 SWAP3 SWAP2 SWAP1 DUP2 DUP2 MSTORE PUSH1 0x20 ADD DUP3 DUP1 SLOAD PUSH2 0x4BA SWAP1 PUSH2 0x17AD JUMP JUMPDEST DUP1 ISZERO PUSH2 0x507 JUMPI DUP1 PUSH1 0x1F LT PUSH2 0x4DC JUMPI PUSH2 0x100 DUP1 DUP4 SLOAD DIV MUL DUP4 MSTORE SWAP2 PUSH1 0x20 ADD SWAP2 PUSH2 0x507 JUMP JUMPDEST DUP3 ADD SWAP2 SWAP1 PUSH1 0x0 MSTORE PUSH1 0x20 PUSH1 0x0 KECCAK256 SWAP1 JUMPDEST DUP2 SLOAD DUP2 MSTORE SWAP1 PUSH1 0x1 ADD SWAP1 PUSH1 0x20 ADD DUP1 DUP4 GT PUSH2 0x4EA JUMPI DUP3 SWAP1 SUB PUSH1 0x1F AND DUP3 ADD SWAP2 JUMPDEST POP POP POP POP POP SWAP1 POP JUMPDEST SWAP1 JUMP JUMPDEST PUSH1 0x6 SLOAD PUSH1 0x1 PUSH1 0x1 PUSH1 0xA0 SHL SUB AND CALLER EQ PUSH2 0x545 JUMPI PUSH1 0x40 MLOAD PUSH3 0x461BCD PUSH1 0xE5 SHL DUP2 MSTORE PUSH1 0x4 ADD PUSH2 0x53C SWAP1 PUSH2 0x159E JUMP JUMPDEST PUSH1 0x40 MLOAD DUP1 SWAP2 SUB SWAP1 REVERT JUMPDEST PUSH1 0xF SLOAD PUSH1 0xFF AND ISZERO PUSH2 0x568 JUMPI PUSH1 0x40 MLOAD PUSH3 0x461BCD PUSH1 0xE5 SHL DUP2 MSTORE PUSH1 0x4 ADD PUSH2 0x53C SWAP1 PUSH2 0x12DD JUMP JUMPDEST PUSH1 0x1 PUSH1 0x1 PUSH1 0xA0 SHL SUB DUP2 AND PUSH2 0x58E JUMPI PUSH1 0x40 MLOAD PUSH3 0x461BCD PUSH1 0xE5 SHL DUP2 MSTORE PUSH1 0x4 ADD PUSH2 0x53C SWAP1 PUSH2 0x14F5 JUMP JUMPDEST PUSH1 0xF DUP1 SLOAD PUSH1 0xFF NOT AND PUSH1 0x1 OR SWAP1 SSTORE PUSH2 0x5AF DUP2 PUSH10 0xED2B525841ADFC00000 PUSH2 0xC45 JUMP JUMPDEST POP JUMP JUMPDEST PUSH1 0x0 PUSH2 0x5C6 PUSH2 0x5BF PUSH2 0xD11 JUMP JUMPDEST DUP5 DUP5 PUSH2 0xD15 JUMP JUMPDEST POP PUSH1 0x1 SWAP3 SWAP2 POP POP JUMP JUMPDEST PUSH1 0x8 SLOAD PUSH1 0x0 SWAP1 TIMESTAMP SWAP1 DUP2 GT ISZERO PUSH2 0x5E3 JUMPI POP PUSH1 0x8 SLOAD JUMPDEST DUP1 PUSH1 0xD SLOAD LT PUSH2 0x5F6 JUMPI PUSH1 0x0 SWAP2 POP POP PUSH2 0x50F JUMP JUMPDEST PUSH2 0x617 PUSH1 0x9 SLOAD PUSH2 0x611 PUSH1 0xD SLOAD DUP5 PUSH2 0xDC9 SWAP1 SWAP2 SWAP1 PUSH4 0xFFFFFFFF AND JUMP JUMPDEST SWAP1 PUSH2 0xDD5 JUMP JUMPDEST SWAP2 POP POP SWAP1 JUMP JUMPDEST PUSH1 0x2 SLOAD SWAP1 JUMP JUMPDEST PUSH1 0x0 PUSH2 0x630 DUP5 DUP5 DUP5 PUSH2 0xDE1 JUMP JUMPDEST PUSH1 0x1 PUSH1 0x1 PUSH1 0xA0 SHL SUB DUP5 AND PUSH1 0x0 SWAP1 DUP2 MSTORE PUSH1 0x1 PUSH1 0x20 MSTORE PUSH1 0x40 DUP2 KECCAK256 DUP2 PUSH2 0x651 PUSH2 0xD11 JUMP JUMPDEST PUSH1 0x1 PUSH1 0x1 PUSH1 0xA0 SHL SUB AND PUSH1 0x1 PUSH1 0x1 PUSH1 0xA0 SHL SUB AND DUP2 MSTORE PUSH1 0x20 ADD SWAP1 DUP2 MSTORE PUSH1 0x20 ADD PUSH1 0x0 KECCAK256 SLOAD SWAP1 POP DUP3 DUP2 LT ISZERO PUSH2 0x694 JUMPI PUSH1 0x40 MLOAD PUSH3 0x461BCD PUSH1 0xE5 SHL DUP2 MSTORE PUSH1 0x4 ADD PUSH2 0x53C SWAP1 PUSH2 0x14AD JUMP JUMPDEST PUSH2 0x6A8 DUP6 PUSH2 0x6A0 PUSH2 0xD11 JUMP JUMPDEST DUP6 DUP5 SUB PUSH2 0xD15 JUMP JUMPDEST POP PUSH1 0x1 SWAP5 SWAP4 POP POP POP POP JUMP JUMPDEST PUSH2 0x6BB PUSH2 0xD11 JUMP JUMPDEST PUSH1 0x1 PUSH1 0x1 PUSH1 0xA0 SHL SUB AND PUSH2 0x6CC PUSH2 0xA13 JUMP JUMPDEST PUSH1 0x1 PUSH1 0x1 PUSH1 0xA0 SHL SUB AND EQ PUSH2 0x6F2 JUMPI PUSH1 0x40 MLOAD PUSH3 0x461BCD PUSH1 0xE5 SHL DUP2 MSTORE PUSH1 0x4 ADD PUSH2 0x53C SWAP1 PUSH2 0x1525 JUMP JUMPDEST PUSH2 0x5AF DUP2 PUSH2 0xF05 JUMP JUMPDEST PUSH1 0x8 SLOAD PUSH1 0x0 SWAP1 TIMESTAMP SWAP1 DUP2 GT ISZERO PUSH2 0x70F JUMPI POP PUSH1 0x8 SLOAD JUMPDEST DUP1 PUSH1 0xE SLOAD LT PUSH2 0x722 JUMPI PUSH1 0x0 SWAP2 POP POP PUSH2 0x50F JUMP JUMPDEST PUSH2 0x617 PUSH1 0xA SLOAD PUSH2 0x611 PUSH1 0xE SLOAD DUP5 PUSH2 0xDC9 SWAP1 SWAP2 SWAP1 PUSH4 0xFFFFFFFF AND JUMP JUMPDEST PUSH1 0xA SLOAD DUP2 JUMP JUMPDEST PUSH1 0x12 SWAP1 JUMP JUMPDEST PUSH1 0x8 SLOAD DUP2 JUMP JUMPDEST PUSH1 0x0 PUSH2 0x758 PUSH2 0x5CF JUMP JUMPDEST SWAP1 POP PUSH1 0x0 DUP2 GT DUP1 ISZERO PUSH2 0x774 JUMPI POP PUSH1 0xB SLOAD PUSH1 0x1 PUSH1 0x1 PUSH1 0xA0 SHL SUB AND ISZERO ISZERO JUMPDEST ISZERO PUSH2 0x794 JUMPI PUSH1 0xB SLOAD PUSH2 0x78F SWAP1 PUSH1 0x1 PUSH1 0x1 PUSH1 0xA0 SHL SUB AND DUP3 PUSH2 0xC45 JUMP JUMPDEST TIMESTAMP PUSH1 0xD SSTORE JUMPDEST PUSH2 0x79C PUSH2 0x6FB JUMP JUMPDEST SWAP1 POP PUSH1 0x0 DUP2 GT DUP1 ISZERO PUSH2 0x7B8 JUMPI POP PUSH1 0xC SLOAD PUSH1 0x1 PUSH1 0x1 PUSH1 0xA0 SHL SUB AND ISZERO ISZERO JUMPDEST ISZERO PUSH2 0x5AF JUMPI PUSH1 0xC SLOAD PUSH2 0x7D3 SWAP1 PUSH1 0x1 PUSH1 0x1 PUSH1 0xA0 SHL SUB AND DUP3 PUSH2 0xC45 JUMP JUMPDEST TIMESTAMP PUSH1 0xE SSTORE POP JUMP JUMPDEST PUSH1 0x0 PUSH2 0x5C6 PUSH2 0x7E7 PUSH2 0xD11 JUMP JUMPDEST DUP5 DUP5 PUSH1 0x1 PUSH1 0x0 PUSH2 0x7F5 PUSH2 0xD11 JUMP JUMPDEST PUSH1 0x1 PUSH1 0x1 PUSH1 0xA0 SHL SUB SWAP1 DUP2 AND DUP3 MSTORE PUSH1 0x20 DUP1 DUP4 ADD SWAP4 SWAP1 SWAP4 MSTORE PUSH1 0x40 SWAP2 DUP3 ADD PUSH1 0x0 SWAP1 DUP2 KECCAK256 SWAP2 DUP12 AND DUP2 MSTORE SWAP3 MSTORE SWAP1 KECCAK256 SLOAD PUSH2 0x829 SWAP2 SWAP1 PUSH2 0x173F JUMP JUMPDEST PUSH2 0xD15 JUMP JUMPDEST PUSH10 0x12A27D53BC048700000 DUP2 JUMP JUMPDEST PUSH2 0x5AF DUP2 PUSH2 0xF83 JUMP JUMPDEST PUSH1 0xC SLOAD PUSH1 0x1 PUSH1 0x1 PUSH1 0xA0 SHL SUB AND DUP2 JUMP JUMPDEST PUSH1 0x6 SLOAD PUSH1 0x0 SWAP1 PUSH1 0x1 PUSH1 0x1 PUSH1 0xA0 SHL SUB AND PUSH2 0x86B PUSH2 0xD11 JUMP JUMPDEST PUSH1 0x1 PUSH1 0x1 PUSH1 0xA0 SHL SUB AND EQ SWAP1 POP SWAP1 JUMP JUMPDEST PUSH1 0x9 SLOAD DUP2 JUMP JUMPDEST PUSH3 0x83D600 DUP2 JUMP JUMPDEST PUSH10 0x10F0CF064DD59200000 DUP2 JUMP JUMPDEST PUSH1 0x6 SLOAD PUSH1 0x1 PUSH1 0x1 PUSH1 0xA0 SHL SUB AND CALLER EQ PUSH2 0x8BF JUMPI PUSH1 0x40 MLOAD PUSH3 0x461BCD PUSH1 0xE5 SHL DUP2 MSTORE PUSH1 0x4 ADD PUSH2 0x53C SWAP1 PUSH2 0x159E JUMP JUMPDEST PUSH1 0x40 MLOAD PUSH4 0xA9059CBB PUSH1 0xE0 SHL DUP2 MSTORE PUSH1 0x1 PUSH1 0x1 PUSH1 0xA0 SHL SUB DUP5 AND SWAP1 PUSH4 0xA9059CBB SWAP1 PUSH2 0x8ED SWAP1 DUP5 SWAP1 DUP7 SWAP1 PUSH1 0x4 ADD PUSH2 0x1223 JUMP JUMPDEST PUSH1 0x20 PUSH1 0x40 MLOAD DUP1 DUP4 SUB DUP2 PUSH1 0x0 DUP8 DUP1 EXTCODESIZE ISZERO DUP1 ISZERO PUSH2 0x907 JUMPI PUSH1 0x0 DUP1 REVERT JUMPDEST POP GAS CALL ISZERO DUP1 ISZERO PUSH2 0x91B JUMPI RETURNDATASIZE PUSH1 0x0 DUP1 RETURNDATACOPY RETURNDATASIZE PUSH1 0x0 REVERT JUMPDEST POP POP POP POP PUSH1 0x40 MLOAD RETURNDATASIZE PUSH1 0x1F NOT PUSH1 0x1F DUP3 ADD AND DUP3 ADD DUP1 PUSH1 0x40 MSTORE POP DUP2 ADD SWAP1 PUSH2 0x93F SWAP2 SWAP1 PUSH2 0x1196 JUMP JUMPDEST POP POP POP POP JUMP JUMPDEST PUSH1 0x6 SLOAD PUSH1 0x1 PUSH1 0x1 PUSH1 0xA0 SHL SUB AND SWAP1 JUMP JUMPDEST PUSH1 0x1 PUSH1 0x1 PUSH1 0xA0 SHL SUB AND PUSH1 0x0 SWAP1 DUP2 MSTORE PUSH1 0x20 DUP2 SWAP1 MSTORE PUSH1 0x40 SWAP1 KECCAK256 SLOAD SWAP1 JUMP JUMPDEST PUSH2 0x977 PUSH2 0xD11 JUMP JUMPDEST PUSH1 0x1 PUSH1 0x1 PUSH1 0xA0 SHL SUB AND PUSH2 0x988 PUSH2 0xA13 JUMP JUMPDEST PUSH1 0x1 PUSH1 0x1 PUSH1 0xA0 SHL SUB AND EQ PUSH2 0x9AE JUMPI PUSH1 0x40 MLOAD PUSH3 0x461BCD PUSH1 0xE5 SHL DUP2 MSTORE PUSH1 0x4 ADD PUSH2 0x53C SWAP1 PUSH2 0x1525 JUMP JUMPDEST PUSH2 0x9B8 PUSH1 0x0 PUSH2 0xF94 JUMP JUMPDEST JUMP JUMPDEST PUSH1 0x7 SLOAD DUP2 JUMP JUMPDEST PUSH1 0x0 PUSH2 0x9CE DUP4 PUSH2 0x43F PUSH2 0xD11 JUMP JUMPDEST SWAP1 POP DUP2 DUP2 LT ISZERO PUSH2 0x9F0 JUMPI PUSH1 0x40 MLOAD PUSH3 0x461BCD PUSH1 0xE5 SHL DUP2 MSTORE PUSH1 0x4 ADD PUSH2 0x53C SWAP1 PUSH2 0x155A JUMP JUMPDEST PUSH2 0xA04 DUP4 PUSH2 0x9FC PUSH2 0xD11 JUMP JUMPDEST DUP5 DUP5 SUB PUSH2 0xD15 JUMP JUMPDEST PUSH2 0xA0E DUP4 DUP4 PUSH2 0xFE6 JUMP JUMPDEST POP POP POP JUMP JUMPDEST PUSH1 0x5 SLOAD PUSH1 0x1 PUSH1 0x1 PUSH1 0xA0 SHL SUB AND SWAP1 JUMP JUMPDEST PUSH1 0x60 PUSH1 0x4 DUP1 SLOAD PUSH2 0x48E SWAP1 PUSH2 0x17AD JUMP JUMPDEST PUSH1 0xF SLOAD PUSH1 0xFF AND DUP2 JUMP JUMPDEST PUSH10 0xED2B525841ADFC00000 DUP2 JUMP JUMPDEST PUSH1 0x0 DUP1 PUSH1 0x1 PUSH1 0x0 PUSH2 0xA57 PUSH2 0xD11 JUMP JUMPDEST PUSH1 0x1 PUSH1 0x1 PUSH1 0xA0 SHL SUB SWAP1 DUP2 AND DUP3 MSTORE PUSH1 0x20 DUP1 DUP4 ADD SWAP4 SWAP1 SWAP4 MSTORE PUSH1 0x40 SWAP2 DUP3 ADD PUSH1 0x0 SWAP1 DUP2 KECCAK256 SWAP2 DUP9 AND DUP2 MSTORE SWAP3 MSTORE SWAP1 KECCAK256 SLOAD SWAP1 POP DUP3 DUP2 LT ISZERO PUSH2 0xAA3 JUMPI PUSH1 0x40 MLOAD PUSH3 0x461BCD PUSH1 0xE5 SHL DUP2 MSTORE PUSH1 0x4 ADD PUSH2 0x53C SWAP1 PUSH2 0x16AC JUMP JUMPDEST PUSH2 0xAB7 PUSH2 0xAAE PUSH2 0xD11 JUMP JUMPDEST DUP6 DUP6 DUP5 SUB PUSH2 0xD15 JUMP JUMPDEST POP PUSH1 0x1 SWAP4 SWAP3 POP POP POP JUMP JUMPDEST PUSH1 0x0 PUSH2 0x5C6 PUSH2 0xACE PUSH2 0xD11 JUMP JUMPDEST DUP5 DUP5 PUSH2 0xDE1 JUMP JUMPDEST PUSH1 0xD SLOAD DUP2 JUMP JUMPDEST PUSH1 0xC SLOAD PUSH1 0x1 PUSH1 0x1 PUSH1 0xA0 SHL SUB AND CALLER EQ PUSH2 0xB05 JUMPI PUSH1 0x40 MLOAD PUSH3 0x461BCD PUSH1 0xE5 SHL DUP2 MSTORE PUSH1 0x4 ADD PUSH2 0x53C SWAP1 PUSH2 0x1442 JUMP JUMPDEST PUSH1 0x1 PUSH1 0x1 PUSH1 0xA0 SHL SUB DUP2 AND PUSH2 0xB2B JUMPI PUSH1 0x40 MLOAD PUSH3 0x461BCD PUSH1 0xE5 SHL DUP2 MSTORE PUSH1 0x4 ADD PUSH2 0x53C SWAP1 PUSH2 0x13DE JUMP JUMPDEST PUSH1 0xC DUP1 SLOAD PUSH1 0x1 PUSH1 0x1 PUSH1 0xA0 SHL SUB NOT AND PUSH1 0x1 PUSH1 0x1 PUSH1 0xA0 SHL SUB SWAP3 SWAP1 SWAP3 AND SWAP2 SWAP1 SWAP2 OR SWAP1 SSTORE JUMP JUMPDEST PUSH1 0x1 PUSH1 0x1 PUSH1 0xA0 SHL SUB SWAP2 DUP3 AND PUSH1 0x0 SWAP1 DUP2 MSTORE PUSH1 0x1 PUSH1 0x20 SWAP1 DUP2 MSTORE PUSH1 0x40 DUP1 DUP4 KECCAK256 SWAP4 SWAP1 SWAP5 AND DUP3 MSTORE SWAP2 SWAP1 SWAP2 MSTORE KECCAK256 SLOAD SWAP1 JUMP JUMPDEST PUSH2 0xB80 PUSH2 0xD11 JUMP JUMPDEST PUSH1 0x1 PUSH1 0x1 PUSH1 0xA0 SHL SUB AND PUSH2 0xB91 PUSH2 0xA13 JUMP JUMPDEST PUSH1 0x1 PUSH1 0x1 PUSH1 0xA0 SHL SUB AND EQ PUSH2 0xBB7 JUMPI PUSH1 0x40 MLOAD PUSH3 0x461BCD PUSH1 0xE5 SHL DUP2 MSTORE PUSH1 0x4 ADD PUSH2 0x53C SWAP1 PUSH2 0x1525 JUMP JUMPDEST PUSH1 0x1 PUSH1 0x1 PUSH1 0xA0 SHL SUB DUP2 AND PUSH2 0xBDD JUMPI PUSH1 0x40 MLOAD PUSH3 0x461BCD PUSH1 0xE5 SHL DUP2 MSTORE PUSH1 0x4 ADD PUSH2 0x53C SWAP1 PUSH2 0x1356 JUMP JUMPDEST PUSH2 0x5AF DUP2 PUSH2 0xF94 JUMP JUMPDEST PUSH1 0xC SLOAD PUSH1 0x1 PUSH1 0x1 PUSH1 0xA0 SHL SUB AND CALLER EQ PUSH2 0xC10 JUMPI PUSH1 0x40 MLOAD PUSH3 0x461BCD PUSH1 0xE5 SHL DUP2 MSTORE PUSH1 0x4 ADD PUSH2 0x53C SWAP1 PUSH2 0x1442 JUMP JUMPDEST PUSH1 0xB DUP1 SLOAD PUSH1 0x1 PUSH1 0x1 PUSH1 0xA0 SHL SUB NOT AND PUSH1 0x1 PUSH1 0x1 PUSH1 0xA0 SHL SUB SWAP3 SWAP1 SWAP3 AND SWAP2 SWAP1 SWAP2 OR SWAP1 SSTORE JUMP JUMPDEST PUSH1 0x0 PUSH2 0xC3E DUP3 DUP5 PUSH2 0x1757 JUMP JUMPDEST SWAP4 SWAP3 POP POP POP JUMP JUMPDEST PUSH1 0x1 PUSH1 0x1 PUSH1 0xA0 SHL SUB DUP3 AND PUSH2 0xC6B JUMPI PUSH1 0x40 MLOAD PUSH3 0x461BCD PUSH1 0xE5 SHL DUP2 MSTORE PUSH1 0x4 ADD PUSH2 0x53C SWAP1 PUSH2 0x16F1 JUMP JUMPDEST PUSH2 0xC77 PUSH1 0x0 DUP4 DUP4 PUSH2 0xA0E JUMP JUMPDEST DUP1 PUSH1 0x2 PUSH1 0x0 DUP3 DUP3 SLOAD PUSH2 0xC89 SWAP2 SWAP1 PUSH2 0x173F JUMP JUMPDEST SWAP1 SWAP2 SSTORE POP POP PUSH1 0x1 PUSH1 0x1 PUSH1 0xA0 SHL SUB DUP3 AND PUSH1 0x0 SWAP1 DUP2 MSTORE PUSH1 0x20 DUP2 SWAP1 MSTORE PUSH1 0x40 DUP2 KECCAK256 DUP1 SLOAD DUP4 SWAP3 SWAP1 PUSH2 0xCB6 SWAP1 DUP5 SWAP1 PUSH2 0x173F JUMP JUMPDEST SWAP1 SWAP2 SSTORE POP POP PUSH1 0x40 MLOAD PUSH1 0x1 PUSH1 0x1 PUSH1 0xA0 SHL SUB DUP4 AND SWAP1 PUSH1 0x0 SWAP1 PUSH32 0xDDF252AD1BE2C89B69C2B068FC378DAA952BA7F163C4A11628F55A4DF523B3EF SWAP1 PUSH2 0xCF9 SWAP1 DUP6 SWAP1 PUSH2 0x1728 JUMP JUMPDEST PUSH1 0x40 MLOAD DUP1 SWAP2 SUB SWAP1 LOG3 PUSH2 0xD0D PUSH1 0x0 DUP4 DUP4 PUSH2 0xA0E JUMP JUMPDEST POP POP JUMP JUMPDEST CALLER SWAP1 JUMP JUMPDEST PUSH1 0x1 PUSH1 0x1 PUSH1 0xA0 SHL SUB DUP4 AND PUSH2 0xD3B JUMPI PUSH1 0x40 MLOAD PUSH3 0x461BCD PUSH1 0xE5 SHL DUP2 MSTORE PUSH1 0x4 ADD PUSH2 0x53C SWAP1 PUSH2 0x1668 JUMP JUMPDEST PUSH1 0x1 PUSH1 0x1 PUSH1 0xA0 SHL SUB DUP3 AND PUSH2 0xD61 JUMPI PUSH1 0x40 MLOAD PUSH3 0x461BCD PUSH1 0xE5 SHL DUP2 MSTORE PUSH1 0x4 ADD PUSH2 0x53C SWAP1 PUSH2 0x139C JUMP JUMPDEST PUSH1 0x1 PUSH1 0x1 PUSH1 0xA0 SHL SUB DUP1 DUP5 AND PUSH1 0x0 DUP2 DUP2 MSTORE PUSH1 0x1 PUSH1 0x20 SWAP1 DUP2 MSTORE PUSH1 0x40 DUP1 DUP4 KECCAK256 SWAP5 DUP8 AND DUP1 DUP5 MSTORE SWAP5 SWAP1 SWAP2 MSTORE SWAP1 DUP2 SWAP1 KECCAK256 DUP5 SWAP1 SSTORE MLOAD PUSH32 0x8C5BE1E5EBEC7D5BD14F71427D1E84F3DD0314C0F7B2291E5B200AC8C7C3B925 SWAP1 PUSH2 0xDBC SWAP1 DUP6 SWAP1 PUSH2 0x1728 JUMP JUMPDEST PUSH1 0x40 MLOAD DUP1 SWAP2 SUB SWAP1 LOG3 POP POP POP JUMP JUMPDEST PUSH1 0x0 PUSH2 0xC3E DUP3 DUP5 PUSH2 0x1796 JUMP JUMPDEST PUSH1 0x0 PUSH2 0xC3E DUP3 DUP5 PUSH2 0x1777 JUMP JUMPDEST PUSH1 0x1 PUSH1 0x1 PUSH1 0xA0 SHL SUB DUP4 AND PUSH2 0xE07 JUMPI PUSH1 0x40 MLOAD PUSH3 0x461BCD PUSH1 0xE5 SHL DUP2 MSTORE PUSH1 0x4 ADD PUSH2 0x53C SWAP1 PUSH2 0x1623 JUMP JUMPDEST PUSH1 0x1 PUSH1 0x1 PUSH1 0xA0 SHL SUB DUP3 AND PUSH2 0xE2D JUMPI PUSH1 0x40 MLOAD PUSH3 0x461BCD PUSH1 0xE5 SHL DUP2 MSTORE PUSH1 0x4 ADD PUSH2 0x53C SWAP1 PUSH2 0x129A JUMP JUMPDEST PUSH2 0xE38 DUP4 DUP4 DUP4 PUSH2 0xA0E JUMP JUMPDEST PUSH1 0x1 PUSH1 0x1 PUSH1 0xA0 SHL SUB DUP4 AND PUSH1 0x0 SWAP1 DUP2 MSTORE PUSH1 0x20 DUP2 SWAP1 MSTORE PUSH1 0x40 SWAP1 KECCAK256 SLOAD DUP2 DUP2 LT ISZERO PUSH2 0xE71 JUMPI PUSH1 0x40 MLOAD PUSH3 0x461BCD PUSH1 0xE5 SHL DUP2 MSTORE PUSH1 0x4 ADD PUSH2 0x53C SWAP1 PUSH2 0x13FC JUMP JUMPDEST PUSH1 0x1 PUSH1 0x1 PUSH1 0xA0 SHL SUB DUP1 DUP6 AND PUSH1 0x0 SWAP1 DUP2 MSTORE PUSH1 0x20 DUP2 SWAP1 MSTORE PUSH1 0x40 DUP1 DUP3 KECCAK256 DUP6 DUP6 SUB SWAP1 SSTORE SWAP2 DUP6 AND DUP2 MSTORE SWAP1 DUP2 KECCAK256 DUP1 SLOAD DUP5 SWAP3 SWAP1 PUSH2 0xEA8 SWAP1 DUP5 SWAP1 PUSH2 0x173F JUMP JUMPDEST SWAP3 POP POP DUP2 SWAP1 SSTORE POP DUP3 PUSH1 0x1 PUSH1 0x1 PUSH1 0xA0 SHL SUB AND DUP5 PUSH1 0x1 PUSH1 0x1 PUSH1 0xA0 SHL SUB AND PUSH32 0xDDF252AD1BE2C89B69C2B068FC378DAA952BA7F163C4A11628F55A4DF523B3EF DUP5 PUSH1 0x40 MLOAD PUSH2 0xEF2 SWAP2 SWAP1 PUSH2 0x1728 JUMP JUMPDEST PUSH1 0x40 MLOAD DUP1 SWAP2 SUB SWAP1 LOG3 PUSH2 0x93F DUP5 DUP5 DUP5 PUSH2 0xA0E JUMP JUMPDEST PUSH1 0x1 PUSH1 0x1 PUSH1 0xA0 SHL SUB DUP2 AND PUSH2 0xF2B JUMPI PUSH1 0x40 MLOAD PUSH3 0x461BCD PUSH1 0xE5 SHL DUP2 MSTORE PUSH1 0x4 ADD PUSH2 0x53C SWAP1 PUSH2 0x1460 JUMP JUMPDEST PUSH1 0x40 MLOAD PUSH1 0x1 PUSH1 0x1 PUSH1 0xA0 SHL SUB DUP3 AND SWAP1 PUSH1 0x0 SWAP1 PUSH32 0x74DA04524D50C64947F5DD5381EF1A4DCA5CBA8ED1D816243F9E48AA0B5617ED SWAP1 DUP3 SWAP1 LOG3 PUSH1 0x6 DUP1 SLOAD PUSH1 0x1 PUSH1 0x1 PUSH1 0xA0 SHL SUB NOT AND PUSH1 0x1 PUSH1 0x1 PUSH1 0xA0 SHL SUB SWAP3 SWAP1 SWAP3 AND SWAP2 SWAP1 SWAP2 OR SWAP1 SSTORE JUMP JUMPDEST PUSH2 0x5AF PUSH2 0xF8E PUSH2 0xD11 JUMP JUMPDEST DUP3 PUSH2 0xFE6 JUMP JUMPDEST PUSH1 0x5 DUP1 SLOAD PUSH1 0x1 PUSH1 0x1 PUSH1 0xA0 SHL SUB DUP4 DUP2 AND PUSH1 0x1 PUSH1 0x1 PUSH1 0xA0 SHL SUB NOT DUP4 AND DUP2 OR SWAP1 SWAP4 SSTORE PUSH1 0x40 MLOAD SWAP2 AND SWAP2 SWAP1 DUP3 SWAP1 PUSH32 0x8BE0079C531659141344CD1FD0A4F28419497F9722A3DAAFE3B4186F6B6457E0 SWAP1 PUSH1 0x0 SWAP1 LOG3 POP POP JUMP JUMPDEST PUSH1 0x1 PUSH1 0x1 PUSH1 0xA0 SHL SUB DUP3 AND PUSH2 0x100C JUMPI PUSH1 0x40 MLOAD PUSH3 0x461BCD PUSH1 0xE5 SHL DUP2 MSTORE PUSH1 0x4 ADD PUSH2 0x53C SWAP1 PUSH2 0x15E2 JUMP JUMPDEST PUSH2 0x1018 DUP3 PUSH1 0x0 DUP4 PUSH2 0xA0E JUMP JUMPDEST PUSH1 0x1 PUSH1 0x1 PUSH1 0xA0 SHL SUB DUP3 AND PUSH1 0x0 SWAP1 DUP2 MSTORE PUSH1 0x20 DUP2 SWAP1 MSTORE PUSH1 0x40 SWAP1 KECCAK256 SLOAD DUP2 DUP2 LT ISZERO PUSH2 0x1051 JUMPI PUSH1 0x40 MLOAD PUSH3 0x461BCD PUSH1 0xE5 SHL DUP2 MSTORE PUSH1 0x4 ADD PUSH2 0x53C SWAP1 PUSH2 0x1314 JUMP JUMPDEST PUSH1 0x1 PUSH1 0x1 PUSH1 0xA0 SHL SUB DUP4 AND PUSH1 0x0 SWAP1 DUP2 MSTORE PUSH1 0x20 DUP2 SWAP1 MSTORE PUSH1 0x40 DUP2 KECCAK256 DUP4 DUP4 SUB SWAP1 SSTORE PUSH1 0x2 DUP1 SLOAD DUP5 SWAP3 SWAP1 PUSH2 0x1080 SWAP1 DUP5 SWAP1 PUSH2 0x1796 JUMP JUMPDEST SWAP1 SWAP2 SSTORE POP POP PUSH1 0x40 MLOAD PUSH1 0x0 SWAP1 PUSH1 0x1 PUSH1 0x1 PUSH1 0xA0 SHL SUB DUP6 AND SWAP1 PUSH32 0xDDF252AD1BE2C89B69C2B068FC378DAA952BA7F163C4A11628F55A4DF523B3EF SWAP1 PUSH2 0x10C3 SWAP1 DUP7 SWAP1 PUSH2 0x1728 JUMP JUMPDEST PUSH1 0x40 MLOAD DUP1 SWAP2 SUB SWAP1 LOG3 PUSH2 0xA0E DUP4 PUSH1 0x0 DUP5 PUSH2 0xA0E JUMP JUMPDEST PUSH1 0x0 PUSH1 0x20 DUP3 DUP5 SUB SLT ISZERO PUSH2 0x10E8 JUMPI DUP1 DUP2 REVERT JUMPDEST DUP2 CALLDATALOAD PUSH2 0xC3E DUP2 PUSH2 0x17FE JUMP JUMPDEST PUSH1 0x0 DUP1 PUSH1 0x40 DUP4 DUP6 SUB SLT ISZERO PUSH2 0x1105 JUMPI DUP1 DUP2 REVERT JUMPDEST DUP3 CALLDATALOAD PUSH2 0x1110 DUP2 PUSH2 0x17FE JUMP JUMPDEST SWAP2 POP PUSH1 0x20 DUP4 ADD CALLDATALOAD PUSH2 0x1120 DUP2 PUSH2 0x17FE JUMP JUMPDEST DUP1 SWAP2 POP POP SWAP3 POP SWAP3 SWAP1 POP JUMP JUMPDEST PUSH1 0x0 DUP1 PUSH1 0x0 PUSH1 0x60 DUP5 DUP7 SUB SLT ISZERO PUSH2 0x113F JUMPI DUP1 DUP2 REVERT JUMPDEST DUP4 CALLDATALOAD PUSH2 0x114A DUP2 PUSH2 0x17FE JUMP JUMPDEST SWAP3 POP PUSH1 0x20 DUP5 ADD CALLDATALOAD PUSH2 0x115A DUP2 PUSH2 0x17FE JUMP JUMPDEST SWAP3 SWAP6 SWAP3 SWAP5 POP POP POP PUSH1 0x40 SWAP2 SWAP1 SWAP2 ADD CALLDATALOAD SWAP1 JUMP JUMPDEST PUSH1 0x0 DUP1 PUSH1 0x40 DUP4 DUP6 SUB SLT ISZERO PUSH2 0x117D JUMPI DUP2 DUP3 REVERT JUMPDEST DUP3 CALLDATALOAD PUSH2 0x1188 DUP2 PUSH2 0x17FE JUMP JUMPDEST SWAP5 PUSH1 0x20 SWAP4 SWAP1 SWAP4 ADD CALLDATALOAD SWAP4 POP POP POP JUMP JUMPDEST PUSH1 0x0 PUSH1 0x20 DUP3 DUP5 SUB SLT ISZERO PUSH2 0x11A7 JUMPI DUP1 DUP2 REVERT JUMPDEST DUP2 MLOAD DUP1 ISZERO ISZERO DUP2 EQ PUSH2 0xC3E JUMPI DUP2 DUP3 REVERT JUMPDEST PUSH1 0x0 DUP1 PUSH1 0x0 PUSH1 0x60 DUP5 DUP7 SUB SLT ISZERO PUSH2 0x11CA JUMPI DUP3 DUP4 REVERT JUMPDEST DUP4 CALLDATALOAD PUSH2 0x11D5 DUP2 PUSH2 0x17FE JUMP JUMPDEST SWAP3 POP PUSH1 0x20 DUP5 ADD CALLDATALOAD SWAP2 POP PUSH1 0x40 DUP5 ADD CALLDATALOAD PUSH2 0x11EC DUP2 PUSH2 0x17FE JUMP JUMPDEST DUP1 SWAP2 POP POP SWAP3 POP SWAP3 POP SWAP3 JUMP JUMPDEST PUSH1 0x0 PUSH1 0x20 DUP3 DUP5 SUB SLT ISZERO PUSH2 0x1208 JUMPI DUP1 DUP2 REVERT JUMPDEST POP CALLDATALOAD SWAP2 SWAP1 POP JUMP JUMPDEST PUSH1 0x1 PUSH1 0x1 PUSH1 0xA0 SHL SUB SWAP2 SWAP1 SWAP2 AND DUP2 MSTORE PUSH1 0x20 ADD SWAP1 JUMP JUMPDEST PUSH1 0x1 PUSH1 0x1 PUSH1 0xA0 SHL SUB SWAP3 SWAP1 SWAP3 AND DUP3 MSTORE PUSH1 0x20 DUP3 ADD MSTORE PUSH1 0x40 ADD SWAP1 JUMP JUMPDEST SWAP1 ISZERO ISZERO DUP2 MSTORE PUSH1 0x20 ADD SWAP1 JUMP JUMPDEST PUSH1 0x0 PUSH1 0x20 DUP1 DUP4 MSTORE DUP4 MLOAD DUP1 DUP3 DUP6 ADD MSTORE DUP3 JUMPDEST DUP2 DUP2 LT ISZERO PUSH2 0x1273 JUMPI DUP6 DUP2 ADD DUP4 ADD MLOAD DUP6 DUP3 ADD PUSH1 0x40 ADD MSTORE DUP3 ADD PUSH2 0x1257 JUMP JUMPDEST DUP2 DUP2 GT ISZERO PUSH2 0x1284 JUMPI DUP4 PUSH1 0x40 DUP4 DUP8 ADD ADD MSTORE JUMPDEST POP PUSH1 0x1F ADD PUSH1 0x1F NOT AND SWAP3 SWAP1 SWAP3 ADD PUSH1 0x40 ADD SWAP4 SWAP3 POP POP POP JUMP JUMPDEST PUSH1 0x20 DUP1 DUP3 MSTORE PUSH1 0x23 SWAP1 DUP3 ADD MSTORE PUSH32 0x45524332303A207472616E7366657220746F20746865207A65726F2061646472 PUSH1 0x40 DUP3 ADD MSTORE PUSH3 0x657373 PUSH1 0xE8 SHL PUSH1 0x60 DUP3 ADD MSTORE PUSH1 0x80 ADD SWAP1 JUMP JUMPDEST PUSH1 0x20 DUP1 DUP3 MSTORE PUSH1 0x18 SWAP1 DUP3 ADD MSTORE PUSH32 0x6F6E6C792063616E2064697374726962757465206F6E63650000000000000000 PUSH1 0x40 DUP3 ADD MSTORE PUSH1 0x60 ADD SWAP1 JUMP JUMPDEST PUSH1 0x20 DUP1 DUP3 MSTORE PUSH1 0x22 SWAP1 DUP3 ADD MSTORE PUSH32 0x45524332303A206275726E20616D6F756E7420657863656564732062616C616E PUSH1 0x40 DUP3 ADD MSTORE PUSH2 0x6365 PUSH1 0xF0 SHL PUSH1 0x60 DUP3 ADD MSTORE PUSH1 0x80 ADD SWAP1 JUMP JUMPDEST PUSH1 0x20 DUP1 DUP3 MSTORE PUSH1 0x26 SWAP1 DUP3 ADD MSTORE PUSH32 0x4F776E61626C653A206E6577206F776E657220697320746865207A65726F2061 PUSH1 0x40 DUP3 ADD MSTORE PUSH6 0x646472657373 PUSH1 0xD0 SHL PUSH1 0x60 DUP3 ADD MSTORE PUSH1 0x80 ADD SWAP1 JUMP JUMPDEST PUSH1 0x20 DUP1 DUP3 MSTORE PUSH1 0x22 SWAP1 DUP3 ADD MSTORE PUSH32 0x45524332303A20617070726F766520746F20746865207A65726F206164647265 PUSH1 0x40 DUP3 ADD MSTORE PUSH2 0x7373 PUSH1 0xF0 SHL PUSH1 0x60 DUP3 ADD MSTORE PUSH1 0x80 ADD SWAP1 JUMP JUMPDEST PUSH1 0x20 DUP1 DUP3 MSTORE PUSH1 0x4 SWAP1 DUP3 ADD MSTORE PUSH4 0x7A65726F PUSH1 0xE0 SHL PUSH1 0x40 DUP3 ADD MSTORE PUSH1 0x60 ADD SWAP1 JUMP JUMPDEST PUSH1 0x20 DUP1 DUP3 MSTORE PUSH1 0x26 SWAP1 DUP3 ADD MSTORE PUSH32 0x45524332303A207472616E7366657220616D6F756E7420657863656564732062 PUSH1 0x40 DUP3 ADD MSTORE PUSH6 0x616C616E6365 PUSH1 0xD0 SHL PUSH1 0x60 DUP3 ADD MSTORE PUSH1 0x80 ADD SWAP1 JUMP JUMPDEST PUSH1 0x20 DUP1 DUP3 MSTORE PUSH1 0x4 SWAP1 DUP3 ADD MSTORE PUSH4 0x10B232BB PUSH1 0xE1 SHL PUSH1 0x40 DUP3 ADD MSTORE PUSH1 0x60 ADD SWAP1 JUMP JUMPDEST PUSH1 0x20 DUP1 DUP3 MSTORE PUSH1 0x2D SWAP1 DUP3 ADD MSTORE PUSH32 0x6F70657261746F723A207A65726F206164647265737320676976656E20666F72 PUSH1 0x40 DUP3 ADD MSTORE PUSH13 0x103732BB9037B832B930BA37B9 PUSH1 0x99 SHL PUSH1 0x60 DUP3 ADD MSTORE PUSH1 0x80 ADD SWAP1 JUMP JUMPDEST PUSH1 0x20 DUP1 DUP3 MSTORE PUSH1 0x28 SWAP1 DUP3 ADD MSTORE PUSH32 0x45524332303A207472616E7366657220616D6F756E7420657863656564732061 PUSH1 0x40 DUP3 ADD MSTORE PUSH8 0x6C6C6F77616E6365 PUSH1 0xC0 SHL PUSH1 0x60 DUP3 ADD MSTORE PUSH1 0x80 ADD SWAP1 JUMP JUMPDEST PUSH1 0x20 DUP1 DUP3 MSTORE PUSH1 0x16 SWAP1 DUP3 ADD MSTORE PUSH22 0x857D9985C9B5A5B99D25B98D95B9D1A5D99519D5B99 PUSH1 0x52 SHL PUSH1 0x40 DUP3 ADD MSTORE PUSH1 0x60 ADD SWAP1 JUMP JUMPDEST PUSH1 0x20 DUP1 DUP3 MSTORE DUP2 DUP2 ADD MSTORE PUSH32 0x4F776E61626C653A2063616C6C6572206973206E6F7420746865206F776E6572 PUSH1 0x40 DUP3 ADD MSTORE PUSH1 0x60 ADD SWAP1 JUMP JUMPDEST PUSH1 0x20 DUP1 DUP3 MSTORE PUSH1 0x24 SWAP1 DUP3 ADD MSTORE PUSH32 0x45524332303A206275726E20616D6F756E74206578636565647320616C6C6F77 PUSH1 0x40 DUP3 ADD MSTORE PUSH4 0x616E6365 PUSH1 0xE0 SHL PUSH1 0x60 DUP3 ADD MSTORE PUSH1 0x80 ADD SWAP1 JUMP JUMPDEST PUSH1 0x20 DUP1 DUP3 MSTORE PUSH1 0x24 SWAP1 DUP3 ADD MSTORE PUSH32 0x6F70657261746F723A2063616C6C6572206973206E6F7420746865206F706572 PUSH1 0x40 DUP3 ADD MSTORE PUSH4 0x30BA37B9 PUSH1 0xE1 SHL PUSH1 0x60 DUP3 ADD MSTORE PUSH1 0x80 ADD SWAP1 JUMP JUMPDEST PUSH1 0x20 DUP1 DUP3 MSTORE PUSH1 0x21 SWAP1 DUP3 ADD MSTORE PUSH32 0x45524332303A206275726E2066726F6D20746865207A65726F20616464726573 PUSH1 0x40 DUP3 ADD MSTORE PUSH1 0x73 PUSH1 0xF8 SHL PUSH1 0x60 DUP3 ADD MSTORE PUSH1 0x80 ADD SWAP1 JUMP JUMPDEST PUSH1 0x20 DUP1 DUP3 MSTORE PUSH1 0x25 SWAP1 DUP3 ADD MSTORE PUSH32 0x45524332303A207472616E736665722066726F6D20746865207A65726F206164 PUSH1 0x40 DUP3 ADD MSTORE PUSH5 0x6472657373 PUSH1 0xD8 SHL PUSH1 0x60 DUP3 ADD MSTORE PUSH1 0x80 ADD SWAP1 JUMP JUMPDEST PUSH1 0x20 DUP1 DUP3 MSTORE PUSH1 0x24 SWAP1 DUP3 ADD MSTORE PUSH32 0x45524332303A20617070726F76652066726F6D20746865207A65726F20616464 PUSH1 0x40 DUP3 ADD MSTORE PUSH4 0x72657373 PUSH1 0xE0 SHL PUSH1 0x60 DUP3 ADD MSTORE PUSH1 0x80 ADD SWAP1 JUMP JUMPDEST PUSH1 0x20 DUP1 DUP3 MSTORE PUSH1 0x25 SWAP1 DUP3 ADD MSTORE PUSH32 0x45524332303A2064656372656173656420616C6C6F77616E63652062656C6F77 PUSH1 0x40 DUP3 ADD MSTORE PUSH5 0x207A65726F PUSH1 0xD8 SHL PUSH1 0x60 DUP3 ADD MSTORE PUSH1 0x80 ADD SWAP1 JUMP JUMPDEST PUSH1 0x20 DUP1 DUP3 MSTORE PUSH1 0x1F SWAP1 DUP3 ADD MSTORE PUSH32 0x45524332303A206D696E7420746F20746865207A65726F206164647265737300 PUSH1 0x40 DUP3 ADD MSTORE PUSH1 0x60 ADD SWAP1 JUMP JUMPDEST SWAP1 DUP2 MSTORE PUSH1 0x20 ADD SWAP1 JUMP JUMPDEST PUSH1 0xFF SWAP2 SWAP1 SWAP2 AND DUP2 MSTORE PUSH1 0x20 ADD SWAP1 JUMP JUMPDEST PUSH1 0x0 DUP3 NOT DUP3 GT ISZERO PUSH2 0x1752 JUMPI PUSH2 0x1752 PUSH2 0x17E8 JUMP JUMPDEST POP ADD SWAP1 JUMP JUMPDEST PUSH1 0x0 DUP3 PUSH2 0x1772 JUMPI PUSH4 0x4E487B71 PUSH1 0xE0 SHL DUP2 MSTORE PUSH1 0x12 PUSH1 0x4 MSTORE PUSH1 0x24 DUP2 REVERT JUMPDEST POP DIV SWAP1 JUMP JUMPDEST PUSH1 0x0 DUP2 PUSH1 0x0 NOT DIV DUP4 GT DUP3 ISZERO ISZERO AND ISZERO PUSH2 0x1791 JUMPI PUSH2 0x1791 PUSH2 0x17E8 JUMP JUMPDEST POP MUL SWAP1 JUMP JUMPDEST PUSH1 0x0 DUP3 DUP3 LT ISZERO PUSH2 0x17A8 JUMPI PUSH2 0x17A8 PUSH2 0x17E8 JUMP JUMPDEST POP SUB SWAP1 JUMP JUMPDEST PUSH1 0x2 DUP2 DIV PUSH1 0x1 DUP3 AND DUP1 PUSH2 0x17C1 JUMPI PUSH1 0x7F DUP3 AND SWAP2 POP JUMPDEST PUSH1 0x20 DUP3 LT DUP2 EQ ISZERO PUSH2 0x17E2 JUMPI PUSH4 0x4E487B71 PUSH1 0xE0 SHL PUSH1 0x0 MSTORE PUSH1 0x22 PUSH1 0x4 MSTORE PUSH1 0x24 PUSH1 0x0 REVERT JUMPDEST POP SWAP2 SWAP1 POP JUMP JUMPDEST PUSH4 0x4E487B71 PUSH1 0xE0 SHL PUSH1 0x0 MSTORE PUSH1 0x11 PUSH1 0x4 MSTORE PUSH1 0x24 PUSH1 0x0 REVERT JUMPDEST PUSH1 0x1 PUSH1 0x1 PUSH1 0xA0 SHL SUB DUP2 AND DUP2 EQ PUSH2 0x5AF JUMPI PUSH1 0x0 DUP1 REVERT INVALID LOG2 PUSH5 0x6970667358 0x22 SLT KECCAK256 PUSH17 0xCC8ECD5F807B32092F55A6FA43C164BFE1 SWAP5 0xEC SAR 0xDE DUP7 0xAD 0xD1 GASLIMIT 0x5E 0xC0 BLOCKHASH SWAP2 PUSH26 0xE064736F6C634300080000330000000000000000000000000000 "
		},
		"gasEstimates": {
			"creation": {
				"codeDepositCost": "1243400",
				"executionCost": "infinite",
				"totalCost": "infinite"
			},
			"external": {
				"COMMUNITY_FUND_POOL_ALLOCATION()": "295",
				"DEV_FUND_POOL_ALLOCATION()": "318",
				"FARMING_POOL_REWARD_ALLOCATION()": "317",
				"VESTING_DURATION()": "296",
				"allowance(address,address)": "infinite",
				"approve(address,uint256)": "22623",
				"balanceOf(address)": "1312",
				"burn(uint256)": "infinite",
				"burnFrom(address,uint256)": "infinite",
				"claimRewards()": "infinite",
				"communityFund()": "1117",
				"communityFundLastClaimed()": "1072",
				"communityFundRewardRate()": "1074",
				"decimals()": "330",
				"decreaseAllowance(address,uint256)": "infinite",
				"devFund()": "1181",
				"devFundLastClaimed()": "1097",
				"devFundRewardRate()": "1096",
				"distributeReward(address)": "infinite",
				"endTime()": "1140",
				"governanceRecoverUnsupported(address,uint256,address)": "infinite",
				"increaseAllowance(address,uint256)": "infinite",
				"isOperator()": "1246",
				"name()": "infinite",
				"operator()": "1204",
				"owner()": "1203",
				"renounceOwnership()": "23574",
				"rewardPoolDistributed()": "1107",
				"setDevFund(address)": "22106",
				"setTreasuryFund(address)": "22137",
				"startTime()": "1117",
				"symbol()": "infinite",
				"totalSupply()": "1118",
				"transfer(address,uint256)": "infinite",
				"transferFrom(address,address,uint256)": "infinite",
				"transferOperator(address)": "infinite",
				"transferOwnership(address)": "infinite",
				"unclaimedDevFund()": "infinite",
				"unclaimedTreasuryFund()": "infinite"
			}
		},
		"methodIdentifiers": {
			"COMMUNITY_FUND_POOL_ALLOCATION()": "3bba8eed",
			"DEV_FUND_POOL_ALLOCATION()": "4f337dd5",
			"FARMING_POOL_REWARD_ALLOCATION()": "a06160fd",
			"VESTING_DURATION()": "4cfc4d30",
			"allowance(address,address)": "dd62ed3e",
			"approve(address,uint256)": "095ea7b3",
			"balanceOf(address)": "70a08231",
			"burn(uint256)": "42966c68",
			"burnFrom(address,uint256)": "79cc6790",
			"claimRewards()": "372500ab",
			"communityFund()": "00f380f4",
			"communityFundLastClaimed()": "abb4b1be",
			"communityFundRewardRate()": "44cdc454",
			"decimals()": "313ce567",
			"decreaseAllowance(address,uint256)": "a457c2d7",
			"devFund()": "4390d2a8",
			"devFundLastClaimed()": "04017315",
			"devFundRewardRate()": "2e3367ce",
			"distributeReward(address)": "092193ab",
			"endTime()": "3197cbb6",
			"governanceRecoverUnsupported(address,uint256,address)": "54575af4",
			"increaseAllowance(address,uint256)": "39509351",
			"isOperator()": "4456eda2",
			"name()": "06fdde03",
			"operator()": "570ca735",
			"owner()": "8da5cb5b",
			"renounceOwnership()": "715018a6",
			"rewardPoolDistributed()": "9662676c",
			"setDevFund(address)": "ae4db919",
			"setTreasuryFund(address)": "f746b718",
			"startTime()": "78e97925",
			"symbol()": "95d89b41",
			"totalSupply()": "18160ddd",
			"transfer(address,uint256)": "a9059cbb",
			"transferFrom(address,address,uint256)": "23b872dd",
			"transferOperator(address)": "29605e77",
			"transferOwnership(address)": "f2fde38b",
			"unclaimedDevFund()": "2c07a624",
			"unclaimedTreasuryFund()": "17764782"
		}
	},
	"abi": [
		{
			"inputs": [
				{
					"internalType": "uint256",
					"name": "_startTime",
					"type": "uint256"
				},
				{
					"internalType": "address",
					"name": "_communityFund",
					"type": "address"
				},
				{
					"internalType": "address",
					"name": "_devFund",
					"type": "address"
				}
			],
			"stateMutability": "nonpayable",
			"type": "constructor"
		},
		{
			"anonymous": false,
			"inputs": [
				{
					"indexed": true,
					"internalType": "address",
					"name": "owner",
					"type": "address"
				},
				{
					"indexed": true,
					"internalType": "address",
					"name": "spender",
					"type": "address"
				},
				{
					"indexed": false,
					"internalType": "uint256",
					"name": "value",
					"type": "uint256"
				}
			],
			"name": "Approval",
			"type": "event"
		},
		{
			"anonymous": false,
			"inputs": [
				{
					"indexed": true,
					"internalType": "address",
					"name": "previousOperator",
					"type": "address"
				},
				{
					"indexed": true,
					"internalType": "address",
					"name": "newOperator",
					"type": "address"
				}
			],
			"name": "OperatorTransferred",
			"type": "event"
		},
		{
			"anonymous": false,
			"inputs": [
				{
					"indexed": true,
					"internalType": "address",
					"name": "previousOwner",
					"type": "address"
				},
				{
					"indexed": true,
					"internalType": "address",
					"name": "newOwner",
					"type": "address"
				}
			],
			"name": "OwnershipTransferred",
			"type": "event"
		},
		{
			"anonymous": false,
			"inputs": [
				{
					"indexed": true,
					"internalType": "address",
					"name": "from",
					"type": "address"
				},
				{
					"indexed": true,
					"internalType": "address",
					"name": "to",
					"type": "address"
				},
				{
					"indexed": false,
					"internalType": "uint256",
					"name": "value",
					"type": "uint256"
				}
			],
			"name": "Transfer",
			"type": "event"
		},
		{
			"inputs": [],
			"name": "COMMUNITY_FUND_POOL_ALLOCATION",
			"outputs": [
				{
					"internalType": "uint256",
					"name": "",
					"type": "uint256"
				}
			],
			"stateMutability": "view",
			"type": "function"
		},
		{
			"inputs": [],
			"name": "DEV_FUND_POOL_ALLOCATION",
			"outputs": [
				{
					"internalType": "uint256",
					"name": "",
					"type": "uint256"
				}
			],
			"stateMutability": "view",
			"type": "function"
		},
		{
			"inputs": [],
			"name": "FARMING_POOL_REWARD_ALLOCATION",
			"outputs": [
				{
					"internalType": "uint256",
					"name": "",
					"type": "uint256"
				}
			],
			"stateMutability": "view",
			"type": "function"
		},
		{
			"inputs": [],
			"name": "VESTING_DURATION",
			"outputs": [
				{
					"internalType": "uint256",
					"name": "",
					"type": "uint256"
				}
			],
			"stateMutability": "view",
			"type": "function"
		},
		{
			"inputs": [
				{
					"internalType": "address",
					"name": "owner",
					"type": "address"
				},
				{
					"internalType": "address",
					"name": "spender",
					"type": "address"
				}
			],
			"name": "allowance",
			"outputs": [
				{
					"internalType": "uint256",
					"name": "",
					"type": "uint256"
				}
			],
			"stateMutability": "view",
			"type": "function"
		},
		{
			"inputs": [
				{
					"internalType": "address",
					"name": "spender",
					"type": "address"
				},
				{
					"internalType": "uint256",
					"name": "amount",
					"type": "uint256"
				}
			],
			"name": "approve",
			"outputs": [
				{
					"internalType": "bool",
					"name": "",
					"type": "bool"
				}
			],
			"stateMutability": "nonpayable",
			"type": "function"
		},
		{
			"inputs": [
				{
					"internalType": "address",
					"name": "account",
					"type": "address"
				}
			],
			"name": "balanceOf",
			"outputs": [
				{
					"internalType": "uint256",
					"name": "",
					"type": "uint256"
				}
			],
			"stateMutability": "view",
			"type": "function"
		},
		{
			"inputs": [
				{
					"internalType": "uint256",
					"name": "amount",
					"type": "uint256"
				}
			],
			"name": "burn",
			"outputs": [],
			"stateMutability": "nonpayable",
			"type": "function"
		},
		{
			"inputs": [
				{
					"internalType": "address",
					"name": "account",
					"type": "address"
				},
				{
					"internalType": "uint256",
					"name": "amount",
					"type": "uint256"
				}
			],
			"name": "burnFrom",
			"outputs": [],
			"stateMutability": "nonpayable",
			"type": "function"
		},
		{
			"inputs": [],
			"name": "claimRewards",
			"outputs": [],
			"stateMutability": "nonpayable",
			"type": "function"
		},
		{
			"inputs": [],
			"name": "communityFund",
			"outputs": [
				{
					"internalType": "address",
					"name": "",
					"type": "address"
				}
			],
			"stateMutability": "view",
			"type": "function"
		},
		{
			"inputs": [],
			"name": "communityFundLastClaimed",
			"outputs": [
				{
					"internalType": "uint256",
					"name": "",
					"type": "uint256"
				}
			],
			"stateMutability": "view",
			"type": "function"
		},
		{
			"inputs": [],
			"name": "communityFundRewardRate",
			"outputs": [
				{
					"internalType": "uint256",
					"name": "",
					"type": "uint256"
				}
			],
			"stateMutability": "view",
			"type": "function"
		},
		{
			"inputs": [],
			"name": "decimals",
			"outputs": [
				{
					"internalType": "uint8",
					"name": "",
					"type": "uint8"
				}
			],
			"stateMutability": "view",
			"type": "function"
		},
		{
			"inputs": [
				{
					"internalType": "address",
					"name": "spender",
					"type": "address"
				},
				{
					"internalType": "uint256",
					"name": "subtractedValue",
					"type": "uint256"
				}
			],
			"name": "decreaseAllowance",
			"outputs": [
				{
					"internalType": "bool",
					"name": "",
					"type": "bool"
				}
			],
			"stateMutability": "nonpayable",
			"type": "function"
		},
		{
			"inputs": [],
			"name": "devFund",
			"outputs": [
				{
					"internalType": "address",
					"name": "",
					"type": "address"
				}
			],
			"stateMutability": "view",
			"type": "function"
		},
		{
			"inputs": [],
			"name": "devFundLastClaimed",
			"outputs": [
				{
					"internalType": "uint256",
					"name": "",
					"type": "uint256"
				}
			],
			"stateMutability": "view",
			"type": "function"
		},
		{
			"inputs": [],
			"name": "devFundRewardRate",
			"outputs": [
				{
					"internalType": "uint256",
					"name": "",
					"type": "uint256"
				}
			],
			"stateMutability": "view",
			"type": "function"
		},
		{
			"inputs": [
				{
					"internalType": "address",
					"name": "_farmingIncentiveFund",
					"type": "address"
				}
			],
			"name": "distributeReward",
			"outputs": [],
			"stateMutability": "nonpayable",
			"type": "function"
		},
		{
			"inputs": [],
			"name": "endTime",
			"outputs": [
				{
					"internalType": "uint256",
					"name": "",
					"type": "uint256"
				}
			],
			"stateMutability": "view",
			"type": "function"
		},
		{
			"inputs": [
				{
					"internalType": "contract IERC20",
					"name": "_token",
					"type": "address"
				},
				{
					"internalType": "uint256",
					"name": "_amount",
					"type": "uint256"
				},
				{
					"internalType": "address",
					"name": "_to",
					"type": "address"
				}
			],
			"name": "governanceRecoverUnsupported",
			"outputs": [],
			"stateMutability": "nonpayable",
			"type": "function"
		},
		{
			"inputs": [
				{
					"internalType": "address",
					"name": "spender",
					"type": "address"
				},
				{
					"internalType": "uint256",
					"name": "addedValue",
					"type": "uint256"
				}
			],
			"name": "increaseAllowance",
			"outputs": [
				{
					"internalType": "bool",
					"name": "",
					"type": "bool"
				}
			],
			"stateMutability": "nonpayable",
			"type": "function"
		},
		{
			"inputs": [],
			"name": "isOperator",
			"outputs": [
				{
					"internalType": "bool",
					"name": "",
					"type": "bool"
				}
			],
			"stateMutability": "view",
			"type": "function"
		},
		{
			"inputs": [],
			"name": "name",
			"outputs": [
				{
					"internalType": "string",
					"name": "",
					"type": "string"
				}
			],
			"stateMutability": "view",
			"type": "function"
		},
		{
			"inputs": [],
			"name": "operator",
			"outputs": [
				{
					"internalType": "address",
					"name": "",
					"type": "address"
				}
			],
			"stateMutability": "view",
			"type": "function"
		},
		{
			"inputs": [],
			"name": "owner",
			"outputs": [
				{
					"internalType": "address",
					"name": "",
					"type": "address"
				}
			],
			"stateMutability": "view",
			"type": "function"
		},
		{
			"inputs": [],
			"name": "renounceOwnership",
			"outputs": [],
			"stateMutability": "nonpayable",
			"type": "function"
		},
		{
			"inputs": [],
			"name": "rewardPoolDistributed",
			"outputs": [
				{
					"internalType": "bool",
					"name": "",
					"type": "bool"
				}
			],
			"stateMutability": "view",
			"type": "function"
		},
		{
			"inputs": [
				{
					"internalType": "address",
					"name": "_devFund",
					"type": "address"
				}
			],
			"name": "setDevFund",
			"outputs": [],
			"stateMutability": "nonpayable",
			"type": "function"
		},
		{
			"inputs": [
				{
					"internalType": "address",
					"name": "_communityFund",
					"type": "address"
				}
			],
			"name": "setTreasuryFund",
			"outputs": [],
			"stateMutability": "nonpayable",
			"type": "function"
		},
		{
			"inputs": [],
			"name": "startTime",
			"outputs": [
				{
					"internalType": "uint256",
					"name": "",
					"type": "uint256"
				}
			],
			"stateMutability": "view",
			"type": "function"
		},
		{
			"inputs": [],
			"name": "symbol",
			"outputs": [
				{
					"internalType": "string",
					"name": "",
					"type": "string"
				}
			],
			"stateMutability": "view",
			"type": "function"
		},
		{
			"inputs": [],
			"name": "totalSupply",
			"outputs": [
				{
					"internalType": "uint256",
					"name": "",
					"type": "uint256"
				}
			],
			"stateMutability": "view",
			"type": "function"
		},
		{
			"inputs": [
				{
					"internalType": "address",
					"name": "recipient",
					"type": "address"
				},
				{
					"internalType": "uint256",
					"name": "amount",
					"type": "uint256"
				}
			],
			"name": "transfer",
			"outputs": [
				{
					"internalType": "bool",
					"name": "",
					"type": "bool"
				}
			],
			"stateMutability": "nonpayable",
			"type": "function"
		},
		{
			"inputs": [
				{
					"internalType": "address",
					"name": "sender",
					"type": "address"
				},
				{
					"internalType": "address",
					"name": "recipient",
					"type": "address"
				},
				{
					"internalType": "uint256",
					"name": "amount",
					"type": "uint256"
				}
			],
			"name": "transferFrom",
			"outputs": [
				{
					"internalType": "bool",
					"name": "",
					"type": "bool"
				}
			],
			"stateMutability": "nonpayable",
			"type": "function"
		},
		{
			"inputs": [
				{
					"internalType": "address",
					"name": "newOperator_",
					"type": "address"
				}
			],
			"name": "transferOperator",
			"outputs": [],
			"stateMutability": "nonpayable",
			"type": "function"
		},
		{
			"inputs": [
				{
					"internalType": "address",
					"name": "newOwner",
					"type": "address"
				}
			],
			"name": "transferOwnership",
			"outputs": [],
			"stateMutability": "nonpayable",
			"type": "function"
		},
		{
			"inputs": [],
			"name": "unclaimedDevFund",
			"outputs": [
				{
					"internalType": "uint256",
					"name": "_pending",
					"type": "uint256"
				}
			],
			"stateMutability": "view",
			"type": "function"
		},
		{
			"inputs": [],
			"name": "unclaimedTreasuryFund",
			"outputs": [
				{
					"internalType": "uint256",
					"name": "_pending",
					"type": "uint256"
				}
			],
			"stateMutability": "view",
			"type": "function"
		}
	]
}