{
	"data": {
		"bytecode": {
			"linkReferences": {},
			"object": "60806040526000600160146101000a81548160ff021916908315150217905550600060035560006004556040518060600160405280739a896d3c54d7e45b558bd5fff26bf1e8c031f93b73ffffffffffffffffffffffffffffffffffffffff1673ffffffffffffffffffffffffffffffffffffffff16815260200173a7b9123f4b15fe0ff01f469ff5eab2b41296dc0e73ffffffffffffffffffffffffffffffffffffffff1673ffffffffffffffffffffffffffffffffffffffff16815260200173a7b16703470055881e7ee093e9b0bf537f29cd4d73ffffffffffffffffffffffffffffffffffffffff1673ffffffffffffffffffffffffffffffffffffffff168152506005906003620001169291906200012b565b503480156200012457600080fd5b50620001d9565b828054828255906000526020600020908101928215620001a7579160200282015b82811115620001a65782518260006101000a81548173ffffffffffffffffffffffffffffffffffffffff021916908373ffffffffffffffffffffffffffffffffffffffff160217905550916020019190600101906200014c565b5b509050620001b69190620001ba565b5090565b5b80821115620001d5576000816000905550600101620001bb565b5090565b617b2c80620001e96000396000f3fe608060405234801561001057600080fd5b50600436106104285760003560e01c806382cad8381161022b578063b981cdf311610130578063d4b14944116100b8578063e90b245411610087578063e90b245414610c1d578063ee6822a714610c3b578063f14698de14610c59578063f774110314610c77578063fcb6f00814610c9557610428565b8063d4b1494414610b95578063d5d3b26c14610bc5578063d98f249514610be1578063da3ed41914610bff57610428565b8063c5967c26116100ff578063c5967c2614610b01578063c5cc772d14610b1f578063c8412d0214610b3d578063c8f987f314610b5b578063cecce38e14610b7957610428565b8063b981cdf314610a8d578063bcc81f1914610aab578063be266d5414610ac7578063c040f23a14610ae357610428565b806395b6ef0c116101b3578063a204452b11610182578063a204452b146109fb578063b3406cfc14610a17578063b3ab15fb14610a35578063b4d1d79514610a51578063b8a878f914610a6f57610428565b806395b6ef0c1461096357806398b762a11461097f578063998200251461099b578063a0487eea146109cb57610428565b80638d934f74116101fa5780638d934f74146108bf578063900cf0cf146108dd57806391bbfed5146108fb578063940e606414610917578063951357d41461094757610428565b806382cad83814610837578063874106cc146108675780638a6426e7146108855780638c664db6146108a357610428565b80634294cf8e116103315780635a0fc79c116102b957806372c054f91161028857806372c054f9146107a5578063734f7096146107c357806375be5ae1146107df57806378e97925146107fb57806381d11eaf1461081957610428565b80635a0fc79c146107435780635b7561791461076157806362ac58e41461076b57806363f96cf41461078757610428565b806354f04a111161030057806354f04a11146106b157806355ebdeef146106cd578063570ca735146106eb578063591663e11461070957806359bf5d391461072557610428565b80634294cf8e1461063d5780634390d2a81461065b578063499f3f191461067957806354575af41461069557610428565b8063158ef93e116103b45780632e9c7b65116103835780632e9c7b65146105ab578063392e53cd146105c95780633ed9ae25146105e75780634013a08e1461060357806340af7ba51461062157610428565b8063158ef93e1461053357806319a983491461055157806322f832cd1461056f57806329ef19191461058d57610428565b80630cac939c116103fb5780630cac939c146104a15780630cf60175146104bf5780630db7eb0b146104dd578063118ebbf9146104fb578063154ec2db1461051757610428565b806303be7e761461042d57806304e5c7b11461044b57806309bb4f92146104675780630b5bcec714610485575b600080fd5b610435610cb3565b6040516104429190616e94565b60405180910390f35b610465600480360381019061046091906162ca565b610cb9565b005b61046f610ddc565b60405161047c9190616e94565b60405180910390f35b61049f600480360381019061049a91906162ca565b610f08565b005b6104a9610ff4565b6040516104b69190616e94565b60405180910390f35b6104c7611150565b6040516104d49190616e94565b60405180910390f35b6104e561122c565b6040516104f29190616e94565b60405180910390f35b61051560048036038101906105109190616324565b611300565b005b610531600480360381019061052c91906162ca565b611bd7565b005b61053b611cb6565b60405161054891906169f7565b60405180910390f35b610559611cc9565b6040516105669190616e94565b60405180910390f35b610577611ccf565b6040516105849190616e94565b60405180910390f35b610595611cd5565b6040516105a29190616e94565b60405180910390f35b6105b3611cdb565b6040516105c09190616e94565b60405180910390f35b6105d1611ce1565b6040516105de91906169f7565b60405180910390f35b61060160048036038101906105fc91906162ca565b611cf8565b005b61060b611e0b565b6040516106189190616e94565b60405180910390f35b61063b600480360381019061063691906162ca565b611e11565b005b610645611ef0565b6040516106529190616e94565b60405180910390f35b610663611ef6565b604051610670919061692a565b60405180910390f35b610693600480360381019061068e91906162ca565b611f1c565b005b6106af60048036038101906106aa919061624a565b612009565b005b6106cb60048036038101906106c69190616324565b61227c565b005b6106d5612c32565b6040516106e29190616e94565b60405180910390f35b6106f3612c38565b604051610700919061692a565b60405180910390f35b610723600480360381019061071e91906162ca565b612c5e565b005b61072d612d4b565b60405161073a9190616e94565b60405180910390f35b61074b612d55565b6040516107589190616e94565b60405180910390f35b610769612d5b565b005b6107856004803603810190610780919061607c565b6136f4565b005b61078f613814565b60405161079c919061692a565b60405180910390f35b6107ad61383a565b6040516107ba9190616e94565b60405180910390f35b6107dd60048036038101906107d89190616324565b61394c565b005b6107f960048036038101906107f4919061607c565b613a6f565b005b610803613b43565b6040516108109190616e94565b60405180910390f35b610821613b49565b60405161082e9190616e94565b60405180910390f35b610851600480360381019061084c91906162ca565b613b4f565b60405161085e919061692a565b60405180910390f35b61086f613b8e565b60405161087c9190616e94565b60405180910390f35b61088d613b94565b60405161089a9190616e94565b60405180910390f35b6108bd60048036038101906108b891906162ca565b613d5d565b005b6108c7613e4a565b6040516108d4919061692a565b60405180910390f35b6108e5613e70565b6040516108f29190616e94565b60405180910390f35b61091560048036038101906109109190616324565b613e76565b005b610931600480360381019061092c9190616364565b613fae565b60405161093e91906169f7565b60405180910390f35b610961600480360381019061095c9190616163565b614189565b005b61097d600480360381019061097891906160d6565b6142af565b005b610999600480360381019061099491906162ca565b6147d9565b005b6109b560048036038101906109b091906162ca565b614873565b6040516109c29190616e94565b60405180910390f35b6109e560048036038101906109e091906162ca565b614897565b6040516109f29190616e94565b60405180910390f35b610a156004803603810190610a1091906162ca565b6148bb565b005b610a1f614955565b604051610a2c9190616e94565b60405180910390f35b610a4f6004803603810190610a4a919061607c565b61495b565b005b610a59614a2f565b604051610a669190616e94565b60405180910390f35b610a77614a35565b604051610a849190616e94565b60405180910390f35b610a95614a3b565b604051610aa2919061692a565b60405180910390f35b610ac56004803603810190610ac091906161b6565b614a61565b005b610ae16004803603810190610adc91906162ca565b614cf1565b005b610aeb614e11565b604051610af8919061692a565b60405180910390f35b610b09614e37565b604051610b169190616e94565b60405180910390f35b610b27614e69565b604051610b349190616e94565b60405180910390f35b610b45614f95565b604051610b529190616e94565b60405180910390f35b610b63614f9b565b604051610b709190616e94565b60405180910390f35b610b936004803603810190610b8e91906162ca565b614fa1565b005b610baf6004803603810190610baa9190616364565b61508d565b604051610bbc91906169f7565b60405180910390f35b610bdf6004803603810190610bda919061607c565b61522e565b005b610be9615302565b604051610bf69190616e94565b60405180910390f35b610c07615308565b604051610c149190616e94565b60405180910390f35b610c2561530e565b604051610c329190616e94565b60405180910390f35b610c43615314565b604051610c50919061692a565b60405180910390f35b610c6161533a565b604051610c6e9190616e94565b60405180910390f35b610c7f615340565b604051610c8c919061692a565b60405180910390f35b610c9d615366565b604051610caa9190616e94565b60405180910390f35b60215481565b3373ffffffffffffffffffffffffffffffffffffffff16600160009054906101000a900473ffffffffffffffffffffffffffffffffffffffff1673ffffffffffffffffffffffffffffffffffffffff1614610d49576040517f08c379a0000000000000000000000000000000000000000000000000000000008152600401610d4090616d14565b60405180910390fd5b600c54811015610d8e576040517f08c379a0000000000000000000000000000000000000000000000000000000008152600401610d8590616a74565b60405180910390fd5b6096811115610dd2576040517f08c379a0000000000000000000000000000000000000000000000000000000008152600401610dc990616b54565b60405180910390fd5b80601b8190555050565b6000600a60009054906101000a900473ffffffffffffffffffffffffffffffffffffffff1673ffffffffffffffffffffffffffffffffffffffff16633ddac953600660009054906101000a900473ffffffffffffffffffffffffffffffffffffffff16670de0b6b3a76400006040518363ffffffff1660e01b8152600401610e6592919061696e565b60206040518083038186803b158015610e7d57600080fd5b505afa925050508015610eae57506040513d601f19601f82011682018060405250810190610eab919061629d565b60015b610eed576040517f08c379a0000000000000000000000000000000000000000000000000000000008152600401610ee490616af4565b60405180910390fd5b8071ffffffffffffffffffffffffffffffffffff1691505090565b3373ffffffffffffffffffffffffffffffffffffffff16600160009054906101000a900473ffffffffffffffffffffffffffffffffffffffff1673ffffffffffffffffffffffffffffffffffffffff1614610f98576040517f08c379a0000000000000000000000000000000000000000000000000000000008152600401610f8f90616d14565b60405180910390fd5b600a8110158015610fab57506103e88111155b610fea576040517f08c379a0000000000000000000000000000000000000000000000000000000008152600401610fe190616c34565b60405180910390fd5b8060108190555050565b600080610fff610ddc565b9050600b54811161114c576000611014613b94565b905060006110416127106110336014548561536c90919063ffffffff16565b61538290919063ffffffff16565b90506000600760009054906101000a900473ffffffffffffffffffffffffffffffffffffffff1673ffffffffffffffffffffffffffffffffffffffff166318160ddd6040518163ffffffff1660e01b815260040160206040518083038186803b1580156110ad57600080fd5b505afa1580156110c1573d6000803e3d6000fd5b505050506040513d601f19601f820116820180604052508101906110e591906162f7565b905080821115611148576000611104828461539890919063ffffffff16565b90506000611135670de0b6b3a7640000611127888561536c90919063ffffffff16565b61538290919063ffffffff16565b9050611143600454826153ae565b965050505b5050505b5090565b60008061115b610ddc565b9050600b548111611228576000601a54141561117b57600b549150611227565b60006111ac8261119e670de0b6b3a7640000600b5461536c90919063ffffffff16565b61538290919063ffffffff16565b905060006111ed6127106111df601a546111d1600b548761539890919063ffffffff16565b61536c90919063ffffffff16565b61538290919063ffffffff16565b905061120481600b546153c790919063ffffffff16565b93506000601854118015611219575060185484115b156112245760185493505b50505b5b5090565b600080611237610ddc565b9050600c548111156112fc57600061126f6064611261601b54600b5461536c90919063ffffffff16565b61538290919063ffffffff16565b90508082106112f45760006112b76127106112a9601c5461129b600b548861539890919063ffffffff16565b61536c90919063ffffffff16565b61538290919063ffffffff16565b90506112ce81600b546153c790919063ffffffff16565b935060006019541180156112e3575060195484115b156112ee5760195493505b506112fa565b600b5492505b505b5090565b6113086153dd565b15611348576040517f08c379a000000000000000000000000000000000000000000000000000000000815260040161133f90616db4565b60405180910390fd5b611350615441565b15611390576040517f08c379a000000000000000000000000000000000000000000000000000000000815260040161138790616db4565b60405180910390fd5b6002544210156113d5576040517f08c379a00000000000000000000000000000000000000000000000000000000081526004016113cc90616e74565b60405180910390fd5b3073ffffffffffffffffffffffffffffffffffffffff16600660009054906101000a900473ffffffffffffffffffffffffffffffffffffffff1673ffffffffffffffffffffffffffffffffffffffff1663570ca7356040518163ffffffff1660e01b815260040160206040518083038186803b15801561145457600080fd5b505afa158015611468573d6000803e3d6000fd5b505050506040513d601f19601f8201168201806040525081019061148c91906160a9565b73ffffffffffffffffffffffffffffffffffffffff1614801561157957503073ffffffffffffffffffffffffffffffffffffffff16600760009054906101000a900473ffffffffffffffffffffffffffffffffffffffff1673ffffffffffffffffffffffffffffffffffffffff1663570ca7356040518163ffffffff1660e01b815260040160206040518083038186803b15801561152957600080fd5b505afa15801561153d573d6000803e3d6000fd5b505050506040513d601f19601f8201168201806040525081019061156191906160a9565b73ffffffffffffffffffffffffffffffffffffffff16145b801561164f57503073ffffffffffffffffffffffffffffffffffffffff16600860009054906101000a900473ffffffffffffffffffffffffffffffffffffffff1673ffffffffffffffffffffffffffffffffffffffff1663570ca7356040518163ffffffff1660e01b815260040160206040518083038186803b1580156115ff57600080fd5b505afa158015611613573d6000803e3d6000fd5b505050506040513d601f19601f8201168201806040525081019061163791906160a9565b73ffffffffffffffffffffffffffffffffffffffff16145b801561172557503073ffffffffffffffffffffffffffffffffffffffff16600960009054906101000a900473ffffffffffffffffffffffffffffffffffffffff1673ffffffffffffffffffffffffffffffffffffffff1663570ca7356040518163ffffffff1660e01b815260040160206040518083038186803b1580156116d557600080fd5b505afa1580156116e9573d6000803e3d6000fd5b505050506040513d601f19601f8201168201806040525081019061170d91906160a9565b73ffffffffffffffffffffffffffffffffffffffff16145b611764576040517f08c379a000000000000000000000000000000000000000000000000000000000815260040161175b90616ad4565b60405180910390fd5b600082116117a7576040517f08c379a000000000000000000000000000000000000000000000000000000000815260040161179e90616ab4565b60405180910390fd5b60006117b1610ddc565b90508181146117f5576040517f08c379a00000000000000000000000000000000000000000000000000000000081526004016117ec90616d54565b60405180910390fd5b600c548111611839576040517f08c379a000000000000000000000000000000000000000000000000000000000815260040161183090616e14565b60405180910390fd5b600061184361122c565b905060008111611888576040517f08c379a000000000000000000000000000000000000000000000000000000000815260040161187f90616a54565b60405180910390fd5b60006118b7670de0b6b3a76400006118a9848861536c90919063ffffffff16565b61538290919063ffffffff16565b905080600660009054906101000a900473ffffffffffffffffffffffffffffffffffffffff1673ffffffffffffffffffffffffffffffffffffffff166370a08231306040518263ffffffff1660e01b8152600401611915919061692a565b60206040518083038186803b15801561192d57600080fd5b505afa158015611941573d6000803e3d6000fd5b505050506040513d601f19601f8201168201806040525081019061196591906162f7565b10156119a6576040517f08c379a000000000000000000000000000000000000000000000000000000000815260040161199d90616bb4565b60405180910390fd5b6119c66119b5600d54836153ae565b600d5461539890919063ffffffff16565b600d81905550600760009054906101000a900473ffffffffffffffffffffffffffffffffffffffff1673ffffffffffffffffffffffffffffffffffffffff166379cc679033876040518363ffffffff1660e01b8152600401611a29929190616997565b600060405180830381600087803b158015611a4357600080fd5b505af1158015611a57573d6000803e3d6000fd5b50505050611aa83382600660009054906101000a900473ffffffffffffffffffffffffffffffffffffffff1673ffffffffffffffffffffffffffffffffffffffff166154a59092919063ffffffff16565b611ab061552b565b3373ffffffffffffffffffffffffffffffffffffffff167f51e0d16595cabc591e64da08e45bb223577e5b9a39cd947b4ddc3472b2dd88788287604051611af8929190616eaf565b60405180910390a2505050600160008043815260200190815260200160002060003273ffffffffffffffffffffffffffffffffffffffff1673ffffffffffffffffffffffffffffffffffffffff16815260200190815260200160002060006101000a81548160ff021916908315150217905550600160008043815260200190815260200160002060003373ffffffffffffffffffffffffffffffffffffffff1673ffffffffffffffffffffffffffffffffffffffff16815260200190815260200160002060006101000a81548160ff0219169083151502179055505050565b3373ffffffffffffffffffffffffffffffffffffffff16600160009054906101000a900473ffffffffffffffffffffffffffffffffffffffff1673ffffffffffffffffffffffffffffffffffffffff1614611c67576040517f08c379a0000000000000000000000000000000000000000000000000000000008152600401611c5e90616d14565b60405180910390fd5b614e20811115611cac576040517f08c379a0000000000000000000000000000000000000000000000000000000008152600401611ca390616bd4565b60405180910390fd5b80601a8190555050565b600160149054906101000a900460ff1681565b600c5481565b60125481565b601a5481565b60195481565b6000600160149054906101000a900460ff16905090565b3373ffffffffffffffffffffffffffffffffffffffff16600160009054906101000a900473ffffffffffffffffffffffffffffffffffffffff1673ffffffffffffffffffffffffffffffffffffffff1614611d88576040517f08c379a0000000000000000000000000000000000000000000000000000000008152600401611d7f90616d14565b60405180910390fd5b600b548110158015611dc25750611dbe6064611db06078600b5461536c90919063ffffffff16565b61538290919063ffffffff16565b8111155b611e01576040517f08c379a0000000000000000000000000000000000000000000000000000000008152600401611df890616b14565b60405180910390fd5b80600c8190555050565b601d5481565b3373ffffffffffffffffffffffffffffffffffffffff16600160009054906101000a900473ffffffffffffffffffffffffffffffffffffffff1673ffffffffffffffffffffffffffffffffffffffff1614611ea1576040517f08c379a0000000000000000000000000000000000000000000000000000000008152600401611e9890616d14565b60405180910390fd5b614e20811115611ee6576040517f08c379a0000000000000000000000000000000000000000000000000000000008152600401611edd90616b94565b60405180910390fd5b80601c8190555050565b600b5481565b602060009054906101000a900473ffffffffffffffffffffffffffffffffffffffff1681565b3373ffffffffffffffffffffffffffffffffffffffff16600160009054906101000a900473ffffffffffffffffffffffffffffffffffffffff1673ffffffffffffffffffffffffffffffffffffffff1614611fac576040517f08c379a0000000000000000000000000000000000000000000000000000000008152600401611fa390616d14565b60405180910390fd5b6127108110158015611fc05750614e208111155b611fff576040517f08c379a0000000000000000000000000000000000000000000000000000000008152600401611ff690616c14565b60405180910390fd5b80601d8190555050565b3373ffffffffffffffffffffffffffffffffffffffff16600160009054906101000a900473ffffffffffffffffffffffffffffffffffffffff1673ffffffffffffffffffffffffffffffffffffffff1614612099576040517f08c379a000000000000000000000000000000000000000000000000000000000815260040161209090616d14565b60405180910390fd5b600660009054906101000a900473ffffffffffffffffffffffffffffffffffffffff1673ffffffffffffffffffffffffffffffffffffffff168373ffffffffffffffffffffffffffffffffffffffff16141561212a576040517f08c379a000000000000000000000000000000000000000000000000000000000815260040161212190616c54565b60405180910390fd5b600760009054906101000a900473ffffffffffffffffffffffffffffffffffffffff1673ffffffffffffffffffffffffffffffffffffffff168373ffffffffffffffffffffffffffffffffffffffff1614156121bb576040517f08c379a00000000000000000000000000000000000000000000000000000000081526004016121b290616a34565b60405180910390fd5b600860009054906101000a900473ffffffffffffffffffffffffffffffffffffffff1673ffffffffffffffffffffffffffffffffffffffff168373ffffffffffffffffffffffffffffffffffffffff16141561224c576040517f08c379a000000000000000000000000000000000000000000000000000000000815260040161224390616cf4565b60405180910390fd5b61227781838573ffffffffffffffffffffffffffffffffffffffff166154a59092919063ffffffff16565b505050565b6122846153dd565b156122c4576040517f08c379a00000000000000000000000000000000000000000000000000000000081526004016122bb90616db4565b60405180910390fd5b6122cc615441565b1561230c576040517f08c379a000000000000000000000000000000000000000000000000000000000815260040161230390616db4565b60405180910390fd5b600254421015612351576040517f08c379a000000000000000000000000000000000000000000000000000000000815260040161234890616e74565b60405180910390fd5b3073ffffffffffffffffffffffffffffffffffffffff16600660009054906101000a900473ffffffffffffffffffffffffffffffffffffffff1673ffffffffffffffffffffffffffffffffffffffff1663570ca7356040518163ffffffff1660e01b815260040160206040518083038186803b1580156123d057600080fd5b505afa1580156123e4573d6000803e3d6000fd5b505050506040513d601f19601f8201168201806040525081019061240891906160a9565b73ffffffffffffffffffffffffffffffffffffffff161480156124f557503073ffffffffffffffffffffffffffffffffffffffff16600760009054906101000a900473ffffffffffffffffffffffffffffffffffffffff1673ffffffffffffffffffffffffffffffffffffffff1663570ca7356040518163ffffffff1660e01b815260040160206040518083038186803b1580156124a557600080fd5b505afa1580156124b9573d6000803e3d6000fd5b505050506040513d601f19601f820116820180604052508101906124dd91906160a9565b73ffffffffffffffffffffffffffffffffffffffff16145b80156125cb57503073ffffffffffffffffffffffffffffffffffffffff16600860009054906101000a900473ffffffffffffffffffffffffffffffffffffffff1673ffffffffffffffffffffffffffffffffffffffff1663570ca7356040518163ffffffff1660e01b815260040160206040518083038186803b15801561257b57600080fd5b505afa15801561258f573d6000803e3d6000fd5b505050506040513d601f19601f820116820180604052508101906125b391906160a9565b73ffffffffffffffffffffffffffffffffffffffff16145b80156126a157503073ffffffffffffffffffffffffffffffffffffffff16600960009054906101000a900473ffffffffffffffffffffffffffffffffffffffff1673ffffffffffffffffffffffffffffffffffffffff1663570ca7356040518163ffffffff1660e01b815260040160206040518083038186803b15801561265157600080fd5b505afa158015612665573d6000803e3d6000fd5b505050506040513d601f19601f8201168201806040525081019061268991906160a9565b73ffffffffffffffffffffffffffffffffffffffff16145b6126e0576040517f08c379a00000000000000000000000000000000000000000000000000000000081526004016126d790616ad4565b60405180910390fd5b60008211612723576040517f08c379a000000000000000000000000000000000000000000000000000000000815260040161271a90616bf4565b60405180910390fd5b600061272d610ddc565b9050818114612771576040517f08c379a000000000000000000000000000000000000000000000000000000000815260040161276890616d54565b60405180910390fd5b600b5481106127b5576040517f08c379a00000000000000000000000000000000000000000000000000000000081526004016127ac90616e14565b60405180910390fd5b6004548311156127fa576040517f08c379a00000000000000000000000000000000000000000000000000000000081526004016127f190616e34565b60405180910390fd5b6000612804611150565b905060008111612849576040517f08c379a000000000000000000000000000000000000000000000000000000000815260040161284090616a54565b60405180910390fd5b6000612878670de0b6b3a764000061286a848861536c90919063ffffffff16565b61538290919063ffffffff16565b90506000612884613b94565b9050600061293a83600760009054906101000a900473ffffffffffffffffffffffffffffffffffffffff1673ffffffffffffffffffffffffffffffffffffffff166318160ddd6040518163ffffffff1660e01b815260040160206040518083038186803b1580156128f457600080fd5b505afa158015612908573d6000803e3d6000fd5b505050506040513d601f19601f8201168201806040525081019061292c91906162f7565b6153c790919063ffffffff16565b90506129656127106129576014548561536c90919063ffffffff16565b61538290919063ffffffff16565b8111156129a7576040517f08c379a000000000000000000000000000000000000000000000000000000000815260040161299e90616d74565b60405180910390fd5b600660009054906101000a900473ffffffffffffffffffffffffffffffffffffffff1673ffffffffffffffffffffffffffffffffffffffff166379cc679033896040518363ffffffff1660e01b8152600401612a04929190616997565b600060405180830381600087803b158015612a1e57600080fd5b505af1158015612a32573d6000803e3d6000fd5b50505050600760009054906101000a900473ffffffffffffffffffffffffffffffffffffffff1673ffffffffffffffffffffffffffffffffffffffff166340c10f1933856040518363ffffffff1660e01b8152600401612a93929190616997565b602060405180830381600087803b158015612aad57600080fd5b505af1158015612ac1573d6000803e3d6000fd5b505050506040513d601f19601f82011682018060405250810190612ae5919061621d565b50612afb8760045461539890919063ffffffff16565b600481905550612b0961552b565b3373ffffffffffffffffffffffffffffffffffffffff167f73017f1b70789e2e66759eeb3c7ec11f59e6eedb55d921cfaec5410dd42a47998885604051612b51929190616eaf565b60405180910390a25050505050600160008043815260200190815260200160002060003273ffffffffffffffffffffffffffffffffffffffff1673ffffffffffffffffffffffffffffffffffffffff16815260200190815260200160002060006101000a81548160ff021916908315150217905550600160008043815260200190815260200160002060003373ffffffffffffffffffffffffffffffffffffffff1673ffffffffffffffffffffffffffffffffffffffff16815260200190815260200160002060006101000a81548160ff0219169083151502179055505050565b601f5481565b600160009054906101000a900473ffffffffffffffffffffffffffffffffffffffff1681565b3373ffffffffffffffffffffffffffffffffffffffff16600160009054906101000a900473ffffffffffffffffffffffffffffffffffffffff1673ffffffffffffffffffffffffffffffffffffffff1614612cee576040517f08c379a0000000000000000000000000000000000000000000000000000000008152600401612ce590616d14565b60405180910390fd5b6103e88110158015612d0257506127108111155b612d41576040517f08c379a0000000000000000000000000000000000000000000000000000000008152600401612d3890616b14565b60405180910390fd5b8060148190555050565b6000600d54905090565b600d5481565b612d636153dd565b15612da3576040517f08c379a0000000000000000000000000000000000000000000000000000000008152600401612d9a90616db4565b60405180910390fd5b612dab615441565b15612deb576040517f08c379a0000000000000000000000000000000000000000000000000000000008152600401612de290616db4565b60405180910390fd5b600254421015612e30576040517f08c379a0000000000000000000000000000000000000000000000000000000008152600401612e2790616e74565b60405180910390fd5b612e38614e37565b421015612e7a576040517f08c379a0000000000000000000000000000000000000000000000000000000008152600401612e7190616b34565b60405180910390fd5b3073ffffffffffffffffffffffffffffffffffffffff16600660009054906101000a900473ffffffffffffffffffffffffffffffffffffffff1673ffffffffffffffffffffffffffffffffffffffff1663570ca7356040518163ffffffff1660e01b815260040160206040518083038186803b158015612ef957600080fd5b505afa158015612f0d573d6000803e3d6000fd5b505050506040513d601f19601f82011682018060405250810190612f3191906160a9565b73ffffffffffffffffffffffffffffffffffffffff1614801561301e57503073ffffffffffffffffffffffffffffffffffffffff16600760009054906101000a900473ffffffffffffffffffffffffffffffffffffffff1673ffffffffffffffffffffffffffffffffffffffff1663570ca7356040518163ffffffff1660e01b815260040160206040518083038186803b158015612fce57600080fd5b505afa158015612fe2573d6000803e3d6000fd5b505050506040513d601f19601f8201168201806040525081019061300691906160a9565b73ffffffffffffffffffffffffffffffffffffffff16145b80156130f457503073ffffffffffffffffffffffffffffffffffffffff16600860009054906101000a900473ffffffffffffffffffffffffffffffffffffffff1673ffffffffffffffffffffffffffffffffffffffff1663570ca7356040518163ffffffff1660e01b815260040160206040518083038186803b1580156130a457600080fd5b505afa1580156130b8573d6000803e3d6000fd5b505050506040513d601f19601f820116820180604052508101906130dc91906160a9565b73ffffffffffffffffffffffffffffffffffffffff16145b80156131ca57503073ffffffffffffffffffffffffffffffffffffffff16600960009054906101000a900473ffffffffffffffffffffffffffffffffffffffff1673ffffffffffffffffffffffffffffffffffffffff1663570ca7356040518163ffffffff1660e01b815260040160206040518083038186803b15801561317a57600080fd5b505afa15801561318e573d6000803e3d6000fd5b505050506040513d601f19601f820116820180604052508101906131b291906160a9565b73ffffffffffffffffffffffffffffffffffffffff16145b613209576040517f08c379a000000000000000000000000000000000000000000000000000000000815260040161320090616ad4565b60405180910390fd5b61321161552b565b613219610ddc565b601781905550600061323d600d5461322f613b94565b61539890919063ffffffff16565b905060155460035410156132815761327c6132776127106132696016548561536c90919063ffffffff16565b61538290919063ffffffff16565b6155b2565b6135b7565b600c5460175411156135b6576000600760009054906101000a900473ffffffffffffffffffffffffffffffffffffffff1673ffffffffffffffffffffffffffffffffffffffff166318160ddd6040518163ffffffff1660e01b815260040160206040518083038186803b1580156132f757600080fd5b505afa15801561330b573d6000803e3d6000fd5b505050506040513d601f19601f8201168201806040525081019061332f91906162f7565b9050600061334a600b5460175461539890919063ffffffff16565b90506000806000613372655af3107a400061336488615ab9565b61536c90919063ffffffff16565b905080841115613380578093505b6133a961271061339b6011548861536c90919063ffffffff16565b61538290919063ffffffff16565b600d54106133e5576133de670de0b6b3a76400006133d0868961536c90919063ffffffff16565b61538290919063ffffffff16565b915061348f565b6000613414670de0b6b3a7640000613406878a61536c90919063ffffffff16565b61538290919063ffffffff16565b905061343f6127106134316012548461536c90919063ffffffff16565b61538290919063ffffffff16565b9250613454838261539890919063ffffffff16565b93506000601d54111561348d5761348a61271061347c601d548761536c90919063ffffffff16565b61538290919063ffffffff16565b93505b505b60008211156134a2576134a1826155b2565b5b60008311156135b0576134c083600d546153c790919063ffffffff16565b600d81905550600660009054906101000a900473ffffffffffffffffffffffffffffffffffffffff1673ffffffffffffffffffffffffffffffffffffffff166340c10f1930856040518363ffffffff1660e01b8152600401613523929190616997565b602060405180830381600087803b15801561353d57600080fd5b505af1158015613551573d6000803e3d6000fd5b505050506040513d601f19601f82011682018060405250810190613575919061621d565b507ff705142bf09f04297640495ddf7c59b7fd6f51894c5aea9602d631cf05f0efc242846040516135a7929190616eaf565b60405180910390a15b50505050505b5b506135ce60016003546153c790919063ffffffff16565b600381905550600c546135df610ddc565b11613619576136146127106136066013546135f8613b94565b61536c90919063ffffffff16565b61538290919063ffffffff16565b61361c565b60005b600481905550600160008043815260200190815260200160002060003273ffffffffffffffffffffffffffffffffffffffff1673ffffffffffffffffffffffffffffffffffffffff16815260200190815260200160002060006101000a81548160ff021916908315150217905550600160008043815260200190815260200160002060003373ffffffffffffffffffffffffffffffffffffffff1673ffffffffffffffffffffffffffffffffffffffff16815260200190815260200160002060006101000a81548160ff021916908315150217905550565b3373ffffffffffffffffffffffffffffffffffffffff16600160009054906101000a900473ffffffffffffffffffffffffffffffffffffffff1673ffffffffffffffffffffffffffffffffffffffff1614613784576040517f08c379a000000000000000000000000000000000000000000000000000000000815260040161377b90616d14565b60405180910390fd5b600960009054906101000a900473ffffffffffffffffffffffffffffffffffffffff1673ffffffffffffffffffffffffffffffffffffffff1663b3ab15fb826040518263ffffffff1660e01b81526004016137df919061692a565b600060405180830381600087803b1580156137f957600080fd5b505af115801561380d573d6000803e3d6000fd5b5050505050565b600960009054906101000a900473ffffffffffffffffffffffffffffffffffffffff1681565b600080613845610ddc565b9050600c54811115613948576000600660009054906101000a900473ffffffffffffffffffffffffffffffffffffffff1673ffffffffffffffffffffffffffffffffffffffff166370a08231306040518263ffffffff1660e01b81526004016138ae919061692a565b60206040518083038186803b1580156138c657600080fd5b505afa1580156138da573d6000803e3d6000fd5b505050506040513d601f19601f820116820180604052508101906138fe91906162f7565b9050600061390a61122c565b905060008111156139455761394281613934670de0b6b3a76400008561536c90919063ffffffff16565b61538290919063ffffffff16565b93505b50505b5090565b3373ffffffffffffffffffffffffffffffffffffffff16600160009054906101000a900473ffffffffffffffffffffffffffffffffffffffff1673ffffffffffffffffffffffffffffffffffffffff16146139dc576040517f08c379a00000000000000000000000000000000000000000000000000000000081526004016139d390616d14565b60405180910390fd5b600960009054906101000a900473ffffffffffffffffffffffffffffffffffffffff1673ffffffffffffffffffffffffffffffffffffffff16632ffaaa0983836040518363ffffffff1660e01b8152600401613a39929190616eaf565b600060405180830381600087803b158015613a5357600080fd5b505af1158015613a67573d6000803e3d6000fd5b505050505050565b3373ffffffffffffffffffffffffffffffffffffffff16600160009054906101000a900473ffffffffffffffffffffffffffffffffffffffff1673ffffffffffffffffffffffffffffffffffffffff1614613aff576040517f08c379a0000000000000000000000000000000000000000000000000000000008152600401613af690616d14565b60405180910390fd5b80600a60006101000a81548173ffffffffffffffffffffffffffffffffffffffff021916908373ffffffffffffffffffffffffffffffffffffffff16021790555050565b60025481565b60115481565b60058181548110613b5f57600080fd5b906000526020600020016000915054906101000a900473ffffffffffffffffffffffffffffffffffffffff1681565b60165481565b600080600660009054906101000a900473ffffffffffffffffffffffffffffffffffffffff16905060008173ffffffffffffffffffffffffffffffffffffffff166318160ddd6040518163ffffffff1660e01b815260040160206040518083038186803b158015613c0457600080fd5b505afa158015613c18573d6000803e3d6000fd5b505050506040513d601f19601f82011682018060405250810190613c3c91906162f7565b90506000805b6005805490508160ff161015613d4157613d2e8473ffffffffffffffffffffffffffffffffffffffff166370a0823160058460ff1681548110613c8857613c87617206565b5b9060005260206000200160009054906101000a900473ffffffffffffffffffffffffffffffffffffffff166040518263ffffffff1660e01b8152600401613ccf919061692a565b60206040518083038186803b158015613ce757600080fd5b505afa158015613cfb573d6000803e3d6000fd5b505050506040513d601f19601f82011682018060405250810190613d1f91906162f7565b836153c790919063ffffffff16565b915080613d3a9061717e565b9050613c42565b50613d55818361539890919063ffffffff16565b935050505090565b3373ffffffffffffffffffffffffffffffffffffffff16600160009054906101000a900473ffffffffffffffffffffffffffffffffffffffff1673ffffffffffffffffffffffffffffffffffffffff1614613ded576040517f08c379a0000000000000000000000000000000000000000000000000000000008152600401613de490616d14565b60405180910390fd5b6101f48110158015613e0157506127108111155b613e40576040517f08c379a0000000000000000000000000000000000000000000000000000000008152600401613e3790616b14565b60405180910390fd5b8060118190555050565b601e60009054906101000a900473ffffffffffffffffffffffffffffffffffffffff1681565b60035481565b3373ffffffffffffffffffffffffffffffffffffffff16600160009054906101000a900473ffffffffffffffffffffffffffffffffffffffff1673ffffffffffffffffffffffffffffffffffffffff1614613f06576040517f08c379a0000000000000000000000000000000000000000000000000000000008152600401613efd90616d14565b60405180910390fd5b6078821115613f4a576040517f08c379a0000000000000000000000000000000000000000000000000000000008152600401613f4190616df4565b60405180910390fd5b60648110158015613f5d57506103e88111155b613f9c576040517f08c379a0000000000000000000000000000000000000000000000000000000008152600401613f9390616e54565b60405180910390fd5b81601581905550806016819055505050565b60003373ffffffffffffffffffffffffffffffffffffffff16600160009054906101000a900473ffffffffffffffffffffffffffffffffffffffff1673ffffffffffffffffffffffffffffffffffffffff1614614040576040517f08c379a000000000000000000000000000000000000000000000000000000000815260040161403790616d14565b60405180910390fd5b60008360ff161015614087576040517f08c379a000000000000000000000000000000000000000000000000000000000815260040161407e90616cd4565b60405180910390fd5b60098360ff16106140cd576040517f08c379a00000000000000000000000000000000000000000000000000000000081526004016140c490616c94565b60405180910390fd5b60008360ff16111561411357600e6001846140e89190617056565b60ff16815481106140fc576140fb617206565b5b9060005260206000200154821161411257600080fd5b5b60088360ff16101561415957600e60018461412e9190616f60565b60ff168154811061414257614141617206565b5b9060005260206000200154821061415857600080fd5b5b81600e8460ff168154811061417157614170617206565b5b90600052602060002001819055506001905092915050565b3373ffffffffffffffffffffffffffffffffffffffff16600160009054906101000a900473ffffffffffffffffffffffffffffffffffffffff1673ffffffffffffffffffffffffffffffffffffffff1614614219576040517f08c379a000000000000000000000000000000000000000000000000000000000815260040161421090616d14565b60405180910390fd5b600960009054906101000a900473ffffffffffffffffffffffffffffffffffffffff1673ffffffffffffffffffffffffffffffffffffffff166354575af48484846040518463ffffffff1660e01b8152600401614278939291906169c0565b600060405180830381600087803b15801561429257600080fd5b505af11580156142a6573d6000803e3d6000fd5b50505050505050565b600160149054906101000a900460ff16156142ff576040517f08c379a00000000000000000000000000000000000000000000000000000000081526004016142f690616c74565b60405180910390fd5b85600660006101000a81548173ffffffffffffffffffffffffffffffffffffffff021916908373ffffffffffffffffffffffffffffffffffffffff16021790555084600760006101000a81548173ffffffffffffffffffffffffffffffffffffffff021916908373ffffffffffffffffffffffffffffffffffffffff16021790555083600860006101000a81548173ffffffffffffffffffffffffffffffffffffffff021916908373ffffffffffffffffffffffffffffffffffffffff16021790555082600a60006101000a81548173ffffffffffffffffffffffffffffffffffffffff021916908373ffffffffffffffffffffffffffffffffffffffff16021790555081600960006101000a81548173ffffffffffffffffffffffffffffffffffffffff021916908373ffffffffffffffffffffffffffffffffffffffff16021790555080600281905550670de0b6b3a7640000600b8190555061448360646144756065600b5461536c90919063ffffffff16565b61538290919063ffffffff16565b600c8190555060405180610120016040528060006affffffffffffffffffffff1681526020016969e10de76676d08000006affffffffffffffffffffff16815260200169d3c21bcecceda10000006affffffffffffffffffffff1681526020016a013da329b63364718000006affffffffffffffffffffff1681526020016a01a784379d99db420000006affffffffffffffffffffff1681526020016a0422ca8b0a00a4250000006affffffffffffffffffffff1681526020016a084595161401484a0000006affffffffffffffffffffff1681526020016a108b2a2c280290940000006affffffffffffffffffffff1681526020016a295be96e640669720000006affffffffffffffffffffff16815250600e9060096145a5929190615f08565b506040518061012001604052806101c261ffff16815260200161019061ffff16815260200161015e61ffff16815260200161012c61ffff16815260200160fa61ffff16815260200160c861ffff168152602001609661ffff168152602001607d61ffff168152602001606461ffff16815250600f906009614627929190615f64565b50610190601081905550612710601181905550610dac60128190555061012c601381905550610dac601481905550606e601b81905550611b58601c81905550601c6015819055506101c2601681905550600660009054906101000a900473ffffffffffffffffffffffffffffffffffffffff1673ffffffffffffffffffffffffffffffffffffffff166370a08231306040518263ffffffff1660e01b81526004016146d2919061692a565b60206040518083038186803b1580156146ea57600080fd5b505afa1580156146fe573d6000803e3d6000fd5b505050506040513d601f19601f8201168201806040525081019061472291906162f7565b600d8190555060018060146101000a81548160ff02191690831515021790555033600160006101000a81548173ffffffffffffffffffffffffffffffffffffffff021916908373ffffffffffffffffffffffffffffffffffffffff1602179055503373ffffffffffffffffffffffffffffffffffffffff167f25ff68dd81b34665b5ba7e553ee5511bf6812e12adb4a7e2c0d9e26b3099ce79436040516147c99190616e94565b60405180910390a2505050505050565b3373ffffffffffffffffffffffffffffffffffffffff16600160009054906101000a900473ffffffffffffffffffffffffffffffffffffffff1673ffffffffffffffffffffffffffffffffffffffff1614614869576040517f08c379a000000000000000000000000000000000000000000000000000000000815260040161486090616d14565b60405180910390fd5b8060188190555050565b600e818154811061488357600080fd5b906000526020600020016000915090505481565b600f81815481106148a757600080fd5b906000526020600020016000915090505481565b3373ffffffffffffffffffffffffffffffffffffffff16600160009054906101000a900473ffffffffffffffffffffffffffffffffffffffff1673ffffffffffffffffffffffffffffffffffffffff161461494b576040517f08c379a000000000000000000000000000000000000000000000000000000000815260040161494290616d14565b60405180910390fd5b8060198190555050565b60175481565b3373ffffffffffffffffffffffffffffffffffffffff16600160009054906101000a900473ffffffffffffffffffffffffffffffffffffffff1673ffffffffffffffffffffffffffffffffffffffff16146149eb576040517f08c379a00000000000000000000000000000000000000000000000000000000081526004016149e290616d14565b60405180910390fd5b80600160006101000a81548173ffffffffffffffffffffffffffffffffffffffff021916908373ffffffffffffffffffffffffffffffffffffffff16021790555050565b61546081565b60185481565b600760009054906101000a900473ffffffffffffffffffffffffffffffffffffffff1681565b3373ffffffffffffffffffffffffffffffffffffffff16600160009054906101000a900473ffffffffffffffffffffffffffffffffffffffff1673ffffffffffffffffffffffffffffffffffffffff1614614af1576040517f08c379a0000000000000000000000000000000000000000000000000000000008152600401614ae890616d14565b60405180910390fd5b600073ffffffffffffffffffffffffffffffffffffffff168473ffffffffffffffffffffffffffffffffffffffff161415614b61576040517f08c379a0000000000000000000000000000000000000000000000000000000008152600401614b5890616a94565b60405180910390fd5b610bb8831115614ba6576040517f08c379a0000000000000000000000000000000000000000000000000000000008152600401614b9d90616b14565b60405180910390fd5b600073ffffffffffffffffffffffffffffffffffffffff168273ffffffffffffffffffffffffffffffffffffffff161415614c16576040517f08c379a0000000000000000000000000000000000000000000000000000000008152600401614c0d90616a94565b60405180910390fd5b6103e8811115614c5b576040517f08c379a0000000000000000000000000000000000000000000000000000000008152600401614c5290616b14565b60405180910390fd5b83601e60006101000a81548173ffffffffffffffffffffffffffffffffffffffff021916908373ffffffffffffffffffffffffffffffffffffffff16021790555082601f8190555081602060006101000a81548173ffffffffffffffffffffffffffffffffffffffff021916908373ffffffffffffffffffffffffffffffffffffffff1602179055508060218190555050505050565b3373ffffffffffffffffffffffffffffffffffffffff16600160009054906101000a900473ffffffffffffffffffffffffffffffffffffffff1673ffffffffffffffffffffffffffffffffffffffff1614614d81576040517f08c379a0000000000000000000000000000000000000000000000000000000008152600401614d7890616d14565b60405180910390fd5b600960009054906101000a900473ffffffffffffffffffffffffffffffffffffffff1673ffffffffffffffffffffffffffffffffffffffff166397ffe1d7826040518263ffffffff1660e01b8152600401614ddc9190616e94565b600060405180830381600087803b158015614df657600080fd5b505af1158015614e0a573d6000803e3d6000fd5b5050505050565b600660009054906101000a900473ffffffffffffffffffffffffffffffffffffffff1681565b6000614e64614e5361546060035461536c90919063ffffffff16565b6002546153c790919063ffffffff16565b905090565b6000600a60009054906101000a900473ffffffffffffffffffffffffffffffffffffffff1673ffffffffffffffffffffffffffffffffffffffff16636808a128600660009054906101000a900473ffffffffffffffffffffffffffffffffffffffff16670de0b6b3a76400006040518363ffffffff1660e01b8152600401614ef292919061696e565b60206040518083038186803b158015614f0a57600080fd5b505afa925050508015614f3b57506040513d601f19601f82011682018060405250810190614f38919061629d565b60015b614f7a576040517f08c379a0000000000000000000000000000000000000000000000000000000008152600401614f7190616af4565b60405180910390fd5b8071ffffffffffffffffffffffffffffffffffff1691505090565b601c5481565b601b5481565b3373ffffffffffffffffffffffffffffffffffffffff16600160009054906101000a900473ffffffffffffffffffffffffffffffffffffffff1673ffffffffffffffffffffffffffffffffffffffff1614615031576040517f08c379a000000000000000000000000000000000000000000000000000000000815260040161502890616d14565b60405180910390fd5b6064811015801561504457506105dc8111155b615083576040517f08c379a000000000000000000000000000000000000000000000000000000000815260040161507a90616b14565b60405180910390fd5b8060138190555050565b60003373ffffffffffffffffffffffffffffffffffffffff16600160009054906101000a900473ffffffffffffffffffffffffffffffffffffffff1673ffffffffffffffffffffffffffffffffffffffff161461511f576040517f08c379a000000000000000000000000000000000000000000000000000000000815260040161511690616d14565b60405180910390fd5b60008360ff161015615166576040517f08c379a000000000000000000000000000000000000000000000000000000000815260040161515d90616cd4565b60405180910390fd5b60098360ff16106151ac576040517f08c379a00000000000000000000000000000000000000000000000000000000081526004016151a390616c94565b60405180910390fd5b600a82101580156151bf57506103e88211155b6151fe576040517f08c379a00000000000000000000000000000000000000000000000000000000081526004016151f590616cb4565b60405180910390fd5b81600f8460ff168154811061521657615215617206565b5b90600052602060002001819055506001905092915050565b3373ffffffffffffffffffffffffffffffffffffffff16600160009054906101000a900473ffffffffffffffffffffffffffffffffffffffff1673ffffffffffffffffffffffffffffffffffffffff16146152be576040517f08c379a00000000000000000000000000000000000000000000000000000000081526004016152b590616d14565b60405180910390fd5b80600960006101000a81548173ffffffffffffffffffffffffffffffffffffffff021916908373ffffffffffffffffffffffffffffffffffffffff16021790555050565b60105481565b60145481565b60135481565b600860009054906101000a900473ffffffffffffffffffffffffffffffffffffffff1681565b60155481565b600a60009054906101000a900473ffffffffffffffffffffffffffffffffffffffff1681565b60045481565b6000818361537a9190616fc8565b905092915050565b600081836153909190616f97565b905092915050565b600081836153a69190617022565b905092915050565b60008183106153bd57816153bf565b825b905092915050565b600081836153d59190616f0a565b905092915050565b600080600043815260200190815260200160002060003273ffffffffffffffffffffffffffffffffffffffff1673ffffffffffffffffffffffffffffffffffffffff16815260200190815260200160002060009054906101000a900460ff16905090565b600080600043815260200190815260200160002060003373ffffffffffffffffffffffffffffffffffffffff1673ffffffffffffffffffffffffffffffffffffffff16815260200190815260200160002060009054906101000a900460ff16905090565b6155268363a9059cbb60e01b84846040516024016154c4929190616997565b604051602081830303815290604052907bffffffffffffffffffffffffffffffffffffffffffffffffffffffff19166020820180517bffffffffffffffffffffffffffffffffffffffffffffffffffffffff8381831617835250505050615b3d565b505050565b600a60009054906101000a900473ffffffffffffffffffffffffffffffffffffffff1673ffffffffffffffffffffffffffffffffffffffff1663a2e620456040518163ffffffff1660e01b8152600401600060405180830381600087803b15801561559557600080fd5b505af19250505080156155a6575060015b6155af576155b0565b5b565b600660009054906101000a900473ffffffffffffffffffffffffffffffffffffffff1673ffffffffffffffffffffffffffffffffffffffff166340c10f1930836040518363ffffffff1660e01b815260040161560f929190616997565b602060405180830381600087803b15801561562957600080fd5b505af115801561563d573d6000803e3d6000fd5b505050506040513d601f19601f82011682018060405250810190615661919061621d565b50600080601f5411156157a557615697612710615689601f548561536c90919063ffffffff16565b61538290919063ffffffff16565b9050600660009054906101000a900473ffffffffffffffffffffffffffffffffffffffff1673ffffffffffffffffffffffffffffffffffffffff1663a9059cbb601e60009054906101000a900473ffffffffffffffffffffffffffffffffffffffff16836040518363ffffffff1660e01b8152600401615718929190616997565b602060405180830381600087803b15801561573257600080fd5b505af1158015615746573d6000803e3d6000fd5b505050506040513d601f19601f8201168201806040525081019061576a919061621d565b507fcb3f34aaa3445b461e6da5492dc89e5c257a59fa598131f3b6bbc97a3638e409428260405161579c929190616eaf565b60405180910390a15b60008060215411156158e8576157da6127106157cc6021548661536c90919063ffffffff16565b61538290919063ffffffff16565b9050600660009054906101000a900473ffffffffffffffffffffffffffffffffffffffff1673ffffffffffffffffffffffffffffffffffffffff1663a9059cbb602060009054906101000a900473ffffffffffffffffffffffffffffffffffffffff16836040518363ffffffff1660e01b815260040161585b929190616997565b602060405180830381600087803b15801561587557600080fd5b505af1158015615889573d6000803e3d6000fd5b505050506040513d601f19601f820116820180604052508101906158ad919061621d565b507fdc8b715b18523e58b7fd0da53259dfa91efd91df4a854d94b136e3333a3b939542826040516158df929190616eaf565b60405180910390a15b61590d816158ff848661539890919063ffffffff16565b61539890919063ffffffff16565b925061597f600960009054906101000a900473ffffffffffffffffffffffffffffffffffffffff166000600660009054906101000a900473ffffffffffffffffffffffffffffffffffffffff1673ffffffffffffffffffffffffffffffffffffffff16615c049092919063ffffffff16565b6159ee600960009054906101000a900473ffffffffffffffffffffffffffffffffffffffff1684600660009054906101000a900473ffffffffffffffffffffffffffffffffffffffff1673ffffffffffffffffffffffffffffffffffffffff16615c049092919063ffffffff16565b600960009054906101000a900473ffffffffffffffffffffffffffffffffffffffff1673ffffffffffffffffffffffffffffffffffffffff166397ffe1d7846040518263ffffffff1660e01b8152600401615a499190616e94565b600060405180830381600087803b158015615a6357600080fd5b505af1158015615a77573d6000803e3d6000fd5b505050507fa72fa2f263b243b0f0e1fec5f3d49d33de573d15929b6b730c6b8ab3838c1c4d4284604051615aac929190616eaf565b60405180910390a1505050565b600080600890505b60008160ff1610615b3257600e8160ff1681548110615ae357615ae2617206565b5b90600052602060002001548310615b2157600f8160ff1681548110615b0b57615b0a617206565b5b9060005260206000200154601081905550615b32565b80615b2b90617154565b9050615ac1565b506010549050919050565b6000615b9f826040518060400160405280602081526020017f5361666545524332303a206c6f772d6c6576656c2063616c6c206661696c65648152508573ffffffffffffffffffffffffffffffffffffffff16615d629092919063ffffffff16565b9050600081511115615bff5780806020019051810190615bbf919061621d565b615bfe576040517f08c379a0000000000000000000000000000000000000000000000000000000008152600401615bf590616d94565b60405180910390fd5b5b505050565b6000811480615c9d575060008373ffffffffffffffffffffffffffffffffffffffff1663dd62ed3e30856040518363ffffffff1660e01b8152600401615c4b929190616945565b60206040518083038186803b158015615c6357600080fd5b505afa158015615c77573d6000803e3d6000fd5b505050506040513d601f19601f82011682018060405250810190615c9b91906162f7565b145b615cdc576040517f08c379a0000000000000000000000000000000000000000000000000000000008152600401615cd390616dd4565b60405180910390fd5b615d5d8363095ea7b360e01b8484604051602401615cfb929190616997565b604051602081830303815290604052907bffffffffffffffffffffffffffffffffffffffffffffffffffffffff19166020820180517bffffffffffffffffffffffffffffffffffffffffffffffffffffffff8381831617835250505050615b3d565b505050565b6060615d718484600085615d7a565b90509392505050565b606082471015615dbf576040517f08c379a0000000000000000000000000000000000000000000000000000000008152600401615db690616b74565b60405180910390fd5b615dc885615e8e565b615e07576040517f08c379a0000000000000000000000000000000000000000000000000000000008152600401615dfe90616d34565b60405180910390fd5b6000808673ffffffffffffffffffffffffffffffffffffffff168587604051615e309190616913565b60006040518083038185875af1925050503d8060008114615e6d576040519150601f19603f3d011682016040523d82523d6000602084013e615e72565b606091505b5091509150615e82828286615ea1565b92505050949350505050565b600080823b905060008111915050919050565b60608315615eb157829050615f01565b600083511115615ec45782518084602001fd5b816040517f08c379a0000000000000000000000000000000000000000000000000000000008152600401615ef89190616a12565b60405180910390fd5b9392505050565b828054828255906000526020600020908101928215615f53579160200282015b82811115615f5257825182906affffffffffffffffffffff16905591602001919060010190615f28565b5b509050615f609190615fb7565b5090565b828054828255906000526020600020908101928215615fa6579160200282015b82811115615fa5578251829061ffff16905591602001919060010190615f84565b5b509050615fb39190615fb7565b5090565b5b80821115615fd0576000816000905550600101615fb8565b5090565b600081359050615fe381617a6c565b92915050565b600081519050615ff881617a6c565b92915050565b60008151905061600d81617a83565b92915050565b60008135905061602281617a9a565b92915050565b60008151905061603781617ab1565b92915050565b60008135905061604c81617ac8565b92915050565b60008151905061606181617ac8565b92915050565b60008135905061607681617adf565b92915050565b60006020828403121561609257616091617235565b5b60006160a084828501615fd4565b91505092915050565b6000602082840312156160bf576160be617235565b5b60006160cd84828501615fe9565b91505092915050565b60008060008060008060c087890312156160f3576160f2617235565b5b600061610189828a01615fd4565b965050602061611289828a01615fd4565b955050604061612389828a01615fd4565b945050606061613489828a01615fd4565b935050608061614589828a01615fd4565b92505060a061615689828a0161603d565b9150509295509295509295565b60008060006060848603121561617c5761617b617235565b5b600061618a86828701615fd4565b935050602061619b8682870161603d565b92505060406161ac86828701615fd4565b9150509250925092565b600080600080608085870312156161d0576161cf617235565b5b60006161de87828801615fd4565b94505060206161ef8782880161603d565b935050604061620087828801615fd4565b92505060606162118782880161603d565b91505092959194509250565b60006020828403121561623357616232617235565b5b600061624184828501615ffe565b91505092915050565b60008060006060848603121561626357616262617235565b5b600061627186828701616013565b93505060206162828682870161603d565b925050604061629386828701615fd4565b9150509250925092565b6000602082840312156162b3576162b2617235565b5b60006162c184828501616028565b91505092915050565b6000602082840312156162e0576162df617235565b5b60006162ee8482850161603d565b91505092915050565b60006020828403121561630d5761630c617235565b5b600061631b84828501616052565b91505092915050565b6000806040838503121561633b5761633a617235565b5b60006163498582860161603d565b925050602061635a8582860161603d565b9150509250929050565b6000806040838503121561637b5761637a617235565b5b600061638985828601616067565b925050602061639a8582860161603d565b9150509250929050565b6163ad8161708a565b82525050565b6163bc8161709c565b82525050565b60006163cd82616ed8565b6163d78185616eee565b93506163e7818560208601617121565b80840191505092915050565b6163fc8161710f565b82525050565b600061640d82616ee3565b6164178185616ef9565b9350616427818560208601617121565b6164308161723a565b840191505092915050565b6000616448600483616ef9565b91506164538261724b565b602082019050919050565b600061646b601b83616ef9565b915061647682617274565b602082019050919050565b600061648e602a83616ef9565b91506164998261729d565b604082019050919050565b60006164b1600483616ef9565b91506164bc826172ec565b602082019050919050565b60006164d4602e83616ef9565b91506164df82617315565b604082019050919050565b60006164f7601e83616ef9565b915061650282617364565b602082019050919050565b600061651a603683616ef9565b91506165258261738d565b604082019050919050565b600061653d600c83616ef9565b9150616548826173dc565b602082019050919050565b6000616560601883616ef9565b915061656b82617405565b602082019050919050565b6000616583602483616ef9565b915061658e8261742e565b604082019050919050565b60006165a6602683616ef9565b91506165b18261747d565b604082019050919050565b60006165c9601c83616ef9565b91506165d4826174cc565b602082019050919050565b60006165ec602583616ef9565b91506165f7826174f5565b604082019050919050565b600061660f601d83616ef9565b915061661a82617544565b602082019050919050565b6000616632603083616ef9565b915061663d8261756d565b604082019050919050565b6000616655602983616ef9565b9150616660826175bc565b604082019050919050565b6000616678602883616ef9565b91506166838261760b565b604082019050919050565b600061669b600483616ef9565b91506166a68261765a565b602082019050919050565b60006166be601d83616ef9565b91506166c982617683565b602082019050919050565b60006166e1602983616ef9565b91506166ec826176ac565b604082019050919050565b6000616704601483616ef9565b915061670f826176fb565b602082019050919050565b6000616727601d83616ef9565b915061673282617724565b602082019050919050565b600061674a600583616ef9565b91506167558261774d565b602082019050919050565b600061676d602483616ef9565b915061677882617776565b604082019050919050565b6000616790601d83616ef9565b915061679b826177c5565b602082019050919050565b60006167b3601a83616ef9565b91506167be826177ee565b602082019050919050565b60006167d6601383616ef9565b91506167e182617817565b602082019050919050565b60006167f9602a83616ef9565b915061680482617840565b604082019050919050565b600061681c602683616ef9565b91506168278261788f565b604082019050919050565b600061683f603683616ef9565b915061684a826178de565b604082019050919050565b6000616862601e83616ef9565b915061686d8261792d565b602082019050919050565b6000616885603283616ef9565b915061689082617956565b604082019050919050565b60006168a8602a83616ef9565b91506168b3826179a5565b604082019050919050565b60006168cb602e83616ef9565b91506168d6826179f4565b604082019050919050565b60006168ee601983616ef9565b91506168f982617a43565b602082019050919050565b61690d816170f8565b82525050565b600061691f82846163c2565b915081905092915050565b600060208201905061693f60008301846163a4565b92915050565b600060408201905061695a60008301856163a4565b61696760208301846163a4565b9392505050565b600060408201905061698360008301856163a4565b61699060208301846163f3565b9392505050565b60006040820190506169ac60008301856163a4565b6169b96020830184616904565b9392505050565b60006060820190506169d560008301866163a4565b6169e26020830185616904565b6169ef60408301846163a4565b949350505050565b6000602082019050616a0c60008301846163b3565b92915050565b60006020820190508181036000830152616a2c8184616402565b905092915050565b60006020820190508181036000830152616a4d8161643b565b9050919050565b60006020820190508181036000830152616a6d8161645e565b9050919050565b60006020820190508181036000830152616a8d81616481565b9050919050565b60006020820190508181036000830152616aad816164a4565b9050919050565b60006020820190508181036000830152616acd816164c7565b9050919050565b60006020820190508181036000830152616aed816164ea565b9050919050565b60006020820190508181036000830152616b0d8161650d565b9050919050565b60006020820190508181036000830152616b2d81616530565b9050919050565b60006020820190508181036000830152616b4d81616553565b9050919050565b60006020820190508181036000830152616b6d81616576565b9050919050565b60006020820190508181036000830152616b8d81616599565b9050919050565b60006020820190508181036000830152616bad816165bc565b9050919050565b60006020820190508181036000830152616bcd816165df565b9050919050565b60006020820190508181036000830152616bed81616602565b9050919050565b60006020820190508181036000830152616c0d81616625565b9050919050565b60006020820190508181036000830152616c2d81616648565b9050919050565b60006020820190508181036000830152616c4d8161666b565b9050919050565b60006020820190508181036000830152616c6d8161668e565b9050919050565b60006020820190508181036000830152616c8d816166b1565b9050919050565b60006020820190508181036000830152616cad816166d4565b9050919050565b60006020820190508181036000830152616ccd816166f7565b9050919050565b60006020820190508181036000830152616ced8161671a565b9050919050565b60006020820190508181036000830152616d0d8161673d565b9050919050565b60006020820190508181036000830152616d2d81616760565b9050919050565b60006020820190508181036000830152616d4d81616783565b9050919050565b60006020820190508181036000830152616d6d816167a6565b9050919050565b60006020820190508181036000830152616d8d816167c9565b9050919050565b60006020820190508181036000830152616dad816167ec565b9050919050565b60006020820190508181036000830152616dcd8161680f565b9050919050565b60006020820190508181036000830152616ded81616832565b9050919050565b60006020820190508181036000830152616e0d81616855565b9050919050565b60006020820190508181036000830152616e2d81616878565b9050919050565b60006020820190508181036000830152616e4d8161689b565b9050919050565b60006020820190508181036000830152616e6d816168be565b9050919050565b60006020820190508181036000830152616e8d816168e1565b9050919050565b6000602082019050616ea96000830184616904565b92915050565b6000604082019050616ec46000830185616904565b616ed16020830184616904565b9392505050565b600081519050919050565b600081519050919050565b600081905092915050565b600082825260208201905092915050565b6000616f15826170f8565b9150616f20836170f8565b9250827fffffffffffffffffffffffffffffffffffffffffffffffffffffffffffffffff03821115616f5557616f546171a8565b5b828201905092915050565b6000616f6b82617102565b9150616f7683617102565b92508260ff03821115616f8c57616f8b6171a8565b5b828201905092915050565b6000616fa2826170f8565b9150616fad836170f8565b925082616fbd57616fbc6171d7565b5b828204905092915050565b6000616fd3826170f8565b9150616fde836170f8565b9250817fffffffffffffffffffffffffffffffffffffffffffffffffffffffffffffffff0483118215151615617017576170166171a8565b5b828202905092915050565b600061702d826170f8565b9150617038836170f8565b92508282101561704b5761704a6171a8565b5b828203905092915050565b600061706182617102565b915061706c83617102565b92508282101561707f5761707e6171a8565b5b828203905092915050565b6000617095826170d8565b9050919050565b60008115159050919050565b60006170b38261708a565b9050919050565b600071ffffffffffffffffffffffffffffffffffff82169050919050565b600073ffffffffffffffffffffffffffffffffffffffff82169050919050565b6000819050919050565b600060ff82169050919050565b600061711a826170f8565b9050919050565b60005b8381101561713f578082015181840152602081019050617124565b8381111561714e576000848401525b50505050565b600061715f82617102565b91506000821415617173576171726171a8565b5b600182039050919050565b600061718982617102565b915060ff82141561719d5761719c6171a8565b5b600182019050919050565b7f4e487b7100000000000000000000000000000000000000000000000000000000600052601160045260246000fd5b7f4e487b7100000000000000000000000000000000000000000000000000000000600052601260045260246000fd5b7f4e487b7100000000000000000000000000000000000000000000000000000000600052603260045260246000fd5b600080fd5b6000601f19601f8301169050919050565b7f626f6e6400000000000000000000000000000000000000000000000000000000600082015250565b7f54726561737572793a20696e76616c696420626f6e6420726174650000000000600082015250565b7f5f7072656d69756d5468726573686f6c64206578636565647320746f6d62507260008201527f6963654365696c696e6700000000000000000000000000000000000000000000602082015250565b7f7a65726f00000000000000000000000000000000000000000000000000000000600082015250565b7f54726561737572793a2063616e6e6f742072656465656d20626f6e647320776960008201527f7468207a65726f20616d6f756e74000000000000000000000000000000000000602082015250565b7f54726561737572793a206e656564206d6f7265207065726d697373696f6e0000600082015250565b7f54726561737572793a206661696c656420746f20636f6e73756c7420544f4d4260008201527f2070726963652066726f6d20746865206f7261636c6500000000000000000000602082015250565b7f6f7574206f662072616e67650000000000000000000000000000000000000000600082015250565b7f54726561737572793a206e6f74206f70656e6564207965740000000000000000600082015250565b7f5f7072656d69756d5468726573686f6c6420697320686967686572207468616e60008201527f20312e3500000000000000000000000000000000000000000000000000000000602082015250565b7f416464726573733a20696e73756666696369656e742062616c616e636520666f60008201527f722063616c6c0000000000000000000000000000000000000000000000000000602082015250565b7f5f7072656d69756d50657263656e74206973206f766572203230302500000000600082015250565b7f54726561737572793a20747265617375727920686173206e6f206d6f7265206260008201527f7564676574000000000000000000000000000000000000000000000000000000602082015250565b7f5f646973636f756e7450657263656e74206973206f7665722032303025000000600082015250565b7f54726561737572793a2063616e6e6f7420707572636861736520626f6e64732060008201527f77697468207a65726f20616d6f756e7400000000000000000000000000000000602082015250565b7f5f6d696e74696e67466163746f72466f72506179696e67446562743a206f757460008201527f206f662072616e67650000000000000000000000000000000000000000000000602082015250565b7f5f6d6178537570706c79457870616e73696f6e50657263656e743a206f75742060008201527f6f662072616e6765000000000000000000000000000000000000000000000000602082015250565b7f746f6d6200000000000000000000000000000000000000000000000000000000600082015250565b7f54726561737572793a20616c726561647920696e697469616c697a6564000000600082015250565b7f496e6465782068617320746f206265206c6f776572207468616e20636f756e7460008201527f206f662074696572730000000000000000000000000000000000000000000000602082015250565b7f5f76616c75653a206f7574206f662072616e6765000000000000000000000000600082015250565b7f496e6465782068617320746f20626520686967686572207468616e2030000000600082015250565b7f7368617265000000000000000000000000000000000000000000000000000000600082015250565b7f54726561737572793a2063616c6c6572206973206e6f7420746865206f70657260008201527f61746f7200000000000000000000000000000000000000000000000000000000602082015250565b7f416464726573733a2063616c6c20746f206e6f6e2d636f6e7472616374000000600082015250565b7f54726561737572793a20544f4d42207072696365206d6f766564000000000000600082015250565b7f6f766572206d6178206465627420726174696f00000000000000000000000000600082015250565b7f5361666545524332303a204552433230206f7065726174696f6e20646964206e60008201527f6f74207375636365656400000000000000000000000000000000000000000000602082015250565b7f436f6e747261637447756172643a206f6e6520626c6f636b2c206f6e6520667560008201527f6e6374696f6e0000000000000000000000000000000000000000000000000000602082015250565b7f5361666545524332303a20617070726f76652066726f6d206e6f6e2d7a65726f60008201527f20746f206e6f6e2d7a65726f20616c6c6f77616e636500000000000000000000602082015250565b7f5f626f6f74737472617045706f6368733a206f7574206f662072616e67650000600082015250565b7f54726561737572793a20746f6d625072696365206e6f7420656c696769626c6560008201527f20666f7220626f6e642070757263686173650000000000000000000000000000602082015250565b7f54726561737572793a206e6f7420656e6f75676820626f6e64206c656674207460008201527f6f20707572636861736500000000000000000000000000000000000000000000602082015250565b7f5f626f6f747374726170537570706c79457870616e73696f6e50657263656e7460008201527f3a206f7574206f662072616e6765000000000000000000000000000000000000602082015250565b7f54726561737572793a206e6f7420737461727465642079657400000000000000600082015250565b617a758161708a565b8114617a8057600080fd5b50565b617a8c8161709c565b8114617a9757600080fd5b50565b617aa3816170a8565b8114617aae57600080fd5b50565b617aba816170ba565b8114617ac557600080fd5b50565b617ad1816170f8565b8114617adc57600080fd5b50565b617ae881617102565b8114617af357600080fd5b5056fea264697066735822122061385edf339900edc54a7f38a2147a1a406a9686c27d2f33ecf3da6f2ce41fc364736f6c63430008070033",
			"opcodes": "PUSH1 0x80 PUSH1 0x40 MSTORE PUSH1 0x0 PUSH1 0x1 PUSH1 0x14 PUSH2 0x100 EXP DUP2 SLOAD DUP2 PUSH1 0xFF MUL NOT AND SWAP1 DUP4 ISZERO ISZERO MUL OR SWAP1 SSTORE POP PUSH1 0x0 PUSH1 0x3 SSTORE PUSH1 0x0 PUSH1 0x4 SSTORE PUSH1 0x40 MLOAD DUP1 PUSH1 0x60 ADD PUSH1 0x40 MSTORE DUP1 PUSH20 0x9A896D3C54D7E45B558BD5FFF26BF1E8C031F93B PUSH20 0xFFFFFFFFFFFFFFFFFFFFFFFFFFFFFFFFFFFFFFFF AND PUSH20 0xFFFFFFFFFFFFFFFFFFFFFFFFFFFFFFFFFFFFFFFF AND DUP2 MSTORE PUSH1 0x20 ADD PUSH20 0xA7B9123F4B15FE0FF01F469FF5EAB2B41296DC0E PUSH20 0xFFFFFFFFFFFFFFFFFFFFFFFFFFFFFFFFFFFFFFFF AND PUSH20 0xFFFFFFFFFFFFFFFFFFFFFFFFFFFFFFFFFFFFFFFF AND DUP2 MSTORE PUSH1 0x20 ADD PUSH20 0xA7B16703470055881E7EE093E9B0BF537F29CD4D PUSH20 0xFFFFFFFFFFFFFFFFFFFFFFFFFFFFFFFFFFFFFFFF AND PUSH20 0xFFFFFFFFFFFFFFFFFFFFFFFFFFFFFFFFFFFFFFFF AND DUP2 MSTORE POP PUSH1 0x5 SWAP1 PUSH1 0x3 PUSH3 0x116 SWAP3 SWAP2 SWAP1 PUSH3 0x12B JUMP JUMPDEST POP CALLVALUE DUP1 ISZERO PUSH3 0x124 JUMPI PUSH1 0x0 DUP1 REVERT JUMPDEST POP PUSH3 0x1D9 JUMP JUMPDEST DUP3 DUP1 SLOAD DUP3 DUP3 SSTORE SWAP1 PUSH1 0x0 MSTORE PUSH1 0x20 PUSH1 0x0 KECCAK256 SWAP1 DUP2 ADD SWAP3 DUP3 ISZERO PUSH3 0x1A7 JUMPI SWAP2 PUSH1 0x20 MUL DUP3 ADD JUMPDEST DUP3 DUP2 GT ISZERO PUSH3 0x1A6 JUMPI DUP3 MLOAD DUP3 PUSH1 0x0 PUSH2 0x100 EXP DUP2 SLOAD DUP2 PUSH20 0xFFFFFFFFFFFFFFFFFFFFFFFFFFFFFFFFFFFFFFFF MUL NOT AND SWAP1 DUP4 PUSH20 0xFFFFFFFFFFFFFFFFFFFFFFFFFFFFFFFFFFFFFFFF AND MUL OR SWAP1 SSTORE POP SWAP2 PUSH1 0x20 ADD SWAP2 SWAP1 PUSH1 0x1 ADD SWAP1 PUSH3 0x14C JUMP JUMPDEST JUMPDEST POP SWAP1 POP PUSH3 0x1B6 SWAP2 SWAP1 PUSH3 0x1BA JUMP JUMPDEST POP SWAP1 JUMP JUMPDEST JUMPDEST DUP1 DUP3 GT ISZERO PUSH3 0x1D5 JUMPI PUSH1 0x0 DUP2 PUSH1 0x0 SWAP1 SSTORE POP PUSH1 0x1 ADD PUSH3 0x1BB JUMP JUMPDEST POP SWAP1 JUMP JUMPDEST PUSH2 0x7B2C DUP1 PUSH3 0x1E9 PUSH1 0x0 CODECOPY PUSH1 0x0 RETURN INVALID PUSH1 0x80 PUSH1 0x40 MSTORE CALLVALUE DUP1 ISZERO PUSH2 0x10 JUMPI PUSH1 0x0 DUP1 REVERT JUMPDEST POP PUSH1 0x4 CALLDATASIZE LT PUSH2 0x428 JUMPI PUSH1 0x0 CALLDATALOAD PUSH1 0xE0 SHR DUP1 PUSH4 0x82CAD838 GT PUSH2 0x22B JUMPI DUP1 PUSH4 0xB981CDF3 GT PUSH2 0x130 JUMPI DUP1 PUSH4 0xD4B14944 GT PUSH2 0xB8 JUMPI DUP1 PUSH4 0xE90B2454 GT PUSH2 0x87 JUMPI DUP1 PUSH4 0xE90B2454 EQ PUSH2 0xC1D JUMPI DUP1 PUSH4 0xEE6822A7 EQ PUSH2 0xC3B JUMPI DUP1 PUSH4 0xF14698DE EQ PUSH2 0xC59 JUMPI DUP1 PUSH4 0xF7741103 EQ PUSH2 0xC77 JUMPI DUP1 PUSH4 0xFCB6F008 EQ PUSH2 0xC95 JUMPI PUSH2 0x428 JUMP JUMPDEST DUP1 PUSH4 0xD4B14944 EQ PUSH2 0xB95 JUMPI DUP1 PUSH4 0xD5D3B26C EQ PUSH2 0xBC5 JUMPI DUP1 PUSH4 0xD98F2495 EQ PUSH2 0xBE1 JUMPI DUP1 PUSH4 0xDA3ED419 EQ PUSH2 0xBFF JUMPI PUSH2 0x428 JUMP JUMPDEST DUP1 PUSH4 0xC5967C26 GT PUSH2 0xFF JUMPI DUP1 PUSH4 0xC5967C26 EQ PUSH2 0xB01 JUMPI DUP1 PUSH4 0xC5CC772D EQ PUSH2 0xB1F JUMPI DUP1 PUSH4 0xC8412D02 EQ PUSH2 0xB3D JUMPI DUP1 PUSH4 0xC8F987F3 EQ PUSH2 0xB5B JUMPI DUP1 PUSH4 0xCECCE38E EQ PUSH2 0xB79 JUMPI PUSH2 0x428 JUMP JUMPDEST DUP1 PUSH4 0xB981CDF3 EQ PUSH2 0xA8D JUMPI DUP1 PUSH4 0xBCC81F19 EQ PUSH2 0xAAB JUMPI DUP1 PUSH4 0xBE266D54 EQ PUSH2 0xAC7 JUMPI DUP1 PUSH4 0xC040F23A EQ PUSH2 0xAE3 JUMPI PUSH2 0x428 JUMP JUMPDEST DUP1 PUSH4 0x95B6EF0C GT PUSH2 0x1B3 JUMPI DUP1 PUSH4 0xA204452B GT PUSH2 0x182 JUMPI DUP1 PUSH4 0xA204452B EQ PUSH2 0x9FB JUMPI DUP1 PUSH4 0xB3406CFC EQ PUSH2 0xA17 JUMPI DUP1 PUSH4 0xB3AB15FB EQ PUSH2 0xA35 JUMPI DUP1 PUSH4 0xB4D1D795 EQ PUSH2 0xA51 JUMPI DUP1 PUSH4 0xB8A878F9 EQ PUSH2 0xA6F JUMPI PUSH2 0x428 JUMP JUMPDEST DUP1 PUSH4 0x95B6EF0C EQ PUSH2 0x963 JUMPI DUP1 PUSH4 0x98B762A1 EQ PUSH2 0x97F JUMPI DUP1 PUSH4 0x99820025 EQ PUSH2 0x99B JUMPI DUP1 PUSH4 0xA0487EEA EQ PUSH2 0x9CB JUMPI PUSH2 0x428 JUMP JUMPDEST DUP1 PUSH4 0x8D934F74 GT PUSH2 0x1FA JUMPI DUP1 PUSH4 0x8D934F74 EQ PUSH2 0x8BF JUMPI DUP1 PUSH4 0x900CF0CF EQ PUSH2 0x8DD JUMPI DUP1 PUSH4 0x91BBFED5 EQ PUSH2 0x8FB JUMPI DUP1 PUSH4 0x940E6064 EQ PUSH2 0x917 JUMPI DUP1 PUSH4 0x951357D4 EQ PUSH2 0x947 JUMPI PUSH2 0x428 JUMP JUMPDEST DUP1 PUSH4 0x82CAD838 EQ PUSH2 0x837 JUMPI DUP1 PUSH4 0x874106CC EQ PUSH2 0x867 JUMPI DUP1 PUSH4 0x8A6426E7 EQ PUSH2 0x885 JUMPI DUP1 PUSH4 0x8C664DB6 EQ PUSH2 0x8A3 JUMPI PUSH2 0x428 JUMP JUMPDEST DUP1 PUSH4 0x4294CF8E GT PUSH2 0x331 JUMPI DUP1 PUSH4 0x5A0FC79C GT PUSH2 0x2B9 JUMPI DUP1 PUSH4 0x72C054F9 GT PUSH2 0x288 JUMPI DUP1 PUSH4 0x72C054F9 EQ PUSH2 0x7A5 JUMPI DUP1 PUSH4 0x734F7096 EQ PUSH2 0x7C3 JUMPI DUP1 PUSH4 0x75BE5AE1 EQ PUSH2 0x7DF JUMPI DUP1 PUSH4 0x78E97925 EQ PUSH2 0x7FB JUMPI DUP1 PUSH4 0x81D11EAF EQ PUSH2 0x819 JUMPI PUSH2 0x428 JUMP JUMPDEST DUP1 PUSH4 0x5A0FC79C EQ PUSH2 0x743 JUMPI DUP1 PUSH4 0x5B756179 EQ PUSH2 0x761 JUMPI DUP1 PUSH4 0x62AC58E4 EQ PUSH2 0x76B JUMPI DUP1 PUSH4 0x63F96CF4 EQ PUSH2 0x787 JUMPI PUSH2 0x428 JUMP JUMPDEST DUP1 PUSH4 0x54F04A11 GT PUSH2 0x300 JUMPI DUP1 PUSH4 0x54F04A11 EQ PUSH2 0x6B1 JUMPI DUP1 PUSH4 0x55EBDEEF EQ PUSH2 0x6CD JUMPI DUP1 PUSH4 0x570CA735 EQ PUSH2 0x6EB JUMPI DUP1 PUSH4 0x591663E1 EQ PUSH2 0x709 JUMPI DUP1 PUSH4 0x59BF5D39 EQ PUSH2 0x725 JUMPI PUSH2 0x428 JUMP JUMPDEST DUP1 PUSH4 0x4294CF8E EQ PUSH2 0x63D JUMPI DUP1 PUSH4 0x4390D2A8 EQ PUSH2 0x65B JUMPI DUP1 PUSH4 0x499F3F19 EQ PUSH2 0x679 JUMPI DUP1 PUSH4 0x54575AF4 EQ PUSH2 0x695 JUMPI PUSH2 0x428 JUMP JUMPDEST DUP1 PUSH4 0x158EF93E GT PUSH2 0x3B4 JUMPI DUP1 PUSH4 0x2E9C7B65 GT PUSH2 0x383 JUMPI DUP1 PUSH4 0x2E9C7B65 EQ PUSH2 0x5AB JUMPI DUP1 PUSH4 0x392E53CD EQ PUSH2 0x5C9 JUMPI DUP1 PUSH4 0x3ED9AE25 EQ PUSH2 0x5E7 JUMPI DUP1 PUSH4 0x4013A08E EQ PUSH2 0x603 JUMPI DUP1 PUSH4 0x40AF7BA5 EQ PUSH2 0x621 JUMPI PUSH2 0x428 JUMP JUMPDEST DUP1 PUSH4 0x158EF93E EQ PUSH2 0x533 JUMPI DUP1 PUSH4 0x19A98349 EQ PUSH2 0x551 JUMPI DUP1 PUSH4 0x22F832CD EQ PUSH2 0x56F JUMPI DUP1 PUSH4 0x29EF1919 EQ PUSH2 0x58D JUMPI PUSH2 0x428 JUMP JUMPDEST DUP1 PUSH4 0xCAC939C GT PUSH2 0x3FB JUMPI DUP1 PUSH4 0xCAC939C EQ PUSH2 0x4A1 JUMPI DUP1 PUSH4 0xCF60175 EQ PUSH2 0x4BF JUMPI DUP1 PUSH4 0xDB7EB0B EQ PUSH2 0x4DD JUMPI DUP1 PUSH4 0x118EBBF9 EQ PUSH2 0x4FB JUMPI DUP1 PUSH4 0x154EC2DB EQ PUSH2 0x517 JUMPI PUSH2 0x428 JUMP JUMPDEST DUP1 PUSH4 0x3BE7E76 EQ PUSH2 0x42D JUMPI DUP1 PUSH4 0x4E5C7B1 EQ PUSH2 0x44B JUMPI DUP1 PUSH4 0x9BB4F92 EQ PUSH2 0x467 JUMPI DUP1 PUSH4 0xB5BCEC7 EQ PUSH2 0x485 JUMPI JUMPDEST PUSH1 0x0 DUP1 REVERT JUMPDEST PUSH2 0x435 PUSH2 0xCB3 JUMP JUMPDEST PUSH1 0x40 MLOAD PUSH2 0x442 SWAP2 SWAP1 PUSH2 0x6E94 JUMP JUMPDEST PUSH1 0x40 MLOAD DUP1 SWAP2 SUB SWAP1 RETURN JUMPDEST PUSH2 0x465 PUSH1 0x4 DUP1 CALLDATASIZE SUB DUP2 ADD SWAP1 PUSH2 0x460 SWAP2 SWAP1 PUSH2 0x62CA JUMP JUMPDEST PUSH2 0xCB9 JUMP JUMPDEST STOP JUMPDEST PUSH2 0x46F PUSH2 0xDDC JUMP JUMPDEST PUSH1 0x40 MLOAD PUSH2 0x47C SWAP2 SWAP1 PUSH2 0x6E94 JUMP JUMPDEST PUSH1 0x40 MLOAD DUP1 SWAP2 SUB SWAP1 RETURN JUMPDEST PUSH2 0x49F PUSH1 0x4 DUP1 CALLDATASIZE SUB DUP2 ADD SWAP1 PUSH2 0x49A SWAP2 SWAP1 PUSH2 0x62CA JUMP JUMPDEST PUSH2 0xF08 JUMP JUMPDEST STOP JUMPDEST PUSH2 0x4A9 PUSH2 0xFF4 JUMP JUMPDEST PUSH1 0x40 MLOAD PUSH2 0x4B6 SWAP2 SWAP1 PUSH2 0x6E94 JUMP JUMPDEST PUSH1 0x40 MLOAD DUP1 SWAP2 SUB SWAP1 RETURN JUMPDEST PUSH2 0x4C7 PUSH2 0x1150 JUMP JUMPDEST PUSH1 0x40 MLOAD PUSH2 0x4D4 SWAP2 SWAP1 PUSH2 0x6E94 JUMP JUMPDEST PUSH1 0x40 MLOAD DUP1 SWAP2 SUB SWAP1 RETURN JUMPDEST PUSH2 0x4E5 PUSH2 0x122C JUMP JUMPDEST PUSH1 0x40 MLOAD PUSH2 0x4F2 SWAP2 SWAP1 PUSH2 0x6E94 JUMP JUMPDEST PUSH1 0x40 MLOAD DUP1 SWAP2 SUB SWAP1 RETURN JUMPDEST PUSH2 0x515 PUSH1 0x4 DUP1 CALLDATASIZE SUB DUP2 ADD SWAP1 PUSH2 0x510 SWAP2 SWAP1 PUSH2 0x6324 JUMP JUMPDEST PUSH2 0x1300 JUMP JUMPDEST STOP JUMPDEST PUSH2 0x531 PUSH1 0x4 DUP1 CALLDATASIZE SUB DUP2 ADD SWAP1 PUSH2 0x52C SWAP2 SWAP1 PUSH2 0x62CA JUMP JUMPDEST PUSH2 0x1BD7 JUMP JUMPDEST STOP JUMPDEST PUSH2 0x53B PUSH2 0x1CB6 JUMP JUMPDEST PUSH1 0x40 MLOAD PUSH2 0x548 SWAP2 SWAP1 PUSH2 0x69F7 JUMP JUMPDEST PUSH1 0x40 MLOAD DUP1 SWAP2 SUB SWAP1 RETURN JUMPDEST PUSH2 0x559 PUSH2 0x1CC9 JUMP JUMPDEST PUSH1 0x40 MLOAD PUSH2 0x566 SWAP2 SWAP1 PUSH2 0x6E94 JUMP JUMPDEST PUSH1 0x40 MLOAD DUP1 SWAP2 SUB SWAP1 RETURN JUMPDEST PUSH2 0x577 PUSH2 0x1CCF JUMP JUMPDEST PUSH1 0x40 MLOAD PUSH2 0x584 SWAP2 SWAP1 PUSH2 0x6E94 JUMP JUMPDEST PUSH1 0x40 MLOAD DUP1 SWAP2 SUB SWAP1 RETURN JUMPDEST PUSH2 0x595 PUSH2 0x1CD5 JUMP JUMPDEST PUSH1 0x40 MLOAD PUSH2 0x5A2 SWAP2 SWAP1 PUSH2 0x6E94 JUMP JUMPDEST PUSH1 0x40 MLOAD DUP1 SWAP2 SUB SWAP1 RETURN JUMPDEST PUSH2 0x5B3 PUSH2 0x1CDB JUMP JUMPDEST PUSH1 0x40 MLOAD PUSH2 0x5C0 SWAP2 SWAP1 PUSH2 0x6E94 JUMP JUMPDEST PUSH1 0x40 MLOAD DUP1 SWAP2 SUB SWAP1 RETURN JUMPDEST PUSH2 0x5D1 PUSH2 0x1CE1 JUMP JUMPDEST PUSH1 0x40 MLOAD PUSH2 0x5DE SWAP2 SWAP1 PUSH2 0x69F7 JUMP JUMPDEST PUSH1 0x40 MLOAD DUP1 SWAP2 SUB SWAP1 RETURN JUMPDEST PUSH2 0x601 PUSH1 0x4 DUP1 CALLDATASIZE SUB DUP2 ADD SWAP1 PUSH2 0x5FC SWAP2 SWAP1 PUSH2 0x62CA JUMP JUMPDEST PUSH2 0x1CF8 JUMP JUMPDEST STOP JUMPDEST PUSH2 0x60B PUSH2 0x1E0B JUMP JUMPDEST PUSH1 0x40 MLOAD PUSH2 0x618 SWAP2 SWAP1 PUSH2 0x6E94 JUMP JUMPDEST PUSH1 0x40 MLOAD DUP1 SWAP2 SUB SWAP1 RETURN JUMPDEST PUSH2 0x63B PUSH1 0x4 DUP1 CALLDATASIZE SUB DUP2 ADD SWAP1 PUSH2 0x636 SWAP2 SWAP1 PUSH2 0x62CA JUMP JUMPDEST PUSH2 0x1E11 JUMP JUMPDEST STOP JUMPDEST PUSH2 0x645 PUSH2 0x1EF0 JUMP JUMPDEST PUSH1 0x40 MLOAD PUSH2 0x652 SWAP2 SWAP1 PUSH2 0x6E94 JUMP JUMPDEST PUSH1 0x40 MLOAD DUP1 SWAP2 SUB SWAP1 RETURN JUMPDEST PUSH2 0x663 PUSH2 0x1EF6 JUMP JUMPDEST PUSH1 0x40 MLOAD PUSH2 0x670 SWAP2 SWAP1 PUSH2 0x692A JUMP JUMPDEST PUSH1 0x40 MLOAD DUP1 SWAP2 SUB SWAP1 RETURN JUMPDEST PUSH2 0x693 PUSH1 0x4 DUP1 CALLDATASIZE SUB DUP2 ADD SWAP1 PUSH2 0x68E SWAP2 SWAP1 PUSH2 0x62CA JUMP JUMPDEST PUSH2 0x1F1C JUMP JUMPDEST STOP JUMPDEST PUSH2 0x6AF PUSH1 0x4 DUP1 CALLDATASIZE SUB DUP2 ADD SWAP1 PUSH2 0x6AA SWAP2 SWAP1 PUSH2 0x624A JUMP JUMPDEST PUSH2 0x2009 JUMP JUMPDEST STOP JUMPDEST PUSH2 0x6CB PUSH1 0x4 DUP1 CALLDATASIZE SUB DUP2 ADD SWAP1 PUSH2 0x6C6 SWAP2 SWAP1 PUSH2 0x6324 JUMP JUMPDEST PUSH2 0x227C JUMP JUMPDEST STOP JUMPDEST PUSH2 0x6D5 PUSH2 0x2C32 JUMP JUMPDEST PUSH1 0x40 MLOAD PUSH2 0x6E2 SWAP2 SWAP1 PUSH2 0x6E94 JUMP JUMPDEST PUSH1 0x40 MLOAD DUP1 SWAP2 SUB SWAP1 RETURN JUMPDEST PUSH2 0x6F3 PUSH2 0x2C38 JUMP JUMPDEST PUSH1 0x40 MLOAD PUSH2 0x700 SWAP2 SWAP1 PUSH2 0x692A JUMP JUMPDEST PUSH1 0x40 MLOAD DUP1 SWAP2 SUB SWAP1 RETURN JUMPDEST PUSH2 0x723 PUSH1 0x4 DUP1 CALLDATASIZE SUB DUP2 ADD SWAP1 PUSH2 0x71E SWAP2 SWAP1 PUSH2 0x62CA JUMP JUMPDEST PUSH2 0x2C5E JUMP JUMPDEST STOP JUMPDEST PUSH2 0x72D PUSH2 0x2D4B JUMP JUMPDEST PUSH1 0x40 MLOAD PUSH2 0x73A SWAP2 SWAP1 PUSH2 0x6E94 JUMP JUMPDEST PUSH1 0x40 MLOAD DUP1 SWAP2 SUB SWAP1 RETURN JUMPDEST PUSH2 0x74B PUSH2 0x2D55 JUMP JUMPDEST PUSH1 0x40 MLOAD PUSH2 0x758 SWAP2 SWAP1 PUSH2 0x6E94 JUMP JUMPDEST PUSH1 0x40 MLOAD DUP1 SWAP2 SUB SWAP1 RETURN JUMPDEST PUSH2 0x769 PUSH2 0x2D5B JUMP JUMPDEST STOP JUMPDEST PUSH2 0x785 PUSH1 0x4 DUP1 CALLDATASIZE SUB DUP2 ADD SWAP1 PUSH2 0x780 SWAP2 SWAP1 PUSH2 0x607C JUMP JUMPDEST PUSH2 0x36F4 JUMP JUMPDEST STOP JUMPDEST PUSH2 0x78F PUSH2 0x3814 JUMP JUMPDEST PUSH1 0x40 MLOAD PUSH2 0x79C SWAP2 SWAP1 PUSH2 0x692A JUMP JUMPDEST PUSH1 0x40 MLOAD DUP1 SWAP2 SUB SWAP1 RETURN JUMPDEST PUSH2 0x7AD PUSH2 0x383A JUMP JUMPDEST PUSH1 0x40 MLOAD PUSH2 0x7BA SWAP2 SWAP1 PUSH2 0x6E94 JUMP JUMPDEST PUSH1 0x40 MLOAD DUP1 SWAP2 SUB SWAP1 RETURN JUMPDEST PUSH2 0x7DD PUSH1 0x4 DUP1 CALLDATASIZE SUB DUP2 ADD SWAP1 PUSH2 0x7D8 SWAP2 SWAP1 PUSH2 0x6324 JUMP JUMPDEST PUSH2 0x394C JUMP JUMPDEST STOP JUMPDEST PUSH2 0x7F9 PUSH1 0x4 DUP1 CALLDATASIZE SUB DUP2 ADD SWAP1 PUSH2 0x7F4 SWAP2 SWAP1 PUSH2 0x607C JUMP JUMPDEST PUSH2 0x3A6F JUMP JUMPDEST STOP JUMPDEST PUSH2 0x803 PUSH2 0x3B43 JUMP JUMPDEST PUSH1 0x40 MLOAD PUSH2 0x810 SWAP2 SWAP1 PUSH2 0x6E94 JUMP JUMPDEST PUSH1 0x40 MLOAD DUP1 SWAP2 SUB SWAP1 RETURN JUMPDEST PUSH2 0x821 PUSH2 0x3B49 JUMP JUMPDEST PUSH1 0x40 MLOAD PUSH2 0x82E SWAP2 SWAP1 PUSH2 0x6E94 JUMP JUMPDEST PUSH1 0x40 MLOAD DUP1 SWAP2 SUB SWAP1 RETURN JUMPDEST PUSH2 0x851 PUSH1 0x4 DUP1 CALLDATASIZE SUB DUP2 ADD SWAP1 PUSH2 0x84C SWAP2 SWAP1 PUSH2 0x62CA JUMP JUMPDEST PUSH2 0x3B4F JUMP JUMPDEST PUSH1 0x40 MLOAD PUSH2 0x85E SWAP2 SWAP1 PUSH2 0x692A JUMP JUMPDEST PUSH1 0x40 MLOAD DUP1 SWAP2 SUB SWAP1 RETURN JUMPDEST PUSH2 0x86F PUSH2 0x3B8E JUMP JUMPDEST PUSH1 0x40 MLOAD PUSH2 0x87C SWAP2 SWAP1 PUSH2 0x6E94 JUMP JUMPDEST PUSH1 0x40 MLOAD DUP1 SWAP2 SUB SWAP1 RETURN JUMPDEST PUSH2 0x88D PUSH2 0x3B94 JUMP JUMPDEST PUSH1 0x40 MLOAD PUSH2 0x89A SWAP2 SWAP1 PUSH2 0x6E94 JUMP JUMPDEST PUSH1 0x40 MLOAD DUP1 SWAP2 SUB SWAP1 RETURN JUMPDEST PUSH2 0x8BD PUSH1 0x4 DUP1 CALLDATASIZE SUB DUP2 ADD SWAP1 PUSH2 0x8B8 SWAP2 SWAP1 PUSH2 0x62CA JUMP JUMPDEST PUSH2 0x3D5D JUMP JUMPDEST STOP JUMPDEST PUSH2 0x8C7 PUSH2 0x3E4A JUMP JUMPDEST PUSH1 0x40 MLOAD PUSH2 0x8D4 SWAP2 SWAP1 PUSH2 0x692A JUMP JUMPDEST PUSH1 0x40 MLOAD DUP1 SWAP2 SUB SWAP1 RETURN JUMPDEST PUSH2 0x8E5 PUSH2 0x3E70 JUMP JUMPDEST PUSH1 0x40 MLOAD PUSH2 0x8F2 SWAP2 SWAP1 PUSH2 0x6E94 JUMP JUMPDEST PUSH1 0x40 MLOAD DUP1 SWAP2 SUB SWAP1 RETURN JUMPDEST PUSH2 0x915 PUSH1 0x4 DUP1 CALLDATASIZE SUB DUP2 ADD SWAP1 PUSH2 0x910 SWAP2 SWAP1 PUSH2 0x6324 JUMP JUMPDEST PUSH2 0x3E76 JUMP JUMPDEST STOP JUMPDEST PUSH2 0x931 PUSH1 0x4 DUP1 CALLDATASIZE SUB DUP2 ADD SWAP1 PUSH2 0x92C SWAP2 SWAP1 PUSH2 0x6364 JUMP JUMPDEST PUSH2 0x3FAE JUMP JUMPDEST PUSH1 0x40 MLOAD PUSH2 0x93E SWAP2 SWAP1 PUSH2 0x69F7 JUMP JUMPDEST PUSH1 0x40 MLOAD DUP1 SWAP2 SUB SWAP1 RETURN JUMPDEST PUSH2 0x961 PUSH1 0x4 DUP1 CALLDATASIZE SUB DUP2 ADD SWAP1 PUSH2 0x95C SWAP2 SWAP1 PUSH2 0x6163 JUMP JUMPDEST PUSH2 0x4189 JUMP JUMPDEST STOP JUMPDEST PUSH2 0x97D PUSH1 0x4 DUP1 CALLDATASIZE SUB DUP2 ADD SWAP1 PUSH2 0x978 SWAP2 SWAP1 PUSH2 0x60D6 JUMP JUMPDEST PUSH2 0x42AF JUMP JUMPDEST STOP JUMPDEST PUSH2 0x999 PUSH1 0x4 DUP1 CALLDATASIZE SUB DUP2 ADD SWAP1 PUSH2 0x994 SWAP2 SWAP1 PUSH2 0x62CA JUMP JUMPDEST PUSH2 0x47D9 JUMP JUMPDEST STOP JUMPDEST PUSH2 0x9B5 PUSH1 0x4 DUP1 CALLDATASIZE SUB DUP2 ADD SWAP1 PUSH2 0x9B0 SWAP2 SWAP1 PUSH2 0x62CA JUMP JUMPDEST PUSH2 0x4873 JUMP JUMPDEST PUSH1 0x40 MLOAD PUSH2 0x9C2 SWAP2 SWAP1 PUSH2 0x6E94 JUMP JUMPDEST PUSH1 0x40 MLOAD DUP1 SWAP2 SUB SWAP1 RETURN JUMPDEST PUSH2 0x9E5 PUSH1 0x4 DUP1 CALLDATASIZE SUB DUP2 ADD SWAP1 PUSH2 0x9E0 SWAP2 SWAP1 PUSH2 0x62CA JUMP JUMPDEST PUSH2 0x4897 JUMP JUMPDEST PUSH1 0x40 MLOAD PUSH2 0x9F2 SWAP2 SWAP1 PUSH2 0x6E94 JUMP JUMPDEST PUSH1 0x40 MLOAD DUP1 SWAP2 SUB SWAP1 RETURN JUMPDEST PUSH2 0xA15 PUSH1 0x4 DUP1 CALLDATASIZE SUB DUP2 ADD SWAP1 PUSH2 0xA10 SWAP2 SWAP1 PUSH2 0x62CA JUMP JUMPDEST PUSH2 0x48BB JUMP JUMPDEST STOP JUMPDEST PUSH2 0xA1F PUSH2 0x4955 JUMP JUMPDEST PUSH1 0x40 MLOAD PUSH2 0xA2C SWAP2 SWAP1 PUSH2 0x6E94 JUMP JUMPDEST PUSH1 0x40 MLOAD DUP1 SWAP2 SUB SWAP1 RETURN JUMPDEST PUSH2 0xA4F PUSH1 0x4 DUP1 CALLDATASIZE SUB DUP2 ADD SWAP1 PUSH2 0xA4A SWAP2 SWAP1 PUSH2 0x607C JUMP JUMPDEST PUSH2 0x495B JUMP JUMPDEST STOP JUMPDEST PUSH2 0xA59 PUSH2 0x4A2F JUMP JUMPDEST PUSH1 0x40 MLOAD PUSH2 0xA66 SWAP2 SWAP1 PUSH2 0x6E94 JUMP JUMPDEST PUSH1 0x40 MLOAD DUP1 SWAP2 SUB SWAP1 RETURN JUMPDEST PUSH2 0xA77 PUSH2 0x4A35 JUMP JUMPDEST PUSH1 0x40 MLOAD PUSH2 0xA84 SWAP2 SWAP1 PUSH2 0x6E94 JUMP JUMPDEST PUSH1 0x40 MLOAD DUP1 SWAP2 SUB SWAP1 RETURN JUMPDEST PUSH2 0xA95 PUSH2 0x4A3B JUMP JUMPDEST PUSH1 0x40 MLOAD PUSH2 0xAA2 SWAP2 SWAP1 PUSH2 0x692A JUMP JUMPDEST PUSH1 0x40 MLOAD DUP1 SWAP2 SUB SWAP1 RETURN JUMPDEST PUSH2 0xAC5 PUSH1 0x4 DUP1 CALLDATASIZE SUB DUP2 ADD SWAP1 PUSH2 0xAC0 SWAP2 SWAP1 PUSH2 0x61B6 JUMP JUMPDEST PUSH2 0x4A61 JUMP JUMPDEST STOP JUMPDEST PUSH2 0xAE1 PUSH1 0x4 DUP1 CALLDATASIZE SUB DUP2 ADD SWAP1 PUSH2 0xADC SWAP2 SWAP1 PUSH2 0x62CA JUMP JUMPDEST PUSH2 0x4CF1 JUMP JUMPDEST STOP JUMPDEST PUSH2 0xAEB PUSH2 0x4E11 JUMP JUMPDEST PUSH1 0x40 MLOAD PUSH2 0xAF8 SWAP2 SWAP1 PUSH2 0x692A JUMP JUMPDEST PUSH1 0x40 MLOAD DUP1 SWAP2 SUB SWAP1 RETURN JUMPDEST PUSH2 0xB09 PUSH2 0x4E37 JUMP JUMPDEST PUSH1 0x40 MLOAD PUSH2 0xB16 SWAP2 SWAP1 PUSH2 0x6E94 JUMP JUMPDEST PUSH1 0x40 MLOAD DUP1 SWAP2 SUB SWAP1 RETURN JUMPDEST PUSH2 0xB27 PUSH2 0x4E69 JUMP JUMPDEST PUSH1 0x40 MLOAD PUSH2 0xB34 SWAP2 SWAP1 PUSH2 0x6E94 JUMP JUMPDEST PUSH1 0x40 MLOAD DUP1 SWAP2 SUB SWAP1 RETURN JUMPDEST PUSH2 0xB45 PUSH2 0x4F95 JUMP JUMPDEST PUSH1 0x40 MLOAD PUSH2 0xB52 SWAP2 SWAP1 PUSH2 0x6E94 JUMP JUMPDEST PUSH1 0x40 MLOAD DUP1 SWAP2 SUB SWAP1 RETURN JUMPDEST PUSH2 0xB63 PUSH2 0x4F9B JUMP JUMPDEST PUSH1 0x40 MLOAD PUSH2 0xB70 SWAP2 SWAP1 PUSH2 0x6E94 JUMP JUMPDEST PUSH1 0x40 MLOAD DUP1 SWAP2 SUB SWAP1 RETURN JUMPDEST PUSH2 0xB93 PUSH1 0x4 DUP1 CALLDATASIZE SUB DUP2 ADD SWAP1 PUSH2 0xB8E SWAP2 SWAP1 PUSH2 0x62CA JUMP JUMPDEST PUSH2 0x4FA1 JUMP JUMPDEST STOP JUMPDEST PUSH2 0xBAF PUSH1 0x4 DUP1 CALLDATASIZE SUB DUP2 ADD SWAP1 PUSH2 0xBAA SWAP2 SWAP1 PUSH2 0x6364 JUMP JUMPDEST PUSH2 0x508D JUMP JUMPDEST PUSH1 0x40 MLOAD PUSH2 0xBBC SWAP2 SWAP1 PUSH2 0x69F7 JUMP JUMPDEST PUSH1 0x40 MLOAD DUP1 SWAP2 SUB SWAP1 RETURN JUMPDEST PUSH2 0xBDF PUSH1 0x4 DUP1 CALLDATASIZE SUB DUP2 ADD SWAP1 PUSH2 0xBDA SWAP2 SWAP1 PUSH2 0x607C JUMP JUMPDEST PUSH2 0x522E JUMP JUMPDEST STOP JUMPDEST PUSH2 0xBE9 PUSH2 0x5302 JUMP JUMPDEST PUSH1 0x40 MLOAD PUSH2 0xBF6 SWAP2 SWAP1 PUSH2 0x6E94 JUMP JUMPDEST PUSH1 0x40 MLOAD DUP1 SWAP2 SUB SWAP1 RETURN JUMPDEST PUSH2 0xC07 PUSH2 0x5308 JUMP JUMPDEST PUSH1 0x40 MLOAD PUSH2 0xC14 SWAP2 SWAP1 PUSH2 0x6E94 JUMP JUMPDEST PUSH1 0x40 MLOAD DUP1 SWAP2 SUB SWAP1 RETURN JUMPDEST PUSH2 0xC25 PUSH2 0x530E JUMP JUMPDEST PUSH1 0x40 MLOAD PUSH2 0xC32 SWAP2 SWAP1 PUSH2 0x6E94 JUMP JUMPDEST PUSH1 0x40 MLOAD DUP1 SWAP2 SUB SWAP1 RETURN JUMPDEST PUSH2 0xC43 PUSH2 0x5314 JUMP JUMPDEST PUSH1 0x40 MLOAD PUSH2 0xC50 SWAP2 SWAP1 PUSH2 0x692A JUMP JUMPDEST PUSH1 0x40 MLOAD DUP1 SWAP2 SUB SWAP1 RETURN JUMPDEST PUSH2 0xC61 PUSH2 0x533A JUMP JUMPDEST PUSH1 0x40 MLOAD PUSH2 0xC6E SWAP2 SWAP1 PUSH2 0x6E94 JUMP JUMPDEST PUSH1 0x40 MLOAD DUP1 SWAP2 SUB SWAP1 RETURN JUMPDEST PUSH2 0xC7F PUSH2 0x5340 JUMP JUMPDEST PUSH1 0x40 MLOAD PUSH2 0xC8C SWAP2 SWAP1 PUSH2 0x692A JUMP JUMPDEST PUSH1 0x40 MLOAD DUP1 SWAP2 SUB SWAP1 RETURN JUMPDEST PUSH2 0xC9D PUSH2 0x5366 JUMP JUMPDEST PUSH1 0x40 MLOAD PUSH2 0xCAA SWAP2 SWAP1 PUSH2 0x6E94 JUMP JUMPDEST PUSH1 0x40 MLOAD DUP1 SWAP2 SUB SWAP1 RETURN JUMPDEST PUSH1 0x21 SLOAD DUP2 JUMP JUMPDEST CALLER PUSH20 0xFFFFFFFFFFFFFFFFFFFFFFFFFFFFFFFFFFFFFFFF AND PUSH1 0x1 PUSH1 0x0 SWAP1 SLOAD SWAP1 PUSH2 0x100 EXP SWAP1 DIV PUSH20 0xFFFFFFFFFFFFFFFFFFFFFFFFFFFFFFFFFFFFFFFF AND PUSH20 0xFFFFFFFFFFFFFFFFFFFFFFFFFFFFFFFFFFFFFFFF AND EQ PUSH2 0xD49 JUMPI PUSH1 0x40 MLOAD PUSH32 0x8C379A000000000000000000000000000000000000000000000000000000000 DUP2 MSTORE PUSH1 0x4 ADD PUSH2 0xD40 SWAP1 PUSH2 0x6D14 JUMP JUMPDEST PUSH1 0x40 MLOAD DUP1 SWAP2 SUB SWAP1 REVERT JUMPDEST PUSH1 0xC SLOAD DUP2 LT ISZERO PUSH2 0xD8E JUMPI PUSH1 0x40 MLOAD PUSH32 0x8C379A000000000000000000000000000000000000000000000000000000000 DUP2 MSTORE PUSH1 0x4 ADD PUSH2 0xD85 SWAP1 PUSH2 0x6A74 JUMP JUMPDEST PUSH1 0x40 MLOAD DUP1 SWAP2 SUB SWAP1 REVERT JUMPDEST PUSH1 0x96 DUP2 GT ISZERO PUSH2 0xDD2 JUMPI PUSH1 0x40 MLOAD PUSH32 0x8C379A000000000000000000000000000000000000000000000000000000000 DUP2 MSTORE PUSH1 0x4 ADD PUSH2 0xDC9 SWAP1 PUSH2 0x6B54 JUMP JUMPDEST PUSH1 0x40 MLOAD DUP1 SWAP2 SUB SWAP1 REVERT JUMPDEST DUP1 PUSH1 0x1B DUP2 SWAP1 SSTORE POP POP JUMP JUMPDEST PUSH1 0x0 PUSH1 0xA PUSH1 0x0 SWAP1 SLOAD SWAP1 PUSH2 0x100 EXP SWAP1 DIV PUSH20 0xFFFFFFFFFFFFFFFFFFFFFFFFFFFFFFFFFFFFFFFF AND PUSH20 0xFFFFFFFFFFFFFFFFFFFFFFFFFFFFFFFFFFFFFFFF AND PUSH4 0x3DDAC953 PUSH1 0x6 PUSH1 0x0 SWAP1 SLOAD SWAP1 PUSH2 0x100 EXP SWAP1 DIV PUSH20 0xFFFFFFFFFFFFFFFFFFFFFFFFFFFFFFFFFFFFFFFF AND PUSH8 0xDE0B6B3A7640000 PUSH1 0x40 MLOAD DUP4 PUSH4 0xFFFFFFFF AND PUSH1 0xE0 SHL DUP2 MSTORE PUSH1 0x4 ADD PUSH2 0xE65 SWAP3 SWAP2 SWAP1 PUSH2 0x696E JUMP JUMPDEST PUSH1 0x20 PUSH1 0x40 MLOAD DUP1 DUP4 SUB DUP2 DUP7 DUP1 EXTCODESIZE ISZERO DUP1 ISZERO PUSH2 0xE7D JUMPI PUSH1 0x0 DUP1 REVERT JUMPDEST POP GAS STATICCALL SWAP3 POP POP POP DUP1 ISZERO PUSH2 0xEAE JUMPI POP PUSH1 0x40 MLOAD RETURNDATASIZE PUSH1 0x1F NOT PUSH1 0x1F DUP3 ADD AND DUP3 ADD DUP1 PUSH1 0x40 MSTORE POP DUP2 ADD SWAP1 PUSH2 0xEAB SWAP2 SWAP1 PUSH2 0x629D JUMP JUMPDEST PUSH1 0x1 JUMPDEST PUSH2 0xEED JUMPI PUSH1 0x40 MLOAD PUSH32 0x8C379A000000000000000000000000000000000000000000000000000000000 DUP2 MSTORE PUSH1 0x4 ADD PUSH2 0xEE4 SWAP1 PUSH2 0x6AF4 JUMP JUMPDEST PUSH1 0x40 MLOAD DUP1 SWAP2 SUB SWAP1 REVERT JUMPDEST DUP1 PUSH18 0xFFFFFFFFFFFFFFFFFFFFFFFFFFFFFFFFFFFF AND SWAP2 POP POP SWAP1 JUMP JUMPDEST CALLER PUSH20 0xFFFFFFFFFFFFFFFFFFFFFFFFFFFFFFFFFFFFFFFF AND PUSH1 0x1 PUSH1 0x0 SWAP1 SLOAD SWAP1 PUSH2 0x100 EXP SWAP1 DIV PUSH20 0xFFFFFFFFFFFFFFFFFFFFFFFFFFFFFFFFFFFFFFFF AND PUSH20 0xFFFFFFFFFFFFFFFFFFFFFFFFFFFFFFFFFFFFFFFF AND EQ PUSH2 0xF98 JUMPI PUSH1 0x40 MLOAD PUSH32 0x8C379A000000000000000000000000000000000000000000000000000000000 DUP2 MSTORE PUSH1 0x4 ADD PUSH2 0xF8F SWAP1 PUSH2 0x6D14 JUMP JUMPDEST PUSH1 0x40 MLOAD DUP1 SWAP2 SUB SWAP1 REVERT JUMPDEST PUSH1 0xA DUP2 LT ISZERO DUP1 ISZERO PUSH2 0xFAB JUMPI POP PUSH2 0x3E8 DUP2 GT ISZERO JUMPDEST PUSH2 0xFEA JUMPI PUSH1 0x40 MLOAD PUSH32 0x8C379A000000000000000000000000000000000000000000000000000000000 DUP2 MSTORE PUSH1 0x4 ADD PUSH2 0xFE1 SWAP1 PUSH2 0x6C34 JUMP JUMPDEST PUSH1 0x40 MLOAD DUP1 SWAP2 SUB SWAP1 REVERT JUMPDEST DUP1 PUSH1 0x10 DUP2 SWAP1 SSTORE POP POP JUMP JUMPDEST PUSH1 0x0 DUP1 PUSH2 0xFFF PUSH2 0xDDC JUMP JUMPDEST SWAP1 POP PUSH1 0xB SLOAD DUP2 GT PUSH2 0x114C JUMPI PUSH1 0x0 PUSH2 0x1014 PUSH2 0x3B94 JUMP JUMPDEST SWAP1 POP PUSH1 0x0 PUSH2 0x1041 PUSH2 0x2710 PUSH2 0x1033 PUSH1 0x14 SLOAD DUP6 PUSH2 0x536C SWAP1 SWAP2 SWAP1 PUSH4 0xFFFFFFFF AND JUMP JUMPDEST PUSH2 0x5382 SWAP1 SWAP2 SWAP1 PUSH4 0xFFFFFFFF AND JUMP JUMPDEST SWAP1 POP PUSH1 0x0 PUSH1 0x7 PUSH1 0x0 SWAP1 SLOAD SWAP1 PUSH2 0x100 EXP SWAP1 DIV PUSH20 0xFFFFFFFFFFFFFFFFFFFFFFFFFFFFFFFFFFFFFFFF AND PUSH20 0xFFFFFFFFFFFFFFFFFFFFFFFFFFFFFFFFFFFFFFFF AND PUSH4 0x18160DDD PUSH1 0x40 MLOAD DUP2 PUSH4 0xFFFFFFFF AND PUSH1 0xE0 SHL DUP2 MSTORE PUSH1 0x4 ADD PUSH1 0x20 PUSH1 0x40 MLOAD DUP1 DUP4 SUB DUP2 DUP7 DUP1 EXTCODESIZE ISZERO DUP1 ISZERO PUSH2 0x10AD JUMPI PUSH1 0x0 DUP1 REVERT JUMPDEST POP GAS STATICCALL ISZERO DUP1 ISZERO PUSH2 0x10C1 JUMPI RETURNDATASIZE PUSH1 0x0 DUP1 RETURNDATACOPY RETURNDATASIZE PUSH1 0x0 REVERT JUMPDEST POP POP POP POP PUSH1 0x40 MLOAD RETURNDATASIZE PUSH1 0x1F NOT PUSH1 0x1F DUP3 ADD AND DUP3 ADD DUP1 PUSH1 0x40 MSTORE POP DUP2 ADD SWAP1 PUSH2 0x10E5 SWAP2 SWAP1 PUSH2 0x62F7 JUMP JUMPDEST SWAP1 POP DUP1 DUP3 GT ISZERO PUSH2 0x1148 JUMPI PUSH1 0x0 PUSH2 0x1104 DUP3 DUP5 PUSH2 0x5398 SWAP1 SWAP2 SWAP1 PUSH4 0xFFFFFFFF AND JUMP JUMPDEST SWAP1 POP PUSH1 0x0 PUSH2 0x1135 PUSH8 0xDE0B6B3A7640000 PUSH2 0x1127 DUP9 DUP6 PUSH2 0x536C SWAP1 SWAP2 SWAP1 PUSH4 0xFFFFFFFF AND JUMP JUMPDEST PUSH2 0x5382 SWAP1 SWAP2 SWAP1 PUSH4 0xFFFFFFFF AND JUMP JUMPDEST SWAP1 POP PUSH2 0x1143 PUSH1 0x4 SLOAD DUP3 PUSH2 0x53AE JUMP JUMPDEST SWAP7 POP POP POP JUMPDEST POP POP POP JUMPDEST POP SWAP1 JUMP JUMPDEST PUSH1 0x0 DUP1 PUSH2 0x115B PUSH2 0xDDC JUMP JUMPDEST SWAP1 POP PUSH1 0xB SLOAD DUP2 GT PUSH2 0x1228 JUMPI PUSH1 0x0 PUSH1 0x1A SLOAD EQ ISZERO PUSH2 0x117B JUMPI PUSH1 0xB SLOAD SWAP2 POP PUSH2 0x1227 JUMP JUMPDEST PUSH1 0x0 PUSH2 0x11AC DUP3 PUSH2 0x119E PUSH8 0xDE0B6B3A7640000 PUSH1 0xB SLOAD PUSH2 0x536C SWAP1 SWAP2 SWAP1 PUSH4 0xFFFFFFFF AND JUMP JUMPDEST PUSH2 0x5382 SWAP1 SWAP2 SWAP1 PUSH4 0xFFFFFFFF AND JUMP JUMPDEST SWAP1 POP PUSH1 0x0 PUSH2 0x11ED PUSH2 0x2710 PUSH2 0x11DF PUSH1 0x1A SLOAD PUSH2 0x11D1 PUSH1 0xB SLOAD DUP8 PUSH2 0x5398 SWAP1 SWAP2 SWAP1 PUSH4 0xFFFFFFFF AND JUMP JUMPDEST PUSH2 0x536C SWAP1 SWAP2 SWAP1 PUSH4 0xFFFFFFFF AND JUMP JUMPDEST PUSH2 0x5382 SWAP1 SWAP2 SWAP1 PUSH4 0xFFFFFFFF AND JUMP JUMPDEST SWAP1 POP PUSH2 0x1204 DUP2 PUSH1 0xB SLOAD PUSH2 0x53C7 SWAP1 SWAP2 SWAP1 PUSH4 0xFFFFFFFF AND JUMP JUMPDEST SWAP4 POP PUSH1 0x0 PUSH1 0x18 SLOAD GT DUP1 ISZERO PUSH2 0x1219 JUMPI POP PUSH1 0x18 SLOAD DUP5 GT JUMPDEST ISZERO PUSH2 0x1224 JUMPI PUSH1 0x18 SLOAD SWAP4 POP JUMPDEST POP POP JUMPDEST JUMPDEST POP SWAP1 JUMP JUMPDEST PUSH1 0x0 DUP1 PUSH2 0x1237 PUSH2 0xDDC JUMP JUMPDEST SWAP1 POP PUSH1 0xC SLOAD DUP2 GT ISZERO PUSH2 0x12FC JUMPI PUSH1 0x0 PUSH2 0x126F PUSH1 0x64 PUSH2 0x1261 PUSH1 0x1B SLOAD PUSH1 0xB SLOAD PUSH2 0x536C SWAP1 SWAP2 SWAP1 PUSH4 0xFFFFFFFF AND JUMP JUMPDEST PUSH2 0x5382 SWAP1 SWAP2 SWAP1 PUSH4 0xFFFFFFFF AND JUMP JUMPDEST SWAP1 POP DUP1 DUP3 LT PUSH2 0x12F4 JUMPI PUSH1 0x0 PUSH2 0x12B7 PUSH2 0x2710 PUSH2 0x12A9 PUSH1 0x1C SLOAD PUSH2 0x129B PUSH1 0xB SLOAD DUP9 PUSH2 0x5398 SWAP1 SWAP2 SWAP1 PUSH4 0xFFFFFFFF AND JUMP JUMPDEST PUSH2 0x536C SWAP1 SWAP2 SWAP1 PUSH4 0xFFFFFFFF AND JUMP JUMPDEST PUSH2 0x5382 SWAP1 SWAP2 SWAP1 PUSH4 0xFFFFFFFF AND JUMP JUMPDEST SWAP1 POP PUSH2 0x12CE DUP2 PUSH1 0xB SLOAD PUSH2 0x53C7 SWAP1 SWAP2 SWAP1 PUSH4 0xFFFFFFFF AND JUMP JUMPDEST SWAP4 POP PUSH1 0x0 PUSH1 0x19 SLOAD GT DUP1 ISZERO PUSH2 0x12E3 JUMPI POP PUSH1 0x19 SLOAD DUP5 GT JUMPDEST ISZERO PUSH2 0x12EE JUMPI PUSH1 0x19 SLOAD SWAP4 POP JUMPDEST POP PUSH2 0x12FA JUMP JUMPDEST PUSH1 0xB SLOAD SWAP3 POP JUMPDEST POP JUMPDEST POP SWAP1 JUMP JUMPDEST PUSH2 0x1308 PUSH2 0x53DD JUMP JUMPDEST ISZERO PUSH2 0x1348 JUMPI PUSH1 0x40 MLOAD PUSH32 0x8C379A000000000000000000000000000000000000000000000000000000000 DUP2 MSTORE PUSH1 0x4 ADD PUSH2 0x133F SWAP1 PUSH2 0x6DB4 JUMP JUMPDEST PUSH1 0x40 MLOAD DUP1 SWAP2 SUB SWAP1 REVERT JUMPDEST PUSH2 0x1350 PUSH2 0x5441 JUMP JUMPDEST ISZERO PUSH2 0x1390 JUMPI PUSH1 0x40 MLOAD PUSH32 0x8C379A000000000000000000000000000000000000000000000000000000000 DUP2 MSTORE PUSH1 0x4 ADD PUSH2 0x1387 SWAP1 PUSH2 0x6DB4 JUMP JUMPDEST PUSH1 0x40 MLOAD DUP1 SWAP2 SUB SWAP1 REVERT JUMPDEST PUSH1 0x2 SLOAD TIMESTAMP LT ISZERO PUSH2 0x13D5 JUMPI PUSH1 0x40 MLOAD PUSH32 0x8C379A000000000000000000000000000000000000000000000000000000000 DUP2 MSTORE PUSH1 0x4 ADD PUSH2 0x13CC SWAP1 PUSH2 0x6E74 JUMP JUMPDEST PUSH1 0x40 MLOAD DUP1 SWAP2 SUB SWAP1 REVERT JUMPDEST ADDRESS PUSH20 0xFFFFFFFFFFFFFFFFFFFFFFFFFFFFFFFFFFFFFFFF AND PUSH1 0x6 PUSH1 0x0 SWAP1 SLOAD SWAP1 PUSH2 0x100 EXP SWAP1 DIV PUSH20 0xFFFFFFFFFFFFFFFFFFFFFFFFFFFFFFFFFFFFFFFF AND PUSH20 0xFFFFFFFFFFFFFFFFFFFFFFFFFFFFFFFFFFFFFFFF AND PUSH4 0x570CA735 PUSH1 0x40 MLOAD DUP2 PUSH4 0xFFFFFFFF AND PUSH1 0xE0 SHL DUP2 MSTORE PUSH1 0x4 ADD PUSH1 0x20 PUSH1 0x40 MLOAD DUP1 DUP4 SUB DUP2 DUP7 DUP1 EXTCODESIZE ISZERO DUP1 ISZERO PUSH2 0x1454 JUMPI PUSH1 0x0 DUP1 REVERT JUMPDEST POP GAS STATICCALL ISZERO DUP1 ISZERO PUSH2 0x1468 JUMPI RETURNDATASIZE PUSH1 0x0 DUP1 RETURNDATACOPY RETURNDATASIZE PUSH1 0x0 REVERT JUMPDEST POP POP POP POP PUSH1 0x40 MLOAD RETURNDATASIZE PUSH1 0x1F NOT PUSH1 0x1F DUP3 ADD AND DUP3 ADD DUP1 PUSH1 0x40 MSTORE POP DUP2 ADD SWAP1 PUSH2 0x148C SWAP2 SWAP1 PUSH2 0x60A9 JUMP JUMPDEST PUSH20 0xFFFFFFFFFFFFFFFFFFFFFFFFFFFFFFFFFFFFFFFF AND EQ DUP1 ISZERO PUSH2 0x1579 JUMPI POP ADDRESS PUSH20 0xFFFFFFFFFFFFFFFFFFFFFFFFFFFFFFFFFFFFFFFF AND PUSH1 0x7 PUSH1 0x0 SWAP1 SLOAD SWAP1 PUSH2 0x100 EXP SWAP1 DIV PUSH20 0xFFFFFFFFFFFFFFFFFFFFFFFFFFFFFFFFFFFFFFFF AND PUSH20 0xFFFFFFFFFFFFFFFFFFFFFFFFFFFFFFFFFFFFFFFF AND PUSH4 0x570CA735 PUSH1 0x40 MLOAD DUP2 PUSH4 0xFFFFFFFF AND PUSH1 0xE0 SHL DUP2 MSTORE PUSH1 0x4 ADD PUSH1 0x20 PUSH1 0x40 MLOAD DUP1 DUP4 SUB DUP2 DUP7 DUP1 EXTCODESIZE ISZERO DUP1 ISZERO PUSH2 0x1529 JUMPI PUSH1 0x0 DUP1 REVERT JUMPDEST POP GAS STATICCALL ISZERO DUP1 ISZERO PUSH2 0x153D JUMPI RETURNDATASIZE PUSH1 0x0 DUP1 RETURNDATACOPY RETURNDATASIZE PUSH1 0x0 REVERT JUMPDEST POP POP POP POP PUSH1 0x40 MLOAD RETURNDATASIZE PUSH1 0x1F NOT PUSH1 0x1F DUP3 ADD AND DUP3 ADD DUP1 PUSH1 0x40 MSTORE POP DUP2 ADD SWAP1 PUSH2 0x1561 SWAP2 SWAP1 PUSH2 0x60A9 JUMP JUMPDEST PUSH20 0xFFFFFFFFFFFFFFFFFFFFFFFFFFFFFFFFFFFFFFFF AND EQ JUMPDEST DUP1 ISZERO PUSH2 0x164F JUMPI POP ADDRESS PUSH20 0xFFFFFFFFFFFFFFFFFFFFFFFFFFFFFFFFFFFFFFFF AND PUSH1 0x8 PUSH1 0x0 SWAP1 SLOAD SWAP1 PUSH2 0x100 EXP SWAP1 DIV PUSH20 0xFFFFFFFFFFFFFFFFFFFFFFFFFFFFFFFFFFFFFFFF AND PUSH20 0xFFFFFFFFFFFFFFFFFFFFFFFFFFFFFFFFFFFFFFFF AND PUSH4 0x570CA735 PUSH1 0x40 MLOAD DUP2 PUSH4 0xFFFFFFFF AND PUSH1 0xE0 SHL DUP2 MSTORE PUSH1 0x4 ADD PUSH1 0x20 PUSH1 0x40 MLOAD DUP1 DUP4 SUB DUP2 DUP7 DUP1 EXTCODESIZE ISZERO DUP1 ISZERO PUSH2 0x15FF JUMPI PUSH1 0x0 DUP1 REVERT JUMPDEST POP GAS STATICCALL ISZERO DUP1 ISZERO PUSH2 0x1613 JUMPI RETURNDATASIZE PUSH1 0x0 DUP1 RETURNDATACOPY RETURNDATASIZE PUSH1 0x0 REVERT JUMPDEST POP POP POP POP PUSH1 0x40 MLOAD RETURNDATASIZE PUSH1 0x1F NOT PUSH1 0x1F DUP3 ADD AND DUP3 ADD DUP1 PUSH1 0x40 MSTORE POP DUP2 ADD SWAP1 PUSH2 0x1637 SWAP2 SWAP1 PUSH2 0x60A9 JUMP JUMPDEST PUSH20 0xFFFFFFFFFFFFFFFFFFFFFFFFFFFFFFFFFFFFFFFF AND EQ JUMPDEST DUP1 ISZERO PUSH2 0x1725 JUMPI POP ADDRESS PUSH20 0xFFFFFFFFFFFFFFFFFFFFFFFFFFFFFFFFFFFFFFFF AND PUSH1 0x9 PUSH1 0x0 SWAP1 SLOAD SWAP1 PUSH2 0x100 EXP SWAP1 DIV PUSH20 0xFFFFFFFFFFFFFFFFFFFFFFFFFFFFFFFFFFFFFFFF AND PUSH20 0xFFFFFFFFFFFFFFFFFFFFFFFFFFFFFFFFFFFFFFFF AND PUSH4 0x570CA735 PUSH1 0x40 MLOAD DUP2 PUSH4 0xFFFFFFFF AND PUSH1 0xE0 SHL DUP2 MSTORE PUSH1 0x4 ADD PUSH1 0x20 PUSH1 0x40 MLOAD DUP1 DUP4 SUB DUP2 DUP7 DUP1 EXTCODESIZE ISZERO DUP1 ISZERO PUSH2 0x16D5 JUMPI PUSH1 0x0 DUP1 REVERT JUMPDEST POP GAS STATICCALL ISZERO DUP1 ISZERO PUSH2 0x16E9 JUMPI RETURNDATASIZE PUSH1 0x0 DUP1 RETURNDATACOPY RETURNDATASIZE PUSH1 0x0 REVERT JUMPDEST POP POP POP POP PUSH1 0x40 MLOAD RETURNDATASIZE PUSH1 0x1F NOT PUSH1 0x1F DUP3 ADD AND DUP3 ADD DUP1 PUSH1 0x40 MSTORE POP DUP2 ADD SWAP1 PUSH2 0x170D SWAP2 SWAP1 PUSH2 0x60A9 JUMP JUMPDEST PUSH20 0xFFFFFFFFFFFFFFFFFFFFFFFFFFFFFFFFFFFFFFFF AND EQ JUMPDEST PUSH2 0x1764 JUMPI PUSH1 0x40 MLOAD PUSH32 0x8C379A000000000000000000000000000000000000000000000000000000000 DUP2 MSTORE PUSH1 0x4 ADD PUSH2 0x175B SWAP1 PUSH2 0x6AD4 JUMP JUMPDEST PUSH1 0x40 MLOAD DUP1 SWAP2 SUB SWAP1 REVERT JUMPDEST PUSH1 0x0 DUP3 GT PUSH2 0x17A7 JUMPI PUSH1 0x40 MLOAD PUSH32 0x8C379A000000000000000000000000000000000000000000000000000000000 DUP2 MSTORE PUSH1 0x4 ADD PUSH2 0x179E SWAP1 PUSH2 0x6AB4 JUMP JUMPDEST PUSH1 0x40 MLOAD DUP1 SWAP2 SUB SWAP1 REVERT JUMPDEST PUSH1 0x0 PUSH2 0x17B1 PUSH2 0xDDC JUMP JUMPDEST SWAP1 POP DUP2 DUP2 EQ PUSH2 0x17F5 JUMPI PUSH1 0x40 MLOAD PUSH32 0x8C379A000000000000000000000000000000000000000000000000000000000 DUP2 MSTORE PUSH1 0x4 ADD PUSH2 0x17EC SWAP1 PUSH2 0x6D54 JUMP JUMPDEST PUSH1 0x40 MLOAD DUP1 SWAP2 SUB SWAP1 REVERT JUMPDEST PUSH1 0xC SLOAD DUP2 GT PUSH2 0x1839 JUMPI PUSH1 0x40 MLOAD PUSH32 0x8C379A000000000000000000000000000000000000000000000000000000000 DUP2 MSTORE PUSH1 0x4 ADD PUSH2 0x1830 SWAP1 PUSH2 0x6E14 JUMP JUMPDEST PUSH1 0x40 MLOAD DUP1 SWAP2 SUB SWAP1 REVERT JUMPDEST PUSH1 0x0 PUSH2 0x1843 PUSH2 0x122C JUMP JUMPDEST SWAP1 POP PUSH1 0x0 DUP2 GT PUSH2 0x1888 JUMPI PUSH1 0x40 MLOAD PUSH32 0x8C379A000000000000000000000000000000000000000000000000000000000 DUP2 MSTORE PUSH1 0x4 ADD PUSH2 0x187F SWAP1 PUSH2 0x6A54 JUMP JUMPDEST PUSH1 0x40 MLOAD DUP1 SWAP2 SUB SWAP1 REVERT JUMPDEST PUSH1 0x0 PUSH2 0x18B7 PUSH8 0xDE0B6B3A7640000 PUSH2 0x18A9 DUP5 DUP9 PUSH2 0x536C SWAP1 SWAP2 SWAP1 PUSH4 0xFFFFFFFF AND JUMP JUMPDEST PUSH2 0x5382 SWAP1 SWAP2 SWAP1 PUSH4 0xFFFFFFFF AND JUMP JUMPDEST SWAP1 POP DUP1 PUSH1 0x6 PUSH1 0x0 SWAP1 SLOAD SWAP1 PUSH2 0x100 EXP SWAP1 DIV PUSH20 0xFFFFFFFFFFFFFFFFFFFFFFFFFFFFFFFFFFFFFFFF AND PUSH20 0xFFFFFFFFFFFFFFFFFFFFFFFFFFFFFFFFFFFFFFFF AND PUSH4 0x70A08231 ADDRESS PUSH1 0x40 MLOAD DUP3 PUSH4 0xFFFFFFFF AND PUSH1 0xE0 SHL DUP2 MSTORE PUSH1 0x4 ADD PUSH2 0x1915 SWAP2 SWAP1 PUSH2 0x692A JUMP JUMPDEST PUSH1 0x20 PUSH1 0x40 MLOAD DUP1 DUP4 SUB DUP2 DUP7 DUP1 EXTCODESIZE ISZERO DUP1 ISZERO PUSH2 0x192D JUMPI PUSH1 0x0 DUP1 REVERT JUMPDEST POP GAS STATICCALL ISZERO DUP1 ISZERO PUSH2 0x1941 JUMPI RETURNDATASIZE PUSH1 0x0 DUP1 RETURNDATACOPY RETURNDATASIZE PUSH1 0x0 REVERT JUMPDEST POP POP POP POP PUSH1 0x40 MLOAD RETURNDATASIZE PUSH1 0x1F NOT PUSH1 0x1F DUP3 ADD AND DUP3 ADD DUP1 PUSH1 0x40 MSTORE POP DUP2 ADD SWAP1 PUSH2 0x1965 SWAP2 SWAP1 PUSH2 0x62F7 JUMP JUMPDEST LT ISZERO PUSH2 0x19A6 JUMPI PUSH1 0x40 MLOAD PUSH32 0x8C379A000000000000000000000000000000000000000000000000000000000 DUP2 MSTORE PUSH1 0x4 ADD PUSH2 0x199D SWAP1 PUSH2 0x6BB4 JUMP JUMPDEST PUSH1 0x40 MLOAD DUP1 SWAP2 SUB SWAP1 REVERT JUMPDEST PUSH2 0x19C6 PUSH2 0x19B5 PUSH1 0xD SLOAD DUP4 PUSH2 0x53AE JUMP JUMPDEST PUSH1 0xD SLOAD PUSH2 0x5398 SWAP1 SWAP2 SWAP1 PUSH4 0xFFFFFFFF AND JUMP JUMPDEST PUSH1 0xD DUP2 SWAP1 SSTORE POP PUSH1 0x7 PUSH1 0x0 SWAP1 SLOAD SWAP1 PUSH2 0x100 EXP SWAP1 DIV PUSH20 0xFFFFFFFFFFFFFFFFFFFFFFFFFFFFFFFFFFFFFFFF AND PUSH20 0xFFFFFFFFFFFFFFFFFFFFFFFFFFFFFFFFFFFFFFFF AND PUSH4 0x79CC6790 CALLER DUP8 PUSH1 0x40 MLOAD DUP4 PUSH4 0xFFFFFFFF AND PUSH1 0xE0 SHL DUP2 MSTORE PUSH1 0x4 ADD PUSH2 0x1A29 SWAP3 SWAP2 SWAP1 PUSH2 0x6997 JUMP JUMPDEST PUSH1 0x0 PUSH1 0x40 MLOAD DUP1 DUP4 SUB DUP2 PUSH1 0x0 DUP8 DUP1 EXTCODESIZE ISZERO DUP1 ISZERO PUSH2 0x1A43 JUMPI PUSH1 0x0 DUP1 REVERT JUMPDEST POP GAS CALL ISZERO DUP1 ISZERO PUSH2 0x1A57 JUMPI RETURNDATASIZE PUSH1 0x0 DUP1 RETURNDATACOPY RETURNDATASIZE PUSH1 0x0 REVERT JUMPDEST POP POP POP POP PUSH2 0x1AA8 CALLER DUP3 PUSH1 0x6 PUSH1 0x0 SWAP1 SLOAD SWAP1 PUSH2 0x100 EXP SWAP1 DIV PUSH20 0xFFFFFFFFFFFFFFFFFFFFFFFFFFFFFFFFFFFFFFFF AND PUSH20 0xFFFFFFFFFFFFFFFFFFFFFFFFFFFFFFFFFFFFFFFF AND PUSH2 0x54A5 SWAP1 SWAP3 SWAP2 SWAP1 PUSH4 0xFFFFFFFF AND JUMP JUMPDEST PUSH2 0x1AB0 PUSH2 0x552B JUMP JUMPDEST CALLER PUSH20 0xFFFFFFFFFFFFFFFFFFFFFFFFFFFFFFFFFFFFFFFF AND PUSH32 0x51E0D16595CABC591E64DA08E45BB223577E5B9A39CD947B4DDC3472B2DD8878 DUP3 DUP8 PUSH1 0x40 MLOAD PUSH2 0x1AF8 SWAP3 SWAP2 SWAP1 PUSH2 0x6EAF JUMP JUMPDEST PUSH1 0x40 MLOAD DUP1 SWAP2 SUB SWAP1 LOG2 POP POP POP PUSH1 0x1 PUSH1 0x0 DUP1 NUMBER DUP2 MSTORE PUSH1 0x20 ADD SWAP1 DUP2 MSTORE PUSH1 0x20 ADD PUSH1 0x0 KECCAK256 PUSH1 0x0 ORIGIN PUSH20 0xFFFFFFFFFFFFFFFFFFFFFFFFFFFFFFFFFFFFFFFF AND PUSH20 0xFFFFFFFFFFFFFFFFFFFFFFFFFFFFFFFFFFFFFFFF AND DUP2 MSTORE PUSH1 0x20 ADD SWAP1 DUP2 MSTORE PUSH1 0x20 ADD PUSH1 0x0 KECCAK256 PUSH1 0x0 PUSH2 0x100 EXP DUP2 SLOAD DUP2 PUSH1 0xFF MUL NOT AND SWAP1 DUP4 ISZERO ISZERO MUL OR SWAP1 SSTORE POP PUSH1 0x1 PUSH1 0x0 DUP1 NUMBER DUP2 MSTORE PUSH1 0x20 ADD SWAP1 DUP2 MSTORE PUSH1 0x20 ADD PUSH1 0x0 KECCAK256 PUSH1 0x0 CALLER PUSH20 0xFFFFFFFFFFFFFFFFFFFFFFFFFFFFFFFFFFFFFFFF AND PUSH20 0xFFFFFFFFFFFFFFFFFFFFFFFFFFFFFFFFFFFFFFFF AND DUP2 MSTORE PUSH1 0x20 ADD SWAP1 DUP2 MSTORE PUSH1 0x20 ADD PUSH1 0x0 KECCAK256 PUSH1 0x0 PUSH2 0x100 EXP DUP2 SLOAD DUP2 PUSH1 0xFF MUL NOT AND SWAP1 DUP4 ISZERO ISZERO MUL OR SWAP1 SSTORE POP POP POP JUMP JUMPDEST CALLER PUSH20 0xFFFFFFFFFFFFFFFFFFFFFFFFFFFFFFFFFFFFFFFF AND PUSH1 0x1 PUSH1 0x0 SWAP1 SLOAD SWAP1 PUSH2 0x100 EXP SWAP1 DIV PUSH20 0xFFFFFFFFFFFFFFFFFFFFFFFFFFFFFFFFFFFFFFFF AND PUSH20 0xFFFFFFFFFFFFFFFFFFFFFFFFFFFFFFFFFFFFFFFF AND EQ PUSH2 0x1C67 JUMPI PUSH1 0x40 MLOAD PUSH32 0x8C379A000000000000000000000000000000000000000000000000000000000 DUP2 MSTORE PUSH1 0x4 ADD PUSH2 0x1C5E SWAP1 PUSH2 0x6D14 JUMP JUMPDEST PUSH1 0x40 MLOAD DUP1 SWAP2 SUB SWAP1 REVERT JUMPDEST PUSH2 0x4E20 DUP2 GT ISZERO PUSH2 0x1CAC JUMPI PUSH1 0x40 MLOAD PUSH32 0x8C379A000000000000000000000000000000000000000000000000000000000 DUP2 MSTORE PUSH1 0x4 ADD PUSH2 0x1CA3 SWAP1 PUSH2 0x6BD4 JUMP JUMPDEST PUSH1 0x40 MLOAD DUP1 SWAP2 SUB SWAP1 REVERT JUMPDEST DUP1 PUSH1 0x1A DUP2 SWAP1 SSTORE POP POP JUMP JUMPDEST PUSH1 0x1 PUSH1 0x14 SWAP1 SLOAD SWAP1 PUSH2 0x100 EXP SWAP1 DIV PUSH1 0xFF AND DUP2 JUMP JUMPDEST PUSH1 0xC SLOAD DUP2 JUMP JUMPDEST PUSH1 0x12 SLOAD DUP2 JUMP JUMPDEST PUSH1 0x1A SLOAD DUP2 JUMP JUMPDEST PUSH1 0x19 SLOAD DUP2 JUMP JUMPDEST PUSH1 0x0 PUSH1 0x1 PUSH1 0x14 SWAP1 SLOAD SWAP1 PUSH2 0x100 EXP SWAP1 DIV PUSH1 0xFF AND SWAP1 POP SWAP1 JUMP JUMPDEST CALLER PUSH20 0xFFFFFFFFFFFFFFFFFFFFFFFFFFFFFFFFFFFFFFFF AND PUSH1 0x1 PUSH1 0x0 SWAP1 SLOAD SWAP1 PUSH2 0x100 EXP SWAP1 DIV PUSH20 0xFFFFFFFFFFFFFFFFFFFFFFFFFFFFFFFFFFFFFFFF AND PUSH20 0xFFFFFFFFFFFFFFFFFFFFFFFFFFFFFFFFFFFFFFFF AND EQ PUSH2 0x1D88 JUMPI PUSH1 0x40 MLOAD PUSH32 0x8C379A000000000000000000000000000000000000000000000000000000000 DUP2 MSTORE PUSH1 0x4 ADD PUSH2 0x1D7F SWAP1 PUSH2 0x6D14 JUMP JUMPDEST PUSH1 0x40 MLOAD DUP1 SWAP2 SUB SWAP1 REVERT JUMPDEST PUSH1 0xB SLOAD DUP2 LT ISZERO DUP1 ISZERO PUSH2 0x1DC2 JUMPI POP PUSH2 0x1DBE PUSH1 0x64 PUSH2 0x1DB0 PUSH1 0x78 PUSH1 0xB SLOAD PUSH2 0x536C SWAP1 SWAP2 SWAP1 PUSH4 0xFFFFFFFF AND JUMP JUMPDEST PUSH2 0x5382 SWAP1 SWAP2 SWAP1 PUSH4 0xFFFFFFFF AND JUMP JUMPDEST DUP2 GT ISZERO JUMPDEST PUSH2 0x1E01 JUMPI PUSH1 0x40 MLOAD PUSH32 0x8C379A000000000000000000000000000000000000000000000000000000000 DUP2 MSTORE PUSH1 0x4 ADD PUSH2 0x1DF8 SWAP1 PUSH2 0x6B14 JUMP JUMPDEST PUSH1 0x40 MLOAD DUP1 SWAP2 SUB SWAP1 REVERT JUMPDEST DUP1 PUSH1 0xC DUP2 SWAP1 SSTORE POP POP JUMP JUMPDEST PUSH1 0x1D SLOAD DUP2 JUMP JUMPDEST CALLER PUSH20 0xFFFFFFFFFFFFFFFFFFFFFFFFFFFFFFFFFFFFFFFF AND PUSH1 0x1 PUSH1 0x0 SWAP1 SLOAD SWAP1 PUSH2 0x100 EXP SWAP1 DIV PUSH20 0xFFFFFFFFFFFFFFFFFFFFFFFFFFFFFFFFFFFFFFFF AND PUSH20 0xFFFFFFFFFFFFFFFFFFFFFFFFFFFFFFFFFFFFFFFF AND EQ PUSH2 0x1EA1 JUMPI PUSH1 0x40 MLOAD PUSH32 0x8C379A000000000000000000000000000000000000000000000000000000000 DUP2 MSTORE PUSH1 0x4 ADD PUSH2 0x1E98 SWAP1 PUSH2 0x6D14 JUMP JUMPDEST PUSH1 0x40 MLOAD DUP1 SWAP2 SUB SWAP1 REVERT JUMPDEST PUSH2 0x4E20 DUP2 GT ISZERO PUSH2 0x1EE6 JUMPI PUSH1 0x40 MLOAD PUSH32 0x8C379A000000000000000000000000000000000000000000000000000000000 DUP2 MSTORE PUSH1 0x4 ADD PUSH2 0x1EDD SWAP1 PUSH2 0x6B94 JUMP JUMPDEST PUSH1 0x40 MLOAD DUP1 SWAP2 SUB SWAP1 REVERT JUMPDEST DUP1 PUSH1 0x1C DUP2 SWAP1 SSTORE POP POP JUMP JUMPDEST PUSH1 0xB SLOAD DUP2 JUMP JUMPDEST PUSH1 0x20 PUSH1 0x0 SWAP1 SLOAD SWAP1 PUSH2 0x100 EXP SWAP1 DIV PUSH20 0xFFFFFFFFFFFFFFFFFFFFFFFFFFFFFFFFFFFFFFFF AND DUP2 JUMP JUMPDEST CALLER PUSH20 0xFFFFFFFFFFFFFFFFFFFFFFFFFFFFFFFFFFFFFFFF AND PUSH1 0x1 PUSH1 0x0 SWAP1 SLOAD SWAP1 PUSH2 0x100 EXP SWAP1 DIV PUSH20 0xFFFFFFFFFFFFFFFFFFFFFFFFFFFFFFFFFFFFFFFF AND PUSH20 0xFFFFFFFFFFFFFFFFFFFFFFFFFFFFFFFFFFFFFFFF AND EQ PUSH2 0x1FAC JUMPI PUSH1 0x40 MLOAD PUSH32 0x8C379A000000000000000000000000000000000000000000000000000000000 DUP2 MSTORE PUSH1 0x4 ADD PUSH2 0x1FA3 SWAP1 PUSH2 0x6D14 JUMP JUMPDEST PUSH1 0x40 MLOAD DUP1 SWAP2 SUB SWAP1 REVERT JUMPDEST PUSH2 0x2710 DUP2 LT ISZERO DUP1 ISZERO PUSH2 0x1FC0 JUMPI POP PUSH2 0x4E20 DUP2 GT ISZERO JUMPDEST PUSH2 0x1FFF JUMPI PUSH1 0x40 MLOAD PUSH32 0x8C379A000000000000000000000000000000000000000000000000000000000 DUP2 MSTORE PUSH1 0x4 ADD PUSH2 0x1FF6 SWAP1 PUSH2 0x6C14 JUMP JUMPDEST PUSH1 0x40 MLOAD DUP1 SWAP2 SUB SWAP1 REVERT JUMPDEST DUP1 PUSH1 0x1D DUP2 SWAP1 SSTORE POP POP JUMP JUMPDEST CALLER PUSH20 0xFFFFFFFFFFFFFFFFFFFFFFFFFFFFFFFFFFFFFFFF AND PUSH1 0x1 PUSH1 0x0 SWAP1 SLOAD SWAP1 PUSH2 0x100 EXP SWAP1 DIV PUSH20 0xFFFFFFFFFFFFFFFFFFFFFFFFFFFFFFFFFFFFFFFF AND PUSH20 0xFFFFFFFFFFFFFFFFFFFFFFFFFFFFFFFFFFFFFFFF AND EQ PUSH2 0x2099 JUMPI PUSH1 0x40 MLOAD PUSH32 0x8C379A000000000000000000000000000000000000000000000000000000000 DUP2 MSTORE PUSH1 0x4 ADD PUSH2 0x2090 SWAP1 PUSH2 0x6D14 JUMP JUMPDEST PUSH1 0x40 MLOAD DUP1 SWAP2 SUB SWAP1 REVERT JUMPDEST PUSH1 0x6 PUSH1 0x0 SWAP1 SLOAD SWAP1 PUSH2 0x100 EXP SWAP1 DIV PUSH20 0xFFFFFFFFFFFFFFFFFFFFFFFFFFFFFFFFFFFFFFFF AND PUSH20 0xFFFFFFFFFFFFFFFFFFFFFFFFFFFFFFFFFFFFFFFF AND DUP4 PUSH20 0xFFFFFFFFFFFFFFFFFFFFFFFFFFFFFFFFFFFFFFFF AND EQ ISZERO PUSH2 0x212A JUMPI PUSH1 0x40 MLOAD PUSH32 0x8C379A000000000000000000000000000000000000000000000000000000000 DUP2 MSTORE PUSH1 0x4 ADD PUSH2 0x2121 SWAP1 PUSH2 0x6C54 JUMP JUMPDEST PUSH1 0x40 MLOAD DUP1 SWAP2 SUB SWAP1 REVERT JUMPDEST PUSH1 0x7 PUSH1 0x0 SWAP1 SLOAD SWAP1 PUSH2 0x100 EXP SWAP1 DIV PUSH20 0xFFFFFFFFFFFFFFFFFFFFFFFFFFFFFFFFFFFFFFFF AND PUSH20 0xFFFFFFFFFFFFFFFFFFFFFFFFFFFFFFFFFFFFFFFF AND DUP4 PUSH20 0xFFFFFFFFFFFFFFFFFFFFFFFFFFFFFFFFFFFFFFFF AND EQ ISZERO PUSH2 0x21BB JUMPI PUSH1 0x40 MLOAD PUSH32 0x8C379A000000000000000000000000000000000000000000000000000000000 DUP2 MSTORE PUSH1 0x4 ADD PUSH2 0x21B2 SWAP1 PUSH2 0x6A34 JUMP JUMPDEST PUSH1 0x40 MLOAD DUP1 SWAP2 SUB SWAP1 REVERT JUMPDEST PUSH1 0x8 PUSH1 0x0 SWAP1 SLOAD SWAP1 PUSH2 0x100 EXP SWAP1 DIV PUSH20 0xFFFFFFFFFFFFFFFFFFFFFFFFFFFFFFFFFFFFFFFF AND PUSH20 0xFFFFFFFFFFFFFFFFFFFFFFFFFFFFFFFFFFFFFFFF AND DUP4 PUSH20 0xFFFFFFFFFFFFFFFFFFFFFFFFFFFFFFFFFFFFFFFF AND EQ ISZERO PUSH2 0x224C JUMPI PUSH1 0x40 MLOAD PUSH32 0x8C379A000000000000000000000000000000000000000000000000000000000 DUP2 MSTORE PUSH1 0x4 ADD PUSH2 0x2243 SWAP1 PUSH2 0x6CF4 JUMP JUMPDEST PUSH1 0x40 MLOAD DUP1 SWAP2 SUB SWAP1 REVERT JUMPDEST PUSH2 0x2277 DUP2 DUP4 DUP6 PUSH20 0xFFFFFFFFFFFFFFFFFFFFFFFFFFFFFFFFFFFFFFFF AND PUSH2 0x54A5 SWAP1 SWAP3 SWAP2 SWAP1 PUSH4 0xFFFFFFFF AND JUMP JUMPDEST POP POP POP JUMP JUMPDEST PUSH2 0x2284 PUSH2 0x53DD JUMP JUMPDEST ISZERO PUSH2 0x22C4 JUMPI PUSH1 0x40 MLOAD PUSH32 0x8C379A000000000000000000000000000000000000000000000000000000000 DUP2 MSTORE PUSH1 0x4 ADD PUSH2 0x22BB SWAP1 PUSH2 0x6DB4 JUMP JUMPDEST PUSH1 0x40 MLOAD DUP1 SWAP2 SUB SWAP1 REVERT JUMPDEST PUSH2 0x22CC PUSH2 0x5441 JUMP JUMPDEST ISZERO PUSH2 0x230C JUMPI PUSH1 0x40 MLOAD PUSH32 0x8C379A000000000000000000000000000000000000000000000000000000000 DUP2 MSTORE PUSH1 0x4 ADD PUSH2 0x2303 SWAP1 PUSH2 0x6DB4 JUMP JUMPDEST PUSH1 0x40 MLOAD DUP1 SWAP2 SUB SWAP1 REVERT JUMPDEST PUSH1 0x2 SLOAD TIMESTAMP LT ISZERO PUSH2 0x2351 JUMPI PUSH1 0x40 MLOAD PUSH32 0x8C379A000000000000000000000000000000000000000000000000000000000 DUP2 MSTORE PUSH1 0x4 ADD PUSH2 0x2348 SWAP1 PUSH2 0x6E74 JUMP JUMPDEST PUSH1 0x40 MLOAD DUP1 SWAP2 SUB SWAP1 REVERT JUMPDEST ADDRESS PUSH20 0xFFFFFFFFFFFFFFFFFFFFFFFFFFFFFFFFFFFFFFFF AND PUSH1 0x6 PUSH1 0x0 SWAP1 SLOAD SWAP1 PUSH2 0x100 EXP SWAP1 DIV PUSH20 0xFFFFFFFFFFFFFFFFFFFFFFFFFFFFFFFFFFFFFFFF AND PUSH20 0xFFFFFFFFFFFFFFFFFFFFFFFFFFFFFFFFFFFFFFFF AND PUSH4 0x570CA735 PUSH1 0x40 MLOAD DUP2 PUSH4 0xFFFFFFFF AND PUSH1 0xE0 SHL DUP2 MSTORE PUSH1 0x4 ADD PUSH1 0x20 PUSH1 0x40 MLOAD DUP1 DUP4 SUB DUP2 DUP7 DUP1 EXTCODESIZE ISZERO DUP1 ISZERO PUSH2 0x23D0 JUMPI PUSH1 0x0 DUP1 REVERT JUMPDEST POP GAS STATICCALL ISZERO DUP1 ISZERO PUSH2 0x23E4 JUMPI RETURNDATASIZE PUSH1 0x0 DUP1 RETURNDATACOPY RETURNDATASIZE PUSH1 0x0 REVERT JUMPDEST POP POP POP POP PUSH1 0x40 MLOAD RETURNDATASIZE PUSH1 0x1F NOT PUSH1 0x1F DUP3 ADD AND DUP3 ADD DUP1 PUSH1 0x40 MSTORE POP DUP2 ADD SWAP1 PUSH2 0x2408 SWAP2 SWAP1 PUSH2 0x60A9 JUMP JUMPDEST PUSH20 0xFFFFFFFFFFFFFFFFFFFFFFFFFFFFFFFFFFFFFFFF AND EQ DUP1 ISZERO PUSH2 0x24F5 JUMPI POP ADDRESS PUSH20 0xFFFFFFFFFFFFFFFFFFFFFFFFFFFFFFFFFFFFFFFF AND PUSH1 0x7 PUSH1 0x0 SWAP1 SLOAD SWAP1 PUSH2 0x100 EXP SWAP1 DIV PUSH20 0xFFFFFFFFFFFFFFFFFFFFFFFFFFFFFFFFFFFFFFFF AND PUSH20 0xFFFFFFFFFFFFFFFFFFFFFFFFFFFFFFFFFFFFFFFF AND PUSH4 0x570CA735 PUSH1 0x40 MLOAD DUP2 PUSH4 0xFFFFFFFF AND PUSH1 0xE0 SHL DUP2 MSTORE PUSH1 0x4 ADD PUSH1 0x20 PUSH1 0x40 MLOAD DUP1 DUP4 SUB DUP2 DUP7 DUP1 EXTCODESIZE ISZERO DUP1 ISZERO PUSH2 0x24A5 JUMPI PUSH1 0x0 DUP1 REVERT JUMPDEST POP GAS STATICCALL ISZERO DUP1 ISZERO PUSH2 0x24B9 JUMPI RETURNDATASIZE PUSH1 0x0 DUP1 RETURNDATACOPY RETURNDATASIZE PUSH1 0x0 REVERT JUMPDEST POP POP POP POP PUSH1 0x40 MLOAD RETURNDATASIZE PUSH1 0x1F NOT PUSH1 0x1F DUP3 ADD AND DUP3 ADD DUP1 PUSH1 0x40 MSTORE POP DUP2 ADD SWAP1 PUSH2 0x24DD SWAP2 SWAP1 PUSH2 0x60A9 JUMP JUMPDEST PUSH20 0xFFFFFFFFFFFFFFFFFFFFFFFFFFFFFFFFFFFFFFFF AND EQ JUMPDEST DUP1 ISZERO PUSH2 0x25CB JUMPI POP ADDRESS PUSH20 0xFFFFFFFFFFFFFFFFFFFFFFFFFFFFFFFFFFFFFFFF AND PUSH1 0x8 PUSH1 0x0 SWAP1 SLOAD SWAP1 PUSH2 0x100 EXP SWAP1 DIV PUSH20 0xFFFFFFFFFFFFFFFFFFFFFFFFFFFFFFFFFFFFFFFF AND PUSH20 0xFFFFFFFFFFFFFFFFFFFFFFFFFFFFFFFFFFFFFFFF AND PUSH4 0x570CA735 PUSH1 0x40 MLOAD DUP2 PUSH4 0xFFFFFFFF AND PUSH1 0xE0 SHL DUP2 MSTORE PUSH1 0x4 ADD PUSH1 0x20 PUSH1 0x40 MLOAD DUP1 DUP4 SUB DUP2 DUP7 DUP1 EXTCODESIZE ISZERO DUP1 ISZERO PUSH2 0x257B JUMPI PUSH1 0x0 DUP1 REVERT JUMPDEST POP GAS STATICCALL ISZERO DUP1 ISZERO PUSH2 0x258F JUMPI RETURNDATASIZE PUSH1 0x0 DUP1 RETURNDATACOPY RETURNDATASIZE PUSH1 0x0 REVERT JUMPDEST POP POP POP POP PUSH1 0x40 MLOAD RETURNDATASIZE PUSH1 0x1F NOT PUSH1 0x1F DUP3 ADD AND DUP3 ADD DUP1 PUSH1 0x40 MSTORE POP DUP2 ADD SWAP1 PUSH2 0x25B3 SWAP2 SWAP1 PUSH2 0x60A9 JUMP JUMPDEST PUSH20 0xFFFFFFFFFFFFFFFFFFFFFFFFFFFFFFFFFFFFFFFF AND EQ JUMPDEST DUP1 ISZERO PUSH2 0x26A1 JUMPI POP ADDRESS PUSH20 0xFFFFFFFFFFFFFFFFFFFFFFFFFFFFFFFFFFFFFFFF AND PUSH1 0x9 PUSH1 0x0 SWAP1 SLOAD SWAP1 PUSH2 0x100 EXP SWAP1 DIV PUSH20 0xFFFFFFFFFFFFFFFFFFFFFFFFFFFFFFFFFFFFFFFF AND PUSH20 0xFFFFFFFFFFFFFFFFFFFFFFFFFFFFFFFFFFFFFFFF AND PUSH4 0x570CA735 PUSH1 0x40 MLOAD DUP2 PUSH4 0xFFFFFFFF AND PUSH1 0xE0 SHL DUP2 MSTORE PUSH1 0x4 ADD PUSH1 0x20 PUSH1 0x40 MLOAD DUP1 DUP4 SUB DUP2 DUP7 DUP1 EXTCODESIZE ISZERO DUP1 ISZERO PUSH2 0x2651 JUMPI PUSH1 0x0 DUP1 REVERT JUMPDEST POP GAS STATICCALL ISZERO DUP1 ISZERO PUSH2 0x2665 JUMPI RETURNDATASIZE PUSH1 0x0 DUP1 RETURNDATACOPY RETURNDATASIZE PUSH1 0x0 REVERT JUMPDEST POP POP POP POP PUSH1 0x40 MLOAD RETURNDATASIZE PUSH1 0x1F NOT PUSH1 0x1F DUP3 ADD AND DUP3 ADD DUP1 PUSH1 0x40 MSTORE POP DUP2 ADD SWAP1 PUSH2 0x2689 SWAP2 SWAP1 PUSH2 0x60A9 JUMP JUMPDEST PUSH20 0xFFFFFFFFFFFFFFFFFFFFFFFFFFFFFFFFFFFFFFFF AND EQ JUMPDEST PUSH2 0x26E0 JUMPI PUSH1 0x40 MLOAD PUSH32 0x8C379A000000000000000000000000000000000000000000000000000000000 DUP2 MSTORE PUSH1 0x4 ADD PUSH2 0x26D7 SWAP1 PUSH2 0x6AD4 JUMP JUMPDEST PUSH1 0x40 MLOAD DUP1 SWAP2 SUB SWAP1 REVERT JUMPDEST PUSH1 0x0 DUP3 GT PUSH2 0x2723 JUMPI PUSH1 0x40 MLOAD PUSH32 0x8C379A000000000000000000000000000000000000000000000000000000000 DUP2 MSTORE PUSH1 0x4 ADD PUSH2 0x271A SWAP1 PUSH2 0x6BF4 JUMP JUMPDEST PUSH1 0x40 MLOAD DUP1 SWAP2 SUB SWAP1 REVERT JUMPDEST PUSH1 0x0 PUSH2 0x272D PUSH2 0xDDC JUMP JUMPDEST SWAP1 POP DUP2 DUP2 EQ PUSH2 0x2771 JUMPI PUSH1 0x40 MLOAD PUSH32 0x8C379A000000000000000000000000000000000000000000000000000000000 DUP2 MSTORE PUSH1 0x4 ADD PUSH2 0x2768 SWAP1 PUSH2 0x6D54 JUMP JUMPDEST PUSH1 0x40 MLOAD DUP1 SWAP2 SUB SWAP1 REVERT JUMPDEST PUSH1 0xB SLOAD DUP2 LT PUSH2 0x27B5 JUMPI PUSH1 0x40 MLOAD PUSH32 0x8C379A000000000000000000000000000000000000000000000000000000000 DUP2 MSTORE PUSH1 0x4 ADD PUSH2 0x27AC SWAP1 PUSH2 0x6E14 JUMP JUMPDEST PUSH1 0x40 MLOAD DUP1 SWAP2 SUB SWAP1 REVERT JUMPDEST PUSH1 0x4 SLOAD DUP4 GT ISZERO PUSH2 0x27FA JUMPI PUSH1 0x40 MLOAD PUSH32 0x8C379A000000000000000000000000000000000000000000000000000000000 DUP2 MSTORE PUSH1 0x4 ADD PUSH2 0x27F1 SWAP1 PUSH2 0x6E34 JUMP JUMPDEST PUSH1 0x40 MLOAD DUP1 SWAP2 SUB SWAP1 REVERT JUMPDEST PUSH1 0x0 PUSH2 0x2804 PUSH2 0x1150 JUMP JUMPDEST SWAP1 POP PUSH1 0x0 DUP2 GT PUSH2 0x2849 JUMPI PUSH1 0x40 MLOAD PUSH32 0x8C379A000000000000000000000000000000000000000000000000000000000 DUP2 MSTORE PUSH1 0x4 ADD PUSH2 0x2840 SWAP1 PUSH2 0x6A54 JUMP JUMPDEST PUSH1 0x40 MLOAD DUP1 SWAP2 SUB SWAP1 REVERT JUMPDEST PUSH1 0x0 PUSH2 0x2878 PUSH8 0xDE0B6B3A7640000 PUSH2 0x286A DUP5 DUP9 PUSH2 0x536C SWAP1 SWAP2 SWAP1 PUSH4 0xFFFFFFFF AND JUMP JUMPDEST PUSH2 0x5382 SWAP1 SWAP2 SWAP1 PUSH4 0xFFFFFFFF AND JUMP JUMPDEST SWAP1 POP PUSH1 0x0 PUSH2 0x2884 PUSH2 0x3B94 JUMP JUMPDEST SWAP1 POP PUSH1 0x0 PUSH2 0x293A DUP4 PUSH1 0x7 PUSH1 0x0 SWAP1 SLOAD SWAP1 PUSH2 0x100 EXP SWAP1 DIV PUSH20 0xFFFFFFFFFFFFFFFFFFFFFFFFFFFFFFFFFFFFFFFF AND PUSH20 0xFFFFFFFFFFFFFFFFFFFFFFFFFFFFFFFFFFFFFFFF AND PUSH4 0x18160DDD PUSH1 0x40 MLOAD DUP2 PUSH4 0xFFFFFFFF AND PUSH1 0xE0 SHL DUP2 MSTORE PUSH1 0x4 ADD PUSH1 0x20 PUSH1 0x40 MLOAD DUP1 DUP4 SUB DUP2 DUP7 DUP1 EXTCODESIZE ISZERO DUP1 ISZERO PUSH2 0x28F4 JUMPI PUSH1 0x0 DUP1 REVERT JUMPDEST POP GAS STATICCALL ISZERO DUP1 ISZERO PUSH2 0x2908 JUMPI RETURNDATASIZE PUSH1 0x0 DUP1 RETURNDATACOPY RETURNDATASIZE PUSH1 0x0 REVERT JUMPDEST POP POP POP POP PUSH1 0x40 MLOAD RETURNDATASIZE PUSH1 0x1F NOT PUSH1 0x1F DUP3 ADD AND DUP3 ADD DUP1 PUSH1 0x40 MSTORE POP DUP2 ADD SWAP1 PUSH2 0x292C SWAP2 SWAP1 PUSH2 0x62F7 JUMP JUMPDEST PUSH2 0x53C7 SWAP1 SWAP2 SWAP1 PUSH4 0xFFFFFFFF AND JUMP JUMPDEST SWAP1 POP PUSH2 0x2965 PUSH2 0x2710 PUSH2 0x2957 PUSH1 0x14 SLOAD DUP6 PUSH2 0x536C SWAP1 SWAP2 SWAP1 PUSH4 0xFFFFFFFF AND JUMP JUMPDEST PUSH2 0x5382 SWAP1 SWAP2 SWAP1 PUSH4 0xFFFFFFFF AND JUMP JUMPDEST DUP2 GT ISZERO PUSH2 0x29A7 JUMPI PUSH1 0x40 MLOAD PUSH32 0x8C379A000000000000000000000000000000000000000000000000000000000 DUP2 MSTORE PUSH1 0x4 ADD PUSH2 0x299E SWAP1 PUSH2 0x6D74 JUMP JUMPDEST PUSH1 0x40 MLOAD DUP1 SWAP2 SUB SWAP1 REVERT JUMPDEST PUSH1 0x6 PUSH1 0x0 SWAP1 SLOAD SWAP1 PUSH2 0x100 EXP SWAP1 DIV PUSH20 0xFFFFFFFFFFFFFFFFFFFFFFFFFFFFFFFFFFFFFFFF AND PUSH20 0xFFFFFFFFFFFFFFFFFFFFFFFFFFFFFFFFFFFFFFFF AND PUSH4 0x79CC6790 CALLER DUP10 PUSH1 0x40 MLOAD DUP4 PUSH4 0xFFFFFFFF AND PUSH1 0xE0 SHL DUP2 MSTORE PUSH1 0x4 ADD PUSH2 0x2A04 SWAP3 SWAP2 SWAP1 PUSH2 0x6997 JUMP JUMPDEST PUSH1 0x0 PUSH1 0x40 MLOAD DUP1 DUP4 SUB DUP2 PUSH1 0x0 DUP8 DUP1 EXTCODESIZE ISZERO DUP1 ISZERO PUSH2 0x2A1E JUMPI PUSH1 0x0 DUP1 REVERT JUMPDEST POP GAS CALL ISZERO DUP1 ISZERO PUSH2 0x2A32 JUMPI RETURNDATASIZE PUSH1 0x0 DUP1 RETURNDATACOPY RETURNDATASIZE PUSH1 0x0 REVERT JUMPDEST POP POP POP POP PUSH1 0x7 PUSH1 0x0 SWAP1 SLOAD SWAP1 PUSH2 0x100 EXP SWAP1 DIV PUSH20 0xFFFFFFFFFFFFFFFFFFFFFFFFFFFFFFFFFFFFFFFF AND PUSH20 0xFFFFFFFFFFFFFFFFFFFFFFFFFFFFFFFFFFFFFFFF AND PUSH4 0x40C10F19 CALLER DUP6 PUSH1 0x40 MLOAD DUP4 PUSH4 0xFFFFFFFF AND PUSH1 0xE0 SHL DUP2 MSTORE PUSH1 0x4 ADD PUSH2 0x2A93 SWAP3 SWAP2 SWAP1 PUSH2 0x6997 JUMP JUMPDEST PUSH1 0x20 PUSH1 0x40 MLOAD DUP1 DUP4 SUB DUP2 PUSH1 0x0 DUP8 DUP1 EXTCODESIZE ISZERO DUP1 ISZERO PUSH2 0x2AAD JUMPI PUSH1 0x0 DUP1 REVERT JUMPDEST POP GAS CALL ISZERO DUP1 ISZERO PUSH2 0x2AC1 JUMPI RETURNDATASIZE PUSH1 0x0 DUP1 RETURNDATACOPY RETURNDATASIZE PUSH1 0x0 REVERT JUMPDEST POP POP POP POP PUSH1 0x40 MLOAD RETURNDATASIZE PUSH1 0x1F NOT PUSH1 0x1F DUP3 ADD AND DUP3 ADD DUP1 PUSH1 0x40 MSTORE POP DUP2 ADD SWAP1 PUSH2 0x2AE5 SWAP2 SWAP1 PUSH2 0x621D JUMP JUMPDEST POP PUSH2 0x2AFB DUP8 PUSH1 0x4 SLOAD PUSH2 0x5398 SWAP1 SWAP2 SWAP1 PUSH4 0xFFFFFFFF AND JUMP JUMPDEST PUSH1 0x4 DUP2 SWAP1 SSTORE POP PUSH2 0x2B09 PUSH2 0x552B JUMP JUMPDEST CALLER PUSH20 0xFFFFFFFFFFFFFFFFFFFFFFFFFFFFFFFFFFFFFFFF AND PUSH32 0x73017F1B70789E2E66759EEB3C7EC11F59E6EEDB55D921CFAEC5410DD42A4799 DUP9 DUP6 PUSH1 0x40 MLOAD PUSH2 0x2B51 SWAP3 SWAP2 SWAP1 PUSH2 0x6EAF JUMP JUMPDEST PUSH1 0x40 MLOAD DUP1 SWAP2 SUB SWAP1 LOG2 POP POP POP POP POP PUSH1 0x1 PUSH1 0x0 DUP1 NUMBER DUP2 MSTORE PUSH1 0x20 ADD SWAP1 DUP2 MSTORE PUSH1 0x20 ADD PUSH1 0x0 KECCAK256 PUSH1 0x0 ORIGIN PUSH20 0xFFFFFFFFFFFFFFFFFFFFFFFFFFFFFFFFFFFFFFFF AND PUSH20 0xFFFFFFFFFFFFFFFFFFFFFFFFFFFFFFFFFFFFFFFF AND DUP2 MSTORE PUSH1 0x20 ADD SWAP1 DUP2 MSTORE PUSH1 0x20 ADD PUSH1 0x0 KECCAK256 PUSH1 0x0 PUSH2 0x100 EXP DUP2 SLOAD DUP2 PUSH1 0xFF MUL NOT AND SWAP1 DUP4 ISZERO ISZERO MUL OR SWAP1 SSTORE POP PUSH1 0x1 PUSH1 0x0 DUP1 NUMBER DUP2 MSTORE PUSH1 0x20 ADD SWAP1 DUP2 MSTORE PUSH1 0x20 ADD PUSH1 0x0 KECCAK256 PUSH1 0x0 CALLER PUSH20 0xFFFFFFFFFFFFFFFFFFFFFFFFFFFFFFFFFFFFFFFF AND PUSH20 0xFFFFFFFFFFFFFFFFFFFFFFFFFFFFFFFFFFFFFFFF AND DUP2 MSTORE PUSH1 0x20 ADD SWAP1 DUP2 MSTORE PUSH1 0x20 ADD PUSH1 0x0 KECCAK256 PUSH1 0x0 PUSH2 0x100 EXP DUP2 SLOAD DUP2 PUSH1 0xFF MUL NOT AND SWAP1 DUP4 ISZERO ISZERO MUL OR SWAP1 SSTORE POP POP POP JUMP JUMPDEST PUSH1 0x1F SLOAD DUP2 JUMP JUMPDEST PUSH1 0x1 PUSH1 0x0 SWAP1 SLOAD SWAP1 PUSH2 0x100 EXP SWAP1 DIV PUSH20 0xFFFFFFFFFFFFFFFFFFFFFFFFFFFFFFFFFFFFFFFF AND DUP2 JUMP JUMPDEST CALLER PUSH20 0xFFFFFFFFFFFFFFFFFFFFFFFFFFFFFFFFFFFFFFFF AND PUSH1 0x1 PUSH1 0x0 SWAP1 SLOAD SWAP1 PUSH2 0x100 EXP SWAP1 DIV PUSH20 0xFFFFFFFFFFFFFFFFFFFFFFFFFFFFFFFFFFFFFFFF AND PUSH20 0xFFFFFFFFFFFFFFFFFFFFFFFFFFFFFFFFFFFFFFFF AND EQ PUSH2 0x2CEE JUMPI PUSH1 0x40 MLOAD PUSH32 0x8C379A000000000000000000000000000000000000000000000000000000000 DUP2 MSTORE PUSH1 0x4 ADD PUSH2 0x2CE5 SWAP1 PUSH2 0x6D14 JUMP JUMPDEST PUSH1 0x40 MLOAD DUP1 SWAP2 SUB SWAP1 REVERT JUMPDEST PUSH2 0x3E8 DUP2 LT ISZERO DUP1 ISZERO PUSH2 0x2D02 JUMPI POP PUSH2 0x2710 DUP2 GT ISZERO JUMPDEST PUSH2 0x2D41 JUMPI PUSH1 0x40 MLOAD PUSH32 0x8C379A000000000000000000000000000000000000000000000000000000000 DUP2 MSTORE PUSH1 0x4 ADD PUSH2 0x2D38 SWAP1 PUSH2 0x6B14 JUMP JUMPDEST PUSH1 0x40 MLOAD DUP1 SWAP2 SUB SWAP1 REVERT JUMPDEST DUP1 PUSH1 0x14 DUP2 SWAP1 SSTORE POP POP JUMP JUMPDEST PUSH1 0x0 PUSH1 0xD SLOAD SWAP1 POP SWAP1 JUMP JUMPDEST PUSH1 0xD SLOAD DUP2 JUMP JUMPDEST PUSH2 0x2D63 PUSH2 0x53DD JUMP JUMPDEST ISZERO PUSH2 0x2DA3 JUMPI PUSH1 0x40 MLOAD PUSH32 0x8C379A000000000000000000000000000000000000000000000000000000000 DUP2 MSTORE PUSH1 0x4 ADD PUSH2 0x2D9A SWAP1 PUSH2 0x6DB4 JUMP JUMPDEST PUSH1 0x40 MLOAD DUP1 SWAP2 SUB SWAP1 REVERT JUMPDEST PUSH2 0x2DAB PUSH2 0x5441 JUMP JUMPDEST ISZERO PUSH2 0x2DEB JUMPI PUSH1 0x40 MLOAD PUSH32 0x8C379A000000000000000000000000000000000000000000000000000000000 DUP2 MSTORE PUSH1 0x4 ADD PUSH2 0x2DE2 SWAP1 PUSH2 0x6DB4 JUMP JUMPDEST PUSH1 0x40 MLOAD DUP1 SWAP2 SUB SWAP1 REVERT JUMPDEST PUSH1 0x2 SLOAD TIMESTAMP LT ISZERO PUSH2 0x2E30 JUMPI PUSH1 0x40 MLOAD PUSH32 0x8C379A000000000000000000000000000000000000000000000000000000000 DUP2 MSTORE PUSH1 0x4 ADD PUSH2 0x2E27 SWAP1 PUSH2 0x6E74 JUMP JUMPDEST PUSH1 0x40 MLOAD DUP1 SWAP2 SUB SWAP1 REVERT JUMPDEST PUSH2 0x2E38 PUSH2 0x4E37 JUMP JUMPDEST TIMESTAMP LT ISZERO PUSH2 0x2E7A JUMPI PUSH1 0x40 MLOAD PUSH32 0x8C379A000000000000000000000000000000000000000000000000000000000 DUP2 MSTORE PUSH1 0x4 ADD PUSH2 0x2E71 SWAP1 PUSH2 0x6B34 JUMP JUMPDEST PUSH1 0x40 MLOAD DUP1 SWAP2 SUB SWAP1 REVERT JUMPDEST ADDRESS PUSH20 0xFFFFFFFFFFFFFFFFFFFFFFFFFFFFFFFFFFFFFFFF AND PUSH1 0x6 PUSH1 0x0 SWAP1 SLOAD SWAP1 PUSH2 0x100 EXP SWAP1 DIV PUSH20 0xFFFFFFFFFFFFFFFFFFFFFFFFFFFFFFFFFFFFFFFF AND PUSH20 0xFFFFFFFFFFFFFFFFFFFFFFFFFFFFFFFFFFFFFFFF AND PUSH4 0x570CA735 PUSH1 0x40 MLOAD DUP2 PUSH4 0xFFFFFFFF AND PUSH1 0xE0 SHL DUP2 MSTORE PUSH1 0x4 ADD PUSH1 0x20 PUSH1 0x40 MLOAD DUP1 DUP4 SUB DUP2 DUP7 DUP1 EXTCODESIZE ISZERO DUP1 ISZERO PUSH2 0x2EF9 JUMPI PUSH1 0x0 DUP1 REVERT JUMPDEST POP GAS STATICCALL ISZERO DUP1 ISZERO PUSH2 0x2F0D JUMPI RETURNDATASIZE PUSH1 0x0 DUP1 RETURNDATACOPY RETURNDATASIZE PUSH1 0x0 REVERT JUMPDEST POP POP POP POP PUSH1 0x40 MLOAD RETURNDATASIZE PUSH1 0x1F NOT PUSH1 0x1F DUP3 ADD AND DUP3 ADD DUP1 PUSH1 0x40 MSTORE POP DUP2 ADD SWAP1 PUSH2 0x2F31 SWAP2 SWAP1 PUSH2 0x60A9 JUMP JUMPDEST PUSH20 0xFFFFFFFFFFFFFFFFFFFFFFFFFFFFFFFFFFFFFFFF AND EQ DUP1 ISZERO PUSH2 0x301E JUMPI POP ADDRESS PUSH20 0xFFFFFFFFFFFFFFFFFFFFFFFFFFFFFFFFFFFFFFFF AND PUSH1 0x7 PUSH1 0x0 SWAP1 SLOAD SWAP1 PUSH2 0x100 EXP SWAP1 DIV PUSH20 0xFFFFFFFFFFFFFFFFFFFFFFFFFFFFFFFFFFFFFFFF AND PUSH20 0xFFFFFFFFFFFFFFFFFFFFFFFFFFFFFFFFFFFFFFFF AND PUSH4 0x570CA735 PUSH1 0x40 MLOAD DUP2 PUSH4 0xFFFFFFFF AND PUSH1 0xE0 SHL DUP2 MSTORE PUSH1 0x4 ADD PUSH1 0x20 PUSH1 0x40 MLOAD DUP1 DUP4 SUB DUP2 DUP7 DUP1 EXTCODESIZE ISZERO DUP1 ISZERO PUSH2 0x2FCE JUMPI PUSH1 0x0 DUP1 REVERT JUMPDEST POP GAS STATICCALL ISZERO DUP1 ISZERO PUSH2 0x2FE2 JUMPI RETURNDATASIZE PUSH1 0x0 DUP1 RETURNDATACOPY RETURNDATASIZE PUSH1 0x0 REVERT JUMPDEST POP POP POP POP PUSH1 0x40 MLOAD RETURNDATASIZE PUSH1 0x1F NOT PUSH1 0x1F DUP3 ADD AND DUP3 ADD DUP1 PUSH1 0x40 MSTORE POP DUP2 ADD SWAP1 PUSH2 0x3006 SWAP2 SWAP1 PUSH2 0x60A9 JUMP JUMPDEST PUSH20 0xFFFFFFFFFFFFFFFFFFFFFFFFFFFFFFFFFFFFFFFF AND EQ JUMPDEST DUP1 ISZERO PUSH2 0x30F4 JUMPI POP ADDRESS PUSH20 0xFFFFFFFFFFFFFFFFFFFFFFFFFFFFFFFFFFFFFFFF AND PUSH1 0x8 PUSH1 0x0 SWAP1 SLOAD SWAP1 PUSH2 0x100 EXP SWAP1 DIV PUSH20 0xFFFFFFFFFFFFFFFFFFFFFFFFFFFFFFFFFFFFFFFF AND PUSH20 0xFFFFFFFFFFFFFFFFFFFFFFFFFFFFFFFFFFFFFFFF AND PUSH4 0x570CA735 PUSH1 0x40 MLOAD DUP2 PUSH4 0xFFFFFFFF AND PUSH1 0xE0 SHL DUP2 MSTORE PUSH1 0x4 ADD PUSH1 0x20 PUSH1 0x40 MLOAD DUP1 DUP4 SUB DUP2 DUP7 DUP1 EXTCODESIZE ISZERO DUP1 ISZERO PUSH2 0x30A4 JUMPI PUSH1 0x0 DUP1 REVERT JUMPDEST POP GAS STATICCALL ISZERO DUP1 ISZERO PUSH2 0x30B8 JUMPI RETURNDATASIZE PUSH1 0x0 DUP1 RETURNDATACOPY RETURNDATASIZE PUSH1 0x0 REVERT JUMPDEST POP POP POP POP PUSH1 0x40 MLOAD RETURNDATASIZE PUSH1 0x1F NOT PUSH1 0x1F DUP3 ADD AND DUP3 ADD DUP1 PUSH1 0x40 MSTORE POP DUP2 ADD SWAP1 PUSH2 0x30DC SWAP2 SWAP1 PUSH2 0x60A9 JUMP JUMPDEST PUSH20 0xFFFFFFFFFFFFFFFFFFFFFFFFFFFFFFFFFFFFFFFF AND EQ JUMPDEST DUP1 ISZERO PUSH2 0x31CA JUMPI POP ADDRESS PUSH20 0xFFFFFFFFFFFFFFFFFFFFFFFFFFFFFFFFFFFFFFFF AND PUSH1 0x9 PUSH1 0x0 SWAP1 SLOAD SWAP1 PUSH2 0x100 EXP SWAP1 DIV PUSH20 0xFFFFFFFFFFFFFFFFFFFFFFFFFFFFFFFFFFFFFFFF AND PUSH20 0xFFFFFFFFFFFFFFFFFFFFFFFFFFFFFFFFFFFFFFFF AND PUSH4 0x570CA735 PUSH1 0x40 MLOAD DUP2 PUSH4 0xFFFFFFFF AND PUSH1 0xE0 SHL DUP2 MSTORE PUSH1 0x4 ADD PUSH1 0x20 PUSH1 0x40 MLOAD DUP1 DUP4 SUB DUP2 DUP7 DUP1 EXTCODESIZE ISZERO DUP1 ISZERO PUSH2 0x317A JUMPI PUSH1 0x0 DUP1 REVERT JUMPDEST POP GAS STATICCALL ISZERO DUP1 ISZERO PUSH2 0x318E JUMPI RETURNDATASIZE PUSH1 0x0 DUP1 RETURNDATACOPY RETURNDATASIZE PUSH1 0x0 REVERT JUMPDEST POP POP POP POP PUSH1 0x40 MLOAD RETURNDATASIZE PUSH1 0x1F NOT PUSH1 0x1F DUP3 ADD AND DUP3 ADD DUP1 PUSH1 0x40 MSTORE POP DUP2 ADD SWAP1 PUSH2 0x31B2 SWAP2 SWAP1 PUSH2 0x60A9 JUMP JUMPDEST PUSH20 0xFFFFFFFFFFFFFFFFFFFFFFFFFFFFFFFFFFFFFFFF AND EQ JUMPDEST PUSH2 0x3209 JUMPI PUSH1 0x40 MLOAD PUSH32 0x8C379A000000000000000000000000000000000000000000000000000000000 DUP2 MSTORE PUSH1 0x4 ADD PUSH2 0x3200 SWAP1 PUSH2 0x6AD4 JUMP JUMPDEST PUSH1 0x40 MLOAD DUP1 SWAP2 SUB SWAP1 REVERT JUMPDEST PUSH2 0x3211 PUSH2 0x552B JUMP JUMPDEST PUSH2 0x3219 PUSH2 0xDDC JUMP JUMPDEST PUSH1 0x17 DUP2 SWAP1 SSTORE POP PUSH1 0x0 PUSH2 0x323D PUSH1 0xD SLOAD PUSH2 0x322F PUSH2 0x3B94 JUMP JUMPDEST PUSH2 0x5398 SWAP1 SWAP2 SWAP1 PUSH4 0xFFFFFFFF AND JUMP JUMPDEST SWAP1 POP PUSH1 0x15 SLOAD PUSH1 0x3 SLOAD LT ISZERO PUSH2 0x3281 JUMPI PUSH2 0x327C PUSH2 0x3277 PUSH2 0x2710 PUSH2 0x3269 PUSH1 0x16 SLOAD DUP6 PUSH2 0x536C SWAP1 SWAP2 SWAP1 PUSH4 0xFFFFFFFF AND JUMP JUMPDEST PUSH2 0x5382 SWAP1 SWAP2 SWAP1 PUSH4 0xFFFFFFFF AND JUMP JUMPDEST PUSH2 0x55B2 JUMP JUMPDEST PUSH2 0x35B7 JUMP JUMPDEST PUSH1 0xC SLOAD PUSH1 0x17 SLOAD GT ISZERO PUSH2 0x35B6 JUMPI PUSH1 0x0 PUSH1 0x7 PUSH1 0x0 SWAP1 SLOAD SWAP1 PUSH2 0x100 EXP SWAP1 DIV PUSH20 0xFFFFFFFFFFFFFFFFFFFFFFFFFFFFFFFFFFFFFFFF AND PUSH20 0xFFFFFFFFFFFFFFFFFFFFFFFFFFFFFFFFFFFFFFFF AND PUSH4 0x18160DDD PUSH1 0x40 MLOAD DUP2 PUSH4 0xFFFFFFFF AND PUSH1 0xE0 SHL DUP2 MSTORE PUSH1 0x4 ADD PUSH1 0x20 PUSH1 0x40 MLOAD DUP1 DUP4 SUB DUP2 DUP7 DUP1 EXTCODESIZE ISZERO DUP1 ISZERO PUSH2 0x32F7 JUMPI PUSH1 0x0 DUP1 REVERT JUMPDEST POP GAS STATICCALL ISZERO DUP1 ISZERO PUSH2 0x330B JUMPI RETURNDATASIZE PUSH1 0x0 DUP1 RETURNDATACOPY RETURNDATASIZE PUSH1 0x0 REVERT JUMPDEST POP POP POP POP PUSH1 0x40 MLOAD RETURNDATASIZE PUSH1 0x1F NOT PUSH1 0x1F DUP3 ADD AND DUP3 ADD DUP1 PUSH1 0x40 MSTORE POP DUP2 ADD SWAP1 PUSH2 0x332F SWAP2 SWAP1 PUSH2 0x62F7 JUMP JUMPDEST SWAP1 POP PUSH1 0x0 PUSH2 0x334A PUSH1 0xB SLOAD PUSH1 0x17 SLOAD PUSH2 0x5398 SWAP1 SWAP2 SWAP1 PUSH4 0xFFFFFFFF AND JUMP JUMPDEST SWAP1 POP PUSH1 0x0 DUP1 PUSH1 0x0 PUSH2 0x3372 PUSH6 0x5AF3107A4000 PUSH2 0x3364 DUP9 PUSH2 0x5AB9 JUMP JUMPDEST PUSH2 0x536C SWAP1 SWAP2 SWAP1 PUSH4 0xFFFFFFFF AND JUMP JUMPDEST SWAP1 POP DUP1 DUP5 GT ISZERO PUSH2 0x3380 JUMPI DUP1 SWAP4 POP JUMPDEST PUSH2 0x33A9 PUSH2 0x2710 PUSH2 0x339B PUSH1 0x11 SLOAD DUP9 PUSH2 0x536C SWAP1 SWAP2 SWAP1 PUSH4 0xFFFFFFFF AND JUMP JUMPDEST PUSH2 0x5382 SWAP1 SWAP2 SWAP1 PUSH4 0xFFFFFFFF AND JUMP JUMPDEST PUSH1 0xD SLOAD LT PUSH2 0x33E5 JUMPI PUSH2 0x33DE PUSH8 0xDE0B6B3A7640000 PUSH2 0x33D0 DUP7 DUP10 PUSH2 0x536C SWAP1 SWAP2 SWAP1 PUSH4 0xFFFFFFFF AND JUMP JUMPDEST PUSH2 0x5382 SWAP1 SWAP2 SWAP1 PUSH4 0xFFFFFFFF AND JUMP JUMPDEST SWAP2 POP PUSH2 0x348F JUMP JUMPDEST PUSH1 0x0 PUSH2 0x3414 PUSH8 0xDE0B6B3A7640000 PUSH2 0x3406 DUP8 DUP11 PUSH2 0x536C SWAP1 SWAP2 SWAP1 PUSH4 0xFFFFFFFF AND JUMP JUMPDEST PUSH2 0x5382 SWAP1 SWAP2 SWAP1 PUSH4 0xFFFFFFFF AND JUMP JUMPDEST SWAP1 POP PUSH2 0x343F PUSH2 0x2710 PUSH2 0x3431 PUSH1 0x12 SLOAD DUP5 PUSH2 0x536C SWAP1 SWAP2 SWAP1 PUSH4 0xFFFFFFFF AND JUMP JUMPDEST PUSH2 0x5382 SWAP1 SWAP2 SWAP1 PUSH4 0xFFFFFFFF AND JUMP JUMPDEST SWAP3 POP PUSH2 0x3454 DUP4 DUP3 PUSH2 0x5398 SWAP1 SWAP2 SWAP1 PUSH4 0xFFFFFFFF AND JUMP JUMPDEST SWAP4 POP PUSH1 0x0 PUSH1 0x1D SLOAD GT ISZERO PUSH2 0x348D JUMPI PUSH2 0x348A PUSH2 0x2710 PUSH2 0x347C PUSH1 0x1D SLOAD DUP8 PUSH2 0x536C SWAP1 SWAP2 SWAP1 PUSH4 0xFFFFFFFF AND JUMP JUMPDEST PUSH2 0x5382 SWAP1 SWAP2 SWAP1 PUSH4 0xFFFFFFFF AND JUMP JUMPDEST SWAP4 POP JUMPDEST POP JUMPDEST PUSH1 0x0 DUP3 GT ISZERO PUSH2 0x34A2 JUMPI PUSH2 0x34A1 DUP3 PUSH2 0x55B2 JUMP JUMPDEST JUMPDEST PUSH1 0x0 DUP4 GT ISZERO PUSH2 0x35B0 JUMPI PUSH2 0x34C0 DUP4 PUSH1 0xD SLOAD PUSH2 0x53C7 SWAP1 SWAP2 SWAP1 PUSH4 0xFFFFFFFF AND JUMP JUMPDEST PUSH1 0xD DUP2 SWAP1 SSTORE POP PUSH1 0x6 PUSH1 0x0 SWAP1 SLOAD SWAP1 PUSH2 0x100 EXP SWAP1 DIV PUSH20 0xFFFFFFFFFFFFFFFFFFFFFFFFFFFFFFFFFFFFFFFF AND PUSH20 0xFFFFFFFFFFFFFFFFFFFFFFFFFFFFFFFFFFFFFFFF AND PUSH4 0x40C10F19 ADDRESS DUP6 PUSH1 0x40 MLOAD DUP4 PUSH4 0xFFFFFFFF AND PUSH1 0xE0 SHL DUP2 MSTORE PUSH1 0x4 ADD PUSH2 0x3523 SWAP3 SWAP2 SWAP1 PUSH2 0x6997 JUMP JUMPDEST PUSH1 0x20 PUSH1 0x40 MLOAD DUP1 DUP4 SUB DUP2 PUSH1 0x0 DUP8 DUP1 EXTCODESIZE ISZERO DUP1 ISZERO PUSH2 0x353D JUMPI PUSH1 0x0 DUP1 REVERT JUMPDEST POP GAS CALL ISZERO DUP1 ISZERO PUSH2 0x3551 JUMPI RETURNDATASIZE PUSH1 0x0 DUP1 RETURNDATACOPY RETURNDATASIZE PUSH1 0x0 REVERT JUMPDEST POP POP POP POP PUSH1 0x40 MLOAD RETURNDATASIZE PUSH1 0x1F NOT PUSH1 0x1F DUP3 ADD AND DUP3 ADD DUP1 PUSH1 0x40 MSTORE POP DUP2 ADD SWAP1 PUSH2 0x3575 SWAP2 SWAP1 PUSH2 0x621D JUMP JUMPDEST POP PUSH32 0xF705142BF09F04297640495DDF7C59B7FD6F51894C5AEA9602D631CF05F0EFC2 TIMESTAMP DUP5 PUSH1 0x40 MLOAD PUSH2 0x35A7 SWAP3 SWAP2 SWAP1 PUSH2 0x6EAF JUMP JUMPDEST PUSH1 0x40 MLOAD DUP1 SWAP2 SUB SWAP1 LOG1 JUMPDEST POP POP POP POP POP JUMPDEST JUMPDEST POP PUSH2 0x35CE PUSH1 0x1 PUSH1 0x3 SLOAD PUSH2 0x53C7 SWAP1 SWAP2 SWAP1 PUSH4 0xFFFFFFFF AND JUMP JUMPDEST PUSH1 0x3 DUP2 SWAP1 SSTORE POP PUSH1 0xC SLOAD PUSH2 0x35DF PUSH2 0xDDC JUMP JUMPDEST GT PUSH2 0x3619 JUMPI PUSH2 0x3614 PUSH2 0x2710 PUSH2 0x3606 PUSH1 0x13 SLOAD PUSH2 0x35F8 PUSH2 0x3B94 JUMP JUMPDEST PUSH2 0x536C SWAP1 SWAP2 SWAP1 PUSH4 0xFFFFFFFF AND JUMP JUMPDEST PUSH2 0x5382 SWAP1 SWAP2 SWAP1 PUSH4 0xFFFFFFFF AND JUMP JUMPDEST PUSH2 0x361C JUMP JUMPDEST PUSH1 0x0 JUMPDEST PUSH1 0x4 DUP2 SWAP1 SSTORE POP PUSH1 0x1 PUSH1 0x0 DUP1 NUMBER DUP2 MSTORE PUSH1 0x20 ADD SWAP1 DUP2 MSTORE PUSH1 0x20 ADD PUSH1 0x0 KECCAK256 PUSH1 0x0 ORIGIN PUSH20 0xFFFFFFFFFFFFFFFFFFFFFFFFFFFFFFFFFFFFFFFF AND PUSH20 0xFFFFFFFFFFFFFFFFFFFFFFFFFFFFFFFFFFFFFFFF AND DUP2 MSTORE PUSH1 0x20 ADD SWAP1 DUP2 MSTORE PUSH1 0x20 ADD PUSH1 0x0 KECCAK256 PUSH1 0x0 PUSH2 0x100 EXP DUP2 SLOAD DUP2 PUSH1 0xFF MUL NOT AND SWAP1 DUP4 ISZERO ISZERO MUL OR SWAP1 SSTORE POP PUSH1 0x1 PUSH1 0x0 DUP1 NUMBER DUP2 MSTORE PUSH1 0x20 ADD SWAP1 DUP2 MSTORE PUSH1 0x20 ADD PUSH1 0x0 KECCAK256 PUSH1 0x0 CALLER PUSH20 0xFFFFFFFFFFFFFFFFFFFFFFFFFFFFFFFFFFFFFFFF AND PUSH20 0xFFFFFFFFFFFFFFFFFFFFFFFFFFFFFFFFFFFFFFFF AND DUP2 MSTORE PUSH1 0x20 ADD SWAP1 DUP2 MSTORE PUSH1 0x20 ADD PUSH1 0x0 KECCAK256 PUSH1 0x0 PUSH2 0x100 EXP DUP2 SLOAD DUP2 PUSH1 0xFF MUL NOT AND SWAP1 DUP4 ISZERO ISZERO MUL OR SWAP1 SSTORE POP JUMP JUMPDEST CALLER PUSH20 0xFFFFFFFFFFFFFFFFFFFFFFFFFFFFFFFFFFFFFFFF AND PUSH1 0x1 PUSH1 0x0 SWAP1 SLOAD SWAP1 PUSH2 0x100 EXP SWAP1 DIV PUSH20 0xFFFFFFFFFFFFFFFFFFFFFFFFFFFFFFFFFFFFFFFF AND PUSH20 0xFFFFFFFFFFFFFFFFFFFFFFFFFFFFFFFFFFFFFFFF AND EQ PUSH2 0x3784 JUMPI PUSH1 0x40 MLOAD PUSH32 0x8C379A000000000000000000000000000000000000000000000000000000000 DUP2 MSTORE PUSH1 0x4 ADD PUSH2 0x377B SWAP1 PUSH2 0x6D14 JUMP JUMPDEST PUSH1 0x40 MLOAD DUP1 SWAP2 SUB SWAP1 REVERT JUMPDEST PUSH1 0x9 PUSH1 0x0 SWAP1 SLOAD SWAP1 PUSH2 0x100 EXP SWAP1 DIV PUSH20 0xFFFFFFFFFFFFFFFFFFFFFFFFFFFFFFFFFFFFFFFF AND PUSH20 0xFFFFFFFFFFFFFFFFFFFFFFFFFFFFFFFFFFFFFFFF AND PUSH4 0xB3AB15FB DUP3 PUSH1 0x40 MLOAD DUP3 PUSH4 0xFFFFFFFF AND PUSH1 0xE0 SHL DUP2 MSTORE PUSH1 0x4 ADD PUSH2 0x37DF SWAP2 SWAP1 PUSH2 0x692A JUMP JUMPDEST PUSH1 0x0 PUSH1 0x40 MLOAD DUP1 DUP4 SUB DUP2 PUSH1 0x0 DUP8 DUP1 EXTCODESIZE ISZERO DUP1 ISZERO PUSH2 0x37F9 JUMPI PUSH1 0x0 DUP1 REVERT JUMPDEST POP GAS CALL ISZERO DUP1 ISZERO PUSH2 0x380D JUMPI RETURNDATASIZE PUSH1 0x0 DUP1 RETURNDATACOPY RETURNDATASIZE PUSH1 0x0 REVERT JUMPDEST POP POP POP POP POP JUMP JUMPDEST PUSH1 0x9 PUSH1 0x0 SWAP1 SLOAD SWAP1 PUSH2 0x100 EXP SWAP1 DIV PUSH20 0xFFFFFFFFFFFFFFFFFFFFFFFFFFFFFFFFFFFFFFFF AND DUP2 JUMP JUMPDEST PUSH1 0x0 DUP1 PUSH2 0x3845 PUSH2 0xDDC JUMP JUMPDEST SWAP1 POP PUSH1 0xC SLOAD DUP2 GT ISZERO PUSH2 0x3948 JUMPI PUSH1 0x0 PUSH1 0x6 PUSH1 0x0 SWAP1 SLOAD SWAP1 PUSH2 0x100 EXP SWAP1 DIV PUSH20 0xFFFFFFFFFFFFFFFFFFFFFFFFFFFFFFFFFFFFFFFF AND PUSH20 0xFFFFFFFFFFFFFFFFFFFFFFFFFFFFFFFFFFFFFFFF AND PUSH4 0x70A08231 ADDRESS PUSH1 0x40 MLOAD DUP3 PUSH4 0xFFFFFFFF AND PUSH1 0xE0 SHL DUP2 MSTORE PUSH1 0x4 ADD PUSH2 0x38AE SWAP2 SWAP1 PUSH2 0x692A JUMP JUMPDEST PUSH1 0x20 PUSH1 0x40 MLOAD DUP1 DUP4 SUB DUP2 DUP7 DUP1 EXTCODESIZE ISZERO DUP1 ISZERO PUSH2 0x38C6 JUMPI PUSH1 0x0 DUP1 REVERT JUMPDEST POP GAS STATICCALL ISZERO DUP1 ISZERO PUSH2 0x38DA JUMPI RETURNDATASIZE PUSH1 0x0 DUP1 RETURNDATACOPY RETURNDATASIZE PUSH1 0x0 REVERT JUMPDEST POP POP POP POP PUSH1 0x40 MLOAD RETURNDATASIZE PUSH1 0x1F NOT PUSH1 0x1F DUP3 ADD AND DUP3 ADD DUP1 PUSH1 0x40 MSTORE POP DUP2 ADD SWAP1 PUSH2 0x38FE SWAP2 SWAP1 PUSH2 0x62F7 JUMP JUMPDEST SWAP1 POP PUSH1 0x0 PUSH2 0x390A PUSH2 0x122C JUMP JUMPDEST SWAP1 POP PUSH1 0x0 DUP2 GT ISZERO PUSH2 0x3945 JUMPI PUSH2 0x3942 DUP2 PUSH2 0x3934 PUSH8 0xDE0B6B3A7640000 DUP6 PUSH2 0x536C SWAP1 SWAP2 SWAP1 PUSH4 0xFFFFFFFF AND JUMP JUMPDEST PUSH2 0x5382 SWAP1 SWAP2 SWAP1 PUSH4 0xFFFFFFFF AND JUMP JUMPDEST SWAP4 POP JUMPDEST POP POP JUMPDEST POP SWAP1 JUMP JUMPDEST CALLER PUSH20 0xFFFFFFFFFFFFFFFFFFFFFFFFFFFFFFFFFFFFFFFF AND PUSH1 0x1 PUSH1 0x0 SWAP1 SLOAD SWAP1 PUSH2 0x100 EXP SWAP1 DIV PUSH20 0xFFFFFFFFFFFFFFFFFFFFFFFFFFFFFFFFFFFFFFFF AND PUSH20 0xFFFFFFFFFFFFFFFFFFFFFFFFFFFFFFFFFFFFFFFF AND EQ PUSH2 0x39DC JUMPI PUSH1 0x40 MLOAD PUSH32 0x8C379A000000000000000000000000000000000000000000000000000000000 DUP2 MSTORE PUSH1 0x4 ADD PUSH2 0x39D3 SWAP1 PUSH2 0x6D14 JUMP JUMPDEST PUSH1 0x40 MLOAD DUP1 SWAP2 SUB SWAP1 REVERT JUMPDEST PUSH1 0x9 PUSH1 0x0 SWAP1 SLOAD SWAP1 PUSH2 0x100 EXP SWAP1 DIV PUSH20 0xFFFFFFFFFFFFFFFFFFFFFFFFFFFFFFFFFFFFFFFF AND PUSH20 0xFFFFFFFFFFFFFFFFFFFFFFFFFFFFFFFFFFFFFFFF AND PUSH4 0x2FFAAA09 DUP4 DUP4 PUSH1 0x40 MLOAD DUP4 PUSH4 0xFFFFFFFF AND PUSH1 0xE0 SHL DUP2 MSTORE PUSH1 0x4 ADD PUSH2 0x3A39 SWAP3 SWAP2 SWAP1 PUSH2 0x6EAF JUMP JUMPDEST PUSH1 0x0 PUSH1 0x40 MLOAD DUP1 DUP4 SUB DUP2 PUSH1 0x0 DUP8 DUP1 EXTCODESIZE ISZERO DUP1 ISZERO PUSH2 0x3A53 JUMPI PUSH1 0x0 DUP1 REVERT JUMPDEST POP GAS CALL ISZERO DUP1 ISZERO PUSH2 0x3A67 JUMPI RETURNDATASIZE PUSH1 0x0 DUP1 RETURNDATACOPY RETURNDATASIZE PUSH1 0x0 REVERT JUMPDEST POP POP POP POP POP POP JUMP JUMPDEST CALLER PUSH20 0xFFFFFFFFFFFFFFFFFFFFFFFFFFFFFFFFFFFFFFFF AND PUSH1 0x1 PUSH1 0x0 SWAP1 SLOAD SWAP1 PUSH2 0x100 EXP SWAP1 DIV PUSH20 0xFFFFFFFFFFFFFFFFFFFFFFFFFFFFFFFFFFFFFFFF AND PUSH20 0xFFFFFFFFFFFFFFFFFFFFFFFFFFFFFFFFFFFFFFFF AND EQ PUSH2 0x3AFF JUMPI PUSH1 0x40 MLOAD PUSH32 0x8C379A000000000000000000000000000000000000000000000000000000000 DUP2 MSTORE PUSH1 0x4 ADD PUSH2 0x3AF6 SWAP1 PUSH2 0x6D14 JUMP JUMPDEST PUSH1 0x40 MLOAD DUP1 SWAP2 SUB SWAP1 REVERT JUMPDEST DUP1 PUSH1 0xA PUSH1 0x0 PUSH2 0x100 EXP DUP2 SLOAD DUP2 PUSH20 0xFFFFFFFFFFFFFFFFFFFFFFFFFFFFFFFFFFFFFFFF MUL NOT AND SWAP1 DUP4 PUSH20 0xFFFFFFFFFFFFFFFFFFFFFFFFFFFFFFFFFFFFFFFF AND MUL OR SWAP1 SSTORE POP POP JUMP JUMPDEST PUSH1 0x2 SLOAD DUP2 JUMP JUMPDEST PUSH1 0x11 SLOAD DUP2 JUMP JUMPDEST PUSH1 0x5 DUP2 DUP2 SLOAD DUP2 LT PUSH2 0x3B5F JUMPI PUSH1 0x0 DUP1 REVERT JUMPDEST SWAP1 PUSH1 0x0 MSTORE PUSH1 0x20 PUSH1 0x0 KECCAK256 ADD PUSH1 0x0 SWAP2 POP SLOAD SWAP1 PUSH2 0x100 EXP SWAP1 DIV PUSH20 0xFFFFFFFFFFFFFFFFFFFFFFFFFFFFFFFFFFFFFFFF AND DUP2 JUMP JUMPDEST PUSH1 0x16 SLOAD DUP2 JUMP JUMPDEST PUSH1 0x0 DUP1 PUSH1 0x6 PUSH1 0x0 SWAP1 SLOAD SWAP1 PUSH2 0x100 EXP SWAP1 DIV PUSH20 0xFFFFFFFFFFFFFFFFFFFFFFFFFFFFFFFFFFFFFFFF AND SWAP1 POP PUSH1 0x0 DUP2 PUSH20 0xFFFFFFFFFFFFFFFFFFFFFFFFFFFFFFFFFFFFFFFF AND PUSH4 0x18160DDD PUSH1 0x40 MLOAD DUP2 PUSH4 0xFFFFFFFF AND PUSH1 0xE0 SHL DUP2 MSTORE PUSH1 0x4 ADD PUSH1 0x20 PUSH1 0x40 MLOAD DUP1 DUP4 SUB DUP2 DUP7 DUP1 EXTCODESIZE ISZERO DUP1 ISZERO PUSH2 0x3C04 JUMPI PUSH1 0x0 DUP1 REVERT JUMPDEST POP GAS STATICCALL ISZERO DUP1 ISZERO PUSH2 0x3C18 JUMPI RETURNDATASIZE PUSH1 0x0 DUP1 RETURNDATACOPY RETURNDATASIZE PUSH1 0x0 REVERT JUMPDEST POP POP POP POP PUSH1 0x40 MLOAD RETURNDATASIZE PUSH1 0x1F NOT PUSH1 0x1F DUP3 ADD AND DUP3 ADD DUP1 PUSH1 0x40 MSTORE POP DUP2 ADD SWAP1 PUSH2 0x3C3C SWAP2 SWAP1 PUSH2 0x62F7 JUMP JUMPDEST SWAP1 POP PUSH1 0x0 DUP1 JUMPDEST PUSH1 0x5 DUP1 SLOAD SWAP1 POP DUP2 PUSH1 0xFF AND LT ISZERO PUSH2 0x3D41 JUMPI PUSH2 0x3D2E DUP5 PUSH20 0xFFFFFFFFFFFFFFFFFFFFFFFFFFFFFFFFFFFFFFFF AND PUSH4 0x70A08231 PUSH1 0x5 DUP5 PUSH1 0xFF AND DUP2 SLOAD DUP2 LT PUSH2 0x3C88 JUMPI PUSH2 0x3C87 PUSH2 0x7206 JUMP JUMPDEST JUMPDEST SWAP1 PUSH1 0x0 MSTORE PUSH1 0x20 PUSH1 0x0 KECCAK256 ADD PUSH1 0x0 SWAP1 SLOAD SWAP1 PUSH2 0x100 EXP SWAP1 DIV PUSH20 0xFFFFFFFFFFFFFFFFFFFFFFFFFFFFFFFFFFFFFFFF AND PUSH1 0x40 MLOAD DUP3 PUSH4 0xFFFFFFFF AND PUSH1 0xE0 SHL DUP2 MSTORE PUSH1 0x4 ADD PUSH2 0x3CCF SWAP2 SWAP1 PUSH2 0x692A JUMP JUMPDEST PUSH1 0x20 PUSH1 0x40 MLOAD DUP1 DUP4 SUB DUP2 DUP7 DUP1 EXTCODESIZE ISZERO DUP1 ISZERO PUSH2 0x3CE7 JUMPI PUSH1 0x0 DUP1 REVERT JUMPDEST POP GAS STATICCALL ISZERO DUP1 ISZERO PUSH2 0x3CFB JUMPI RETURNDATASIZE PUSH1 0x0 DUP1 RETURNDATACOPY RETURNDATASIZE PUSH1 0x0 REVERT JUMPDEST POP POP POP POP PUSH1 0x40 MLOAD RETURNDATASIZE PUSH1 0x1F NOT PUSH1 0x1F DUP3 ADD AND DUP3 ADD DUP1 PUSH1 0x40 MSTORE POP DUP2 ADD SWAP1 PUSH2 0x3D1F SWAP2 SWAP1 PUSH2 0x62F7 JUMP JUMPDEST DUP4 PUSH2 0x53C7 SWAP1 SWAP2 SWAP1 PUSH4 0xFFFFFFFF AND JUMP JUMPDEST SWAP2 POP DUP1 PUSH2 0x3D3A SWAP1 PUSH2 0x717E JUMP JUMPDEST SWAP1 POP PUSH2 0x3C42 JUMP JUMPDEST POP PUSH2 0x3D55 DUP2 DUP4 PUSH2 0x5398 SWAP1 SWAP2 SWAP1 PUSH4 0xFFFFFFFF AND JUMP JUMPDEST SWAP4 POP POP POP POP SWAP1 JUMP JUMPDEST CALLER PUSH20 0xFFFFFFFFFFFFFFFFFFFFFFFFFFFFFFFFFFFFFFFF AND PUSH1 0x1 PUSH1 0x0 SWAP1 SLOAD SWAP1 PUSH2 0x100 EXP SWAP1 DIV PUSH20 0xFFFFFFFFFFFFFFFFFFFFFFFFFFFFFFFFFFFFFFFF AND PUSH20 0xFFFFFFFFFFFFFFFFFFFFFFFFFFFFFFFFFFFFFFFF AND EQ PUSH2 0x3DED JUMPI PUSH1 0x40 MLOAD PUSH32 0x8C379A000000000000000000000000000000000000000000000000000000000 DUP2 MSTORE PUSH1 0x4 ADD PUSH2 0x3DE4 SWAP1 PUSH2 0x6D14 JUMP JUMPDEST PUSH1 0x40 MLOAD DUP1 SWAP2 SUB SWAP1 REVERT JUMPDEST PUSH2 0x1F4 DUP2 LT ISZERO DUP1 ISZERO PUSH2 0x3E01 JUMPI POP PUSH2 0x2710 DUP2 GT ISZERO JUMPDEST PUSH2 0x3E40 JUMPI PUSH1 0x40 MLOAD PUSH32 0x8C379A000000000000000000000000000000000000000000000000000000000 DUP2 MSTORE PUSH1 0x4 ADD PUSH2 0x3E37 SWAP1 PUSH2 0x6B14 JUMP JUMPDEST PUSH1 0x40 MLOAD DUP1 SWAP2 SUB SWAP1 REVERT JUMPDEST DUP1 PUSH1 0x11 DUP2 SWAP1 SSTORE POP POP JUMP JUMPDEST PUSH1 0x1E PUSH1 0x0 SWAP1 SLOAD SWAP1 PUSH2 0x100 EXP SWAP1 DIV PUSH20 0xFFFFFFFFFFFFFFFFFFFFFFFFFFFFFFFFFFFFFFFF AND DUP2 JUMP JUMPDEST PUSH1 0x3 SLOAD DUP2 JUMP JUMPDEST CALLER PUSH20 0xFFFFFFFFFFFFFFFFFFFFFFFFFFFFFFFFFFFFFFFF AND PUSH1 0x1 PUSH1 0x0 SWAP1 SLOAD SWAP1 PUSH2 0x100 EXP SWAP1 DIV PUSH20 0xFFFFFFFFFFFFFFFFFFFFFFFFFFFFFFFFFFFFFFFF AND PUSH20 0xFFFFFFFFFFFFFFFFFFFFFFFFFFFFFFFFFFFFFFFF AND EQ PUSH2 0x3F06 JUMPI PUSH1 0x40 MLOAD PUSH32 0x8C379A000000000000000000000000000000000000000000000000000000000 DUP2 MSTORE PUSH1 0x4 ADD PUSH2 0x3EFD SWAP1 PUSH2 0x6D14 JUMP JUMPDEST PUSH1 0x40 MLOAD DUP1 SWAP2 SUB SWAP1 REVERT JUMPDEST PUSH1 0x78 DUP3 GT ISZERO PUSH2 0x3F4A JUMPI PUSH1 0x40 MLOAD PUSH32 0x8C379A000000000000000000000000000000000000000000000000000000000 DUP2 MSTORE PUSH1 0x4 ADD PUSH2 0x3F41 SWAP1 PUSH2 0x6DF4 JUMP JUMPDEST PUSH1 0x40 MLOAD DUP1 SWAP2 SUB SWAP1 REVERT JUMPDEST PUSH1 0x64 DUP2 LT ISZERO DUP1 ISZERO PUSH2 0x3F5D JUMPI POP PUSH2 0x3E8 DUP2 GT ISZERO JUMPDEST PUSH2 0x3F9C JUMPI PUSH1 0x40 MLOAD PUSH32 0x8C379A000000000000000000000000000000000000000000000000000000000 DUP2 MSTORE PUSH1 0x4 ADD PUSH2 0x3F93 SWAP1 PUSH2 0x6E54 JUMP JUMPDEST PUSH1 0x40 MLOAD DUP1 SWAP2 SUB SWAP1 REVERT JUMPDEST DUP2 PUSH1 0x15 DUP2 SWAP1 SSTORE POP DUP1 PUSH1 0x16 DUP2 SWAP1 SSTORE POP POP POP JUMP JUMPDEST PUSH1 0x0 CALLER PUSH20 0xFFFFFFFFFFFFFFFFFFFFFFFFFFFFFFFFFFFFFFFF AND PUSH1 0x1 PUSH1 0x0 SWAP1 SLOAD SWAP1 PUSH2 0x100 EXP SWAP1 DIV PUSH20 0xFFFFFFFFFFFFFFFFFFFFFFFFFFFFFFFFFFFFFFFF AND PUSH20 0xFFFFFFFFFFFFFFFFFFFFFFFFFFFFFFFFFFFFFFFF AND EQ PUSH2 0x4040 JUMPI PUSH1 0x40 MLOAD PUSH32 0x8C379A000000000000000000000000000000000000000000000000000000000 DUP2 MSTORE PUSH1 0x4 ADD PUSH2 0x4037 SWAP1 PUSH2 0x6D14 JUMP JUMPDEST PUSH1 0x40 MLOAD DUP1 SWAP2 SUB SWAP1 REVERT JUMPDEST PUSH1 0x0 DUP4 PUSH1 0xFF AND LT ISZERO PUSH2 0x4087 JUMPI PUSH1 0x40 MLOAD PUSH32 0x8C379A000000000000000000000000000000000000000000000000000000000 DUP2 MSTORE PUSH1 0x4 ADD PUSH2 0x407E SWAP1 PUSH2 0x6CD4 JUMP JUMPDEST PUSH1 0x40 MLOAD DUP1 SWAP2 SUB SWAP1 REVERT JUMPDEST PUSH1 0x9 DUP4 PUSH1 0xFF AND LT PUSH2 0x40CD JUMPI PUSH1 0x40 MLOAD PUSH32 0x8C379A000000000000000000000000000000000000000000000000000000000 DUP2 MSTORE PUSH1 0x4 ADD PUSH2 0x40C4 SWAP1 PUSH2 0x6C94 JUMP JUMPDEST PUSH1 0x40 MLOAD DUP1 SWAP2 SUB SWAP1 REVERT JUMPDEST PUSH1 0x0 DUP4 PUSH1 0xFF AND GT ISZERO PUSH2 0x4113 JUMPI PUSH1 0xE PUSH1 0x1 DUP5 PUSH2 0x40E8 SWAP2 SWAP1 PUSH2 0x7056 JUMP JUMPDEST PUSH1 0xFF AND DUP2 SLOAD DUP2 LT PUSH2 0x40FC JUMPI PUSH2 0x40FB PUSH2 0x7206 JUMP JUMPDEST JUMPDEST SWAP1 PUSH1 0x0 MSTORE PUSH1 0x20 PUSH1 0x0 KECCAK256 ADD SLOAD DUP3 GT PUSH2 0x4112 JUMPI PUSH1 0x0 DUP1 REVERT JUMPDEST JUMPDEST PUSH1 0x8 DUP4 PUSH1 0xFF AND LT ISZERO PUSH2 0x4159 JUMPI PUSH1 0xE PUSH1 0x1 DUP5 PUSH2 0x412E SWAP2 SWAP1 PUSH2 0x6F60 JUMP JUMPDEST PUSH1 0xFF AND DUP2 SLOAD DUP2 LT PUSH2 0x4142 JUMPI PUSH2 0x4141 PUSH2 0x7206 JUMP JUMPDEST JUMPDEST SWAP1 PUSH1 0x0 MSTORE PUSH1 0x20 PUSH1 0x0 KECCAK256 ADD SLOAD DUP3 LT PUSH2 0x4158 JUMPI PUSH1 0x0 DUP1 REVERT JUMPDEST JUMPDEST DUP2 PUSH1 0xE DUP5 PUSH1 0xFF AND DUP2 SLOAD DUP2 LT PUSH2 0x4171 JUMPI PUSH2 0x4170 PUSH2 0x7206 JUMP JUMPDEST JUMPDEST SWAP1 PUSH1 0x0 MSTORE PUSH1 0x20 PUSH1 0x0 KECCAK256 ADD DUP2 SWAP1 SSTORE POP PUSH1 0x1 SWAP1 POP SWAP3 SWAP2 POP POP JUMP JUMPDEST CALLER PUSH20 0xFFFFFFFFFFFFFFFFFFFFFFFFFFFFFFFFFFFFFFFF AND PUSH1 0x1 PUSH1 0x0 SWAP1 SLOAD SWAP1 PUSH2 0x100 EXP SWAP1 DIV PUSH20 0xFFFFFFFFFFFFFFFFFFFFFFFFFFFFFFFFFFFFFFFF AND PUSH20 0xFFFFFFFFFFFFFFFFFFFFFFFFFFFFFFFFFFFFFFFF AND EQ PUSH2 0x4219 JUMPI PUSH1 0x40 MLOAD PUSH32 0x8C379A000000000000000000000000000000000000000000000000000000000 DUP2 MSTORE PUSH1 0x4 ADD PUSH2 0x4210 SWAP1 PUSH2 0x6D14 JUMP JUMPDEST PUSH1 0x40 MLOAD DUP1 SWAP2 SUB SWAP1 REVERT JUMPDEST PUSH1 0x9 PUSH1 0x0 SWAP1 SLOAD SWAP1 PUSH2 0x100 EXP SWAP1 DIV PUSH20 0xFFFFFFFFFFFFFFFFFFFFFFFFFFFFFFFFFFFFFFFF AND PUSH20 0xFFFFFFFFFFFFFFFFFFFFFFFFFFFFFFFFFFFFFFFF AND PUSH4 0x54575AF4 DUP5 DUP5 DUP5 PUSH1 0x40 MLOAD DUP5 PUSH4 0xFFFFFFFF AND PUSH1 0xE0 SHL DUP2 MSTORE PUSH1 0x4 ADD PUSH2 0x4278 SWAP4 SWAP3 SWAP2 SWAP1 PUSH2 0x69C0 JUMP JUMPDEST PUSH1 0x0 PUSH1 0x40 MLOAD DUP1 DUP4 SUB DUP2 PUSH1 0x0 DUP8 DUP1 EXTCODESIZE ISZERO DUP1 ISZERO PUSH2 0x4292 JUMPI PUSH1 0x0 DUP1 REVERT JUMPDEST POP GAS CALL ISZERO DUP1 ISZERO PUSH2 0x42A6 JUMPI RETURNDATASIZE PUSH1 0x0 DUP1 RETURNDATACOPY RETURNDATASIZE PUSH1 0x0 REVERT JUMPDEST POP POP POP POP POP POP POP JUMP JUMPDEST PUSH1 0x1 PUSH1 0x14 SWAP1 SLOAD SWAP1 PUSH2 0x100 EXP SWAP1 DIV PUSH1 0xFF AND ISZERO PUSH2 0x42FF JUMPI PUSH1 0x40 MLOAD PUSH32 0x8C379A000000000000000000000000000000000000000000000000000000000 DUP2 MSTORE PUSH1 0x4 ADD PUSH2 0x42F6 SWAP1 PUSH2 0x6C74 JUMP JUMPDEST PUSH1 0x40 MLOAD DUP1 SWAP2 SUB SWAP1 REVERT JUMPDEST DUP6 PUSH1 0x6 PUSH1 0x0 PUSH2 0x100 EXP DUP2 SLOAD DUP2 PUSH20 0xFFFFFFFFFFFFFFFFFFFFFFFFFFFFFFFFFFFFFFFF MUL NOT AND SWAP1 DUP4 PUSH20 0xFFFFFFFFFFFFFFFFFFFFFFFFFFFFFFFFFFFFFFFF AND MUL OR SWAP1 SSTORE POP DUP5 PUSH1 0x7 PUSH1 0x0 PUSH2 0x100 EXP DUP2 SLOAD DUP2 PUSH20 0xFFFFFFFFFFFFFFFFFFFFFFFFFFFFFFFFFFFFFFFF MUL NOT AND SWAP1 DUP4 PUSH20 0xFFFFFFFFFFFFFFFFFFFFFFFFFFFFFFFFFFFFFFFF AND MUL OR SWAP1 SSTORE POP DUP4 PUSH1 0x8 PUSH1 0x0 PUSH2 0x100 EXP DUP2 SLOAD DUP2 PUSH20 0xFFFFFFFFFFFFFFFFFFFFFFFFFFFFFFFFFFFFFFFF MUL NOT AND SWAP1 DUP4 PUSH20 0xFFFFFFFFFFFFFFFFFFFFFFFFFFFFFFFFFFFFFFFF AND MUL OR SWAP1 SSTORE POP DUP3 PUSH1 0xA PUSH1 0x0 PUSH2 0x100 EXP DUP2 SLOAD DUP2 PUSH20 0xFFFFFFFFFFFFFFFFFFFFFFFFFFFFFFFFFFFFFFFF MUL NOT AND SWAP1 DUP4 PUSH20 0xFFFFFFFFFFFFFFFFFFFFFFFFFFFFFFFFFFFFFFFF AND MUL OR SWAP1 SSTORE POP DUP2 PUSH1 0x9 PUSH1 0x0 PUSH2 0x100 EXP DUP2 SLOAD DUP2 PUSH20 0xFFFFFFFFFFFFFFFFFFFFFFFFFFFFFFFFFFFFFFFF MUL NOT AND SWAP1 DUP4 PUSH20 0xFFFFFFFFFFFFFFFFFFFFFFFFFFFFFFFFFFFFFFFF AND MUL OR SWAP1 SSTORE POP DUP1 PUSH1 0x2 DUP2 SWAP1 SSTORE POP PUSH8 0xDE0B6B3A7640000 PUSH1 0xB DUP2 SWAP1 SSTORE POP PUSH2 0x4483 PUSH1 0x64 PUSH2 0x4475 PUSH1 0x65 PUSH1 0xB SLOAD PUSH2 0x536C SWAP1 SWAP2 SWAP1 PUSH4 0xFFFFFFFF AND JUMP JUMPDEST PUSH2 0x5382 SWAP1 SWAP2 SWAP1 PUSH4 0xFFFFFFFF AND JUMP JUMPDEST PUSH1 0xC DUP2 SWAP1 SSTORE POP PUSH1 0x40 MLOAD DUP1 PUSH2 0x120 ADD PUSH1 0x40 MSTORE DUP1 PUSH1 0x0 PUSH11 0xFFFFFFFFFFFFFFFFFFFFFF AND DUP2 MSTORE PUSH1 0x20 ADD PUSH10 0x69E10DE76676D0800000 PUSH11 0xFFFFFFFFFFFFFFFFFFFFFF AND DUP2 MSTORE PUSH1 0x20 ADD PUSH10 0xD3C21BCECCEDA1000000 PUSH11 0xFFFFFFFFFFFFFFFFFFFFFF AND DUP2 MSTORE PUSH1 0x20 ADD PUSH11 0x13DA329B6336471800000 PUSH11 0xFFFFFFFFFFFFFFFFFFFFFF AND DUP2 MSTORE PUSH1 0x20 ADD PUSH11 0x1A784379D99DB42000000 PUSH11 0xFFFFFFFFFFFFFFFFFFFFFF AND DUP2 MSTORE PUSH1 0x20 ADD PUSH11 0x422CA8B0A00A425000000 PUSH11 0xFFFFFFFFFFFFFFFFFFFFFF AND DUP2 MSTORE PUSH1 0x20 ADD PUSH11 0x84595161401484A000000 PUSH11 0xFFFFFFFFFFFFFFFFFFFFFF AND DUP2 MSTORE PUSH1 0x20 ADD PUSH11 0x108B2A2C28029094000000 PUSH11 0xFFFFFFFFFFFFFFFFFFFFFF AND DUP2 MSTORE PUSH1 0x20 ADD PUSH11 0x295BE96E64066972000000 PUSH11 0xFFFFFFFFFFFFFFFFFFFFFF AND DUP2 MSTORE POP PUSH1 0xE SWAP1 PUSH1 0x9 PUSH2 0x45A5 SWAP3 SWAP2 SWAP1 PUSH2 0x5F08 JUMP JUMPDEST POP PUSH1 0x40 MLOAD DUP1 PUSH2 0x120 ADD PUSH1 0x40 MSTORE DUP1 PUSH2 0x1C2 PUSH2 0xFFFF AND DUP2 MSTORE PUSH1 0x20 ADD PUSH2 0x190 PUSH2 0xFFFF AND DUP2 MSTORE PUSH1 0x20 ADD PUSH2 0x15E PUSH2 0xFFFF AND DUP2 MSTORE PUSH1 0x20 ADD PUSH2 0x12C PUSH2 0xFFFF AND DUP2 MSTORE PUSH1 0x20 ADD PUSH1 0xFA PUSH2 0xFFFF AND DUP2 MSTORE PUSH1 0x20 ADD PUSH1 0xC8 PUSH2 0xFFFF AND DUP2 MSTORE PUSH1 0x20 ADD PUSH1 0x96 PUSH2 0xFFFF AND DUP2 MSTORE PUSH1 0x20 ADD PUSH1 0x7D PUSH2 0xFFFF AND DUP2 MSTORE PUSH1 0x20 ADD PUSH1 0x64 PUSH2 0xFFFF AND DUP2 MSTORE POP PUSH1 0xF SWAP1 PUSH1 0x9 PUSH2 0x4627 SWAP3 SWAP2 SWAP1 PUSH2 0x5F64 JUMP JUMPDEST POP PUSH2 0x190 PUSH1 0x10 DUP2 SWAP1 SSTORE POP PUSH2 0x2710 PUSH1 0x11 DUP2 SWAP1 SSTORE POP PUSH2 0xDAC PUSH1 0x12 DUP2 SWAP1 SSTORE POP PUSH2 0x12C PUSH1 0x13 DUP2 SWAP1 SSTORE POP PUSH2 0xDAC PUSH1 0x14 DUP2 SWAP1 SSTORE POP PUSH1 0x6E PUSH1 0x1B DUP2 SWAP1 SSTORE POP PUSH2 0x1B58 PUSH1 0x1C DUP2 SWAP1 SSTORE POP PUSH1 0x1C PUSH1 0x15 DUP2 SWAP1 SSTORE POP PUSH2 0x1C2 PUSH1 0x16 DUP2 SWAP1 SSTORE POP PUSH1 0x6 PUSH1 0x0 SWAP1 SLOAD SWAP1 PUSH2 0x100 EXP SWAP1 DIV PUSH20 0xFFFFFFFFFFFFFFFFFFFFFFFFFFFFFFFFFFFFFFFF AND PUSH20 0xFFFFFFFFFFFFFFFFFFFFFFFFFFFFFFFFFFFFFFFF AND PUSH4 0x70A08231 ADDRESS PUSH1 0x40 MLOAD DUP3 PUSH4 0xFFFFFFFF AND PUSH1 0xE0 SHL DUP2 MSTORE PUSH1 0x4 ADD PUSH2 0x46D2 SWAP2 SWAP1 PUSH2 0x692A JUMP JUMPDEST PUSH1 0x20 PUSH1 0x40 MLOAD DUP1 DUP4 SUB DUP2 DUP7 DUP1 EXTCODESIZE ISZERO DUP1 ISZERO PUSH2 0x46EA JUMPI PUSH1 0x0 DUP1 REVERT JUMPDEST POP GAS STATICCALL ISZERO DUP1 ISZERO PUSH2 0x46FE JUMPI RETURNDATASIZE PUSH1 0x0 DUP1 RETURNDATACOPY RETURNDATASIZE PUSH1 0x0 REVERT JUMPDEST POP POP POP POP PUSH1 0x40 MLOAD RETURNDATASIZE PUSH1 0x1F NOT PUSH1 0x1F DUP3 ADD AND DUP3 ADD DUP1 PUSH1 0x40 MSTORE POP DUP2 ADD SWAP1 PUSH2 0x4722 SWAP2 SWAP1 PUSH2 0x62F7 JUMP JUMPDEST PUSH1 0xD DUP2 SWAP1 SSTORE POP PUSH1 0x1 DUP1 PUSH1 0x14 PUSH2 0x100 EXP DUP2 SLOAD DUP2 PUSH1 0xFF MUL NOT AND SWAP1 DUP4 ISZERO ISZERO MUL OR SWAP1 SSTORE POP CALLER PUSH1 0x1 PUSH1 0x0 PUSH2 0x100 EXP DUP2 SLOAD DUP2 PUSH20 0xFFFFFFFFFFFFFFFFFFFFFFFFFFFFFFFFFFFFFFFF MUL NOT AND SWAP1 DUP4 PUSH20 0xFFFFFFFFFFFFFFFFFFFFFFFFFFFFFFFFFFFFFFFF AND MUL OR SWAP1 SSTORE POP CALLER PUSH20 0xFFFFFFFFFFFFFFFFFFFFFFFFFFFFFFFFFFFFFFFF AND PUSH32 0x25FF68DD81B34665B5BA7E553EE5511BF6812E12ADB4A7E2C0D9E26B3099CE79 NUMBER PUSH1 0x40 MLOAD PUSH2 0x47C9 SWAP2 SWAP1 PUSH2 0x6E94 JUMP JUMPDEST PUSH1 0x40 MLOAD DUP1 SWAP2 SUB SWAP1 LOG2 POP POP POP POP POP POP JUMP JUMPDEST CALLER PUSH20 0xFFFFFFFFFFFFFFFFFFFFFFFFFFFFFFFFFFFFFFFF AND PUSH1 0x1 PUSH1 0x0 SWAP1 SLOAD SWAP1 PUSH2 0x100 EXP SWAP1 DIV PUSH20 0xFFFFFFFFFFFFFFFFFFFFFFFFFFFFFFFFFFFFFFFF AND PUSH20 0xFFFFFFFFFFFFFFFFFFFFFFFFFFFFFFFFFFFFFFFF AND EQ PUSH2 0x4869 JUMPI PUSH1 0x40 MLOAD PUSH32 0x8C379A000000000000000000000000000000000000000000000000000000000 DUP2 MSTORE PUSH1 0x4 ADD PUSH2 0x4860 SWAP1 PUSH2 0x6D14 JUMP JUMPDEST PUSH1 0x40 MLOAD DUP1 SWAP2 SUB SWAP1 REVERT JUMPDEST DUP1 PUSH1 0x18 DUP2 SWAP1 SSTORE POP POP JUMP JUMPDEST PUSH1 0xE DUP2 DUP2 SLOAD DUP2 LT PUSH2 0x4883 JUMPI PUSH1 0x0 DUP1 REVERT JUMPDEST SWAP1 PUSH1 0x0 MSTORE PUSH1 0x20 PUSH1 0x0 KECCAK256 ADD PUSH1 0x0 SWAP2 POP SWAP1 POP SLOAD DUP2 JUMP JUMPDEST PUSH1 0xF DUP2 DUP2 SLOAD DUP2 LT PUSH2 0x48A7 JUMPI PUSH1 0x0 DUP1 REVERT JUMPDEST SWAP1 PUSH1 0x0 MSTORE PUSH1 0x20 PUSH1 0x0 KECCAK256 ADD PUSH1 0x0 SWAP2 POP SWAP1 POP SLOAD DUP2 JUMP JUMPDEST CALLER PUSH20 0xFFFFFFFFFFFFFFFFFFFFFFFFFFFFFFFFFFFFFFFF AND PUSH1 0x1 PUSH1 0x0 SWAP1 SLOAD SWAP1 PUSH2 0x100 EXP SWAP1 DIV PUSH20 0xFFFFFFFFFFFFFFFFFFFFFFFFFFFFFFFFFFFFFFFF AND PUSH20 0xFFFFFFFFFFFFFFFFFFFFFFFFFFFFFFFFFFFFFFFF AND EQ PUSH2 0x494B JUMPI PUSH1 0x40 MLOAD PUSH32 0x8C379A000000000000000000000000000000000000000000000000000000000 DUP2 MSTORE PUSH1 0x4 ADD PUSH2 0x4942 SWAP1 PUSH2 0x6D14 JUMP JUMPDEST PUSH1 0x40 MLOAD DUP1 SWAP2 SUB SWAP1 REVERT JUMPDEST DUP1 PUSH1 0x19 DUP2 SWAP1 SSTORE POP POP JUMP JUMPDEST PUSH1 0x17 SLOAD DUP2 JUMP JUMPDEST CALLER PUSH20 0xFFFFFFFFFFFFFFFFFFFFFFFFFFFFFFFFFFFFFFFF AND PUSH1 0x1 PUSH1 0x0 SWAP1 SLOAD SWAP1 PUSH2 0x100 EXP SWAP1 DIV PUSH20 0xFFFFFFFFFFFFFFFFFFFFFFFFFFFFFFFFFFFFFFFF AND PUSH20 0xFFFFFFFFFFFFFFFFFFFFFFFFFFFFFFFFFFFFFFFF AND EQ PUSH2 0x49EB JUMPI PUSH1 0x40 MLOAD PUSH32 0x8C379A000000000000000000000000000000000000000000000000000000000 DUP2 MSTORE PUSH1 0x4 ADD PUSH2 0x49E2 SWAP1 PUSH2 0x6D14 JUMP JUMPDEST PUSH1 0x40 MLOAD DUP1 SWAP2 SUB SWAP1 REVERT JUMPDEST DUP1 PUSH1 0x1 PUSH1 0x0 PUSH2 0x100 EXP DUP2 SLOAD DUP2 PUSH20 0xFFFFFFFFFFFFFFFFFFFFFFFFFFFFFFFFFFFFFFFF MUL NOT AND SWAP1 DUP4 PUSH20 0xFFFFFFFFFFFFFFFFFFFFFFFFFFFFFFFFFFFFFFFF AND MUL OR SWAP1 SSTORE POP POP JUMP JUMPDEST PUSH2 0x5460 DUP2 JUMP JUMPDEST PUSH1 0x18 SLOAD DUP2 JUMP JUMPDEST PUSH1 0x7 PUSH1 0x0 SWAP1 SLOAD SWAP1 PUSH2 0x100 EXP SWAP1 DIV PUSH20 0xFFFFFFFFFFFFFFFFFFFFFFFFFFFFFFFFFFFFFFFF AND DUP2 JUMP JUMPDEST CALLER PUSH20 0xFFFFFFFFFFFFFFFFFFFFFFFFFFFFFFFFFFFFFFFF AND PUSH1 0x1 PUSH1 0x0 SWAP1 SLOAD SWAP1 PUSH2 0x100 EXP SWAP1 DIV PUSH20 0xFFFFFFFFFFFFFFFFFFFFFFFFFFFFFFFFFFFFFFFF AND PUSH20 0xFFFFFFFFFFFFFFFFFFFFFFFFFFFFFFFFFFFFFFFF AND EQ PUSH2 0x4AF1 JUMPI PUSH1 0x40 MLOAD PUSH32 0x8C379A000000000000000000000000000000000000000000000000000000000 DUP2 MSTORE PUSH1 0x4 ADD PUSH2 0x4AE8 SWAP1 PUSH2 0x6D14 JUMP JUMPDEST PUSH1 0x40 MLOAD DUP1 SWAP2 SUB SWAP1 REVERT JUMPDEST PUSH1 0x0 PUSH20 0xFFFFFFFFFFFFFFFFFFFFFFFFFFFFFFFFFFFFFFFF AND DUP5 PUSH20 0xFFFFFFFFFFFFFFFFFFFFFFFFFFFFFFFFFFFFFFFF AND EQ ISZERO PUSH2 0x4B61 JUMPI PUSH1 0x40 MLOAD PUSH32 0x8C379A000000000000000000000000000000000000000000000000000000000 DUP2 MSTORE PUSH1 0x4 ADD PUSH2 0x4B58 SWAP1 PUSH2 0x6A94 JUMP JUMPDEST PUSH1 0x40 MLOAD DUP1 SWAP2 SUB SWAP1 REVERT JUMPDEST PUSH2 0xBB8 DUP4 GT ISZERO PUSH2 0x4BA6 JUMPI PUSH1 0x40 MLOAD PUSH32 0x8C379A000000000000000000000000000000000000000000000000000000000 DUP2 MSTORE PUSH1 0x4 ADD PUSH2 0x4B9D SWAP1 PUSH2 0x6B14 JUMP JUMPDEST PUSH1 0x40 MLOAD DUP1 SWAP2 SUB SWAP1 REVERT JUMPDEST PUSH1 0x0 PUSH20 0xFFFFFFFFFFFFFFFFFFFFFFFFFFFFFFFFFFFFFFFF AND DUP3 PUSH20 0xFFFFFFFFFFFFFFFFFFFFFFFFFFFFFFFFFFFFFFFF AND EQ ISZERO PUSH2 0x4C16 JUMPI PUSH1 0x40 MLOAD PUSH32 0x8C379A000000000000000000000000000000000000000000000000000000000 DUP2 MSTORE PUSH1 0x4 ADD PUSH2 0x4C0D SWAP1 PUSH2 0x6A94 JUMP JUMPDEST PUSH1 0x40 MLOAD DUP1 SWAP2 SUB SWAP1 REVERT JUMPDEST PUSH2 0x3E8 DUP2 GT ISZERO PUSH2 0x4C5B JUMPI PUSH1 0x40 MLOAD PUSH32 0x8C379A000000000000000000000000000000000000000000000000000000000 DUP2 MSTORE PUSH1 0x4 ADD PUSH2 0x4C52 SWAP1 PUSH2 0x6B14 JUMP JUMPDEST PUSH1 0x40 MLOAD DUP1 SWAP2 SUB SWAP1 REVERT JUMPDEST DUP4 PUSH1 0x1E PUSH1 0x0 PUSH2 0x100 EXP DUP2 SLOAD DUP2 PUSH20 0xFFFFFFFFFFFFFFFFFFFFFFFFFFFFFFFFFFFFFFFF MUL NOT AND SWAP1 DUP4 PUSH20 0xFFFFFFFFFFFFFFFFFFFFFFFFFFFFFFFFFFFFFFFF AND MUL OR SWAP1 SSTORE POP DUP3 PUSH1 0x1F DUP2 SWAP1 SSTORE POP DUP2 PUSH1 0x20 PUSH1 0x0 PUSH2 0x100 EXP DUP2 SLOAD DUP2 PUSH20 0xFFFFFFFFFFFFFFFFFFFFFFFFFFFFFFFFFFFFFFFF MUL NOT AND SWAP1 DUP4 PUSH20 0xFFFFFFFFFFFFFFFFFFFFFFFFFFFFFFFFFFFFFFFF AND MUL OR SWAP1 SSTORE POP DUP1 PUSH1 0x21 DUP2 SWAP1 SSTORE POP POP POP POP POP JUMP JUMPDEST CALLER PUSH20 0xFFFFFFFFFFFFFFFFFFFFFFFFFFFFFFFFFFFFFFFF AND PUSH1 0x1 PUSH1 0x0 SWAP1 SLOAD SWAP1 PUSH2 0x100 EXP SWAP1 DIV PUSH20 0xFFFFFFFFFFFFFFFFFFFFFFFFFFFFFFFFFFFFFFFF AND PUSH20 0xFFFFFFFFFFFFFFFFFFFFFFFFFFFFFFFFFFFFFFFF AND EQ PUSH2 0x4D81 JUMPI PUSH1 0x40 MLOAD PUSH32 0x8C379A000000000000000000000000000000000000000000000000000000000 DUP2 MSTORE PUSH1 0x4 ADD PUSH2 0x4D78 SWAP1 PUSH2 0x6D14 JUMP JUMPDEST PUSH1 0x40 MLOAD DUP1 SWAP2 SUB SWAP1 REVERT JUMPDEST PUSH1 0x9 PUSH1 0x0 SWAP1 SLOAD SWAP1 PUSH2 0x100 EXP SWAP1 DIV PUSH20 0xFFFFFFFFFFFFFFFFFFFFFFFFFFFFFFFFFFFFFFFF AND PUSH20 0xFFFFFFFFFFFFFFFFFFFFFFFFFFFFFFFFFFFFFFFF AND PUSH4 0x97FFE1D7 DUP3 PUSH1 0x40 MLOAD DUP3 PUSH4 0xFFFFFFFF AND PUSH1 0xE0 SHL DUP2 MSTORE PUSH1 0x4 ADD PUSH2 0x4DDC SWAP2 SWAP1 PUSH2 0x6E94 JUMP JUMPDEST PUSH1 0x0 PUSH1 0x40 MLOAD DUP1 DUP4 SUB DUP2 PUSH1 0x0 DUP8 DUP1 EXTCODESIZE ISZERO DUP1 ISZERO PUSH2 0x4DF6 JUMPI PUSH1 0x0 DUP1 REVERT JUMPDEST POP GAS CALL ISZERO DUP1 ISZERO PUSH2 0x4E0A JUMPI RETURNDATASIZE PUSH1 0x0 DUP1 RETURNDATACOPY RETURNDATASIZE PUSH1 0x0 REVERT JUMPDEST POP POP POP POP POP JUMP JUMPDEST PUSH1 0x6 PUSH1 0x0 SWAP1 SLOAD SWAP1 PUSH2 0x100 EXP SWAP1 DIV PUSH20 0xFFFFFFFFFFFFFFFFFFFFFFFFFFFFFFFFFFFFFFFF AND DUP2 JUMP JUMPDEST PUSH1 0x0 PUSH2 0x4E64 PUSH2 0x4E53 PUSH2 0x5460 PUSH1 0x3 SLOAD PUSH2 0x536C SWAP1 SWAP2 SWAP1 PUSH4 0xFFFFFFFF AND JUMP JUMPDEST PUSH1 0x2 SLOAD PUSH2 0x53C7 SWAP1 SWAP2 SWAP1 PUSH4 0xFFFFFFFF AND JUMP JUMPDEST SWAP1 POP SWAP1 JUMP JUMPDEST PUSH1 0x0 PUSH1 0xA PUSH1 0x0 SWAP1 SLOAD SWAP1 PUSH2 0x100 EXP SWAP1 DIV PUSH20 0xFFFFFFFFFFFFFFFFFFFFFFFFFFFFFFFFFFFFFFFF AND PUSH20 0xFFFFFFFFFFFFFFFFFFFFFFFFFFFFFFFFFFFFFFFF AND PUSH4 0x6808A128 PUSH1 0x6 PUSH1 0x0 SWAP1 SLOAD SWAP1 PUSH2 0x100 EXP SWAP1 DIV PUSH20 0xFFFFFFFFFFFFFFFFFFFFFFFFFFFFFFFFFFFFFFFF AND PUSH8 0xDE0B6B3A7640000 PUSH1 0x40 MLOAD DUP4 PUSH4 0xFFFFFFFF AND PUSH1 0xE0 SHL DUP2 MSTORE PUSH1 0x4 ADD PUSH2 0x4EF2 SWAP3 SWAP2 SWAP1 PUSH2 0x696E JUMP JUMPDEST PUSH1 0x20 PUSH1 0x40 MLOAD DUP1 DUP4 SUB DUP2 DUP7 DUP1 EXTCODESIZE ISZERO DUP1 ISZERO PUSH2 0x4F0A JUMPI PUSH1 0x0 DUP1 REVERT JUMPDEST POP GAS STATICCALL SWAP3 POP POP POP DUP1 ISZERO PUSH2 0x4F3B JUMPI POP PUSH1 0x40 MLOAD RETURNDATASIZE PUSH1 0x1F NOT PUSH1 0x1F DUP3 ADD AND DUP3 ADD DUP1 PUSH1 0x40 MSTORE POP DUP2 ADD SWAP1 PUSH2 0x4F38 SWAP2 SWAP1 PUSH2 0x629D JUMP JUMPDEST PUSH1 0x1 JUMPDEST PUSH2 0x4F7A JUMPI PUSH1 0x40 MLOAD PUSH32 0x8C379A000000000000000000000000000000000000000000000000000000000 DUP2 MSTORE PUSH1 0x4 ADD PUSH2 0x4F71 SWAP1 PUSH2 0x6AF4 JUMP JUMPDEST PUSH1 0x40 MLOAD DUP1 SWAP2 SUB SWAP1 REVERT JUMPDEST DUP1 PUSH18 0xFFFFFFFFFFFFFFFFFFFFFFFFFFFFFFFFFFFF AND SWAP2 POP POP SWAP1 JUMP JUMPDEST PUSH1 0x1C SLOAD DUP2 JUMP JUMPDEST PUSH1 0x1B SLOAD DUP2 JUMP JUMPDEST CALLER PUSH20 0xFFFFFFFFFFFFFFFFFFFFFFFFFFFFFFFFFFFFFFFF AND PUSH1 0x1 PUSH1 0x0 SWAP1 SLOAD SWAP1 PUSH2 0x100 EXP SWAP1 DIV PUSH20 0xFFFFFFFFFFFFFFFFFFFFFFFFFFFFFFFFFFFFFFFF AND PUSH20 0xFFFFFFFFFFFFFFFFFFFFFFFFFFFFFFFFFFFFFFFF AND EQ PUSH2 0x5031 JUMPI PUSH1 0x40 MLOAD PUSH32 0x8C379A000000000000000000000000000000000000000000000000000000000 DUP2 MSTORE PUSH1 0x4 ADD PUSH2 0x5028 SWAP1 PUSH2 0x6D14 JUMP JUMPDEST PUSH1 0x40 MLOAD DUP1 SWAP2 SUB SWAP1 REVERT JUMPDEST PUSH1 0x64 DUP2 LT ISZERO DUP1 ISZERO PUSH2 0x5044 JUMPI POP PUSH2 0x5DC DUP2 GT ISZERO JUMPDEST PUSH2 0x5083 JUMPI PUSH1 0x40 MLOAD PUSH32 0x8C379A000000000000000000000000000000000000000000000000000000000 DUP2 MSTORE PUSH1 0x4 ADD PUSH2 0x507A SWAP1 PUSH2 0x6B14 JUMP JUMPDEST PUSH1 0x40 MLOAD DUP1 SWAP2 SUB SWAP1 REVERT JUMPDEST DUP1 PUSH1 0x13 DUP2 SWAP1 SSTORE POP POP JUMP JUMPDEST PUSH1 0x0 CALLER PUSH20 0xFFFFFFFFFFFFFFFFFFFFFFFFFFFFFFFFFFFFFFFF AND PUSH1 0x1 PUSH1 0x0 SWAP1 SLOAD SWAP1 PUSH2 0x100 EXP SWAP1 DIV PUSH20 0xFFFFFFFFFFFFFFFFFFFFFFFFFFFFFFFFFFFFFFFF AND PUSH20 0xFFFFFFFFFFFFFFFFFFFFFFFFFFFFFFFFFFFFFFFF AND EQ PUSH2 0x511F JUMPI PUSH1 0x40 MLOAD PUSH32 0x8C379A000000000000000000000000000000000000000000000000000000000 DUP2 MSTORE PUSH1 0x4 ADD PUSH2 0x5116 SWAP1 PUSH2 0x6D14 JUMP JUMPDEST PUSH1 0x40 MLOAD DUP1 SWAP2 SUB SWAP1 REVERT JUMPDEST PUSH1 0x0 DUP4 PUSH1 0xFF AND LT ISZERO PUSH2 0x5166 JUMPI PUSH1 0x40 MLOAD PUSH32 0x8C379A000000000000000000000000000000000000000000000000000000000 DUP2 MSTORE PUSH1 0x4 ADD PUSH2 0x515D SWAP1 PUSH2 0x6CD4 JUMP JUMPDEST PUSH1 0x40 MLOAD DUP1 SWAP2 SUB SWAP1 REVERT JUMPDEST PUSH1 0x9 DUP4 PUSH1 0xFF AND LT PUSH2 0x51AC JUMPI PUSH1 0x40 MLOAD PUSH32 0x8C379A000000000000000000000000000000000000000000000000000000000 DUP2 MSTORE PUSH1 0x4 ADD PUSH2 0x51A3 SWAP1 PUSH2 0x6C94 JUMP JUMPDEST PUSH1 0x40 MLOAD DUP1 SWAP2 SUB SWAP1 REVERT JUMPDEST PUSH1 0xA DUP3 LT ISZERO DUP1 ISZERO PUSH2 0x51BF JUMPI POP PUSH2 0x3E8 DUP3 GT ISZERO JUMPDEST PUSH2 0x51FE JUMPI PUSH1 0x40 MLOAD PUSH32 0x8C379A000000000000000000000000000000000000000000000000000000000 DUP2 MSTORE PUSH1 0x4 ADD PUSH2 0x51F5 SWAP1 PUSH2 0x6CB4 JUMP JUMPDEST PUSH1 0x40 MLOAD DUP1 SWAP2 SUB SWAP1 REVERT JUMPDEST DUP2 PUSH1 0xF DUP5 PUSH1 0xFF AND DUP2 SLOAD DUP2 LT PUSH2 0x5216 JUMPI PUSH2 0x5215 PUSH2 0x7206 JUMP JUMPDEST JUMPDEST SWAP1 PUSH1 0x0 MSTORE PUSH1 0x20 PUSH1 0x0 KECCAK256 ADD DUP2 SWAP1 SSTORE POP PUSH1 0x1 SWAP1 POP SWAP3 SWAP2 POP POP JUMP JUMPDEST CALLER PUSH20 0xFFFFFFFFFFFFFFFFFFFFFFFFFFFFFFFFFFFFFFFF AND PUSH1 0x1 PUSH1 0x0 SWAP1 SLOAD SWAP1 PUSH2 0x100 EXP SWAP1 DIV PUSH20 0xFFFFFFFFFFFFFFFFFFFFFFFFFFFFFFFFFFFFFFFF AND PUSH20 0xFFFFFFFFFFFFFFFFFFFFFFFFFFFFFFFFFFFFFFFF AND EQ PUSH2 0x52BE JUMPI PUSH1 0x40 MLOAD PUSH32 0x8C379A000000000000000000000000000000000000000000000000000000000 DUP2 MSTORE PUSH1 0x4 ADD PUSH2 0x52B5 SWAP1 PUSH2 0x6D14 JUMP JUMPDEST PUSH1 0x40 MLOAD DUP1 SWAP2 SUB SWAP1 REVERT JUMPDEST DUP1 PUSH1 0x9 PUSH1 0x0 PUSH2 0x100 EXP DUP2 SLOAD DUP2 PUSH20 0xFFFFFFFFFFFFFFFFFFFFFFFFFFFFFFFFFFFFFFFF MUL NOT AND SWAP1 DUP4 PUSH20 0xFFFFFFFFFFFFFFFFFFFFFFFFFFFFFFFFFFFFFFFF AND MUL OR SWAP1 SSTORE POP POP JUMP JUMPDEST PUSH1 0x10 SLOAD DUP2 JUMP JUMPDEST PUSH1 0x14 SLOAD DUP2 JUMP JUMPDEST PUSH1 0x13 SLOAD DUP2 JUMP JUMPDEST PUSH1 0x8 PUSH1 0x0 SWAP1 SLOAD SWAP1 PUSH2 0x100 EXP SWAP1 DIV PUSH20 0xFFFFFFFFFFFFFFFFFFFFFFFFFFFFFFFFFFFFFFFF AND DUP2 JUMP JUMPDEST PUSH1 0x15 SLOAD DUP2 JUMP JUMPDEST PUSH1 0xA PUSH1 0x0 SWAP1 SLOAD SWAP1 PUSH2 0x100 EXP SWAP1 DIV PUSH20 0xFFFFFFFFFFFFFFFFFFFFFFFFFFFFFFFFFFFFFFFF AND DUP2 JUMP JUMPDEST PUSH1 0x4 SLOAD DUP2 JUMP JUMPDEST PUSH1 0x0 DUP2 DUP4 PUSH2 0x537A SWAP2 SWAP1 PUSH2 0x6FC8 JUMP JUMPDEST SWAP1 POP SWAP3 SWAP2 POP POP JUMP JUMPDEST PUSH1 0x0 DUP2 DUP4 PUSH2 0x5390 SWAP2 SWAP1 PUSH2 0x6F97 JUMP JUMPDEST SWAP1 POP SWAP3 SWAP2 POP POP JUMP JUMPDEST PUSH1 0x0 DUP2 DUP4 PUSH2 0x53A6 SWAP2 SWAP1 PUSH2 0x7022 JUMP JUMPDEST SWAP1 POP SWAP3 SWAP2 POP POP JUMP JUMPDEST PUSH1 0x0 DUP2 DUP4 LT PUSH2 0x53BD JUMPI DUP2 PUSH2 0x53BF JUMP JUMPDEST DUP3 JUMPDEST SWAP1 POP SWAP3 SWAP2 POP POP JUMP JUMPDEST PUSH1 0x0 DUP2 DUP4 PUSH2 0x53D5 SWAP2 SWAP1 PUSH2 0x6F0A JUMP JUMPDEST SWAP1 POP SWAP3 SWAP2 POP POP JUMP JUMPDEST PUSH1 0x0 DUP1 PUSH1 0x0 NUMBER DUP2 MSTORE PUSH1 0x20 ADD SWAP1 DUP2 MSTORE PUSH1 0x20 ADD PUSH1 0x0 KECCAK256 PUSH1 0x0 ORIGIN PUSH20 0xFFFFFFFFFFFFFFFFFFFFFFFFFFFFFFFFFFFFFFFF AND PUSH20 0xFFFFFFFFFFFFFFFFFFFFFFFFFFFFFFFFFFFFFFFF AND DUP2 MSTORE PUSH1 0x20 ADD SWAP1 DUP2 MSTORE PUSH1 0x20 ADD PUSH1 0x0 KECCAK256 PUSH1 0x0 SWAP1 SLOAD SWAP1 PUSH2 0x100 EXP SWAP1 DIV PUSH1 0xFF AND SWAP1 POP SWAP1 JUMP JUMPDEST PUSH1 0x0 DUP1 PUSH1 0x0 NUMBER DUP2 MSTORE PUSH1 0x20 ADD SWAP1 DUP2 MSTORE PUSH1 0x20 ADD PUSH1 0x0 KECCAK256 PUSH1 0x0 CALLER PUSH20 0xFFFFFFFFFFFFFFFFFFFFFFFFFFFFFFFFFFFFFFFF AND PUSH20 0xFFFFFFFFFFFFFFFFFFFFFFFFFFFFFFFFFFFFFFFF AND DUP2 MSTORE PUSH1 0x20 ADD SWAP1 DUP2 MSTORE PUSH1 0x20 ADD PUSH1 0x0 KECCAK256 PUSH1 0x0 SWAP1 SLOAD SWAP1 PUSH2 0x100 EXP SWAP1 DIV PUSH1 0xFF AND SWAP1 POP SWAP1 JUMP JUMPDEST PUSH2 0x5526 DUP4 PUSH4 0xA9059CBB PUSH1 0xE0 SHL DUP5 DUP5 PUSH1 0x40 MLOAD PUSH1 0x24 ADD PUSH2 0x54C4 SWAP3 SWAP2 SWAP1 PUSH2 0x6997 JUMP JUMPDEST PUSH1 0x40 MLOAD PUSH1 0x20 DUP2 DUP4 SUB SUB DUP2 MSTORE SWAP1 PUSH1 0x40 MSTORE SWAP1 PUSH28 0xFFFFFFFFFFFFFFFFFFFFFFFFFFFFFFFFFFFFFFFFFFFFFFFFFFFFFFFF NOT AND PUSH1 0x20 DUP3 ADD DUP1 MLOAD PUSH28 0xFFFFFFFFFFFFFFFFFFFFFFFFFFFFFFFFFFFFFFFFFFFFFFFFFFFFFFFF DUP4 DUP2 DUP4 AND OR DUP4 MSTORE POP POP POP POP PUSH2 0x5B3D JUMP JUMPDEST POP POP POP JUMP JUMPDEST PUSH1 0xA PUSH1 0x0 SWAP1 SLOAD SWAP1 PUSH2 0x100 EXP SWAP1 DIV PUSH20 0xFFFFFFFFFFFFFFFFFFFFFFFFFFFFFFFFFFFFFFFF AND PUSH20 0xFFFFFFFFFFFFFFFFFFFFFFFFFFFFFFFFFFFFFFFF AND PUSH4 0xA2E62045 PUSH1 0x40 MLOAD DUP2 PUSH4 0xFFFFFFFF AND PUSH1 0xE0 SHL DUP2 MSTORE PUSH1 0x4 ADD PUSH1 0x0 PUSH1 0x40 MLOAD DUP1 DUP4 SUB DUP2 PUSH1 0x0 DUP8 DUP1 EXTCODESIZE ISZERO DUP1 ISZERO PUSH2 0x5595 JUMPI PUSH1 0x0 DUP1 REVERT JUMPDEST POP GAS CALL SWAP3 POP POP POP DUP1 ISZERO PUSH2 0x55A6 JUMPI POP PUSH1 0x1 JUMPDEST PUSH2 0x55AF JUMPI PUSH2 0x55B0 JUMP JUMPDEST JUMPDEST JUMP JUMPDEST PUSH1 0x6 PUSH1 0x0 SWAP1 SLOAD SWAP1 PUSH2 0x100 EXP SWAP1 DIV PUSH20 0xFFFFFFFFFFFFFFFFFFFFFFFFFFFFFFFFFFFFFFFF AND PUSH20 0xFFFFFFFFFFFFFFFFFFFFFFFFFFFFFFFFFFFFFFFF AND PUSH4 0x40C10F19 ADDRESS DUP4 PUSH1 0x40 MLOAD DUP4 PUSH4 0xFFFFFFFF AND PUSH1 0xE0 SHL DUP2 MSTORE PUSH1 0x4 ADD PUSH2 0x560F SWAP3 SWAP2 SWAP1 PUSH2 0x6997 JUMP JUMPDEST PUSH1 0x20 PUSH1 0x40 MLOAD DUP1 DUP4 SUB DUP2 PUSH1 0x0 DUP8 DUP1 EXTCODESIZE ISZERO DUP1 ISZERO PUSH2 0x5629 JUMPI PUSH1 0x0 DUP1 REVERT JUMPDEST POP GAS CALL ISZERO DUP1 ISZERO PUSH2 0x563D JUMPI RETURNDATASIZE PUSH1 0x0 DUP1 RETURNDATACOPY RETURNDATASIZE PUSH1 0x0 REVERT JUMPDEST POP POP POP POP PUSH1 0x40 MLOAD RETURNDATASIZE PUSH1 0x1F NOT PUSH1 0x1F DUP3 ADD AND DUP3 ADD DUP1 PUSH1 0x40 MSTORE POP DUP2 ADD SWAP1 PUSH2 0x5661 SWAP2 SWAP1 PUSH2 0x621D JUMP JUMPDEST POP PUSH1 0x0 DUP1 PUSH1 0x1F SLOAD GT ISZERO PUSH2 0x57A5 JUMPI PUSH2 0x5697 PUSH2 0x2710 PUSH2 0x5689 PUSH1 0x1F SLOAD DUP6 PUSH2 0x536C SWAP1 SWAP2 SWAP1 PUSH4 0xFFFFFFFF AND JUMP JUMPDEST PUSH2 0x5382 SWAP1 SWAP2 SWAP1 PUSH4 0xFFFFFFFF AND JUMP JUMPDEST SWAP1 POP PUSH1 0x6 PUSH1 0x0 SWAP1 SLOAD SWAP1 PUSH2 0x100 EXP SWAP1 DIV PUSH20 0xFFFFFFFFFFFFFFFFFFFFFFFFFFFFFFFFFFFFFFFF AND PUSH20 0xFFFFFFFFFFFFFFFFFFFFFFFFFFFFFFFFFFFFFFFF AND PUSH4 0xA9059CBB PUSH1 0x1E PUSH1 0x0 SWAP1 SLOAD SWAP1 PUSH2 0x100 EXP SWAP1 DIV PUSH20 0xFFFFFFFFFFFFFFFFFFFFFFFFFFFFFFFFFFFFFFFF AND DUP4 PUSH1 0x40 MLOAD DUP4 PUSH4 0xFFFFFFFF AND PUSH1 0xE0 SHL DUP2 MSTORE PUSH1 0x4 ADD PUSH2 0x5718 SWAP3 SWAP2 SWAP1 PUSH2 0x6997 JUMP JUMPDEST PUSH1 0x20 PUSH1 0x40 MLOAD DUP1 DUP4 SUB DUP2 PUSH1 0x0 DUP8 DUP1 EXTCODESIZE ISZERO DUP1 ISZERO PUSH2 0x5732 JUMPI PUSH1 0x0 DUP1 REVERT JUMPDEST POP GAS CALL ISZERO DUP1 ISZERO PUSH2 0x5746 JUMPI RETURNDATASIZE PUSH1 0x0 DUP1 RETURNDATACOPY RETURNDATASIZE PUSH1 0x0 REVERT JUMPDEST POP POP POP POP PUSH1 0x40 MLOAD RETURNDATASIZE PUSH1 0x1F NOT PUSH1 0x1F DUP3 ADD AND DUP3 ADD DUP1 PUSH1 0x40 MSTORE POP DUP2 ADD SWAP1 PUSH2 0x576A SWAP2 SWAP1 PUSH2 0x621D JUMP JUMPDEST POP PUSH32 0xCB3F34AAA3445B461E6DA5492DC89E5C257A59FA598131F3B6BBC97A3638E409 TIMESTAMP DUP3 PUSH1 0x40 MLOAD PUSH2 0x579C SWAP3 SWAP2 SWAP1 PUSH2 0x6EAF JUMP JUMPDEST PUSH1 0x40 MLOAD DUP1 SWAP2 SUB SWAP1 LOG1 JUMPDEST PUSH1 0x0 DUP1 PUSH1 0x21 SLOAD GT ISZERO PUSH2 0x58E8 JUMPI PUSH2 0x57DA PUSH2 0x2710 PUSH2 0x57CC PUSH1 0x21 SLOAD DUP7 PUSH2 0x536C SWAP1 SWAP2 SWAP1 PUSH4 0xFFFFFFFF AND JUMP JUMPDEST PUSH2 0x5382 SWAP1 SWAP2 SWAP1 PUSH4 0xFFFFFFFF AND JUMP JUMPDEST SWAP1 POP PUSH1 0x6 PUSH1 0x0 SWAP1 SLOAD SWAP1 PUSH2 0x100 EXP SWAP1 DIV PUSH20 0xFFFFFFFFFFFFFFFFFFFFFFFFFFFFFFFFFFFFFFFF AND PUSH20 0xFFFFFFFFFFFFFFFFFFFFFFFFFFFFFFFFFFFFFFFF AND PUSH4 0xA9059CBB PUSH1 0x20 PUSH1 0x0 SWAP1 SLOAD SWAP1 PUSH2 0x100 EXP SWAP1 DIV PUSH20 0xFFFFFFFFFFFFFFFFFFFFFFFFFFFFFFFFFFFFFFFF AND DUP4 PUSH1 0x40 MLOAD DUP4 PUSH4 0xFFFFFFFF AND PUSH1 0xE0 SHL DUP2 MSTORE PUSH1 0x4 ADD PUSH2 0x585B SWAP3 SWAP2 SWAP1 PUSH2 0x6997 JUMP JUMPDEST PUSH1 0x20 PUSH1 0x40 MLOAD DUP1 DUP4 SUB DUP2 PUSH1 0x0 DUP8 DUP1 EXTCODESIZE ISZERO DUP1 ISZERO PUSH2 0x5875 JUMPI PUSH1 0x0 DUP1 REVERT JUMPDEST POP GAS CALL ISZERO DUP1 ISZERO PUSH2 0x5889 JUMPI RETURNDATASIZE PUSH1 0x0 DUP1 RETURNDATACOPY RETURNDATASIZE PUSH1 0x0 REVERT JUMPDEST POP POP POP POP PUSH1 0x40 MLOAD RETURNDATASIZE PUSH1 0x1F NOT PUSH1 0x1F DUP3 ADD AND DUP3 ADD DUP1 PUSH1 0x40 MSTORE POP DUP2 ADD SWAP1 PUSH2 0x58AD SWAP2 SWAP1 PUSH2 0x621D JUMP JUMPDEST POP PUSH32 0xDC8B715B18523E58B7FD0DA53259DFA91EFD91DF4A854D94B136E3333A3B9395 TIMESTAMP DUP3 PUSH1 0x40 MLOAD PUSH2 0x58DF SWAP3 SWAP2 SWAP1 PUSH2 0x6EAF JUMP JUMPDEST PUSH1 0x40 MLOAD DUP1 SWAP2 SUB SWAP1 LOG1 JUMPDEST PUSH2 0x590D DUP2 PUSH2 0x58FF DUP5 DUP7 PUSH2 0x5398 SWAP1 SWAP2 SWAP1 PUSH4 0xFFFFFFFF AND JUMP JUMPDEST PUSH2 0x5398 SWAP1 SWAP2 SWAP1 PUSH4 0xFFFFFFFF AND JUMP JUMPDEST SWAP3 POP PUSH2 0x597F PUSH1 0x9 PUSH1 0x0 SWAP1 SLOAD SWAP1 PUSH2 0x100 EXP SWAP1 DIV PUSH20 0xFFFFFFFFFFFFFFFFFFFFFFFFFFFFFFFFFFFFFFFF AND PUSH1 0x0 PUSH1 0x6 PUSH1 0x0 SWAP1 SLOAD SWAP1 PUSH2 0x100 EXP SWAP1 DIV PUSH20 0xFFFFFFFFFFFFFFFFFFFFFFFFFFFFFFFFFFFFFFFF AND PUSH20 0xFFFFFFFFFFFFFFFFFFFFFFFFFFFFFFFFFFFFFFFF AND PUSH2 0x5C04 SWAP1 SWAP3 SWAP2 SWAP1 PUSH4 0xFFFFFFFF AND JUMP JUMPDEST PUSH2 0x59EE PUSH1 0x9 PUSH1 0x0 SWAP1 SLOAD SWAP1 PUSH2 0x100 EXP SWAP1 DIV PUSH20 0xFFFFFFFFFFFFFFFFFFFFFFFFFFFFFFFFFFFFFFFF AND DUP5 PUSH1 0x6 PUSH1 0x0 SWAP1 SLOAD SWAP1 PUSH2 0x100 EXP SWAP1 DIV PUSH20 0xFFFFFFFFFFFFFFFFFFFFFFFFFFFFFFFFFFFFFFFF AND PUSH20 0xFFFFFFFFFFFFFFFFFFFFFFFFFFFFFFFFFFFFFFFF AND PUSH2 0x5C04 SWAP1 SWAP3 SWAP2 SWAP1 PUSH4 0xFFFFFFFF AND JUMP JUMPDEST PUSH1 0x9 PUSH1 0x0 SWAP1 SLOAD SWAP1 PUSH2 0x100 EXP SWAP1 DIV PUSH20 0xFFFFFFFFFFFFFFFFFFFFFFFFFFFFFFFFFFFFFFFF AND PUSH20 0xFFFFFFFFFFFFFFFFFFFFFFFFFFFFFFFFFFFFFFFF AND PUSH4 0x97FFE1D7 DUP5 PUSH1 0x40 MLOAD DUP3 PUSH4 0xFFFFFFFF AND PUSH1 0xE0 SHL DUP2 MSTORE PUSH1 0x4 ADD PUSH2 0x5A49 SWAP2 SWAP1 PUSH2 0x6E94 JUMP JUMPDEST PUSH1 0x0 PUSH1 0x40 MLOAD DUP1 DUP4 SUB DUP2 PUSH1 0x0 DUP8 DUP1 EXTCODESIZE ISZERO DUP1 ISZERO PUSH2 0x5A63 JUMPI PUSH1 0x0 DUP1 REVERT JUMPDEST POP GAS CALL ISZERO DUP1 ISZERO PUSH2 0x5A77 JUMPI RETURNDATASIZE PUSH1 0x0 DUP1 RETURNDATACOPY RETURNDATASIZE PUSH1 0x0 REVERT JUMPDEST POP POP POP POP PUSH32 0xA72FA2F263B243B0F0E1FEC5F3D49D33DE573D15929B6B730C6B8AB3838C1C4D TIMESTAMP DUP5 PUSH1 0x40 MLOAD PUSH2 0x5AAC SWAP3 SWAP2 SWAP1 PUSH2 0x6EAF JUMP JUMPDEST PUSH1 0x40 MLOAD DUP1 SWAP2 SUB SWAP1 LOG1 POP POP POP JUMP JUMPDEST PUSH1 0x0 DUP1 PUSH1 0x8 SWAP1 POP JUMPDEST PUSH1 0x0 DUP2 PUSH1 0xFF AND LT PUSH2 0x5B32 JUMPI PUSH1 0xE DUP2 PUSH1 0xFF AND DUP2 SLOAD DUP2 LT PUSH2 0x5AE3 JUMPI PUSH2 0x5AE2 PUSH2 0x7206 JUMP JUMPDEST JUMPDEST SWAP1 PUSH1 0x0 MSTORE PUSH1 0x20 PUSH1 0x0 KECCAK256 ADD SLOAD DUP4 LT PUSH2 0x5B21 JUMPI PUSH1 0xF DUP2 PUSH1 0xFF AND DUP2 SLOAD DUP2 LT PUSH2 0x5B0B JUMPI PUSH2 0x5B0A PUSH2 0x7206 JUMP JUMPDEST JUMPDEST SWAP1 PUSH1 0x0 MSTORE PUSH1 0x20 PUSH1 0x0 KECCAK256 ADD SLOAD PUSH1 0x10 DUP2 SWAP1 SSTORE POP PUSH2 0x5B32 JUMP JUMPDEST DUP1 PUSH2 0x5B2B SWAP1 PUSH2 0x7154 JUMP JUMPDEST SWAP1 POP PUSH2 0x5AC1 JUMP JUMPDEST POP PUSH1 0x10 SLOAD SWAP1 POP SWAP2 SWAP1 POP JUMP JUMPDEST PUSH1 0x0 PUSH2 0x5B9F DUP3 PUSH1 0x40 MLOAD DUP1 PUSH1 0x40 ADD PUSH1 0x40 MSTORE DUP1 PUSH1 0x20 DUP2 MSTORE PUSH1 0x20 ADD PUSH32 0x5361666545524332303A206C6F772D6C6576656C2063616C6C206661696C6564 DUP2 MSTORE POP DUP6 PUSH20 0xFFFFFFFFFFFFFFFFFFFFFFFFFFFFFFFFFFFFFFFF AND PUSH2 0x5D62 SWAP1 SWAP3 SWAP2 SWAP1 PUSH4 0xFFFFFFFF AND JUMP JUMPDEST SWAP1 POP PUSH1 0x0 DUP2 MLOAD GT ISZERO PUSH2 0x5BFF JUMPI DUP1 DUP1 PUSH1 0x20 ADD SWAP1 MLOAD DUP2 ADD SWAP1 PUSH2 0x5BBF SWAP2 SWAP1 PUSH2 0x621D JUMP JUMPDEST PUSH2 0x5BFE JUMPI PUSH1 0x40 MLOAD PUSH32 0x8C379A000000000000000000000000000000000000000000000000000000000 DUP2 MSTORE PUSH1 0x4 ADD PUSH2 0x5BF5 SWAP1 PUSH2 0x6D94 JUMP JUMPDEST PUSH1 0x40 MLOAD DUP1 SWAP2 SUB SWAP1 REVERT JUMPDEST JUMPDEST POP POP POP JUMP JUMPDEST PUSH1 0x0 DUP2 EQ DUP1 PUSH2 0x5C9D JUMPI POP PUSH1 0x0 DUP4 PUSH20 0xFFFFFFFFFFFFFFFFFFFFFFFFFFFFFFFFFFFFFFFF AND PUSH4 0xDD62ED3E ADDRESS DUP6 PUSH1 0x40 MLOAD DUP4 PUSH4 0xFFFFFFFF AND PUSH1 0xE0 SHL DUP2 MSTORE PUSH1 0x4 ADD PUSH2 0x5C4B SWAP3 SWAP2 SWAP1 PUSH2 0x6945 JUMP JUMPDEST PUSH1 0x20 PUSH1 0x40 MLOAD DUP1 DUP4 SUB DUP2 DUP7 DUP1 EXTCODESIZE ISZERO DUP1 ISZERO PUSH2 0x5C63 JUMPI PUSH1 0x0 DUP1 REVERT JUMPDEST POP GAS STATICCALL ISZERO DUP1 ISZERO PUSH2 0x5C77 JUMPI RETURNDATASIZE PUSH1 0x0 DUP1 RETURNDATACOPY RETURNDATASIZE PUSH1 0x0 REVERT JUMPDEST POP POP POP POP PUSH1 0x40 MLOAD RETURNDATASIZE PUSH1 0x1F NOT PUSH1 0x1F DUP3 ADD AND DUP3 ADD DUP1 PUSH1 0x40 MSTORE POP DUP2 ADD SWAP1 PUSH2 0x5C9B SWAP2 SWAP1 PUSH2 0x62F7 JUMP JUMPDEST EQ JUMPDEST PUSH2 0x5CDC JUMPI PUSH1 0x40 MLOAD PUSH32 0x8C379A000000000000000000000000000000000000000000000000000000000 DUP2 MSTORE PUSH1 0x4 ADD PUSH2 0x5CD3 SWAP1 PUSH2 0x6DD4 JUMP JUMPDEST PUSH1 0x40 MLOAD DUP1 SWAP2 SUB SWAP1 REVERT JUMPDEST PUSH2 0x5D5D DUP4 PUSH4 0x95EA7B3 PUSH1 0xE0 SHL DUP5 DUP5 PUSH1 0x40 MLOAD PUSH1 0x24 ADD PUSH2 0x5CFB SWAP3 SWAP2 SWAP1 PUSH2 0x6997 JUMP JUMPDEST PUSH1 0x40 MLOAD PUSH1 0x20 DUP2 DUP4 SUB SUB DUP2 MSTORE SWAP1 PUSH1 0x40 MSTORE SWAP1 PUSH28 0xFFFFFFFFFFFFFFFFFFFFFFFFFFFFFFFFFFFFFFFFFFFFFFFFFFFFFFFF NOT AND PUSH1 0x20 DUP3 ADD DUP1 MLOAD PUSH28 0xFFFFFFFFFFFFFFFFFFFFFFFFFFFFFFFFFFFFFFFFFFFFFFFFFFFFFFFF DUP4 DUP2 DUP4 AND OR DUP4 MSTORE POP POP POP POP PUSH2 0x5B3D JUMP JUMPDEST POP POP POP JUMP JUMPDEST PUSH1 0x60 PUSH2 0x5D71 DUP5 DUP5 PUSH1 0x0 DUP6 PUSH2 0x5D7A JUMP JUMPDEST SWAP1 POP SWAP4 SWAP3 POP POP POP JUMP JUMPDEST PUSH1 0x60 DUP3 SELFBALANCE LT ISZERO PUSH2 0x5DBF JUMPI PUSH1 0x40 MLOAD PUSH32 0x8C379A000000000000000000000000000000000000000000000000000000000 DUP2 MSTORE PUSH1 0x4 ADD PUSH2 0x5DB6 SWAP1 PUSH2 0x6B74 JUMP JUMPDEST PUSH1 0x40 MLOAD DUP1 SWAP2 SUB SWAP1 REVERT JUMPDEST PUSH2 0x5DC8 DUP6 PUSH2 0x5E8E JUMP JUMPDEST PUSH2 0x5E07 JUMPI PUSH1 0x40 MLOAD PUSH32 0x8C379A000000000000000000000000000000000000000000000000000000000 DUP2 MSTORE PUSH1 0x4 ADD PUSH2 0x5DFE SWAP1 PUSH2 0x6D34 JUMP JUMPDEST PUSH1 0x40 MLOAD DUP1 SWAP2 SUB SWAP1 REVERT JUMPDEST PUSH1 0x0 DUP1 DUP7 PUSH20 0xFFFFFFFFFFFFFFFFFFFFFFFFFFFFFFFFFFFFFFFF AND DUP6 DUP8 PUSH1 0x40 MLOAD PUSH2 0x5E30 SWAP2 SWAP1 PUSH2 0x6913 JUMP JUMPDEST PUSH1 0x0 PUSH1 0x40 MLOAD DUP1 DUP4 SUB DUP2 DUP6 DUP8 GAS CALL SWAP3 POP POP POP RETURNDATASIZE DUP1 PUSH1 0x0 DUP2 EQ PUSH2 0x5E6D JUMPI PUSH1 0x40 MLOAD SWAP2 POP PUSH1 0x1F NOT PUSH1 0x3F RETURNDATASIZE ADD AND DUP3 ADD PUSH1 0x40 MSTORE RETURNDATASIZE DUP3 MSTORE RETURNDATASIZE PUSH1 0x0 PUSH1 0x20 DUP5 ADD RETURNDATACOPY PUSH2 0x5E72 JUMP JUMPDEST PUSH1 0x60 SWAP2 POP JUMPDEST POP SWAP2 POP SWAP2 POP PUSH2 0x5E82 DUP3 DUP3 DUP7 PUSH2 0x5EA1 JUMP JUMPDEST SWAP3 POP POP POP SWAP5 SWAP4 POP POP POP POP JUMP JUMPDEST PUSH1 0x0 DUP1 DUP3 EXTCODESIZE SWAP1 POP PUSH1 0x0 DUP2 GT SWAP2 POP POP SWAP2 SWAP1 POP JUMP JUMPDEST PUSH1 0x60 DUP4 ISZERO PUSH2 0x5EB1 JUMPI DUP3 SWAP1 POP PUSH2 0x5F01 JUMP JUMPDEST PUSH1 0x0 DUP4 MLOAD GT ISZERO PUSH2 0x5EC4 JUMPI DUP3 MLOAD DUP1 DUP5 PUSH1 0x20 ADD REVERT JUMPDEST DUP2 PUSH1 0x40 MLOAD PUSH32 0x8C379A000000000000000000000000000000000000000000000000000000000 DUP2 MSTORE PUSH1 0x4 ADD PUSH2 0x5EF8 SWAP2 SWAP1 PUSH2 0x6A12 JUMP JUMPDEST PUSH1 0x40 MLOAD DUP1 SWAP2 SUB SWAP1 REVERT JUMPDEST SWAP4 SWAP3 POP POP POP JUMP JUMPDEST DUP3 DUP1 SLOAD DUP3 DUP3 SSTORE SWAP1 PUSH1 0x0 MSTORE PUSH1 0x20 PUSH1 0x0 KECCAK256 SWAP1 DUP2 ADD SWAP3 DUP3 ISZERO PUSH2 0x5F53 JUMPI SWAP2 PUSH1 0x20 MUL DUP3 ADD JUMPDEST DUP3 DUP2 GT ISZERO PUSH2 0x5F52 JUMPI DUP3 MLOAD DUP3 SWAP1 PUSH11 0xFFFFFFFFFFFFFFFFFFFFFF AND SWAP1 SSTORE SWAP2 PUSH1 0x20 ADD SWAP2 SWAP1 PUSH1 0x1 ADD SWAP1 PUSH2 0x5F28 JUMP JUMPDEST JUMPDEST POP SWAP1 POP PUSH2 0x5F60 SWAP2 SWAP1 PUSH2 0x5FB7 JUMP JUMPDEST POP SWAP1 JUMP JUMPDEST DUP3 DUP1 SLOAD DUP3 DUP3 SSTORE SWAP1 PUSH1 0x0 MSTORE PUSH1 0x20 PUSH1 0x0 KECCAK256 SWAP1 DUP2 ADD SWAP3 DUP3 ISZERO PUSH2 0x5FA6 JUMPI SWAP2 PUSH1 0x20 MUL DUP3 ADD JUMPDEST DUP3 DUP2 GT ISZERO PUSH2 0x5FA5 JUMPI DUP3 MLOAD DUP3 SWAP1 PUSH2 0xFFFF AND SWAP1 SSTORE SWAP2 PUSH1 0x20 ADD SWAP2 SWAP1 PUSH1 0x1 ADD SWAP1 PUSH2 0x5F84 JUMP JUMPDEST JUMPDEST POP SWAP1 POP PUSH2 0x5FB3 SWAP2 SWAP1 PUSH2 0x5FB7 JUMP JUMPDEST POP SWAP1 JUMP JUMPDEST JUMPDEST DUP1 DUP3 GT ISZERO PUSH2 0x5FD0 JUMPI PUSH1 0x0 DUP2 PUSH1 0x0 SWAP1 SSTORE POP PUSH1 0x1 ADD PUSH2 0x5FB8 JUMP JUMPDEST POP SWAP1 JUMP JUMPDEST PUSH1 0x0 DUP2 CALLDATALOAD SWAP1 POP PUSH2 0x5FE3 DUP2 PUSH2 0x7A6C JUMP JUMPDEST SWAP3 SWAP2 POP POP JUMP JUMPDEST PUSH1 0x0 DUP2 MLOAD SWAP1 POP PUSH2 0x5FF8 DUP2 PUSH2 0x7A6C JUMP JUMPDEST SWAP3 SWAP2 POP POP JUMP JUMPDEST PUSH1 0x0 DUP2 MLOAD SWAP1 POP PUSH2 0x600D DUP2 PUSH2 0x7A83 JUMP JUMPDEST SWAP3 SWAP2 POP POP JUMP JUMPDEST PUSH1 0x0 DUP2 CALLDATALOAD SWAP1 POP PUSH2 0x6022 DUP2 PUSH2 0x7A9A JUMP JUMPDEST SWAP3 SWAP2 POP POP JUMP JUMPDEST PUSH1 0x0 DUP2 MLOAD SWAP1 POP PUSH2 0x6037 DUP2 PUSH2 0x7AB1 JUMP JUMPDEST SWAP3 SWAP2 POP POP JUMP JUMPDEST PUSH1 0x0 DUP2 CALLDATALOAD SWAP1 POP PUSH2 0x604C DUP2 PUSH2 0x7AC8 JUMP JUMPDEST SWAP3 SWAP2 POP POP JUMP JUMPDEST PUSH1 0x0 DUP2 MLOAD SWAP1 POP PUSH2 0x6061 DUP2 PUSH2 0x7AC8 JUMP JUMPDEST SWAP3 SWAP2 POP POP JUMP JUMPDEST PUSH1 0x0 DUP2 CALLDATALOAD SWAP1 POP PUSH2 0x6076 DUP2 PUSH2 0x7ADF JUMP JUMPDEST SWAP3 SWAP2 POP POP JUMP JUMPDEST PUSH1 0x0 PUSH1 0x20 DUP3 DUP5 SUB SLT ISZERO PUSH2 0x6092 JUMPI PUSH2 0x6091 PUSH2 0x7235 JUMP JUMPDEST JUMPDEST PUSH1 0x0 PUSH2 0x60A0 DUP5 DUP3 DUP6 ADD PUSH2 0x5FD4 JUMP JUMPDEST SWAP2 POP POP SWAP3 SWAP2 POP POP JUMP JUMPDEST PUSH1 0x0 PUSH1 0x20 DUP3 DUP5 SUB SLT ISZERO PUSH2 0x60BF JUMPI PUSH2 0x60BE PUSH2 0x7235 JUMP JUMPDEST JUMPDEST PUSH1 0x0 PUSH2 0x60CD DUP5 DUP3 DUP6 ADD PUSH2 0x5FE9 JUMP JUMPDEST SWAP2 POP POP SWAP3 SWAP2 POP POP JUMP JUMPDEST PUSH1 0x0 DUP1 PUSH1 0x0 DUP1 PUSH1 0x0 DUP1 PUSH1 0xC0 DUP8 DUP10 SUB SLT ISZERO PUSH2 0x60F3 JUMPI PUSH2 0x60F2 PUSH2 0x7235 JUMP JUMPDEST JUMPDEST PUSH1 0x0 PUSH2 0x6101 DUP10 DUP3 DUP11 ADD PUSH2 0x5FD4 JUMP JUMPDEST SWAP7 POP POP PUSH1 0x20 PUSH2 0x6112 DUP10 DUP3 DUP11 ADD PUSH2 0x5FD4 JUMP JUMPDEST SWAP6 POP POP PUSH1 0x40 PUSH2 0x6123 DUP10 DUP3 DUP11 ADD PUSH2 0x5FD4 JUMP JUMPDEST SWAP5 POP POP PUSH1 0x60 PUSH2 0x6134 DUP10 DUP3 DUP11 ADD PUSH2 0x5FD4 JUMP JUMPDEST SWAP4 POP POP PUSH1 0x80 PUSH2 0x6145 DUP10 DUP3 DUP11 ADD PUSH2 0x5FD4 JUMP JUMPDEST SWAP3 POP POP PUSH1 0xA0 PUSH2 0x6156 DUP10 DUP3 DUP11 ADD PUSH2 0x603D JUMP JUMPDEST SWAP2 POP POP SWAP3 SWAP6 POP SWAP3 SWAP6 POP SWAP3 SWAP6 JUMP JUMPDEST PUSH1 0x0 DUP1 PUSH1 0x0 PUSH1 0x60 DUP5 DUP7 SUB SLT ISZERO PUSH2 0x617C JUMPI PUSH2 0x617B PUSH2 0x7235 JUMP JUMPDEST JUMPDEST PUSH1 0x0 PUSH2 0x618A DUP7 DUP3 DUP8 ADD PUSH2 0x5FD4 JUMP JUMPDEST SWAP4 POP POP PUSH1 0x20 PUSH2 0x619B DUP7 DUP3 DUP8 ADD PUSH2 0x603D JUMP JUMPDEST SWAP3 POP POP PUSH1 0x40 PUSH2 0x61AC DUP7 DUP3 DUP8 ADD PUSH2 0x5FD4 JUMP JUMPDEST SWAP2 POP POP SWAP3 POP SWAP3 POP SWAP3 JUMP JUMPDEST PUSH1 0x0 DUP1 PUSH1 0x0 DUP1 PUSH1 0x80 DUP6 DUP8 SUB SLT ISZERO PUSH2 0x61D0 JUMPI PUSH2 0x61CF PUSH2 0x7235 JUMP JUMPDEST JUMPDEST PUSH1 0x0 PUSH2 0x61DE DUP8 DUP3 DUP9 ADD PUSH2 0x5FD4 JUMP JUMPDEST SWAP5 POP POP PUSH1 0x20 PUSH2 0x61EF DUP8 DUP3 DUP9 ADD PUSH2 0x603D JUMP JUMPDEST SWAP4 POP POP PUSH1 0x40 PUSH2 0x6200 DUP8 DUP3 DUP9 ADD PUSH2 0x5FD4 JUMP JUMPDEST SWAP3 POP POP PUSH1 0x60 PUSH2 0x6211 DUP8 DUP3 DUP9 ADD PUSH2 0x603D JUMP JUMPDEST SWAP2 POP POP SWAP3 SWAP6 SWAP2 SWAP5 POP SWAP3 POP JUMP JUMPDEST PUSH1 0x0 PUSH1 0x20 DUP3 DUP5 SUB SLT ISZERO PUSH2 0x6233 JUMPI PUSH2 0x6232 PUSH2 0x7235 JUMP JUMPDEST JUMPDEST PUSH1 0x0 PUSH2 0x6241 DUP5 DUP3 DUP6 ADD PUSH2 0x5FFE JUMP JUMPDEST SWAP2 POP POP SWAP3 SWAP2 POP POP JUMP JUMPDEST PUSH1 0x0 DUP1 PUSH1 0x0 PUSH1 0x60 DUP5 DUP7 SUB SLT ISZERO PUSH2 0x6263 JUMPI PUSH2 0x6262 PUSH2 0x7235 JUMP JUMPDEST JUMPDEST PUSH1 0x0 PUSH2 0x6271 DUP7 DUP3 DUP8 ADD PUSH2 0x6013 JUMP JUMPDEST SWAP4 POP POP PUSH1 0x20 PUSH2 0x6282 DUP7 DUP3 DUP8 ADD PUSH2 0x603D JUMP JUMPDEST SWAP3 POP POP PUSH1 0x40 PUSH2 0x6293 DUP7 DUP3 DUP8 ADD PUSH2 0x5FD4 JUMP JUMPDEST SWAP2 POP POP SWAP3 POP SWAP3 POP SWAP3 JUMP JUMPDEST PUSH1 0x0 PUSH1 0x20 DUP3 DUP5 SUB SLT ISZERO PUSH2 0x62B3 JUMPI PUSH2 0x62B2 PUSH2 0x7235 JUMP JUMPDEST JUMPDEST PUSH1 0x0 PUSH2 0x62C1 DUP5 DUP3 DUP6 ADD PUSH2 0x6028 JUMP JUMPDEST SWAP2 POP POP SWAP3 SWAP2 POP POP JUMP JUMPDEST PUSH1 0x0 PUSH1 0x20 DUP3 DUP5 SUB SLT ISZERO PUSH2 0x62E0 JUMPI PUSH2 0x62DF PUSH2 0x7235 JUMP JUMPDEST JUMPDEST PUSH1 0x0 PUSH2 0x62EE DUP5 DUP3 DUP6 ADD PUSH2 0x603D JUMP JUMPDEST SWAP2 POP POP SWAP3 SWAP2 POP POP JUMP JUMPDEST PUSH1 0x0 PUSH1 0x20 DUP3 DUP5 SUB SLT ISZERO PUSH2 0x630D JUMPI PUSH2 0x630C PUSH2 0x7235 JUMP JUMPDEST JUMPDEST PUSH1 0x0 PUSH2 0x631B DUP5 DUP3 DUP6 ADD PUSH2 0x6052 JUMP JUMPDEST SWAP2 POP POP SWAP3 SWAP2 POP POP JUMP JUMPDEST PUSH1 0x0 DUP1 PUSH1 0x40 DUP4 DUP6 SUB SLT ISZERO PUSH2 0x633B JUMPI PUSH2 0x633A PUSH2 0x7235 JUMP JUMPDEST JUMPDEST PUSH1 0x0 PUSH2 0x6349 DUP6 DUP3 DUP7 ADD PUSH2 0x603D JUMP JUMPDEST SWAP3 POP POP PUSH1 0x20 PUSH2 0x635A DUP6 DUP3 DUP7 ADD PUSH2 0x603D JUMP JUMPDEST SWAP2 POP POP SWAP3 POP SWAP3 SWAP1 POP JUMP JUMPDEST PUSH1 0x0 DUP1 PUSH1 0x40 DUP4 DUP6 SUB SLT ISZERO PUSH2 0x637B JUMPI PUSH2 0x637A PUSH2 0x7235 JUMP JUMPDEST JUMPDEST PUSH1 0x0 PUSH2 0x6389 DUP6 DUP3 DUP7 ADD PUSH2 0x6067 JUMP JUMPDEST SWAP3 POP POP PUSH1 0x20 PUSH2 0x639A DUP6 DUP3 DUP7 ADD PUSH2 0x603D JUMP JUMPDEST SWAP2 POP POP SWAP3 POP SWAP3 SWAP1 POP JUMP JUMPDEST PUSH2 0x63AD DUP2 PUSH2 0x708A JUMP JUMPDEST DUP3 MSTORE POP POP JUMP JUMPDEST PUSH2 0x63BC DUP2 PUSH2 0x709C JUMP JUMPDEST DUP3 MSTORE POP POP JUMP JUMPDEST PUSH1 0x0 PUSH2 0x63CD DUP3 PUSH2 0x6ED8 JUMP JUMPDEST PUSH2 0x63D7 DUP2 DUP6 PUSH2 0x6EEE JUMP JUMPDEST SWAP4 POP PUSH2 0x63E7 DUP2 DUP6 PUSH1 0x20 DUP7 ADD PUSH2 0x7121 JUMP JUMPDEST DUP1 DUP5 ADD SWAP2 POP POP SWAP3 SWAP2 POP POP JUMP JUMPDEST PUSH2 0x63FC DUP2 PUSH2 0x710F JUMP JUMPDEST DUP3 MSTORE POP POP JUMP JUMPDEST PUSH1 0x0 PUSH2 0x640D DUP3 PUSH2 0x6EE3 JUMP JUMPDEST PUSH2 0x6417 DUP2 DUP6 PUSH2 0x6EF9 JUMP JUMPDEST SWAP4 POP PUSH2 0x6427 DUP2 DUP6 PUSH1 0x20 DUP7 ADD PUSH2 0x7121 JUMP JUMPDEST PUSH2 0x6430 DUP2 PUSH2 0x723A JUMP JUMPDEST DUP5 ADD SWAP2 POP POP SWAP3 SWAP2 POP POP JUMP JUMPDEST PUSH1 0x0 PUSH2 0x6448 PUSH1 0x4 DUP4 PUSH2 0x6EF9 JUMP JUMPDEST SWAP2 POP PUSH2 0x6453 DUP3 PUSH2 0x724B JUMP JUMPDEST PUSH1 0x20 DUP3 ADD SWAP1 POP SWAP2 SWAP1 POP JUMP JUMPDEST PUSH1 0x0 PUSH2 0x646B PUSH1 0x1B DUP4 PUSH2 0x6EF9 JUMP JUMPDEST SWAP2 POP PUSH2 0x6476 DUP3 PUSH2 0x7274 JUMP JUMPDEST PUSH1 0x20 DUP3 ADD SWAP1 POP SWAP2 SWAP1 POP JUMP JUMPDEST PUSH1 0x0 PUSH2 0x648E PUSH1 0x2A DUP4 PUSH2 0x6EF9 JUMP JUMPDEST SWAP2 POP PUSH2 0x6499 DUP3 PUSH2 0x729D JUMP JUMPDEST PUSH1 0x40 DUP3 ADD SWAP1 POP SWAP2 SWAP1 POP JUMP JUMPDEST PUSH1 0x0 PUSH2 0x64B1 PUSH1 0x4 DUP4 PUSH2 0x6EF9 JUMP JUMPDEST SWAP2 POP PUSH2 0x64BC DUP3 PUSH2 0x72EC JUMP JUMPDEST PUSH1 0x20 DUP3 ADD SWAP1 POP SWAP2 SWAP1 POP JUMP JUMPDEST PUSH1 0x0 PUSH2 0x64D4 PUSH1 0x2E DUP4 PUSH2 0x6EF9 JUMP JUMPDEST SWAP2 POP PUSH2 0x64DF DUP3 PUSH2 0x7315 JUMP JUMPDEST PUSH1 0x40 DUP3 ADD SWAP1 POP SWAP2 SWAP1 POP JUMP JUMPDEST PUSH1 0x0 PUSH2 0x64F7 PUSH1 0x1E DUP4 PUSH2 0x6EF9 JUMP JUMPDEST SWAP2 POP PUSH2 0x6502 DUP3 PUSH2 0x7364 JUMP JUMPDEST PUSH1 0x20 DUP3 ADD SWAP1 POP SWAP2 SWAP1 POP JUMP JUMPDEST PUSH1 0x0 PUSH2 0x651A PUSH1 0x36 DUP4 PUSH2 0x6EF9 JUMP JUMPDEST SWAP2 POP PUSH2 0x6525 DUP3 PUSH2 0x738D JUMP JUMPDEST PUSH1 0x40 DUP3 ADD SWAP1 POP SWAP2 SWAP1 POP JUMP JUMPDEST PUSH1 0x0 PUSH2 0x653D PUSH1 0xC DUP4 PUSH2 0x6EF9 JUMP JUMPDEST SWAP2 POP PUSH2 0x6548 DUP3 PUSH2 0x73DC JUMP JUMPDEST PUSH1 0x20 DUP3 ADD SWAP1 POP SWAP2 SWAP1 POP JUMP JUMPDEST PUSH1 0x0 PUSH2 0x6560 PUSH1 0x18 DUP4 PUSH2 0x6EF9 JUMP JUMPDEST SWAP2 POP PUSH2 0x656B DUP3 PUSH2 0x7405 JUMP JUMPDEST PUSH1 0x20 DUP3 ADD SWAP1 POP SWAP2 SWAP1 POP JUMP JUMPDEST PUSH1 0x0 PUSH2 0x6583 PUSH1 0x24 DUP4 PUSH2 0x6EF9 JUMP JUMPDEST SWAP2 POP PUSH2 0x658E DUP3 PUSH2 0x742E JUMP JUMPDEST PUSH1 0x40 DUP3 ADD SWAP1 POP SWAP2 SWAP1 POP JUMP JUMPDEST PUSH1 0x0 PUSH2 0x65A6 PUSH1 0x26 DUP4 PUSH2 0x6EF9 JUMP JUMPDEST SWAP2 POP PUSH2 0x65B1 DUP3 PUSH2 0x747D JUMP JUMPDEST PUSH1 0x40 DUP3 ADD SWAP1 POP SWAP2 SWAP1 POP JUMP JUMPDEST PUSH1 0x0 PUSH2 0x65C9 PUSH1 0x1C DUP4 PUSH2 0x6EF9 JUMP JUMPDEST SWAP2 POP PUSH2 0x65D4 DUP3 PUSH2 0x74CC JUMP JUMPDEST PUSH1 0x20 DUP3 ADD SWAP1 POP SWAP2 SWAP1 POP JUMP JUMPDEST PUSH1 0x0 PUSH2 0x65EC PUSH1 0x25 DUP4 PUSH2 0x6EF9 JUMP JUMPDEST SWAP2 POP PUSH2 0x65F7 DUP3 PUSH2 0x74F5 JUMP JUMPDEST PUSH1 0x40 DUP3 ADD SWAP1 POP SWAP2 SWAP1 POP JUMP JUMPDEST PUSH1 0x0 PUSH2 0x660F PUSH1 0x1D DUP4 PUSH2 0x6EF9 JUMP JUMPDEST SWAP2 POP PUSH2 0x661A DUP3 PUSH2 0x7544 JUMP JUMPDEST PUSH1 0x20 DUP3 ADD SWAP1 POP SWAP2 SWAP1 POP JUMP JUMPDEST PUSH1 0x0 PUSH2 0x6632 PUSH1 0x30 DUP4 PUSH2 0x6EF9 JUMP JUMPDEST SWAP2 POP PUSH2 0x663D DUP3 PUSH2 0x756D JUMP JUMPDEST PUSH1 0x40 DUP3 ADD SWAP1 POP SWAP2 SWAP1 POP JUMP JUMPDEST PUSH1 0x0 PUSH2 0x6655 PUSH1 0x29 DUP4 PUSH2 0x6EF9 JUMP JUMPDEST SWAP2 POP PUSH2 0x6660 DUP3 PUSH2 0x75BC JUMP JUMPDEST PUSH1 0x40 DUP3 ADD SWAP1 POP SWAP2 SWAP1 POP JUMP JUMPDEST PUSH1 0x0 PUSH2 0x6678 PUSH1 0x28 DUP4 PUSH2 0x6EF9 JUMP JUMPDEST SWAP2 POP PUSH2 0x6683 DUP3 PUSH2 0x760B JUMP JUMPDEST PUSH1 0x40 DUP3 ADD SWAP1 POP SWAP2 SWAP1 POP JUMP JUMPDEST PUSH1 0x0 PUSH2 0x669B PUSH1 0x4 DUP4 PUSH2 0x6EF9 JUMP JUMPDEST SWAP2 POP PUSH2 0x66A6 DUP3 PUSH2 0x765A JUMP JUMPDEST PUSH1 0x20 DUP3 ADD SWAP1 POP SWAP2 SWAP1 POP JUMP JUMPDEST PUSH1 0x0 PUSH2 0x66BE PUSH1 0x1D DUP4 PUSH2 0x6EF9 JUMP JUMPDEST SWAP2 POP PUSH2 0x66C9 DUP3 PUSH2 0x7683 JUMP JUMPDEST PUSH1 0x20 DUP3 ADD SWAP1 POP SWAP2 SWAP1 POP JUMP JUMPDEST PUSH1 0x0 PUSH2 0x66E1 PUSH1 0x29 DUP4 PUSH2 0x6EF9 JUMP JUMPDEST SWAP2 POP PUSH2 0x66EC DUP3 PUSH2 0x76AC JUMP JUMPDEST PUSH1 0x40 DUP3 ADD SWAP1 POP SWAP2 SWAP1 POP JUMP JUMPDEST PUSH1 0x0 PUSH2 0x6704 PUSH1 0x14 DUP4 PUSH2 0x6EF9 JUMP JUMPDEST SWAP2 POP PUSH2 0x670F DUP3 PUSH2 0x76FB JUMP JUMPDEST PUSH1 0x20 DUP3 ADD SWAP1 POP SWAP2 SWAP1 POP JUMP JUMPDEST PUSH1 0x0 PUSH2 0x6727 PUSH1 0x1D DUP4 PUSH2 0x6EF9 JUMP JUMPDEST SWAP2 POP PUSH2 0x6732 DUP3 PUSH2 0x7724 JUMP JUMPDEST PUSH1 0x20 DUP3 ADD SWAP1 POP SWAP2 SWAP1 POP JUMP JUMPDEST PUSH1 0x0 PUSH2 0x674A PUSH1 0x5 DUP4 PUSH2 0x6EF9 JUMP JUMPDEST SWAP2 POP PUSH2 0x6755 DUP3 PUSH2 0x774D JUMP JUMPDEST PUSH1 0x20 DUP3 ADD SWAP1 POP SWAP2 SWAP1 POP JUMP JUMPDEST PUSH1 0x0 PUSH2 0x676D PUSH1 0x24 DUP4 PUSH2 0x6EF9 JUMP JUMPDEST SWAP2 POP PUSH2 0x6778 DUP3 PUSH2 0x7776 JUMP JUMPDEST PUSH1 0x40 DUP3 ADD SWAP1 POP SWAP2 SWAP1 POP JUMP JUMPDEST PUSH1 0x0 PUSH2 0x6790 PUSH1 0x1D DUP4 PUSH2 0x6EF9 JUMP JUMPDEST SWAP2 POP PUSH2 0x679B DUP3 PUSH2 0x77C5 JUMP JUMPDEST PUSH1 0x20 DUP3 ADD SWAP1 POP SWAP2 SWAP1 POP JUMP JUMPDEST PUSH1 0x0 PUSH2 0x67B3 PUSH1 0x1A DUP4 PUSH2 0x6EF9 JUMP JUMPDEST SWAP2 POP PUSH2 0x67BE DUP3 PUSH2 0x77EE JUMP JUMPDEST PUSH1 0x20 DUP3 ADD SWAP1 POP SWAP2 SWAP1 POP JUMP JUMPDEST PUSH1 0x0 PUSH2 0x67D6 PUSH1 0x13 DUP4 PUSH2 0x6EF9 JUMP JUMPDEST SWAP2 POP PUSH2 0x67E1 DUP3 PUSH2 0x7817 JUMP JUMPDEST PUSH1 0x20 DUP3 ADD SWAP1 POP SWAP2 SWAP1 POP JUMP JUMPDEST PUSH1 0x0 PUSH2 0x67F9 PUSH1 0x2A DUP4 PUSH2 0x6EF9 JUMP JUMPDEST SWAP2 POP PUSH2 0x6804 DUP3 PUSH2 0x7840 JUMP JUMPDEST PUSH1 0x40 DUP3 ADD SWAP1 POP SWAP2 SWAP1 POP JUMP JUMPDEST PUSH1 0x0 PUSH2 0x681C PUSH1 0x26 DUP4 PUSH2 0x6EF9 JUMP JUMPDEST SWAP2 POP PUSH2 0x6827 DUP3 PUSH2 0x788F JUMP JUMPDEST PUSH1 0x40 DUP3 ADD SWAP1 POP SWAP2 SWAP1 POP JUMP JUMPDEST PUSH1 0x0 PUSH2 0x683F PUSH1 0x36 DUP4 PUSH2 0x6EF9 JUMP JUMPDEST SWAP2 POP PUSH2 0x684A DUP3 PUSH2 0x78DE JUMP JUMPDEST PUSH1 0x40 DUP3 ADD SWAP1 POP SWAP2 SWAP1 POP JUMP JUMPDEST PUSH1 0x0 PUSH2 0x6862 PUSH1 0x1E DUP4 PUSH2 0x6EF9 JUMP JUMPDEST SWAP2 POP PUSH2 0x686D DUP3 PUSH2 0x792D JUMP JUMPDEST PUSH1 0x20 DUP3 ADD SWAP1 POP SWAP2 SWAP1 POP JUMP JUMPDEST PUSH1 0x0 PUSH2 0x6885 PUSH1 0x32 DUP4 PUSH2 0x6EF9 JUMP JUMPDEST SWAP2 POP PUSH2 0x6890 DUP3 PUSH2 0x7956 JUMP JUMPDEST PUSH1 0x40 DUP3 ADD SWAP1 POP SWAP2 SWAP1 POP JUMP JUMPDEST PUSH1 0x0 PUSH2 0x68A8 PUSH1 0x2A DUP4 PUSH2 0x6EF9 JUMP JUMPDEST SWAP2 POP PUSH2 0x68B3 DUP3 PUSH2 0x79A5 JUMP JUMPDEST PUSH1 0x40 DUP3 ADD SWAP1 POP SWAP2 SWAP1 POP JUMP JUMPDEST PUSH1 0x0 PUSH2 0x68CB PUSH1 0x2E DUP4 PUSH2 0x6EF9 JUMP JUMPDEST SWAP2 POP PUSH2 0x68D6 DUP3 PUSH2 0x79F4 JUMP JUMPDEST PUSH1 0x40 DUP3 ADD SWAP1 POP SWAP2 SWAP1 POP JUMP JUMPDEST PUSH1 0x0 PUSH2 0x68EE PUSH1 0x19 DUP4 PUSH2 0x6EF9 JUMP JUMPDEST SWAP2 POP PUSH2 0x68F9 DUP3 PUSH2 0x7A43 JUMP JUMPDEST PUSH1 0x20 DUP3 ADD SWAP1 POP SWAP2 SWAP1 POP JUMP JUMPDEST PUSH2 0x690D DUP2 PUSH2 0x70F8 JUMP JUMPDEST DUP3 MSTORE POP POP JUMP JUMPDEST PUSH1 0x0 PUSH2 0x691F DUP3 DUP5 PUSH2 0x63C2 JUMP JUMPDEST SWAP2 POP DUP2 SWAP1 POP SWAP3 SWAP2 POP POP JUMP JUMPDEST PUSH1 0x0 PUSH1 0x20 DUP3 ADD SWAP1 POP PUSH2 0x693F PUSH1 0x0 DUP4 ADD DUP5 PUSH2 0x63A4 JUMP JUMPDEST SWAP3 SWAP2 POP POP JUMP JUMPDEST PUSH1 0x0 PUSH1 0x40 DUP3 ADD SWAP1 POP PUSH2 0x695A PUSH1 0x0 DUP4 ADD DUP6 PUSH2 0x63A4 JUMP JUMPDEST PUSH2 0x6967 PUSH1 0x20 DUP4 ADD DUP5 PUSH2 0x63A4 JUMP JUMPDEST SWAP4 SWAP3 POP POP POP JUMP JUMPDEST PUSH1 0x0 PUSH1 0x40 DUP3 ADD SWAP1 POP PUSH2 0x6983 PUSH1 0x0 DUP4 ADD DUP6 PUSH2 0x63A4 JUMP JUMPDEST PUSH2 0x6990 PUSH1 0x20 DUP4 ADD DUP5 PUSH2 0x63F3 JUMP JUMPDEST SWAP4 SWAP3 POP POP POP JUMP JUMPDEST PUSH1 0x0 PUSH1 0x40 DUP3 ADD SWAP1 POP PUSH2 0x69AC PUSH1 0x0 DUP4 ADD DUP6 PUSH2 0x63A4 JUMP JUMPDEST PUSH2 0x69B9 PUSH1 0x20 DUP4 ADD DUP5 PUSH2 0x6904 JUMP JUMPDEST SWAP4 SWAP3 POP POP POP JUMP JUMPDEST PUSH1 0x0 PUSH1 0x60 DUP3 ADD SWAP1 POP PUSH2 0x69D5 PUSH1 0x0 DUP4 ADD DUP7 PUSH2 0x63A4 JUMP JUMPDEST PUSH2 0x69E2 PUSH1 0x20 DUP4 ADD DUP6 PUSH2 0x6904 JUMP JUMPDEST PUSH2 0x69EF PUSH1 0x40 DUP4 ADD DUP5 PUSH2 0x63A4 JUMP JUMPDEST SWAP5 SWAP4 POP POP POP POP JUMP JUMPDEST PUSH1 0x0 PUSH1 0x20 DUP3 ADD SWAP1 POP PUSH2 0x6A0C PUSH1 0x0 DUP4 ADD DUP5 PUSH2 0x63B3 JUMP JUMPDEST SWAP3 SWAP2 POP POP JUMP JUMPDEST PUSH1 0x0 PUSH1 0x20 DUP3 ADD SWAP1 POP DUP2 DUP2 SUB PUSH1 0x0 DUP4 ADD MSTORE PUSH2 0x6A2C DUP2 DUP5 PUSH2 0x6402 JUMP JUMPDEST SWAP1 POP SWAP3 SWAP2 POP POP JUMP JUMPDEST PUSH1 0x0 PUSH1 0x20 DUP3 ADD SWAP1 POP DUP2 DUP2 SUB PUSH1 0x0 DUP4 ADD MSTORE PUSH2 0x6A4D DUP2 PUSH2 0x643B JUMP JUMPDEST SWAP1 POP SWAP2 SWAP1 POP JUMP JUMPDEST PUSH1 0x0 PUSH1 0x20 DUP3 ADD SWAP1 POP DUP2 DUP2 SUB PUSH1 0x0 DUP4 ADD MSTORE PUSH2 0x6A6D DUP2 PUSH2 0x645E JUMP JUMPDEST SWAP1 POP SWAP2 SWAP1 POP JUMP JUMPDEST PUSH1 0x0 PUSH1 0x20 DUP3 ADD SWAP1 POP DUP2 DUP2 SUB PUSH1 0x0 DUP4 ADD MSTORE PUSH2 0x6A8D DUP2 PUSH2 0x6481 JUMP JUMPDEST SWAP1 POP SWAP2 SWAP1 POP JUMP JUMPDEST PUSH1 0x0 PUSH1 0x20 DUP3 ADD SWAP1 POP DUP2 DUP2 SUB PUSH1 0x0 DUP4 ADD MSTORE PUSH2 0x6AAD DUP2 PUSH2 0x64A4 JUMP JUMPDEST SWAP1 POP SWAP2 SWAP1 POP JUMP JUMPDEST PUSH1 0x0 PUSH1 0x20 DUP3 ADD SWAP1 POP DUP2 DUP2 SUB PUSH1 0x0 DUP4 ADD MSTORE PUSH2 0x6ACD DUP2 PUSH2 0x64C7 JUMP JUMPDEST SWAP1 POP SWAP2 SWAP1 POP JUMP JUMPDEST PUSH1 0x0 PUSH1 0x20 DUP3 ADD SWAP1 POP DUP2 DUP2 SUB PUSH1 0x0 DUP4 ADD MSTORE PUSH2 0x6AED DUP2 PUSH2 0x64EA JUMP JUMPDEST SWAP1 POP SWAP2 SWAP1 POP JUMP JUMPDEST PUSH1 0x0 PUSH1 0x20 DUP3 ADD SWAP1 POP DUP2 DUP2 SUB PUSH1 0x0 DUP4 ADD MSTORE PUSH2 0x6B0D DUP2 PUSH2 0x650D JUMP JUMPDEST SWAP1 POP SWAP2 SWAP1 POP JUMP JUMPDEST PUSH1 0x0 PUSH1 0x20 DUP3 ADD SWAP1 POP DUP2 DUP2 SUB PUSH1 0x0 DUP4 ADD MSTORE PUSH2 0x6B2D DUP2 PUSH2 0x6530 JUMP JUMPDEST SWAP1 POP SWAP2 SWAP1 POP JUMP JUMPDEST PUSH1 0x0 PUSH1 0x20 DUP3 ADD SWAP1 POP DUP2 DUP2 SUB PUSH1 0x0 DUP4 ADD MSTORE PUSH2 0x6B4D DUP2 PUSH2 0x6553 JUMP JUMPDEST SWAP1 POP SWAP2 SWAP1 POP JUMP JUMPDEST PUSH1 0x0 PUSH1 0x20 DUP3 ADD SWAP1 POP DUP2 DUP2 SUB PUSH1 0x0 DUP4 ADD MSTORE PUSH2 0x6B6D DUP2 PUSH2 0x6576 JUMP JUMPDEST SWAP1 POP SWAP2 SWAP1 POP JUMP JUMPDEST PUSH1 0x0 PUSH1 0x20 DUP3 ADD SWAP1 POP DUP2 DUP2 SUB PUSH1 0x0 DUP4 ADD MSTORE PUSH2 0x6B8D DUP2 PUSH2 0x6599 JUMP JUMPDEST SWAP1 POP SWAP2 SWAP1 POP JUMP JUMPDEST PUSH1 0x0 PUSH1 0x20 DUP3 ADD SWAP1 POP DUP2 DUP2 SUB PUSH1 0x0 DUP4 ADD MSTORE PUSH2 0x6BAD DUP2 PUSH2 0x65BC JUMP JUMPDEST SWAP1 POP SWAP2 SWAP1 POP JUMP JUMPDEST PUSH1 0x0 PUSH1 0x20 DUP3 ADD SWAP1 POP DUP2 DUP2 SUB PUSH1 0x0 DUP4 ADD MSTORE PUSH2 0x6BCD DUP2 PUSH2 0x65DF JUMP JUMPDEST SWAP1 POP SWAP2 SWAP1 POP JUMP JUMPDEST PUSH1 0x0 PUSH1 0x20 DUP3 ADD SWAP1 POP DUP2 DUP2 SUB PUSH1 0x0 DUP4 ADD MSTORE PUSH2 0x6BED DUP2 PUSH2 0x6602 JUMP JUMPDEST SWAP1 POP SWAP2 SWAP1 POP JUMP JUMPDEST PUSH1 0x0 PUSH1 0x20 DUP3 ADD SWAP1 POP DUP2 DUP2 SUB PUSH1 0x0 DUP4 ADD MSTORE PUSH2 0x6C0D DUP2 PUSH2 0x6625 JUMP JUMPDEST SWAP1 POP SWAP2 SWAP1 POP JUMP JUMPDEST PUSH1 0x0 PUSH1 0x20 DUP3 ADD SWAP1 POP DUP2 DUP2 SUB PUSH1 0x0 DUP4 ADD MSTORE PUSH2 0x6C2D DUP2 PUSH2 0x6648 JUMP JUMPDEST SWAP1 POP SWAP2 SWAP1 POP JUMP JUMPDEST PUSH1 0x0 PUSH1 0x20 DUP3 ADD SWAP1 POP DUP2 DUP2 SUB PUSH1 0x0 DUP4 ADD MSTORE PUSH2 0x6C4D DUP2 PUSH2 0x666B JUMP JUMPDEST SWAP1 POP SWAP2 SWAP1 POP JUMP JUMPDEST PUSH1 0x0 PUSH1 0x20 DUP3 ADD SWAP1 POP DUP2 DUP2 SUB PUSH1 0x0 DUP4 ADD MSTORE PUSH2 0x6C6D DUP2 PUSH2 0x668E JUMP JUMPDEST SWAP1 POP SWAP2 SWAP1 POP JUMP JUMPDEST PUSH1 0x0 PUSH1 0x20 DUP3 ADD SWAP1 POP DUP2 DUP2 SUB PUSH1 0x0 DUP4 ADD MSTORE PUSH2 0x6C8D DUP2 PUSH2 0x66B1 JUMP JUMPDEST SWAP1 POP SWAP2 SWAP1 POP JUMP JUMPDEST PUSH1 0x0 PUSH1 0x20 DUP3 ADD SWAP1 POP DUP2 DUP2 SUB PUSH1 0x0 DUP4 ADD MSTORE PUSH2 0x6CAD DUP2 PUSH2 0x66D4 JUMP JUMPDEST SWAP1 POP SWAP2 SWAP1 POP JUMP JUMPDEST PUSH1 0x0 PUSH1 0x20 DUP3 ADD SWAP1 POP DUP2 DUP2 SUB PUSH1 0x0 DUP4 ADD MSTORE PUSH2 0x6CCD DUP2 PUSH2 0x66F7 JUMP JUMPDEST SWAP1 POP SWAP2 SWAP1 POP JUMP JUMPDEST PUSH1 0x0 PUSH1 0x20 DUP3 ADD SWAP1 POP DUP2 DUP2 SUB PUSH1 0x0 DUP4 ADD MSTORE PUSH2 0x6CED DUP2 PUSH2 0x671A JUMP JUMPDEST SWAP1 POP SWAP2 SWAP1 POP JUMP JUMPDEST PUSH1 0x0 PUSH1 0x20 DUP3 ADD SWAP1 POP DUP2 DUP2 SUB PUSH1 0x0 DUP4 ADD MSTORE PUSH2 0x6D0D DUP2 PUSH2 0x673D JUMP JUMPDEST SWAP1 POP SWAP2 SWAP1 POP JUMP JUMPDEST PUSH1 0x0 PUSH1 0x20 DUP3 ADD SWAP1 POP DUP2 DUP2 SUB PUSH1 0x0 DUP4 ADD MSTORE PUSH2 0x6D2D DUP2 PUSH2 0x6760 JUMP JUMPDEST SWAP1 POP SWAP2 SWAP1 POP JUMP JUMPDEST PUSH1 0x0 PUSH1 0x20 DUP3 ADD SWAP1 POP DUP2 DUP2 SUB PUSH1 0x0 DUP4 ADD MSTORE PUSH2 0x6D4D DUP2 PUSH2 0x6783 JUMP JUMPDEST SWAP1 POP SWAP2 SWAP1 POP JUMP JUMPDEST PUSH1 0x0 PUSH1 0x20 DUP3 ADD SWAP1 POP DUP2 DUP2 SUB PUSH1 0x0 DUP4 ADD MSTORE PUSH2 0x6D6D DUP2 PUSH2 0x67A6 JUMP JUMPDEST SWAP1 POP SWAP2 SWAP1 POP JUMP JUMPDEST PUSH1 0x0 PUSH1 0x20 DUP3 ADD SWAP1 POP DUP2 DUP2 SUB PUSH1 0x0 DUP4 ADD MSTORE PUSH2 0x6D8D DUP2 PUSH2 0x67C9 JUMP JUMPDEST SWAP1 POP SWAP2 SWAP1 POP JUMP JUMPDEST PUSH1 0x0 PUSH1 0x20 DUP3 ADD SWAP1 POP DUP2 DUP2 SUB PUSH1 0x0 DUP4 ADD MSTORE PUSH2 0x6DAD DUP2 PUSH2 0x67EC JUMP JUMPDEST SWAP1 POP SWAP2 SWAP1 POP JUMP JUMPDEST PUSH1 0x0 PUSH1 0x20 DUP3 ADD SWAP1 POP DUP2 DUP2 SUB PUSH1 0x0 DUP4 ADD MSTORE PUSH2 0x6DCD DUP2 PUSH2 0x680F JUMP JUMPDEST SWAP1 POP SWAP2 SWAP1 POP JUMP JUMPDEST PUSH1 0x0 PUSH1 0x20 DUP3 ADD SWAP1 POP DUP2 DUP2 SUB PUSH1 0x0 DUP4 ADD MSTORE PUSH2 0x6DED DUP2 PUSH2 0x6832 JUMP JUMPDEST SWAP1 POP SWAP2 SWAP1 POP JUMP JUMPDEST PUSH1 0x0 PUSH1 0x20 DUP3 ADD SWAP1 POP DUP2 DUP2 SUB PUSH1 0x0 DUP4 ADD MSTORE PUSH2 0x6E0D DUP2 PUSH2 0x6855 JUMP JUMPDEST SWAP1 POP SWAP2 SWAP1 POP JUMP JUMPDEST PUSH1 0x0 PUSH1 0x20 DUP3 ADD SWAP1 POP DUP2 DUP2 SUB PUSH1 0x0 DUP4 ADD MSTORE PUSH2 0x6E2D DUP2 PUSH2 0x6878 JUMP JUMPDEST SWAP1 POP SWAP2 SWAP1 POP JUMP JUMPDEST PUSH1 0x0 PUSH1 0x20 DUP3 ADD SWAP1 POP DUP2 DUP2 SUB PUSH1 0x0 DUP4 ADD MSTORE PUSH2 0x6E4D DUP2 PUSH2 0x689B JUMP JUMPDEST SWAP1 POP SWAP2 SWAP1 POP JUMP JUMPDEST PUSH1 0x0 PUSH1 0x20 DUP3 ADD SWAP1 POP DUP2 DUP2 SUB PUSH1 0x0 DUP4 ADD MSTORE PUSH2 0x6E6D DUP2 PUSH2 0x68BE JUMP JUMPDEST SWAP1 POP SWAP2 SWAP1 POP JUMP JUMPDEST PUSH1 0x0 PUSH1 0x20 DUP3 ADD SWAP1 POP DUP2 DUP2 SUB PUSH1 0x0 DUP4 ADD MSTORE PUSH2 0x6E8D DUP2 PUSH2 0x68E1 JUMP JUMPDEST SWAP1 POP SWAP2 SWAP1 POP JUMP JUMPDEST PUSH1 0x0 PUSH1 0x20 DUP3 ADD SWAP1 POP PUSH2 0x6EA9 PUSH1 0x0 DUP4 ADD DUP5 PUSH2 0x6904 JUMP JUMPDEST SWAP3 SWAP2 POP POP JUMP JUMPDEST PUSH1 0x0 PUSH1 0x40 DUP3 ADD SWAP1 POP PUSH2 0x6EC4 PUSH1 0x0 DUP4 ADD DUP6 PUSH2 0x6904 JUMP JUMPDEST PUSH2 0x6ED1 PUSH1 0x20 DUP4 ADD DUP5 PUSH2 0x6904 JUMP JUMPDEST SWAP4 SWAP3 POP POP POP JUMP JUMPDEST PUSH1 0x0 DUP2 MLOAD SWAP1 POP SWAP2 SWAP1 POP JUMP JUMPDEST PUSH1 0x0 DUP2 MLOAD SWAP1 POP SWAP2 SWAP1 POP JUMP JUMPDEST PUSH1 0x0 DUP2 SWAP1 POP SWAP3 SWAP2 POP POP JUMP JUMPDEST PUSH1 0x0 DUP3 DUP3 MSTORE PUSH1 0x20 DUP3 ADD SWAP1 POP SWAP3 SWAP2 POP POP JUMP JUMPDEST PUSH1 0x0 PUSH2 0x6F15 DUP3 PUSH2 0x70F8 JUMP JUMPDEST SWAP2 POP PUSH2 0x6F20 DUP4 PUSH2 0x70F8 JUMP JUMPDEST SWAP3 POP DUP3 PUSH32 0xFFFFFFFFFFFFFFFFFFFFFFFFFFFFFFFFFFFFFFFFFFFFFFFFFFFFFFFFFFFFFFFF SUB DUP3 GT ISZERO PUSH2 0x6F55 JUMPI PUSH2 0x6F54 PUSH2 0x71A8 JUMP JUMPDEST JUMPDEST DUP3 DUP3 ADD SWAP1 POP SWAP3 SWAP2 POP POP JUMP JUMPDEST PUSH1 0x0 PUSH2 0x6F6B DUP3 PUSH2 0x7102 JUMP JUMPDEST SWAP2 POP PUSH2 0x6F76 DUP4 PUSH2 0x7102 JUMP JUMPDEST SWAP3 POP DUP3 PUSH1 0xFF SUB DUP3 GT ISZERO PUSH2 0x6F8C JUMPI PUSH2 0x6F8B PUSH2 0x71A8 JUMP JUMPDEST JUMPDEST DUP3 DUP3 ADD SWAP1 POP SWAP3 SWAP2 POP POP JUMP JUMPDEST PUSH1 0x0 PUSH2 0x6FA2 DUP3 PUSH2 0x70F8 JUMP JUMPDEST SWAP2 POP PUSH2 0x6FAD DUP4 PUSH2 0x70F8 JUMP JUMPDEST SWAP3 POP DUP3 PUSH2 0x6FBD JUMPI PUSH2 0x6FBC PUSH2 0x71D7 JUMP JUMPDEST JUMPDEST DUP3 DUP3 DIV SWAP1 POP SWAP3 SWAP2 POP POP JUMP JUMPDEST PUSH1 0x0 PUSH2 0x6FD3 DUP3 PUSH2 0x70F8 JUMP JUMPDEST SWAP2 POP PUSH2 0x6FDE DUP4 PUSH2 0x70F8 JUMP JUMPDEST SWAP3 POP DUP2 PUSH32 0xFFFFFFFFFFFFFFFFFFFFFFFFFFFFFFFFFFFFFFFFFFFFFFFFFFFFFFFFFFFFFFFF DIV DUP4 GT DUP3 ISZERO ISZERO AND ISZERO PUSH2 0x7017 JUMPI PUSH2 0x7016 PUSH2 0x71A8 JUMP JUMPDEST JUMPDEST DUP3 DUP3 MUL SWAP1 POP SWAP3 SWAP2 POP POP JUMP JUMPDEST PUSH1 0x0 PUSH2 0x702D DUP3 PUSH2 0x70F8 JUMP JUMPDEST SWAP2 POP PUSH2 0x7038 DUP4 PUSH2 0x70F8 JUMP JUMPDEST SWAP3 POP DUP3 DUP3 LT ISZERO PUSH2 0x704B JUMPI PUSH2 0x704A PUSH2 0x71A8 JUMP JUMPDEST JUMPDEST DUP3 DUP3 SUB SWAP1 POP SWAP3 SWAP2 POP POP JUMP JUMPDEST PUSH1 0x0 PUSH2 0x7061 DUP3 PUSH2 0x7102 JUMP JUMPDEST SWAP2 POP PUSH2 0x706C DUP4 PUSH2 0x7102 JUMP JUMPDEST SWAP3 POP DUP3 DUP3 LT ISZERO PUSH2 0x707F JUMPI PUSH2 0x707E PUSH2 0x71A8 JUMP JUMPDEST JUMPDEST DUP3 DUP3 SUB SWAP1 POP SWAP3 SWAP2 POP POP JUMP JUMPDEST PUSH1 0x0 PUSH2 0x7095 DUP3 PUSH2 0x70D8 JUMP JUMPDEST SWAP1 POP SWAP2 SWAP1 POP JUMP JUMPDEST PUSH1 0x0 DUP2 ISZERO ISZERO SWAP1 POP SWAP2 SWAP1 POP JUMP JUMPDEST PUSH1 0x0 PUSH2 0x70B3 DUP3 PUSH2 0x708A JUMP JUMPDEST SWAP1 POP SWAP2 SWAP1 POP JUMP JUMPDEST PUSH1 0x0 PUSH18 0xFFFFFFFFFFFFFFFFFFFFFFFFFFFFFFFFFFFF DUP3 AND SWAP1 POP SWAP2 SWAP1 POP JUMP JUMPDEST PUSH1 0x0 PUSH20 0xFFFFFFFFFFFFFFFFFFFFFFFFFFFFFFFFFFFFFFFF DUP3 AND SWAP1 POP SWAP2 SWAP1 POP JUMP JUMPDEST PUSH1 0x0 DUP2 SWAP1 POP SWAP2 SWAP1 POP JUMP JUMPDEST PUSH1 0x0 PUSH1 0xFF DUP3 AND SWAP1 POP SWAP2 SWAP1 POP JUMP JUMPDEST PUSH1 0x0 PUSH2 0x711A DUP3 PUSH2 0x70F8 JUMP JUMPDEST SWAP1 POP SWAP2 SWAP1 POP JUMP JUMPDEST PUSH1 0x0 JUMPDEST DUP4 DUP2 LT ISZERO PUSH2 0x713F JUMPI DUP1 DUP3 ADD MLOAD DUP2 DUP5 ADD MSTORE PUSH1 0x20 DUP2 ADD SWAP1 POP PUSH2 0x7124 JUMP JUMPDEST DUP4 DUP2 GT ISZERO PUSH2 0x714E JUMPI PUSH1 0x0 DUP5 DUP5 ADD MSTORE JUMPDEST POP POP POP POP JUMP JUMPDEST PUSH1 0x0 PUSH2 0x715F DUP3 PUSH2 0x7102 JUMP JUMPDEST SWAP2 POP PUSH1 0x0 DUP3 EQ ISZERO PUSH2 0x7173 JUMPI PUSH2 0x7172 PUSH2 0x71A8 JUMP JUMPDEST JUMPDEST PUSH1 0x1 DUP3 SUB SWAP1 POP SWAP2 SWAP1 POP JUMP JUMPDEST PUSH1 0x0 PUSH2 0x7189 DUP3 PUSH2 0x7102 JUMP JUMPDEST SWAP2 POP PUSH1 0xFF DUP3 EQ ISZERO PUSH2 0x719D JUMPI PUSH2 0x719C PUSH2 0x71A8 JUMP JUMPDEST JUMPDEST PUSH1 0x1 DUP3 ADD SWAP1 POP SWAP2 SWAP1 POP JUMP JUMPDEST PUSH32 0x4E487B7100000000000000000000000000000000000000000000000000000000 PUSH1 0x0 MSTORE PUSH1 0x11 PUSH1 0x4 MSTORE PUSH1 0x24 PUSH1 0x0 REVERT JUMPDEST PUSH32 0x4E487B7100000000000000000000000000000000000000000000000000000000 PUSH1 0x0 MSTORE PUSH1 0x12 PUSH1 0x4 MSTORE PUSH1 0x24 PUSH1 0x0 REVERT JUMPDEST PUSH32 0x4E487B7100000000000000000000000000000000000000000000000000000000 PUSH1 0x0 MSTORE PUSH1 0x32 PUSH1 0x4 MSTORE PUSH1 0x24 PUSH1 0x0 REVERT JUMPDEST PUSH1 0x0 DUP1 REVERT JUMPDEST PUSH1 0x0 PUSH1 0x1F NOT PUSH1 0x1F DUP4 ADD AND SWAP1 POP SWAP2 SWAP1 POP JUMP JUMPDEST PUSH32 0x626F6E6400000000000000000000000000000000000000000000000000000000 PUSH1 0x0 DUP3 ADD MSTORE POP JUMP JUMPDEST PUSH32 0x54726561737572793A20696E76616C696420626F6E6420726174650000000000 PUSH1 0x0 DUP3 ADD MSTORE POP JUMP JUMPDEST PUSH32 0x5F7072656D69756D5468726573686F6C64206578636565647320746F6D625072 PUSH1 0x0 DUP3 ADD MSTORE PUSH32 0x6963654365696C696E6700000000000000000000000000000000000000000000 PUSH1 0x20 DUP3 ADD MSTORE POP JUMP JUMPDEST PUSH32 0x7A65726F00000000000000000000000000000000000000000000000000000000 PUSH1 0x0 DUP3 ADD MSTORE POP JUMP JUMPDEST PUSH32 0x54726561737572793A2063616E6E6F742072656465656D20626F6E6473207769 PUSH1 0x0 DUP3 ADD MSTORE PUSH32 0x7468207A65726F20616D6F756E74000000000000000000000000000000000000 PUSH1 0x20 DUP3 ADD MSTORE POP JUMP JUMPDEST PUSH32 0x54726561737572793A206E656564206D6F7265207065726D697373696F6E0000 PUSH1 0x0 DUP3 ADD MSTORE POP JUMP JUMPDEST PUSH32 0x54726561737572793A206661696C656420746F20636F6E73756C7420544F4D42 PUSH1 0x0 DUP3 ADD MSTORE PUSH32 0x2070726963652066726F6D20746865206F7261636C6500000000000000000000 PUSH1 0x20 DUP3 ADD MSTORE POP JUMP JUMPDEST PUSH32 0x6F7574206F662072616E67650000000000000000000000000000000000000000 PUSH1 0x0 DUP3 ADD MSTORE POP JUMP JUMPDEST PUSH32 0x54726561737572793A206E6F74206F70656E6564207965740000000000000000 PUSH1 0x0 DUP3 ADD MSTORE POP JUMP JUMPDEST PUSH32 0x5F7072656D69756D5468726573686F6C6420697320686967686572207468616E PUSH1 0x0 DUP3 ADD MSTORE PUSH32 0x20312E3500000000000000000000000000000000000000000000000000000000 PUSH1 0x20 DUP3 ADD MSTORE POP JUMP JUMPDEST PUSH32 0x416464726573733A20696E73756666696369656E742062616C616E636520666F PUSH1 0x0 DUP3 ADD MSTORE PUSH32 0x722063616C6C0000000000000000000000000000000000000000000000000000 PUSH1 0x20 DUP3 ADD MSTORE POP JUMP JUMPDEST PUSH32 0x5F7072656D69756D50657263656E74206973206F766572203230302500000000 PUSH1 0x0 DUP3 ADD MSTORE POP JUMP JUMPDEST PUSH32 0x54726561737572793A20747265617375727920686173206E6F206D6F72652062 PUSH1 0x0 DUP3 ADD MSTORE PUSH32 0x7564676574000000000000000000000000000000000000000000000000000000 PUSH1 0x20 DUP3 ADD MSTORE POP JUMP JUMPDEST PUSH32 0x5F646973636F756E7450657263656E74206973206F7665722032303025000000 PUSH1 0x0 DUP3 ADD MSTORE POP JUMP JUMPDEST PUSH32 0x54726561737572793A2063616E6E6F7420707572636861736520626F6E647320 PUSH1 0x0 DUP3 ADD MSTORE PUSH32 0x77697468207A65726F20616D6F756E7400000000000000000000000000000000 PUSH1 0x20 DUP3 ADD MSTORE POP JUMP JUMPDEST PUSH32 0x5F6D696E74696E67466163746F72466F72506179696E67446562743A206F7574 PUSH1 0x0 DUP3 ADD MSTORE PUSH32 0x206F662072616E67650000000000000000000000000000000000000000000000 PUSH1 0x20 DUP3 ADD MSTORE POP JUMP JUMPDEST PUSH32 0x5F6D6178537570706C79457870616E73696F6E50657263656E743A206F757420 PUSH1 0x0 DUP3 ADD MSTORE PUSH32 0x6F662072616E6765000000000000000000000000000000000000000000000000 PUSH1 0x20 DUP3 ADD MSTORE POP JUMP JUMPDEST PUSH32 0x746F6D6200000000000000000000000000000000000000000000000000000000 PUSH1 0x0 DUP3 ADD MSTORE POP JUMP JUMPDEST PUSH32 0x54726561737572793A20616C726561647920696E697469616C697A6564000000 PUSH1 0x0 DUP3 ADD MSTORE POP JUMP JUMPDEST PUSH32 0x496E6465782068617320746F206265206C6F776572207468616E20636F756E74 PUSH1 0x0 DUP3 ADD MSTORE PUSH32 0x206F662074696572730000000000000000000000000000000000000000000000 PUSH1 0x20 DUP3 ADD MSTORE POP JUMP JUMPDEST PUSH32 0x5F76616C75653A206F7574206F662072616E6765000000000000000000000000 PUSH1 0x0 DUP3 ADD MSTORE POP JUMP JUMPDEST PUSH32 0x496E6465782068617320746F20626520686967686572207468616E2030000000 PUSH1 0x0 DUP3 ADD MSTORE POP JUMP JUMPDEST PUSH32 0x7368617265000000000000000000000000000000000000000000000000000000 PUSH1 0x0 DUP3 ADD MSTORE POP JUMP JUMPDEST PUSH32 0x54726561737572793A2063616C6C6572206973206E6F7420746865206F706572 PUSH1 0x0 DUP3 ADD MSTORE PUSH32 0x61746F7200000000000000000000000000000000000000000000000000000000 PUSH1 0x20 DUP3 ADD MSTORE POP JUMP JUMPDEST PUSH32 0x416464726573733A2063616C6C20746F206E6F6E2D636F6E7472616374000000 PUSH1 0x0 DUP3 ADD MSTORE POP JUMP JUMPDEST PUSH32 0x54726561737572793A20544F4D42207072696365206D6F766564000000000000 PUSH1 0x0 DUP3 ADD MSTORE POP JUMP JUMPDEST PUSH32 0x6F766572206D6178206465627420726174696F00000000000000000000000000 PUSH1 0x0 DUP3 ADD MSTORE POP JUMP JUMPDEST PUSH32 0x5361666545524332303A204552433230206F7065726174696F6E20646964206E PUSH1 0x0 DUP3 ADD MSTORE PUSH32 0x6F74207375636365656400000000000000000000000000000000000000000000 PUSH1 0x20 DUP3 ADD MSTORE POP JUMP JUMPDEST PUSH32 0x436F6E747261637447756172643A206F6E6520626C6F636B2C206F6E65206675 PUSH1 0x0 DUP3 ADD MSTORE PUSH32 0x6E6374696F6E0000000000000000000000000000000000000000000000000000 PUSH1 0x20 DUP3 ADD MSTORE POP JUMP JUMPDEST PUSH32 0x5361666545524332303A20617070726F76652066726F6D206E6F6E2D7A65726F PUSH1 0x0 DUP3 ADD MSTORE PUSH32 0x20746F206E6F6E2D7A65726F20616C6C6F77616E636500000000000000000000 PUSH1 0x20 DUP3 ADD MSTORE POP JUMP JUMPDEST PUSH32 0x5F626F6F74737472617045706F6368733A206F7574206F662072616E67650000 PUSH1 0x0 DUP3 ADD MSTORE POP JUMP JUMPDEST PUSH32 0x54726561737572793A20746F6D625072696365206E6F7420656C696769626C65 PUSH1 0x0 DUP3 ADD MSTORE PUSH32 0x20666F7220626F6E642070757263686173650000000000000000000000000000 PUSH1 0x20 DUP3 ADD MSTORE POP JUMP JUMPDEST PUSH32 0x54726561737572793A206E6F7420656E6F75676820626F6E64206C6566742074 PUSH1 0x0 DUP3 ADD MSTORE PUSH32 0x6F20707572636861736500000000000000000000000000000000000000000000 PUSH1 0x20 DUP3 ADD MSTORE POP JUMP JUMPDEST PUSH32 0x5F626F6F747374726170537570706C79457870616E73696F6E50657263656E74 PUSH1 0x0 DUP3 ADD MSTORE PUSH32 0x3A206F7574206F662072616E6765000000000000000000000000000000000000 PUSH1 0x20 DUP3 ADD MSTORE POP JUMP JUMPDEST PUSH32 0x54726561737572793A206E6F7420737461727465642079657400000000000000 PUSH1 0x0 DUP3 ADD MSTORE POP JUMP JUMPDEST PUSH2 0x7A75 DUP2 PUSH2 0x708A JUMP JUMPDEST DUP2 EQ PUSH2 0x7A80 JUMPI PUSH1 0x0 DUP1 REVERT JUMPDEST POP JUMP JUMPDEST PUSH2 0x7A8C DUP2 PUSH2 0x709C JUMP JUMPDEST DUP2 EQ PUSH2 0x7A97 JUMPI PUSH1 0x0 DUP1 REVERT JUMPDEST POP JUMP JUMPDEST PUSH2 0x7AA3 DUP2 PUSH2 0x70A8 JUMP JUMPDEST DUP2 EQ PUSH2 0x7AAE JUMPI PUSH1 0x0 DUP1 REVERT JUMPDEST POP JUMP JUMPDEST PUSH2 0x7ABA DUP2 PUSH2 0x70BA JUMP JUMPDEST DUP2 EQ PUSH2 0x7AC5 JUMPI PUSH1 0x0 DUP1 REVERT JUMPDEST POP JUMP JUMPDEST PUSH2 0x7AD1 DUP2 PUSH2 0x70F8 JUMP JUMPDEST DUP2 EQ PUSH2 0x7ADC JUMPI PUSH1 0x0 DUP1 REVERT JUMPDEST POP JUMP JUMPDEST PUSH2 0x7AE8 DUP2 PUSH2 0x7102 JUMP JUMPDEST DUP2 EQ PUSH2 0x7AF3 JUMPI PUSH1 0x0 DUP1 REVERT JUMPDEST POP JUMP INVALID LOG2 PUSH5 0x6970667358 0x22 SLT KECCAK256 PUSH2 0x385E 0xDF CALLER SWAP10 STOP 0xED 0xC5 0x4A PUSH32 0x38A2147A1A406A9686C27D2F33ECF3DA6F2CE41FC364736F6C63430008070033 "
		},
		"gasEstimates": {
			"creation": {
				"codeDepositCost": "6306400",
				"executionCost": "infinite",
				"totalCost": "infinite"
			},
			"external": {
				"PERIOD()": "462",
				"allocateSeigniorage()": "infinite",
				"bondDepletionFloorPercent()": "2584",
				"bootstrapEpochs()": "2539",
				"bootstrapSupplyExpansionPercent()": "2520",
				"buyBonds(uint256,uint256)": "infinite",
				"daoFund()": "2582",
				"daoFundSharedPercent()": "2519",
				"devFund()": "2605",
				"devFundSharedPercent()": "2499",
				"discountPercent()": "2564",
				"epoch()": "2519",
				"epochSupplyContractionLeft()": "2583",
				"excludedFromTotalSupply(uint256)": "5025",
				"getBondDiscountRate()": "infinite",
				"getBondPremiumRate()": "infinite",
				"getBurnableTombLeft()": "infinite",
				"getRedeemableBonds()": "infinite",
				"getReserve()": "2593",
				"getTombCirculatingSupply()": "infinite",
				"getTombPrice()": "infinite",
				"getTombUpdatedPrice()": "infinite",
				"governanceRecoverUnsupported(address,uint256,address)": "infinite",
				"initialize(address,address,address,address,address,uint256)": "infinite",
				"initialized()": "2590",
				"isInitialized()": "2619",
				"masonry()": "2648",
				"masonryAllocateSeigniorage(uint256)": "infinite",
				"masonryGovernanceRecoverUnsupported(address,uint256,address)": "infinite",
				"masonrySetLockUp(uint256,uint256)": "infinite",
				"masonrySetOperator(address)": "infinite",
				"maxDebtRatioPercent()": "2562",
				"maxDiscountRate()": "2584",
				"maxExpansionTiers(uint256)": "infinite",
				"maxPremiumRate()": "2497",
				"maxSupplyContractionPercent()": "2495",
				"maxSupplyExpansionPercent()": "2540",
				"mintingFactorForPayingDebt()": "2563",
				"nextEpochPoint()": "infinite",
				"operator()": "2626",
				"premiumPercent()": "2540",
				"premiumThreshold()": "2562",
				"previousEpochTombPrice()": "2518",
				"redeemBonds(uint256,uint256)": "infinite",
				"seigniorageExpansionFloorPercent()": "2542",
				"seigniorageSaved()": "2497",
				"setBondDepletionFloorPercent(uint256)": "24885",
				"setBootstrap(uint256,uint256)": "infinite",
				"setDiscountPercent(uint256)": "24873",
				"setExtraFunds(address,uint256,address,uint256)": "infinite",
				"setMasonry(address)": "26981",
				"setMaxDebtRatioPercent(uint256)": "24884",
				"setMaxDiscountRate(uint256)": "24780",
				"setMaxExpansionTiersEntry(uint8,uint256)": "27445",
				"setMaxPremiumRate(uint256)": "24757",
				"setMaxSupplyContractionPercent(uint256)": "24905",
				"setMaxSupplyExpansionPercents(uint256)": "24886",
				"setMintingFactorForPayingDebt(uint256)": "24863",
				"setOperator(address)": "27003",
				"setPremiumPercent(uint256)": "24872",
				"setPremiumThreshold(uint256)": "26934",
				"setSupplyTiersEntry(uint8,uint256)": "infinite",
				"setTombOracle(address)": "27003",
				"setTombPriceCeiling(uint256)": "infinite",
				"startTime()": "2562",
				"supplyTiers(uint256)": "infinite",
				"tbond()": "2582",
				"tomb()": "2648",
				"tombOracle()": "2646",
				"tombPriceCeiling()": "2520",
				"tombPriceOne()": "2498",
				"tshare()": "2602"
			},
			"internal": {
				"_calculateMaxSupplyExpansionPercent(uint256)": "infinite",
				"_sendToMasonry(uint256)": "infinite",
				"_updateTombPrice()": "infinite"
			}
		},
		"methodIdentifiers": {
			"PERIOD()": "b4d1d795",
			"allocateSeigniorage()": "5b756179",
			"bondDepletionFloorPercent()": "81d11eaf",
			"bootstrapEpochs()": "f14698de",
			"bootstrapSupplyExpansionPercent()": "874106cc",
			"buyBonds(uint256,uint256)": "54f04a11",
			"daoFund()": "8d934f74",
			"daoFundSharedPercent()": "55ebdeef",
			"devFund()": "4390d2a8",
			"devFundSharedPercent()": "03be7e76",
			"discountPercent()": "29ef1919",
			"epoch()": "900cf0cf",
			"epochSupplyContractionLeft()": "fcb6f008",
			"excludedFromTotalSupply(uint256)": "82cad838",
			"getBondDiscountRate()": "0cf60175",
			"getBondPremiumRate()": "0db7eb0b",
			"getBurnableTombLeft()": "0cac939c",
			"getRedeemableBonds()": "72c054f9",
			"getReserve()": "59bf5d39",
			"getTombCirculatingSupply()": "8a6426e7",
			"getTombPrice()": "09bb4f92",
			"getTombUpdatedPrice()": "c5cc772d",
			"governanceRecoverUnsupported(address,uint256,address)": "54575af4",
			"initialize(address,address,address,address,address,uint256)": "95b6ef0c",
			"initialized()": "158ef93e",
			"isInitialized()": "392e53cd",
			"masonry()": "63f96cf4",
			"masonryAllocateSeigniorage(uint256)": "be266d54",
			"masonryGovernanceRecoverUnsupported(address,uint256,address)": "951357d4",
			"masonrySetLockUp(uint256,uint256)": "734f7096",
			"masonrySetOperator(address)": "62ac58e4",
			"maxDebtRatioPercent()": "da3ed419",
			"maxDiscountRate()": "b8a878f9",
			"maxExpansionTiers(uint256)": "a0487eea",
			"maxPremiumRate()": "2e9c7b65",
			"maxSupplyContractionPercent()": "e90b2454",
			"maxSupplyExpansionPercent()": "d98f2495",
			"mintingFactorForPayingDebt()": "4013a08e",
			"nextEpochPoint()": "c5967c26",
			"operator()": "570ca735",
			"premiumPercent()": "c8412d02",
			"premiumThreshold()": "c8f987f3",
			"previousEpochTombPrice()": "b3406cfc",
			"redeemBonds(uint256,uint256)": "118ebbf9",
			"seigniorageExpansionFloorPercent()": "22f832cd",
			"seigniorageSaved()": "5a0fc79c",
			"setBondDepletionFloorPercent(uint256)": "8c664db6",
			"setBootstrap(uint256,uint256)": "91bbfed5",
			"setDiscountPercent(uint256)": "154ec2db",
			"setExtraFunds(address,uint256,address,uint256)": "bcc81f19",
			"setMasonry(address)": "d5d3b26c",
			"setMaxDebtRatioPercent(uint256)": "591663e1",
			"setMaxDiscountRate(uint256)": "98b762a1",
			"setMaxExpansionTiersEntry(uint8,uint256)": "d4b14944",
			"setMaxPremiumRate(uint256)": "a204452b",
			"setMaxSupplyContractionPercent(uint256)": "cecce38e",
			"setMaxSupplyExpansionPercents(uint256)": "0b5bcec7",
			"setMintingFactorForPayingDebt(uint256)": "499f3f19",
			"setOperator(address)": "b3ab15fb",
			"setPremiumPercent(uint256)": "40af7ba5",
			"setPremiumThreshold(uint256)": "04e5c7b1",
			"setSupplyTiersEntry(uint8,uint256)": "940e6064",
			"setTombOracle(address)": "75be5ae1",
			"setTombPriceCeiling(uint256)": "3ed9ae25",
			"startTime()": "78e97925",
			"supplyTiers(uint256)": "99820025",
			"tbond()": "b981cdf3",
			"tomb()": "c040f23a",
			"tombOracle()": "f7741103",
			"tombPriceCeiling()": "19a98349",
			"tombPriceOne()": "4294cf8e",
			"tshare()": "ee6822a7"
		}
	},
	"abi": [
		{
			"anonymous": false,
			"inputs": [
				{
					"indexed": true,
					"internalType": "address",
					"name": "from",
					"type": "address"
				},
				{
					"indexed": false,
					"internalType": "uint256",
					"name": "tombAmount",
					"type": "uint256"
				},
				{
					"indexed": false,
					"internalType": "uint256",
					"name": "bondAmount",
					"type": "uint256"
				}
			],
			"name": "BoughtBonds",
			"type": "event"
		},
		{
			"anonymous": false,
			"inputs": [
				{
					"indexed": true,
					"internalType": "address",
					"name": "from",
					"type": "address"
				},
				{
					"indexed": false,
					"internalType": "uint256",
					"name": "bondAmount",
					"type": "uint256"
				}
			],
			"name": "BurnedBonds",
			"type": "event"
		},
		{
			"anonymous": false,
			"inputs": [
				{
					"indexed": false,
					"internalType": "uint256",
					"name": "timestamp",
					"type": "uint256"
				},
				{
					"indexed": false,
					"internalType": "uint256",
					"name": "seigniorage",
					"type": "uint256"
				}
			],
			"name": "DaoFundFunded",
			"type": "event"
		},
		{
			"anonymous": false,
			"inputs": [
				{
					"indexed": false,
					"internalType": "uint256",
					"name": "timestamp",
					"type": "uint256"
				},
				{
					"indexed": false,
					"internalType": "uint256",
					"name": "seigniorage",
					"type": "uint256"
				}
			],
			"name": "DevFundFunded",
			"type": "event"
		},
		{
			"anonymous": false,
			"inputs": [
				{
					"indexed": true,
					"internalType": "address",
					"name": "executor",
					"type": "address"
				},
				{
					"indexed": false,
					"internalType": "uint256",
					"name": "at",
					"type": "uint256"
				}
			],
			"name": "Initialized",
			"type": "event"
		},
		{
			"anonymous": false,
			"inputs": [
				{
					"indexed": false,
					"internalType": "uint256",
					"name": "timestamp",
					"type": "uint256"
				},
				{
					"indexed": false,
					"internalType": "uint256",
					"name": "seigniorage",
					"type": "uint256"
				}
			],
			"name": "MasonryFunded",
			"type": "event"
		},
		{
			"anonymous": false,
			"inputs": [
				{
					"indexed": true,
					"internalType": "address",
					"name": "from",
					"type": "address"
				},
				{
					"indexed": false,
					"internalType": "uint256",
					"name": "tombAmount",
					"type": "uint256"
				},
				{
					"indexed": false,
					"internalType": "uint256",
					"name": "bondAmount",
					"type": "uint256"
				}
			],
			"name": "RedeemedBonds",
			"type": "event"
		},
		{
			"anonymous": false,
			"inputs": [
				{
					"indexed": false,
					"internalType": "uint256",
					"name": "timestamp",
					"type": "uint256"
				},
				{
					"indexed": false,
					"internalType": "uint256",
					"name": "seigniorage",
					"type": "uint256"
				}
			],
			"name": "TreasuryFunded",
			"type": "event"
		},
		{
			"inputs": [],
			"name": "PERIOD",
			"outputs": [
				{
					"internalType": "uint256",
					"name": "",
					"type": "uint256"
				}
			],
			"stateMutability": "view",
			"type": "function"
		},
		{
			"inputs": [],
			"name": "allocateSeigniorage",
			"outputs": [],
			"stateMutability": "nonpayable",
			"type": "function"
		},
		{
			"inputs": [],
			"name": "bondDepletionFloorPercent",
			"outputs": [
				{
					"internalType": "uint256",
					"name": "",
					"type": "uint256"
				}
			],
			"stateMutability": "view",
			"type": "function"
		},
		{
			"inputs": [],
			"name": "bootstrapEpochs",
			"outputs": [
				{
					"internalType": "uint256",
					"name": "",
					"type": "uint256"
				}
			],
			"stateMutability": "view",
			"type": "function"
		},
		{
			"inputs": [],
			"name": "bootstrapSupplyExpansionPercent",
			"outputs": [
				{
					"internalType": "uint256",
					"name": "",
					"type": "uint256"
				}
			],
			"stateMutability": "view",
			"type": "function"
		},
		{
			"inputs": [
				{
					"internalType": "uint256",
					"name": "_tombAmount",
					"type": "uint256"
				},
				{
					"internalType": "uint256",
					"name": "targetPrice",
					"type": "uint256"
				}
			],
			"name": "buyBonds",
			"outputs": [],
			"stateMutability": "nonpayable",
			"type": "function"
		},
		{
			"inputs": [],
			"name": "daoFund",
			"outputs": [
				{
					"internalType": "address",
					"name": "",
					"type": "address"
				}
			],
			"stateMutability": "view",
			"type": "function"
		},
		{
			"inputs": [],
			"name": "daoFundSharedPercent",
			"outputs": [
				{
					"internalType": "uint256",
					"name": "",
					"type": "uint256"
				}
			],
			"stateMutability": "view",
			"type": "function"
		},
		{
			"inputs": [],
			"name": "devFund",
			"outputs": [
				{
					"internalType": "address",
					"name": "",
					"type": "address"
				}
			],
			"stateMutability": "view",
			"type": "function"
		},
		{
			"inputs": [],
			"name": "devFundSharedPercent",
			"outputs": [
				{
					"internalType": "uint256",
					"name": "",
					"type": "uint256"
				}
			],
			"stateMutability": "view",
			"type": "function"
		},
		{
			"inputs": [],
			"name": "discountPercent",
			"outputs": [
				{
					"internalType": "uint256",
					"name": "",
					"type": "uint256"
				}
			],
			"stateMutability": "view",
			"type": "function"
		},
		{
			"inputs": [],
			"name": "epoch",
			"outputs": [
				{
					"internalType": "uint256",
					"name": "",
					"type": "uint256"
				}
			],
			"stateMutability": "view",
			"type": "function"
		},
		{
			"inputs": [],
			"name": "epochSupplyContractionLeft",
			"outputs": [
				{
					"internalType": "uint256",
					"name": "",
					"type": "uint256"
				}
			],
			"stateMutability": "view",
			"type": "function"
		},
		{
			"inputs": [
				{
					"internalType": "uint256",
					"name": "",
					"type": "uint256"
				}
			],
			"name": "excludedFromTotalSupply",
			"outputs": [
				{
					"internalType": "address",
					"name": "",
					"type": "address"
				}
			],
			"stateMutability": "view",
			"type": "function"
		},
		{
			"inputs": [],
			"name": "getBondDiscountRate",
			"outputs": [
				{
					"internalType": "uint256",
					"name": "_rate",
					"type": "uint256"
				}
			],
			"stateMutability": "view",
			"type": "function"
		},
		{
			"inputs": [],
			"name": "getBondPremiumRate",
			"outputs": [
				{
					"internalType": "uint256",
					"name": "_rate",
					"type": "uint256"
				}
			],
			"stateMutability": "view",
			"type": "function"
		},
		{
			"inputs": [],
			"name": "getBurnableTombLeft",
			"outputs": [
				{
					"internalType": "uint256",
					"name": "_burnableTombLeft",
					"type": "uint256"
				}
			],
			"stateMutability": "view",
			"type": "function"
		},
		{
			"inputs": [],
			"name": "getRedeemableBonds",
			"outputs": [
				{
					"internalType": "uint256",
					"name": "_redeemableBonds",
					"type": "uint256"
				}
			],
			"stateMutability": "view",
			"type": "function"
		},
		{
			"inputs": [],
			"name": "getReserve",
			"outputs": [
				{
					"internalType": "uint256",
					"name": "",
					"type": "uint256"
				}
			],
			"stateMutability": "view",
			"type": "function"
		},
		{
			"inputs": [],
			"name": "getTombCirculatingSupply",
			"outputs": [
				{
					"internalType": "uint256",
					"name": "",
					"type": "uint256"
				}
			],
			"stateMutability": "view",
			"type": "function"
		},
		{
			"inputs": [],
			"name": "getTombPrice",
			"outputs": [
				{
					"internalType": "uint256",
					"name": "tombPrice",
					"type": "uint256"
				}
			],
			"stateMutability": "view",
			"type": "function"
		},
		{
			"inputs": [],
			"name": "getTombUpdatedPrice",
			"outputs": [
				{
					"internalType": "uint256",
					"name": "_tombPrice",
					"type": "uint256"
				}
			],
			"stateMutability": "view",
			"type": "function"
		},
		{
			"inputs": [
				{
					"internalType": "contract IERC20",
					"name": "_token",
					"type": "address"
				},
				{
					"internalType": "uint256",
					"name": "_amount",
					"type": "uint256"
				},
				{
					"internalType": "address",
					"name": "_to",
					"type": "address"
				}
			],
			"name": "governanceRecoverUnsupported",
			"outputs": [],
			"stateMutability": "nonpayable",
			"type": "function"
		},
		{
			"inputs": [
				{
					"internalType": "address",
					"name": "_tomb",
					"type": "address"
				},
				{
					"internalType": "address",
					"name": "_tbond",
					"type": "address"
				},
				{
					"internalType": "address",
					"name": "_tshare",
					"type": "address"
				},
				{
					"internalType": "address",
					"name": "_tombOracle",
					"type": "address"
				},
				{
					"internalType": "address",
					"name": "_masonry",
					"type": "address"
				},
				{
					"internalType": "uint256",
					"name": "_startTime",
					"type": "uint256"
				}
			],
			"name": "initialize",
			"outputs": [],
			"stateMutability": "nonpayable",
			"type": "function"
		},
		{
			"inputs": [],
			"name": "initialized",
			"outputs": [
				{
					"internalType": "bool",
					"name": "",
					"type": "bool"
				}
			],
			"stateMutability": "view",
			"type": "function"
		},
		{
			"inputs": [],
			"name": "isInitialized",
			"outputs": [
				{
					"internalType": "bool",
					"name": "",
					"type": "bool"
				}
			],
			"stateMutability": "view",
			"type": "function"
		},
		{
			"inputs": [],
			"name": "masonry",
			"outputs": [
				{
					"internalType": "address",
					"name": "",
					"type": "address"
				}
			],
			"stateMutability": "view",
			"type": "function"
		},
		{
			"inputs": [
				{
					"internalType": "uint256",
					"name": "amount",
					"type": "uint256"
				}
			],
			"name": "masonryAllocateSeigniorage",
			"outputs": [],
			"stateMutability": "nonpayable",
			"type": "function"
		},
		{
			"inputs": [
				{
					"internalType": "address",
					"name": "_token",
					"type": "address"
				},
				{
					"internalType": "uint256",
					"name": "_amount",
					"type": "uint256"
				},
				{
					"internalType": "address",
					"name": "_to",
					"type": "address"
				}
			],
			"name": "masonryGovernanceRecoverUnsupported",
			"outputs": [],
			"stateMutability": "nonpayable",
			"type": "function"
		},
		{
			"inputs": [
				{
					"internalType": "uint256",
					"name": "_withdrawLockupEpochs",
					"type": "uint256"
				},
				{
					"internalType": "uint256",
					"name": "_rewardLockupEpochs",
					"type": "uint256"
				}
			],
			"name": "masonrySetLockUp",
			"outputs": [],
			"stateMutability": "nonpayable",
			"type": "function"
		},
		{
			"inputs": [
				{
					"internalType": "address",
					"name": "_operator",
					"type": "address"
				}
			],
			"name": "masonrySetOperator",
			"outputs": [],
			"stateMutability": "nonpayable",
			"type": "function"
		},
		{
			"inputs": [],
			"name": "maxDebtRatioPercent",
			"outputs": [
				{
					"internalType": "uint256",
					"name": "",
					"type": "uint256"
				}
			],
			"stateMutability": "view",
			"type": "function"
		},
		{
			"inputs": [],
			"name": "maxDiscountRate",
			"outputs": [
				{
					"internalType": "uint256",
					"name": "",
					"type": "uint256"
				}
			],
			"stateMutability": "view",
			"type": "function"
		},
		{
			"inputs": [
				{
					"internalType": "uint256",
					"name": "",
					"type": "uint256"
				}
			],
			"name": "maxExpansionTiers",
			"outputs": [
				{
					"internalType": "uint256",
					"name": "",
					"type": "uint256"
				}
			],
			"stateMutability": "view",
			"type": "function"
		},
		{
			"inputs": [],
			"name": "maxPremiumRate",
			"outputs": [
				{
					"internalType": "uint256",
					"name": "",
					"type": "uint256"
				}
			],
			"stateMutability": "view",
			"type": "function"
		},
		{
			"inputs": [],
			"name": "maxSupplyContractionPercent",
			"outputs": [
				{
					"internalType": "uint256",
					"name": "",
					"type": "uint256"
				}
			],
			"stateMutability": "view",
			"type": "function"
		},
		{
			"inputs": [],
			"name": "maxSupplyExpansionPercent",
			"outputs": [
				{
					"internalType": "uint256",
					"name": "",
					"type": "uint256"
				}
			],
			"stateMutability": "view",
			"type": "function"
		},
		{
			"inputs": [],
			"name": "mintingFactorForPayingDebt",
			"outputs": [
				{
					"internalType": "uint256",
					"name": "",
					"type": "uint256"
				}
			],
			"stateMutability": "view",
			"type": "function"
		},
		{
			"inputs": [],
			"name": "nextEpochPoint",
			"outputs": [
				{
					"internalType": "uint256",
					"name": "",
					"type": "uint256"
				}
			],
			"stateMutability": "view",
			"type": "function"
		},
		{
			"inputs": [],
			"name": "operator",
			"outputs": [
				{
					"internalType": "address",
					"name": "",
					"type": "address"
				}
			],
			"stateMutability": "view",
			"type": "function"
		},
		{
			"inputs": [],
			"name": "premiumPercent",
			"outputs": [
				{
					"internalType": "uint256",
					"name": "",
					"type": "uint256"
				}
			],
			"stateMutability": "view",
			"type": "function"
		},
		{
			"inputs": [],
			"name": "premiumThreshold",
			"outputs": [
				{
					"internalType": "uint256",
					"name": "",
					"type": "uint256"
				}
			],
			"stateMutability": "view",
			"type": "function"
		},
		{
			"inputs": [],
			"name": "previousEpochTombPrice",
			"outputs": [
				{
					"internalType": "uint256",
					"name": "",
					"type": "uint256"
				}
			],
			"stateMutability": "view",
			"type": "function"
		},
		{
			"inputs": [
				{
					"internalType": "uint256",
					"name": "_bondAmount",
					"type": "uint256"
				},
				{
					"internalType": "uint256",
					"name": "targetPrice",
					"type": "uint256"
				}
			],
			"name": "redeemBonds",
			"outputs": [],
			"stateMutability": "nonpayable",
			"type": "function"
		},
		{
			"inputs": [],
			"name": "seigniorageExpansionFloorPercent",
			"outputs": [
				{
					"internalType": "uint256",
					"name": "",
					"type": "uint256"
				}
			],
			"stateMutability": "view",
			"type": "function"
		},
		{
			"inputs": [],
			"name": "seigniorageSaved",
			"outputs": [
				{
					"internalType": "uint256",
					"name": "",
					"type": "uint256"
				}
			],
			"stateMutability": "view",
			"type": "function"
		},
		{
			"inputs": [
				{
					"internalType": "uint256",
					"name": "_bondDepletionFloorPercent",
					"type": "uint256"
				}
			],
			"name": "setBondDepletionFloorPercent",
			"outputs": [],
			"stateMutability": "nonpayable",
			"type": "function"
		},
		{
			"inputs": [
				{
					"internalType": "uint256",
					"name": "_bootstrapEpochs",
					"type": "uint256"
				},
				{
					"internalType": "uint256",
					"name": "_bootstrapSupplyExpansionPercent",
					"type": "uint256"
				}
			],
			"name": "setBootstrap",
			"outputs": [],
			"stateMutability": "nonpayable",
			"type": "function"
		},
		{
			"inputs": [
				{
					"internalType": "uint256",
					"name": "_discountPercent",
					"type": "uint256"
				}
			],
			"name": "setDiscountPercent",
			"outputs": [],
			"stateMutability": "nonpayable",
			"type": "function"
		},
		{
			"inputs": [
				{
					"internalType": "address",
					"name": "_daoFund",
					"type": "address"
				},
				{
					"internalType": "uint256",
					"name": "_daoFundSharedPercent",
					"type": "uint256"
				},
				{
					"internalType": "address",
					"name": "_devFund",
					"type": "address"
				},
				{
					"internalType": "uint256",
					"name": "_devFundSharedPercent",
					"type": "uint256"
				}
			],
			"name": "setExtraFunds",
			"outputs": [],
			"stateMutability": "nonpayable",
			"type": "function"
		},
		{
			"inputs": [
				{
					"internalType": "address",
					"name": "_masonry",
					"type": "address"
				}
			],
			"name": "setMasonry",
			"outputs": [],
			"stateMutability": "nonpayable",
			"type": "function"
		},
		{
			"inputs": [
				{
					"internalType": "uint256",
					"name": "_maxDebtRatioPercent",
					"type": "uint256"
				}
			],
			"name": "setMaxDebtRatioPercent",
			"outputs": [],
			"stateMutability": "nonpayable",
			"type": "function"
		},
		{
			"inputs": [
				{
					"internalType": "uint256",
					"name": "_maxDiscountRate",
					"type": "uint256"
				}
			],
			"name": "setMaxDiscountRate",
			"outputs": [],
			"stateMutability": "nonpayable",
			"type": "function"
		},
		{
			"inputs": [
				{
					"internalType": "uint8",
					"name": "_index",
					"type": "uint8"
				},
				{
					"internalType": "uint256",
					"name": "_value",
					"type": "uint256"
				}
			],
			"name": "setMaxExpansionTiersEntry",
			"outputs": [
				{
					"internalType": "bool",
					"name": "",
					"type": "bool"
				}
			],
			"stateMutability": "nonpayable",
			"type": "function"
		},
		{
			"inputs": [
				{
					"internalType": "uint256",
					"name": "_maxPremiumRate",
					"type": "uint256"
				}
			],
			"name": "setMaxPremiumRate",
			"outputs": [],
			"stateMutability": "nonpayable",
			"type": "function"
		},
		{
			"inputs": [
				{
					"internalType": "uint256",
					"name": "_maxSupplyContractionPercent",
					"type": "uint256"
				}
			],
			"name": "setMaxSupplyContractionPercent",
			"outputs": [],
			"stateMutability": "nonpayable",
			"type": "function"
		},
		{
			"inputs": [
				{
					"internalType": "uint256",
					"name": "_maxSupplyExpansionPercent",
					"type": "uint256"
				}
			],
			"name": "setMaxSupplyExpansionPercents",
			"outputs": [],
			"stateMutability": "nonpayable",
			"type": "function"
		},
		{
			"inputs": [
				{
					"internalType": "uint256",
					"name": "_mintingFactorForPayingDebt",
					"type": "uint256"
				}
			],
			"name": "setMintingFactorForPayingDebt",
			"outputs": [],
			"stateMutability": "nonpayable",
			"type": "function"
		},
		{
			"inputs": [
				{
					"internalType": "address",
					"name": "_operator",
					"type": "address"
				}
			],
			"name": "setOperator",
			"outputs": [],
			"stateMutability": "nonpayable",
			"type": "function"
		},
		{
			"inputs": [
				{
					"internalType": "uint256",
					"name": "_premiumPercent",
					"type": "uint256"
				}
			],
			"name": "setPremiumPercent",
			"outputs": [],
			"stateMutability": "nonpayable",
			"type": "function"
		},
		{
			"inputs": [
				{
					"internalType": "uint256",
					"name": "_premiumThreshold",
					"type": "uint256"
				}
			],
			"name": "setPremiumThreshold",
			"outputs": [],
			"stateMutability": "nonpayable",
			"type": "function"
		},
		{
			"inputs": [
				{
					"internalType": "uint8",
					"name": "_index",
					"type": "uint8"
				},
				{
					"internalType": "uint256",
					"name": "_value",
					"type": "uint256"
				}
			],
			"name": "setSupplyTiersEntry",
			"outputs": [
				{
					"internalType": "bool",
					"name": "",
					"type": "bool"
				}
			],
			"stateMutability": "nonpayable",
			"type": "function"
		},
		{
			"inputs": [
				{
					"internalType": "address",
					"name": "_tombOracle",
					"type": "address"
				}
			],
			"name": "setTombOracle",
			"outputs": [],
			"stateMutability": "nonpayable",
			"type": "function"
		},
		{
			"inputs": [
				{
					"internalType": "uint256",
					"name": "_tombPriceCeiling",
					"type": "uint256"
				}
			],
			"name": "setTombPriceCeiling",
			"outputs": [],
			"stateMutability": "nonpayable",
			"type": "function"
		},
		{
			"inputs": [],
			"name": "startTime",
			"outputs": [
				{
					"internalType": "uint256",
					"name": "",
					"type": "uint256"
				}
			],
			"stateMutability": "view",
			"type": "function"
		},
		{
			"inputs": [
				{
					"internalType": "uint256",
					"name": "",
					"type": "uint256"
				}
			],
			"name": "supplyTiers",
			"outputs": [
				{
					"internalType": "uint256",
					"name": "",
					"type": "uint256"
				}
			],
			"stateMutability": "view",
			"type": "function"
		},
		{
			"inputs": [],
			"name": "tbond",
			"outputs": [
				{
					"internalType": "address",
					"name": "",
					"type": "address"
				}
			],
			"stateMutability": "view",
			"type": "function"
		},
		{
			"inputs": [],
			"name": "tomb",
			"outputs": [
				{
					"internalType": "address",
					"name": "",
					"type": "address"
				}
			],
			"stateMutability": "view",
			"type": "function"
		},
		{
			"inputs": [],
			"name": "tombOracle",
			"outputs": [
				{
					"internalType": "address",
					"name": "",
					"type": "address"
				}
			],
			"stateMutability": "view",
			"type": "function"
		},
		{
			"inputs": [],
			"name": "tombPriceCeiling",
			"outputs": [
				{
					"internalType": "uint256",
					"name": "",
					"type": "uint256"
				}
			],
			"stateMutability": "view",
			"type": "function"
		},
		{
			"inputs": [],
			"name": "tombPriceOne",
			"outputs": [
				{
					"internalType": "uint256",
					"name": "",
					"type": "uint256"
				}
			],
			"stateMutability": "view",
			"type": "function"
		},
		{
			"inputs": [],
			"name": "tshare",
			"outputs": [
				{
					"internalType": "address",
					"name": "",
					"type": "address"
				}
			],
			"stateMutability": "view",
			"type": "function"
		}
	]
}